{
	"contracts/TankToys/Tank_Partidas.sol": {
		"TankToys_Partidas": {
			"abi": [
				{
					"inputs": [
						{
							"internalType": "address",
							"name": "player",
							"type": "address"
						},
						{
							"internalType": "address[]",
							"name": "players",
							"type": "address[]"
						},
						{
							"internalType": "address[]",
							"name": "winners",
							"type": "address[]"
						},
						{
							"internalType": "bool",
							"name": "win",
							"type": "bool"
						},
						{
							"internalType": "uint256",
							"name": "kills",
							"type": "uint256"
						},
						{
							"internalType": "uint256",
							"name": "deaths",
							"type": "uint256"
						},
						{
							"internalType": "uint256",
							"name": "assists",
							"type": "uint256"
						}
					],
					"name": "addPartida",
					"outputs": [],
					"stateMutability": "nonpayable",
					"type": "function"
				},
				{
					"inputs": [
						{
							"internalType": "address",
							"name": "player",
							"type": "address"
						}
					],
					"name": "getLast10Matches",
					"outputs": [
						{
							"components": [
								{
									"internalType": "address[]",
									"name": "players",
									"type": "address[]"
								},
								{
									"internalType": "address[]",
									"name": "winners",
									"type": "address[]"
								},
								{
									"internalType": "bool",
									"name": "win",
									"type": "bool"
								},
								{
									"internalType": "uint256",
									"name": "kills",
									"type": "uint256"
								},
								{
									"internalType": "uint256",
									"name": "deaths",
									"type": "uint256"
								},
								{
									"internalType": "uint256",
									"name": "assist",
									"type": "uint256"
								}
							],
							"internalType": "struct TankToys_Partidas.partida[]",
							"name": "",
							"type": "tuple[]"
						}
					],
					"stateMutability": "view",
					"type": "function"
				},
				{
					"inputs": [
						{
							"internalType": "address",
							"name": "player",
							"type": "address"
						}
					],
					"name": "getMatches",
					"outputs": [
						{
							"components": [
								{
									"internalType": "address[]",
									"name": "players",
									"type": "address[]"
								},
								{
									"internalType": "address[]",
									"name": "winners",
									"type": "address[]"
								},
								{
									"internalType": "bool",
									"name": "win",
									"type": "bool"
								},
								{
									"internalType": "uint256",
									"name": "kills",
									"type": "uint256"
								},
								{
									"internalType": "uint256",
									"name": "deaths",
									"type": "uint256"
								},
								{
									"internalType": "uint256",
									"name": "assist",
									"type": "uint256"
								}
							],
							"internalType": "struct TankToys_Partidas.partida[]",
							"name": "",
							"type": "tuple[]"
						}
					],
					"stateMutability": "view",
					"type": "function"
				}
			],
			"devdoc": {
				"kind": "dev",
				"methods": {},
				"version": 1
			},
			"evm": {
				"assembly": "    /* \"contracts/TankToys/Tank_Partidas.sol\":61:1069  contract TankToys_Partidas {... */\n  mstore(0x40, 0x80)\n  callvalue\n  dup1\n  iszero\n  tag_1\n  jumpi\n  0x00\n  dup1\n  revert\ntag_1:\n  pop\n  dataSize(sub_0)\n  dup1\n  dataOffset(sub_0)\n  0x00\n  codecopy\n  0x00\n  return\nstop\n\nsub_0: assembly {\n        /* \"contracts/TankToys/Tank_Partidas.sol\":61:1069  contract TankToys_Partidas {... */\n      mstore(0x40, 0x80)\n      callvalue\n      dup1\n      iszero\n      tag_1\n      jumpi\n      0x00\n      dup1\n      revert\n    tag_1:\n      pop\n      jumpi(tag_2, lt(calldatasize, 0x04))\n      shr(0xe0, calldataload(0x00))\n      dup1\n      0x77795778\n      eq\n      tag_3\n      jumpi\n      dup1\n      0x7a7e4e51\n      eq\n      tag_4\n      jumpi\n      dup1\n      0xeed42420\n      eq\n      tag_5\n      jumpi\n    tag_2:\n      0x00\n      dup1\n      revert\n        /* \"contracts/TankToys/Tank_Partidas.sol\":316:432  function getMatches(address player) public view returns (partida[] memory){... */\n    tag_3:\n      tag_6\n      0x04\n      dup1\n      calldatasize\n      sub\n      dup2\n      add\n      swap1\n      tag_7\n      swap2\n      swap1\n      tag_8\n      jump\t// in\n    tag_7:\n      tag_9\n      jump\t// in\n    tag_6:\n      mload(0x40)\n      tag_10\n      swap2\n      swap1\n      tag_11\n      jump\t// in\n    tag_10:\n      mload(0x40)\n      dup1\n      swap2\n      sub\n      swap1\n      return\n        /* \"contracts/TankToys/Tank_Partidas.sol\":818:1054  function addPartida(address player, address[] memory players, address[] memory winners, bool win, uint kills, uint deaths, uint assists) public  {... */\n    tag_4:\n      tag_12\n      0x04\n      dup1\n      calldatasize\n      sub\n      dup2\n      add\n      swap1\n      tag_13\n      swap2\n      swap1\n      tag_14\n      jump\t// in\n    tag_13:\n      tag_15\n      jump\t// in\n    tag_12:\n      stop\n        /* \"contracts/TankToys/Tank_Partidas.sol\":440:810  function getLast10Matches(address player) public view returns (partida[] memory) {... */\n    tag_5:\n      tag_16\n      0x04\n      dup1\n      calldatasize\n      sub\n      dup2\n      add\n      swap1\n      tag_17\n      swap2\n      swap1\n      tag_8\n      jump\t// in\n    tag_17:\n      tag_18\n      jump\t// in\n    tag_16:\n      mload(0x40)\n      tag_19\n      swap2\n      swap1\n      tag_11\n      jump\t// in\n    tag_19:\n      mload(0x40)\n      dup1\n      swap2\n      sub\n      swap1\n      return\n        /* \"contracts/TankToys/Tank_Partidas.sol\":316:432  function getMatches(address player) public view returns (partida[] memory){... */\n    tag_9:\n        /* \"contracts/TankToys/Tank_Partidas.sol\":373:389  partida[] memory */\n      0x60\n        /* \"contracts/TankToys/Tank_Partidas.sol\":408:416  partidas */\n      0x00\n        /* \"contracts/TankToys/Tank_Partidas.sol\":408:424  partidas[player] */\n      dup1\n        /* \"contracts/TankToys/Tank_Partidas.sol\":417:423  player */\n      dup4\n        /* \"contracts/TankToys/Tank_Partidas.sol\":408:424  partidas[player] */\n      0xffffffffffffffffffffffffffffffffffffffff\n      and\n      0xffffffffffffffffffffffffffffffffffffffff\n      and\n      dup2\n      mstore\n      0x20\n      add\n      swap1\n      dup2\n      mstore\n      0x20\n      add\n      0x00\n      keccak256\n        /* \"contracts/TankToys/Tank_Partidas.sol\":401:424  return partidas[player] */\n      dup1\n      sload\n      dup1\n      0x20\n      mul\n      0x20\n      add\n      mload(0x40)\n      swap1\n      dup2\n      add\n      0x40\n      mstore\n      dup1\n      swap3\n      swap2\n      swap1\n      dup2\n      dup2\n      mstore\n      0x20\n      add\n      0x00\n      swap1\n    tag_21:\n      dup3\n      dup3\n      lt\n      iszero\n      tag_22\n      jumpi\n      dup4\n      dup3\n      swap1\n      0x00\n      mstore\n      keccak256(0x00, 0x20)\n      swap1\n      0x06\n      mul\n      add\n      mload(0x40)\n      dup1\n      0xc0\n      add\n      0x40\n      mstore\n      swap1\n      dup2\n      0x00\n      dup3\n      add\n      dup1\n      sload\n      dup1\n      0x20\n      mul\n      0x20\n      add\n      mload(0x40)\n      swap1\n      dup2\n      add\n      0x40\n      mstore\n      dup1\n      swap3\n      swap2\n      swap1\n      dup2\n      dup2\n      mstore\n      0x20\n      add\n      dup3\n      dup1\n      sload\n      dup1\n      iszero\n      tag_24\n      jumpi\n      0x20\n      mul\n      dup3\n      add\n      swap2\n      swap1\n      0x00\n      mstore\n      keccak256(0x00, 0x20)\n      swap1\n    tag_25:\n      dup2\n      0x00\n      swap1\n      sload\n      swap1\n      0x0100\n      exp\n      swap1\n      div\n      0xffffffffffffffffffffffffffffffffffffffff\n      and\n      0xffffffffffffffffffffffffffffffffffffffff\n      and\n      dup2\n      mstore\n      0x20\n      add\n      swap1\n      0x01\n      add\n      swap1\n      dup1\n      dup4\n      gt\n      tag_25\n      jumpi\n    tag_24:\n      pop\n      pop\n      pop\n      pop\n      pop\n      dup2\n      mstore\n      0x20\n      add\n      0x01\n      dup3\n      add\n      dup1\n      sload\n      dup1\n      0x20\n      mul\n      0x20\n      add\n      mload(0x40)\n      swap1\n      dup2\n      add\n      0x40\n      mstore\n      dup1\n      swap3\n      swap2\n      swap1\n      dup2\n      dup2\n      mstore\n      0x20\n      add\n      dup3\n      dup1\n      sload\n      dup1\n      iszero\n      tag_26\n      jumpi\n      0x20\n      mul\n      dup3\n      add\n      swap2\n      swap1\n      0x00\n      mstore\n      keccak256(0x00, 0x20)\n      swap1\n    tag_27:\n      dup2\n      0x00\n      swap1\n      sload\n      swap1\n      0x0100\n      exp\n      swap1\n      div\n      0xffffffffffffffffffffffffffffffffffffffff\n      and\n      0xffffffffffffffffffffffffffffffffffffffff\n      and\n      dup2\n      mstore\n      0x20\n      add\n      swap1\n      0x01\n      add\n      swap1\n      dup1\n      dup4\n      gt\n      tag_27\n      jumpi\n    tag_26:\n      pop\n      pop\n      pop\n      pop\n      pop\n      dup2\n      mstore\n      0x20\n      add\n      0x02\n      dup3\n      add\n      0x00\n      swap1\n      sload\n      swap1\n      0x0100\n      exp\n      swap1\n      div\n      0xff\n      and\n      iszero\n      iszero\n      iszero\n      iszero\n      dup2\n      mstore\n      0x20\n      add\n      0x03\n      dup3\n      add\n      sload\n      dup2\n      mstore\n      0x20\n      add\n      0x04\n      dup3\n      add\n      sload\n      dup2\n      mstore\n      0x20\n      add\n      0x05\n      dup3\n      add\n      sload\n      dup2\n      mstore\n      pop\n      pop\n      dup2\n      mstore\n      0x20\n      add\n      swap1\n      0x01\n      add\n      swap1\n      jump(tag_21)\n    tag_22:\n      pop\n      pop\n      pop\n      pop\n      swap1\n      pop\n        /* \"contracts/TankToys/Tank_Partidas.sol\":316:432  function getMatches(address player) public view returns (partida[] memory){... */\n      swap2\n      swap1\n      pop\n      jump\t// out\n        /* \"contracts/TankToys/Tank_Partidas.sol\":818:1054  function addPartida(address player, address[] memory players, address[] memory winners, bool win, uint kills, uint deaths, uint assists) public  {... */\n    tag_15:\n        /* \"contracts/TankToys/Tank_Partidas.sol\":974:982  partidas */\n      0x00\n        /* \"contracts/TankToys/Tank_Partidas.sol\":974:990  partidas[player] */\n      dup1\n        /* \"contracts/TankToys/Tank_Partidas.sol\":983:989  player */\n      dup9\n        /* \"contracts/TankToys/Tank_Partidas.sol\":974:990  partidas[player] */\n      0xffffffffffffffffffffffffffffffffffffffff\n      and\n      0xffffffffffffffffffffffffffffffffffffffff\n      and\n      dup2\n      mstore\n      0x20\n      add\n      swap1\n      dup2\n      mstore\n      0x20\n      add\n      0x00\n      keccak256\n        /* \"contracts/TankToys/Tank_Partidas.sol\":996:1045  partida(players,winners,win,kills,deaths,assists) */\n      mload(0x40)\n      dup1\n      0xc0\n      add\n      0x40\n      mstore\n      dup1\n        /* \"contracts/TankToys/Tank_Partidas.sol\":1004:1011  players */\n      dup9\n        /* \"contracts/TankToys/Tank_Partidas.sol\":996:1045  partida(players,winners,win,kills,deaths,assists) */\n      dup2\n      mstore\n      0x20\n      add\n        /* \"contracts/TankToys/Tank_Partidas.sol\":1012:1019  winners */\n      dup8\n        /* \"contracts/TankToys/Tank_Partidas.sol\":996:1045  partida(players,winners,win,kills,deaths,assists) */\n      dup2\n      mstore\n      0x20\n      add\n        /* \"contracts/TankToys/Tank_Partidas.sol\":1020:1023  win */\n      dup7\n        /* \"contracts/TankToys/Tank_Partidas.sol\":996:1045  partida(players,winners,win,kills,deaths,assists) */\n      iszero\n      iszero\n      dup2\n      mstore\n      0x20\n      add\n        /* \"contracts/TankToys/Tank_Partidas.sol\":1024:1029  kills */\n      dup6\n        /* \"contracts/TankToys/Tank_Partidas.sol\":996:1045  partida(players,winners,win,kills,deaths,assists) */\n      dup2\n      mstore\n      0x20\n      add\n        /* \"contracts/TankToys/Tank_Partidas.sol\":1030:1036  deaths */\n      dup5\n        /* \"contracts/TankToys/Tank_Partidas.sol\":996:1045  partida(players,winners,win,kills,deaths,assists) */\n      dup2\n      mstore\n      0x20\n      add\n        /* \"contracts/TankToys/Tank_Partidas.sol\":1037:1044  assists */\n      dup4\n        /* \"contracts/TankToys/Tank_Partidas.sol\":996:1045  partida(players,winners,win,kills,deaths,assists) */\n      dup2\n      mstore\n      pop\n        /* \"contracts/TankToys/Tank_Partidas.sol\":974:1046  partidas[player].push(partida(players,winners,win,kills,deaths,assists)) */\n      swap1\n      dup1\n      0x01\n      dup2\n      sload\n      add\n      dup1\n      dup3\n      sstore\n      dup1\n      swap2\n      pop\n      pop\n      0x01\n      swap1\n      sub\n      swap1\n      0x00\n      mstore\n      keccak256(0x00, 0x20)\n      swap1\n      0x06\n      mul\n      add\n      0x00\n      swap1\n      swap2\n      swap1\n      swap2\n      swap1\n      swap2\n      pop\n      0x00\n      dup3\n      add\n      mload\n      dup2\n      0x00\n      add\n      swap1\n      dup1\n      mload\n      swap1\n      0x20\n      add\n      swap1\n      tag_30\n      swap3\n      swap2\n      swap1\n      tag_31\n      jump\t// in\n    tag_30:\n      pop\n      0x20\n      dup3\n      add\n      mload\n      dup2\n      0x01\n      add\n      swap1\n      dup1\n      mload\n      swap1\n      0x20\n      add\n      swap1\n      tag_32\n      swap3\n      swap2\n      swap1\n      tag_31\n      jump\t// in\n    tag_32:\n      pop\n      0x40\n      dup3\n      add\n      mload\n      dup2\n      0x02\n      add\n      exp(0x0100, 0x00)\n      dup2\n      sload\n      dup2\n      0xff\n      mul\n      not\n      and\n      swap1\n      dup4\n      iszero\n      iszero\n      mul\n      or\n      swap1\n      sstore\n      pop\n      0x60\n      dup3\n      add\n      mload\n      dup2\n      0x03\n      add\n      sstore\n      0x80\n      dup3\n      add\n      mload\n      dup2\n      0x04\n      add\n      sstore\n      0xa0\n      dup3\n      add\n      mload\n      dup2\n      0x05\n      add\n      sstore\n      pop\n      pop\n        /* \"contracts/TankToys/Tank_Partidas.sol\":818:1054  function addPartida(address player, address[] memory players, address[] memory winners, bool win, uint kills, uint deaths, uint assists) public  {... */\n      pop\n      pop\n      pop\n      pop\n      pop\n      pop\n      pop\n      jump\t// out\n        /* \"contracts/TankToys/Tank_Partidas.sol\":440:810  function getLast10Matches(address player) public view returns (partida[] memory) {... */\n    tag_18:\n        /* \"contracts/TankToys/Tank_Partidas.sol\":503:519  partida[] memory */\n      0x60\n        /* \"contracts/TankToys/Tank_Partidas.sol\":532:552  partida[] memory arr */\n      0x00\n        /* \"contracts/TankToys/Tank_Partidas.sol\":569:571  10 */\n      0x0a\n        /* \"contracts/TankToys/Tank_Partidas.sol\":555:572  new partida[](10) */\n      0xffffffffffffffff\n      dup2\n      gt\n      iszero\n      tag_34\n      jumpi\n      tag_35\n      tag_36\n      jump\t// in\n    tag_35:\n    tag_34:\n      mload(0x40)\n      swap1\n      dup1\n      dup3\n      mstore\n      dup1\n      0x20\n      mul\n      0x20\n      add\n      dup3\n      add\n      0x40\n      mstore\n      dup1\n      iszero\n      tag_37\n      jumpi\n      dup2\n      0x20\n      add\n    tag_38:\n      tag_39\n      tag_40\n      jump\t// in\n    tag_39:\n      dup2\n      mstore\n      0x20\n      add\n      swap1\n      0x01\n      swap1\n      sub\n      swap1\n      dup2\n      tag_38\n      jumpi\n      swap1\n      pop\n    tag_37:\n      pop\n        /* \"contracts/TankToys/Tank_Partidas.sol\":532:572  partida[] memory arr = new partida[](10) */\n      swap1\n      pop\n        /* \"contracts/TankToys/Tank_Partidas.sol\":583:592  uint cont */\n      0x00\n        /* \"contracts/TankToys/Tank_Partidas.sol\":612:618  uint i */\n      dup1\n        /* \"contracts/TankToys/Tank_Partidas.sol\":621:629  partidas */\n      dup1\n        /* \"contracts/TankToys/Tank_Partidas.sol\":621:637  partidas[player] */\n      0x00\n        /* \"contracts/TankToys/Tank_Partidas.sol\":630:636  player */\n      dup7\n        /* \"contracts/TankToys/Tank_Partidas.sol\":621:637  partidas[player] */\n      0xffffffffffffffffffffffffffffffffffffffff\n      and\n      0xffffffffffffffffffffffffffffffffffffffff\n      and\n      dup2\n      mstore\n      0x20\n      add\n      swap1\n      dup2\n      mstore\n      0x20\n      add\n      0x00\n      keccak256\n        /* \"contracts/TankToys/Tank_Partidas.sol\":621:644  partidas[player].length */\n      dup1\n      sload\n      swap1\n      pop\n        /* \"contracts/TankToys/Tank_Partidas.sol\":612:644  uint i = partidas[player].length */\n      swap1\n      pop\n        /* \"contracts/TankToys/Tank_Partidas.sol\":607:776  for (uint i = partidas[player].length; i > (partidas[player].length - 10); i--) ... */\n    tag_41:\n        /* \"contracts/TankToys/Tank_Partidas.sol\":677:679  10 */\n      0x0a\n        /* \"contracts/TankToys/Tank_Partidas.sol\":651:659  partidas */\n      0x00\n        /* \"contracts/TankToys/Tank_Partidas.sol\":651:667  partidas[player] */\n      dup1\n        /* \"contracts/TankToys/Tank_Partidas.sol\":660:666  player */\n      dup8\n        /* \"contracts/TankToys/Tank_Partidas.sol\":651:667  partidas[player] */\n      0xffffffffffffffffffffffffffffffffffffffff\n      and\n      0xffffffffffffffffffffffffffffffffffffffff\n      and\n      dup2\n      mstore\n      0x20\n      add\n      swap1\n      dup2\n      mstore\n      0x20\n      add\n      0x00\n      keccak256\n        /* \"contracts/TankToys/Tank_Partidas.sol\":651:674  partidas[player].length */\n      dup1\n      sload\n      swap1\n      pop\n        /* \"contracts/TankToys/Tank_Partidas.sol\":651:679  partidas[player].length - 10 */\n      tag_44\n      swap2\n      swap1\n      tag_45\n      jump\t// in\n    tag_44:\n        /* \"contracts/TankToys/Tank_Partidas.sol\":646:647  i */\n      dup2\n        /* \"contracts/TankToys/Tank_Partidas.sol\":646:680  i > (partidas[player].length - 10) */\n      gt\n        /* \"contracts/TankToys/Tank_Partidas.sol\":607:776  for (uint i = partidas[player].length; i > (partidas[player].length - 10); i--) ... */\n      iszero\n      tag_42\n      jumpi\n        /* \"contracts/TankToys/Tank_Partidas.sol\":724:732  partidas */\n      0x00\n        /* \"contracts/TankToys/Tank_Partidas.sol\":724:740  partidas[player] */\n      dup1\n        /* \"contracts/TankToys/Tank_Partidas.sol\":733:739  player */\n      dup7\n        /* \"contracts/TankToys/Tank_Partidas.sol\":724:740  partidas[player] */\n      0xffffffffffffffffffffffffffffffffffffffff\n      and\n      0xffffffffffffffffffffffffffffffffffffffff\n      and\n      dup2\n      mstore\n      0x20\n      add\n      swap1\n      dup2\n      mstore\n      0x20\n      add\n      0x00\n      keccak256\n        /* \"contracts/TankToys/Tank_Partidas.sol\":741:742  i */\n      dup2\n        /* \"contracts/TankToys/Tank_Partidas.sol\":724:743  partidas[player][i] */\n      dup2\n      sload\n      dup2\n      lt\n      tag_46\n      jumpi\n      tag_47\n      tag_48\n      jump\t// in\n    tag_47:\n    tag_46:\n      swap1\n      0x00\n      mstore\n      keccak256(0x00, 0x20)\n      swap1\n      0x06\n      mul\n      add\n        /* \"contracts/TankToys/Tank_Partidas.sol\":712:743  arr[cont] = partidas[player][i] */\n      mload(0x40)\n      dup1\n      0xc0\n      add\n      0x40\n      mstore\n      swap1\n      dup2\n      0x00\n      dup3\n      add\n      dup1\n      sload\n      dup1\n      0x20\n      mul\n      0x20\n      add\n      mload(0x40)\n      swap1\n      dup2\n      add\n      0x40\n      mstore\n      dup1\n      swap3\n      swap2\n      swap1\n      dup2\n      dup2\n      mstore\n      0x20\n      add\n      dup3\n      dup1\n      sload\n      dup1\n      iszero\n      tag_50\n      jumpi\n      0x20\n      mul\n      dup3\n      add\n      swap2\n      swap1\n      0x00\n      mstore\n      keccak256(0x00, 0x20)\n      swap1\n    tag_51:\n      dup2\n      0x00\n      swap1\n      sload\n      swap1\n      0x0100\n      exp\n      swap1\n      div\n      0xffffffffffffffffffffffffffffffffffffffff\n      and\n      0xffffffffffffffffffffffffffffffffffffffff\n      and\n      dup2\n      mstore\n      0x20\n      add\n      swap1\n      0x01\n      add\n      swap1\n      dup1\n      dup4\n      gt\n      tag_51\n      jumpi\n    tag_50:\n      pop\n      pop\n      pop\n      pop\n      pop\n      dup2\n      mstore\n      0x20\n      add\n      0x01\n      dup3\n      add\n      dup1\n      sload\n      dup1\n      0x20\n      mul\n      0x20\n      add\n      mload(0x40)\n      swap1\n      dup2\n      add\n      0x40\n      mstore\n      dup1\n      swap3\n      swap2\n      swap1\n      dup2\n      dup2\n      mstore\n      0x20\n      add\n      dup3\n      dup1\n      sload\n      dup1\n      iszero\n      tag_52\n      jumpi\n      0x20\n      mul\n      dup3\n      add\n      swap2\n      swap1\n      0x00\n      mstore\n      keccak256(0x00, 0x20)\n      swap1\n    tag_53:\n      dup2\n      0x00\n      swap1\n      sload\n      swap1\n      0x0100\n      exp\n      swap1\n      div\n      0xffffffffffffffffffffffffffffffffffffffff\n      and\n      0xffffffffffffffffffffffffffffffffffffffff\n      and\n      dup2\n      mstore\n      0x20\n      add\n      swap1\n      0x01\n      add\n      swap1\n      dup1\n      dup4\n      gt\n      tag_53\n      jumpi\n    tag_52:\n      pop\n      pop\n      pop\n      pop\n      pop\n      dup2\n      mstore\n      0x20\n      add\n      0x02\n      dup3\n      add\n      0x00\n      swap1\n      sload\n      swap1\n      0x0100\n      exp\n      swap1\n      div\n      0xff\n      and\n      iszero\n      iszero\n      iszero\n      iszero\n      dup2\n      mstore\n      0x20\n      add\n      0x03\n      dup3\n      add\n      sload\n      dup2\n      mstore\n      0x20\n      add\n      0x04\n      dup3\n      add\n      sload\n      dup2\n      mstore\n      0x20\n      add\n      0x05\n      dup3\n      add\n      sload\n      dup2\n      mstore\n      pop\n      pop\n        /* \"contracts/TankToys/Tank_Partidas.sol\":712:715  arr */\n      dup4\n        /* \"contracts/TankToys/Tank_Partidas.sol\":716:720  cont */\n      dup4\n        /* \"contracts/TankToys/Tank_Partidas.sol\":712:721  arr[cont] */\n      dup2\n      mload\n      dup2\n      lt\n      tag_54\n      jumpi\n      tag_55\n      tag_48\n      jump\t// in\n    tag_55:\n    tag_54:\n      0x20\n      mul\n      0x20\n      add\n      add\n        /* \"contracts/TankToys/Tank_Partidas.sol\":712:743  arr[cont] = partidas[player][i] */\n      dup2\n      swap1\n      mstore\n      pop\n        /* \"contracts/TankToys/Tank_Partidas.sol\":758:764  cont++ */\n      dup2\n      dup1\n      tag_56\n      swap1\n      tag_57\n      jump\t// in\n    tag_56:\n      swap3\n      pop\n      pop\n        /* \"contracts/TankToys/Tank_Partidas.sol\":682:685  i-- */\n      dup1\n      dup1\n      tag_58\n      swap1\n      tag_59\n      jump\t// in\n    tag_58:\n      swap2\n      pop\n      pop\n        /* \"contracts/TankToys/Tank_Partidas.sol\":607:776  for (uint i = partidas[player].length; i > (partidas[player].length - 10); i--) ... */\n      jump(tag_41)\n    tag_42:\n      pop\n        /* \"contracts/TankToys/Tank_Partidas.sol\":799:802  arr */\n      dup2\n        /* \"contracts/TankToys/Tank_Partidas.sol\":791:802  return  arr */\n      swap3\n      pop\n      pop\n      pop\n        /* \"contracts/TankToys/Tank_Partidas.sol\":440:810  function getLast10Matches(address player) public view returns (partida[] memory) {... */\n      swap2\n      swap1\n      pop\n      jump\t// out\n    tag_31:\n      dup3\n      dup1\n      sload\n      dup3\n      dup3\n      sstore\n      swap1\n      0x00\n      mstore\n      keccak256(0x00, 0x20)\n      swap1\n      dup2\n      add\n      swap3\n      dup3\n      iszero\n      tag_60\n      jumpi\n      swap2\n      0x20\n      mul\n      dup3\n      add\n    tag_61:\n      dup3\n      dup2\n      gt\n      iszero\n      tag_62\n      jumpi\n      dup3\n      mload\n      dup3\n      exp(0x0100, 0x00)\n      dup2\n      sload\n      dup2\n      0xffffffffffffffffffffffffffffffffffffffff\n      mul\n      not\n      and\n      swap1\n      dup4\n      0xffffffffffffffffffffffffffffffffffffffff\n      and\n      mul\n      or\n      swap1\n      sstore\n      pop\n      swap2\n      0x20\n      add\n      swap2\n      swap1\n      0x01\n      add\n      swap1\n      jump(tag_61)\n    tag_62:\n    tag_60:\n      pop\n      swap1\n      pop\n      tag_63\n      swap2\n      swap1\n      tag_64\n      jump\t// in\n    tag_63:\n      pop\n      swap1\n      jump\t// out\n    tag_40:\n      mload(0x40)\n      dup1\n      0xc0\n      add\n      0x40\n      mstore\n      dup1\n      0x60\n      dup2\n      mstore\n      0x20\n      add\n      0x60\n      dup2\n      mstore\n      0x20\n      add\n      iszero(iszero(0x00))\n      dup2\n      mstore\n      0x20\n      add\n      0x00\n      dup2\n      mstore\n      0x20\n      add\n      0x00\n      dup2\n      mstore\n      0x20\n      add\n      0x00\n      dup2\n      mstore\n      pop\n      swap1\n      jump\t// out\n    tag_64:\n    tag_65:\n      dup1\n      dup3\n      gt\n      iszero\n      tag_66\n      jumpi\n      0x00\n      dup2\n      0x00\n      swap1\n      sstore\n      pop\n      0x01\n      add\n      jump(tag_65)\n    tag_66:\n      pop\n      swap1\n      jump\t// out\n        /* \"#utility.yul\":7:82   */\n    tag_67:\n        /* \"#utility.yul\":40:46   */\n      0x00\n        /* \"#utility.yul\":73:75   */\n      0x40\n        /* \"#utility.yul\":67:76   */\n      mload\n        /* \"#utility.yul\":57:76   */\n      swap1\n      pop\n        /* \"#utility.yul\":7:82   */\n      swap1\n      jump\t// out\n        /* \"#utility.yul\":88:205   */\n    tag_68:\n        /* \"#utility.yul\":197:198   */\n      0x00\n        /* \"#utility.yul\":194:195   */\n      dup1\n        /* \"#utility.yul\":187:199   */\n      revert\n        /* \"#utility.yul\":211:328   */\n    tag_69:\n        /* \"#utility.yul\":320:321   */\n      0x00\n        /* \"#utility.yul\":317:318   */\n      dup1\n        /* \"#utility.yul\":310:322   */\n      revert\n        /* \"#utility.yul\":334:460   */\n    tag_70:\n        /* \"#utility.yul\":371:378   */\n      0x00\n        /* \"#utility.yul\":411:453   */\n      0xffffffffffffffffffffffffffffffffffffffff\n        /* \"#utility.yul\":404:409   */\n      dup3\n        /* \"#utility.yul\":400:454   */\n      and\n        /* \"#utility.yul\":389:454   */\n      swap1\n      pop\n        /* \"#utility.yul\":334:460   */\n      swap2\n      swap1\n      pop\n      jump\t// out\n        /* \"#utility.yul\":466:562   */\n    tag_71:\n        /* \"#utility.yul\":503:510   */\n      0x00\n        /* \"#utility.yul\":532:556   */\n      tag_111\n        /* \"#utility.yul\":550:555   */\n      dup3\n        /* \"#utility.yul\":532:556   */\n      tag_70\n      jump\t// in\n    tag_111:\n        /* \"#utility.yul\":521:556   */\n      swap1\n      pop\n        /* \"#utility.yul\":466:562   */\n      swap2\n      swap1\n      pop\n      jump\t// out\n        /* \"#utility.yul\":568:690   */\n    tag_72:\n        /* \"#utility.yul\":641:665   */\n      tag_113\n        /* \"#utility.yul\":659:664   */\n      dup2\n        /* \"#utility.yul\":641:665   */\n      tag_71\n      jump\t// in\n    tag_113:\n        /* \"#utility.yul\":634:639   */\n      dup2\n        /* \"#utility.yul\":631:666   */\n      eq\n        /* \"#utility.yul\":621:684   */\n      tag_114\n      jumpi\n        /* \"#utility.yul\":680:681   */\n      0x00\n        /* \"#utility.yul\":677:678   */\n      dup1\n        /* \"#utility.yul\":670:682   */\n      revert\n        /* \"#utility.yul\":621:684   */\n    tag_114:\n        /* \"#utility.yul\":568:690   */\n      pop\n      jump\t// out\n        /* \"#utility.yul\":696:835   */\n    tag_73:\n        /* \"#utility.yul\":742:747   */\n      0x00\n        /* \"#utility.yul\":780:786   */\n      dup2\n        /* \"#utility.yul\":767:787   */\n      calldataload\n        /* \"#utility.yul\":758:787   */\n      swap1\n      pop\n        /* \"#utility.yul\":796:829   */\n      tag_116\n        /* \"#utility.yul\":823:828   */\n      dup2\n        /* \"#utility.yul\":796:829   */\n      tag_72\n      jump\t// in\n    tag_116:\n        /* \"#utility.yul\":696:835   */\n      swap3\n      swap2\n      pop\n      pop\n      jump\t// out\n        /* \"#utility.yul\":841:1170   */\n    tag_8:\n        /* \"#utility.yul\":900:906   */\n      0x00\n        /* \"#utility.yul\":949:951   */\n      0x20\n        /* \"#utility.yul\":937:946   */\n      dup3\n        /* \"#utility.yul\":928:935   */\n      dup5\n        /* \"#utility.yul\":924:947   */\n      sub\n        /* \"#utility.yul\":920:952   */\n      slt\n        /* \"#utility.yul\":917:1036   */\n      iszero\n      tag_118\n      jumpi\n        /* \"#utility.yul\":955:1034   */\n      tag_119\n      tag_68\n      jump\t// in\n    tag_119:\n        /* \"#utility.yul\":917:1036   */\n    tag_118:\n        /* \"#utility.yul\":1075:1076   */\n      0x00\n        /* \"#utility.yul\":1100:1153   */\n      tag_120\n        /* \"#utility.yul\":1145:1152   */\n      dup5\n        /* \"#utility.yul\":1136:1142   */\n      dup3\n        /* \"#utility.yul\":1125:1134   */\n      dup6\n        /* \"#utility.yul\":1121:1143   */\n      add\n        /* \"#utility.yul\":1100:1153   */\n      tag_73\n      jump\t// in\n    tag_120:\n        /* \"#utility.yul\":1090:1153   */\n      swap2\n      pop\n        /* \"#utility.yul\":1046:1163   */\n      pop\n        /* \"#utility.yul\":841:1170   */\n      swap3\n      swap2\n      pop\n      pop\n      jump\t// out\n        /* \"#utility.yul\":1176:1313   */\n    tag_74:\n        /* \"#utility.yul\":1266:1272   */\n      0x00\n        /* \"#utility.yul\":1300:1305   */\n      dup2\n        /* \"#utility.yul\":1294:1306   */\n      mload\n        /* \"#utility.yul\":1284:1306   */\n      swap1\n      pop\n        /* \"#utility.yul\":1176:1313   */\n      swap2\n      swap1\n      pop\n      jump\t// out\n        /* \"#utility.yul\":1319:1526   */\n    tag_75:\n        /* \"#utility.yul\":1441:1452   */\n      0x00\n        /* \"#utility.yul\":1475:1481   */\n      dup3\n        /* \"#utility.yul\":1470:1473   */\n      dup3\n        /* \"#utility.yul\":1463:1482   */\n      mstore\n        /* \"#utility.yul\":1515:1519   */\n      0x20\n        /* \"#utility.yul\":1510:1513   */\n      dup3\n        /* \"#utility.yul\":1506:1520   */\n      add\n        /* \"#utility.yul\":1491:1520   */\n      swap1\n      pop\n        /* \"#utility.yul\":1319:1526   */\n      swap3\n      swap2\n      pop\n      pop\n      jump\t// out\n        /* \"#utility.yul\":1532:1687   */\n    tag_76:\n        /* \"#utility.yul\":1622:1626   */\n      0x00\n        /* \"#utility.yul\":1645:1648   */\n      dup2\n        /* \"#utility.yul\":1637:1648   */\n      swap1\n      pop\n        /* \"#utility.yul\":1675:1679   */\n      0x20\n        /* \"#utility.yul\":1670:1673   */\n      dup3\n        /* \"#utility.yul\":1666:1680   */\n      add\n        /* \"#utility.yul\":1658:1680   */\n      swap1\n      pop\n        /* \"#utility.yul\":1532:1687   */\n      swap2\n      swap1\n      pop\n      jump\t// out\n        /* \"#utility.yul\":1693:1807   */\n    tag_77:\n        /* \"#utility.yul\":1760:1766   */\n      0x00\n        /* \"#utility.yul\":1794:1799   */\n      dup2\n        /* \"#utility.yul\":1788:1800   */\n      mload\n        /* \"#utility.yul\":1778:1800   */\n      swap1\n      pop\n        /* \"#utility.yul\":1693:1807   */\n      swap2\n      swap1\n      pop\n      jump\t// out\n        /* \"#utility.yul\":1813:1987   */\n    tag_78:\n        /* \"#utility.yul\":1902:1913   */\n      0x00\n        /* \"#utility.yul\":1936:1942   */\n      dup3\n        /* \"#utility.yul\":1931:1934   */\n      dup3\n        /* \"#utility.yul\":1924:1943   */\n      mstore\n        /* \"#utility.yul\":1976:1980   */\n      0x20\n        /* \"#utility.yul\":1971:1974   */\n      dup3\n        /* \"#utility.yul\":1967:1981   */\n      add\n        /* \"#utility.yul\":1952:1981   */\n      swap1\n      pop\n        /* \"#utility.yul\":1813:1987   */\n      swap3\n      swap2\n      pop\n      pop\n      jump\t// out\n        /* \"#utility.yul\":1993:2125   */\n    tag_79:\n        /* \"#utility.yul\":2060:2064   */\n      0x00\n        /* \"#utility.yul\":2083:2086   */\n      dup2\n        /* \"#utility.yul\":2075:2086   */\n      swap1\n      pop\n        /* \"#utility.yul\":2113:2117   */\n      0x20\n        /* \"#utility.yul\":2108:2111   */\n      dup3\n        /* \"#utility.yul\":2104:2118   */\n      add\n        /* \"#utility.yul\":2096:2118   */\n      swap1\n      pop\n        /* \"#utility.yul\":1993:2125   */\n      swap2\n      swap1\n      pop\n      jump\t// out\n        /* \"#utility.yul\":2131:2239   */\n    tag_80:\n        /* \"#utility.yul\":2208:2232   */\n      tag_128\n        /* \"#utility.yul\":2226:2231   */\n      dup2\n        /* \"#utility.yul\":2208:2232   */\n      tag_71\n      jump\t// in\n    tag_128:\n        /* \"#utility.yul\":2203:2206   */\n      dup3\n        /* \"#utility.yul\":2196:2233   */\n      mstore\n        /* \"#utility.yul\":2131:2239   */\n      pop\n      pop\n      jump\t// out\n        /* \"#utility.yul\":2245:2424   */\n    tag_81:\n        /* \"#utility.yul\":2314:2324   */\n      0x00\n        /* \"#utility.yul\":2335:2381   */\n      tag_130\n        /* \"#utility.yul\":2377:2380   */\n      dup4\n        /* \"#utility.yul\":2369:2375   */\n      dup4\n        /* \"#utility.yul\":2335:2381   */\n      tag_80\n      jump\t// in\n    tag_130:\n        /* \"#utility.yul\":2413:2417   */\n      0x20\n        /* \"#utility.yul\":2408:2411   */\n      dup4\n        /* \"#utility.yul\":2404:2418   */\n      add\n        /* \"#utility.yul\":2390:2418   */\n      swap1\n      pop\n        /* \"#utility.yul\":2245:2424   */\n      swap3\n      swap2\n      pop\n      pop\n      jump\t// out\n        /* \"#utility.yul\":2430:2543   */\n    tag_82:\n        /* \"#utility.yul\":2500:2504   */\n      0x00\n        /* \"#utility.yul\":2532:2536   */\n      0x20\n        /* \"#utility.yul\":2527:2530   */\n      dup3\n        /* \"#utility.yul\":2523:2537   */\n      add\n        /* \"#utility.yul\":2515:2537   */\n      swap1\n      pop\n        /* \"#utility.yul\":2430:2543   */\n      swap2\n      swap1\n      pop\n      jump\t// out\n        /* \"#utility.yul\":2579:3291   */\n    tag_83:\n        /* \"#utility.yul\":2688:2691   */\n      0x00\n        /* \"#utility.yul\":2717:2771   */\n      tag_133\n        /* \"#utility.yul\":2765:2770   */\n      dup3\n        /* \"#utility.yul\":2717:2771   */\n      tag_77\n      jump\t// in\n    tag_133:\n        /* \"#utility.yul\":2787:2863   */\n      tag_134\n        /* \"#utility.yul\":2856:2862   */\n      dup2\n        /* \"#utility.yul\":2851:2854   */\n      dup6\n        /* \"#utility.yul\":2787:2863   */\n      tag_78\n      jump\t// in\n    tag_134:\n        /* \"#utility.yul\":2780:2863   */\n      swap4\n      pop\n        /* \"#utility.yul\":2887:2943   */\n      tag_135\n        /* \"#utility.yul\":2937:2942   */\n      dup4\n        /* \"#utility.yul\":2887:2943   */\n      tag_79\n      jump\t// in\n    tag_135:\n        /* \"#utility.yul\":2966:2973   */\n      dup1\n        /* \"#utility.yul\":2997:2998   */\n      0x00\n        /* \"#utility.yul\":2982:3266   */\n    tag_136:\n        /* \"#utility.yul\":3007:3013   */\n      dup4\n        /* \"#utility.yul\":3004:3005   */\n      dup2\n        /* \"#utility.yul\":3001:3014   */\n      lt\n        /* \"#utility.yul\":2982:3266   */\n      iszero\n      tag_138\n      jumpi\n        /* \"#utility.yul\":3083:3089   */\n      dup2\n        /* \"#utility.yul\":3077:3090   */\n      mload\n        /* \"#utility.yul\":3110:3173   */\n      tag_139\n        /* \"#utility.yul\":3169:3172   */\n      dup9\n        /* \"#utility.yul\":3154:3167   */\n      dup3\n        /* \"#utility.yul\":3110:3173   */\n      tag_81\n      jump\t// in\n    tag_139:\n        /* \"#utility.yul\":3103:3173   */\n      swap8\n      pop\n        /* \"#utility.yul\":3196:3256   */\n      tag_140\n        /* \"#utility.yul\":3249:3255   */\n      dup4\n        /* \"#utility.yul\":3196:3256   */\n      tag_82\n      jump\t// in\n    tag_140:\n        /* \"#utility.yul\":3186:3256   */\n      swap3\n      pop\n        /* \"#utility.yul\":3042:3266   */\n      pop\n        /* \"#utility.yul\":3029:3030   */\n      0x01\n        /* \"#utility.yul\":3026:3027   */\n      dup2\n        /* \"#utility.yul\":3022:3031   */\n      add\n        /* \"#utility.yul\":3017:3031   */\n      swap1\n      pop\n        /* \"#utility.yul\":2982:3266   */\n      jump(tag_136)\n    tag_138:\n        /* \"#utility.yul\":2986:3000   */\n      pop\n        /* \"#utility.yul\":3282:3285   */\n      dup6\n        /* \"#utility.yul\":3275:3285   */\n      swap4\n      pop\n        /* \"#utility.yul\":2693:3291   */\n      pop\n      pop\n      pop\n        /* \"#utility.yul\":2579:3291   */\n      swap3\n      swap2\n      pop\n      pop\n      jump\t// out\n        /* \"#utility.yul\":3297:3387   */\n    tag_84:\n        /* \"#utility.yul\":3331:3338   */\n      0x00\n        /* \"#utility.yul\":3374:3379   */\n      dup2\n        /* \"#utility.yul\":3367:3380   */\n      iszero\n        /* \"#utility.yul\":3360:3381   */\n      iszero\n        /* \"#utility.yul\":3349:3381   */\n      swap1\n      pop\n        /* \"#utility.yul\":3297:3387   */\n      swap2\n      swap1\n      pop\n      jump\t// out\n        /* \"#utility.yul\":3393:3492   */\n    tag_85:\n        /* \"#utility.yul\":3464:3485   */\n      tag_143\n        /* \"#utility.yul\":3479:3484   */\n      dup2\n        /* \"#utility.yul\":3464:3485   */\n      tag_84\n      jump\t// in\n    tag_143:\n        /* \"#utility.yul\":3459:3462   */\n      dup3\n        /* \"#utility.yul\":3452:3486   */\n      mstore\n        /* \"#utility.yul\":3393:3492   */\n      pop\n      pop\n      jump\t// out\n        /* \"#utility.yul\":3498:3575   */\n    tag_86:\n        /* \"#utility.yul\":3535:3542   */\n      0x00\n        /* \"#utility.yul\":3564:3569   */\n      dup2\n        /* \"#utility.yul\":3553:3569   */\n      swap1\n      pop\n        /* \"#utility.yul\":3498:3575   */\n      swap2\n      swap1\n      pop\n      jump\t// out\n        /* \"#utility.yul\":3581:3689   */\n    tag_87:\n        /* \"#utility.yul\":3658:3682   */\n      tag_146\n        /* \"#utility.yul\":3676:3681   */\n      dup2\n        /* \"#utility.yul\":3658:3682   */\n      tag_86\n      jump\t// in\n    tag_146:\n        /* \"#utility.yul\":3653:3656   */\n      dup3\n        /* \"#utility.yul\":3646:3683   */\n      mstore\n        /* \"#utility.yul\":3581:3689   */\n      pop\n      pop\n      jump\t// out\n        /* \"#utility.yul\":3771:5194   */\n    tag_88:\n        /* \"#utility.yul\":3876:3879   */\n      0x00\n        /* \"#utility.yul\":3912:3916   */\n      0xc0\n        /* \"#utility.yul\":3907:3910   */\n      dup4\n        /* \"#utility.yul\":3903:3917   */\n      add\n        /* \"#utility.yul\":4002:4006   */\n      0x00\n        /* \"#utility.yul\":3995:4000   */\n      dup4\n        /* \"#utility.yul\":3991:4007   */\n      add\n        /* \"#utility.yul\":3985:4008   */\n      mload\n        /* \"#utility.yul\":4055:4058   */\n      dup5\n        /* \"#utility.yul\":4049:4053   */\n      dup3\n        /* \"#utility.yul\":4045:4059   */\n      sub\n        /* \"#utility.yul\":4038:4042   */\n      0x00\n        /* \"#utility.yul\":4033:4036   */\n      dup7\n        /* \"#utility.yul\":4029:4043   */\n      add\n        /* \"#utility.yul\":4022:4060   */\n      mstore\n        /* \"#utility.yul\":4081:4184   */\n      tag_148\n        /* \"#utility.yul\":4179:4183   */\n      dup3\n        /* \"#utility.yul\":4165:4177   */\n      dup3\n        /* \"#utility.yul\":4081:4184   */\n      tag_83\n      jump\t// in\n    tag_148:\n        /* \"#utility.yul\":4073:4184   */\n      swap2\n      pop\n        /* \"#utility.yul\":3927:4195   */\n      pop\n        /* \"#utility.yul\":4280:4284   */\n      0x20\n        /* \"#utility.yul\":4273:4278   */\n      dup4\n        /* \"#utility.yul\":4269:4285   */\n      add\n        /* \"#utility.yul\":4263:4286   */\n      mload\n        /* \"#utility.yul\":4333:4336   */\n      dup5\n        /* \"#utility.yul\":4327:4331   */\n      dup3\n        /* \"#utility.yul\":4323:4337   */\n      sub\n        /* \"#utility.yul\":4316:4320   */\n      0x20\n        /* \"#utility.yul\":4311:4314   */\n      dup7\n        /* \"#utility.yul\":4307:4321   */\n      add\n        /* \"#utility.yul\":4300:4338   */\n      mstore\n        /* \"#utility.yul\":4359:4462   */\n      tag_149\n        /* \"#utility.yul\":4457:4461   */\n      dup3\n        /* \"#utility.yul\":4443:4455   */\n      dup3\n        /* \"#utility.yul\":4359:4462   */\n      tag_83\n      jump\t// in\n    tag_149:\n        /* \"#utility.yul\":4351:4462   */\n      swap2\n      pop\n        /* \"#utility.yul\":4205:4473   */\n      pop\n        /* \"#utility.yul\":4554:4558   */\n      0x40\n        /* \"#utility.yul\":4547:4552   */\n      dup4\n        /* \"#utility.yul\":4543:4559   */\n      add\n        /* \"#utility.yul\":4537:4560   */\n      mload\n        /* \"#utility.yul\":4573:4630   */\n      tag_150\n        /* \"#utility.yul\":4624:4628   */\n      0x40\n        /* \"#utility.yul\":4619:4622   */\n      dup7\n        /* \"#utility.yul\":4615:4629   */\n      add\n        /* \"#utility.yul\":4601:4613   */\n      dup3\n        /* \"#utility.yul\":4573:4630   */\n      tag_85\n      jump\t// in\n    tag_150:\n        /* \"#utility.yul\":4483:4640   */\n      pop\n        /* \"#utility.yul\":4723:4727   */\n      0x60\n        /* \"#utility.yul\":4716:4721   */\n      dup4\n        /* \"#utility.yul\":4712:4728   */\n      add\n        /* \"#utility.yul\":4706:4729   */\n      mload\n        /* \"#utility.yul\":4742:4805   */\n      tag_151\n        /* \"#utility.yul\":4799:4803   */\n      0x60\n        /* \"#utility.yul\":4794:4797   */\n      dup7\n        /* \"#utility.yul\":4790:4804   */\n      add\n        /* \"#utility.yul\":4776:4788   */\n      dup3\n        /* \"#utility.yul\":4742:4805   */\n      tag_87\n      jump\t// in\n    tag_151:\n        /* \"#utility.yul\":4650:4815   */\n      pop\n        /* \"#utility.yul\":4899:4903   */\n      0x80\n        /* \"#utility.yul\":4892:4897   */\n      dup4\n        /* \"#utility.yul\":4888:4904   */\n      add\n        /* \"#utility.yul\":4882:4905   */\n      mload\n        /* \"#utility.yul\":4918:4981   */\n      tag_152\n        /* \"#utility.yul\":4975:4979   */\n      0x80\n        /* \"#utility.yul\":4970:4973   */\n      dup7\n        /* \"#utility.yul\":4966:4980   */\n      add\n        /* \"#utility.yul\":4952:4964   */\n      dup3\n        /* \"#utility.yul\":4918:4981   */\n      tag_87\n      jump\t// in\n    tag_152:\n        /* \"#utility.yul\":4825:4991   */\n      pop\n        /* \"#utility.yul\":5075:5079   */\n      0xa0\n        /* \"#utility.yul\":5068:5073   */\n      dup4\n        /* \"#utility.yul\":5064:5080   */\n      add\n        /* \"#utility.yul\":5058:5081   */\n      mload\n        /* \"#utility.yul\":5094:5157   */\n      tag_153\n        /* \"#utility.yul\":5151:5155   */\n      0xa0\n        /* \"#utility.yul\":5146:5149   */\n      dup7\n        /* \"#utility.yul\":5142:5156   */\n      add\n        /* \"#utility.yul\":5128:5140   */\n      dup3\n        /* \"#utility.yul\":5094:5157   */\n      tag_87\n      jump\t// in\n    tag_153:\n        /* \"#utility.yul\":5001:5167   */\n      pop\n        /* \"#utility.yul\":5184:5188   */\n      dup1\n        /* \"#utility.yul\":5177:5188   */\n      swap2\n      pop\n        /* \"#utility.yul\":3881:5194   */\n      pop\n        /* \"#utility.yul\":3771:5194   */\n      swap3\n      swap2\n      pop\n      pop\n      jump\t// out\n        /* \"#utility.yul\":5200:5448   */\n    tag_89:\n        /* \"#utility.yul\":5315:5325   */\n      0x00\n        /* \"#utility.yul\":5350:5442   */\n      tag_155\n        /* \"#utility.yul\":5438:5441   */\n      dup4\n        /* \"#utility.yul\":5430:5436   */\n      dup4\n        /* \"#utility.yul\":5350:5442   */\n      tag_88\n      jump\t// in\n    tag_155:\n        /* \"#utility.yul\":5336:5442   */\n      swap1\n      pop\n        /* \"#utility.yul\":5200:5448   */\n      swap3\n      swap2\n      pop\n      pop\n      jump\t// out\n        /* \"#utility.yul\":5454:5590   */\n    tag_90:\n        /* \"#utility.yul\":5547:5551   */\n      0x00\n        /* \"#utility.yul\":5579:5583   */\n      0x20\n        /* \"#utility.yul\":5574:5577   */\n      dup3\n        /* \"#utility.yul\":5570:5584   */\n      add\n        /* \"#utility.yul\":5562:5584   */\n      swap1\n      pop\n        /* \"#utility.yul\":5454:5590   */\n      swap2\n      swap1\n      pop\n      jump\t// out\n        /* \"#utility.yul\":5676:6771   */\n    tag_91:\n        /* \"#utility.yul\":5841:5844   */\n      0x00\n        /* \"#utility.yul\":5870:5947   */\n      tag_158\n        /* \"#utility.yul\":5941:5946   */\n      dup3\n        /* \"#utility.yul\":5870:5947   */\n      tag_74\n      jump\t// in\n    tag_158:\n        /* \"#utility.yul\":5963:6072   */\n      tag_159\n        /* \"#utility.yul\":6065:6071   */\n      dup2\n        /* \"#utility.yul\":6060:6063   */\n      dup6\n        /* \"#utility.yul\":5963:6072   */\n      tag_75\n      jump\t// in\n    tag_159:\n        /* \"#utility.yul\":5956:6072   */\n      swap4\n      pop\n        /* \"#utility.yul\":6098:6101   */\n      dup4\n        /* \"#utility.yul\":6143:6147   */\n      0x20\n        /* \"#utility.yul\":6135:6141   */\n      dup3\n        /* \"#utility.yul\":6131:6148   */\n      mul\n        /* \"#utility.yul\":6126:6129   */\n      dup6\n        /* \"#utility.yul\":6122:6149   */\n      add\n        /* \"#utility.yul\":6173:6252   */\n      tag_160\n        /* \"#utility.yul\":6246:6251   */\n      dup6\n        /* \"#utility.yul\":6173:6252   */\n      tag_76\n      jump\t// in\n    tag_160:\n        /* \"#utility.yul\":6275:6282   */\n      dup1\n        /* \"#utility.yul\":6306:6307   */\n      0x00\n        /* \"#utility.yul\":6291:6726   */\n    tag_161:\n        /* \"#utility.yul\":6316:6322   */\n      dup6\n        /* \"#utility.yul\":6313:6314   */\n      dup2\n        /* \"#utility.yul\":6310:6323   */\n      lt\n        /* \"#utility.yul\":6291:6726   */\n      iszero\n      tag_163\n      jumpi\n        /* \"#utility.yul\":6387:6396   */\n      dup5\n        /* \"#utility.yul\":6381:6385   */\n      dup5\n        /* \"#utility.yul\":6377:6397   */\n      sub\n        /* \"#utility.yul\":6372:6375   */\n      dup10\n        /* \"#utility.yul\":6365:6398   */\n      mstore\n        /* \"#utility.yul\":6438:6444   */\n      dup2\n        /* \"#utility.yul\":6432:6445   */\n      mload\n        /* \"#utility.yul\":6466:6576   */\n      tag_164\n        /* \"#utility.yul\":6571:6575   */\n      dup6\n        /* \"#utility.yul\":6556:6569   */\n      dup3\n        /* \"#utility.yul\":6466:6576   */\n      tag_89\n      jump\t// in\n    tag_164:\n        /* \"#utility.yul\":6458:6576   */\n      swap5\n      pop\n        /* \"#utility.yul\":6599:6682   */\n      tag_165\n        /* \"#utility.yul\":6675:6681   */\n      dup4\n        /* \"#utility.yul\":6599:6682   */\n      tag_90\n      jump\t// in\n    tag_165:\n        /* \"#utility.yul\":6589:6682   */\n      swap3\n      pop\n        /* \"#utility.yul\":6711:6715   */\n      0x20\n        /* \"#utility.yul\":6706:6709   */\n      dup11\n        /* \"#utility.yul\":6702:6716   */\n      add\n        /* \"#utility.yul\":6695:6716   */\n      swap10\n      pop\n        /* \"#utility.yul\":6351:6726   */\n      pop\n        /* \"#utility.yul\":6338:6339   */\n      0x01\n        /* \"#utility.yul\":6335:6336   */\n      dup2\n        /* \"#utility.yul\":6331:6340   */\n      add\n        /* \"#utility.yul\":6326:6340   */\n      swap1\n      pop\n        /* \"#utility.yul\":6291:6726   */\n      jump(tag_161)\n    tag_163:\n        /* \"#utility.yul\":6295:6309   */\n      pop\n        /* \"#utility.yul\":6742:6746   */\n      dup3\n        /* \"#utility.yul\":6735:6746   */\n      swap8\n      pop\n        /* \"#utility.yul\":6762:6765   */\n      dup8\n        /* \"#utility.yul\":6755:6765   */\n      swap6\n      pop\n        /* \"#utility.yul\":5846:6771   */\n      pop\n      pop\n      pop\n      pop\n      pop\n        /* \"#utility.yul\":5676:6771   */\n      swap3\n      swap2\n      pop\n      pop\n      jump\t// out\n        /* \"#utility.yul\":6777:7242   */\n    tag_11:\n        /* \"#utility.yul\":6966:6970   */\n      0x00\n        /* \"#utility.yul\":7004:7006   */\n      0x20\n        /* \"#utility.yul\":6993:7002   */\n      dup3\n        /* \"#utility.yul\":6989:7007   */\n      add\n        /* \"#utility.yul\":6981:7007   */\n      swap1\n      pop\n        /* \"#utility.yul\":7053:7062   */\n      dup2\n        /* \"#utility.yul\":7047:7051   */\n      dup2\n        /* \"#utility.yul\":7043:7063   */\n      sub\n        /* \"#utility.yul\":7039:7040   */\n      0x00\n        /* \"#utility.yul\":7028:7037   */\n      dup4\n        /* \"#utility.yul\":7024:7041   */\n      add\n        /* \"#utility.yul\":7017:7064   */\n      mstore\n        /* \"#utility.yul\":7081:7235   */\n      tag_167\n        /* \"#utility.yul\":7230:7234   */\n      dup2\n        /* \"#utility.yul\":7221:7227   */\n      dup5\n        /* \"#utility.yul\":7081:7235   */\n      tag_91\n      jump\t// in\n    tag_167:\n        /* \"#utility.yul\":7073:7235   */\n      swap1\n      pop\n        /* \"#utility.yul\":6777:7242   */\n      swap3\n      swap2\n      pop\n      pop\n      jump\t// out\n        /* \"#utility.yul\":7248:7365   */\n    tag_92:\n        /* \"#utility.yul\":7357:7358   */\n      0x00\n        /* \"#utility.yul\":7354:7355   */\n      dup1\n        /* \"#utility.yul\":7347:7359   */\n      revert\n        /* \"#utility.yul\":7371:7473   */\n    tag_93:\n        /* \"#utility.yul\":7412:7418   */\n      0x00\n        /* \"#utility.yul\":7463:7465   */\n      0x1f\n        /* \"#utility.yul\":7459:7466   */\n      not\n        /* \"#utility.yul\":7454:7456   */\n      0x1f\n        /* \"#utility.yul\":7447:7452   */\n      dup4\n        /* \"#utility.yul\":7443:7457   */\n      add\n        /* \"#utility.yul\":7439:7467   */\n      and\n        /* \"#utility.yul\":7429:7467   */\n      swap1\n      pop\n        /* \"#utility.yul\":7371:7473   */\n      swap2\n      swap1\n      pop\n      jump\t// out\n        /* \"#utility.yul\":7479:7659   */\n    tag_36:\n        /* \"#utility.yul\":7527:7604   */\n      0x4e487b7100000000000000000000000000000000000000000000000000000000\n        /* \"#utility.yul\":7524:7525   */\n      0x00\n        /* \"#utility.yul\":7517:7605   */\n      mstore\n        /* \"#utility.yul\":7624:7628   */\n      0x41\n        /* \"#utility.yul\":7621:7622   */\n      0x04\n        /* \"#utility.yul\":7614:7629   */\n      mstore\n        /* \"#utility.yul\":7648:7652   */\n      0x24\n        /* \"#utility.yul\":7645:7646   */\n      0x00\n        /* \"#utility.yul\":7638:7653   */\n      revert\n        /* \"#utility.yul\":7665:7946   */\n    tag_94:\n        /* \"#utility.yul\":7748:7775   */\n      tag_172\n        /* \"#utility.yul\":7770:7774   */\n      dup3\n        /* \"#utility.yul\":7748:7775   */\n      tag_93\n      jump\t// in\n    tag_172:\n        /* \"#utility.yul\":7740:7746   */\n      dup2\n        /* \"#utility.yul\":7736:7776   */\n      add\n        /* \"#utility.yul\":7878:7884   */\n      dup2\n        /* \"#utility.yul\":7866:7876   */\n      dup2\n        /* \"#utility.yul\":7863:7885   */\n      lt\n        /* \"#utility.yul\":7842:7860   */\n      0xffffffffffffffff\n        /* \"#utility.yul\":7830:7840   */\n      dup3\n        /* \"#utility.yul\":7827:7861   */\n      gt\n        /* \"#utility.yul\":7824:7886   */\n      or\n        /* \"#utility.yul\":7821:7909   */\n      iszero\n      tag_173\n      jumpi\n        /* \"#utility.yul\":7889:7907   */\n      tag_174\n      tag_36\n      jump\t// in\n    tag_174:\n        /* \"#utility.yul\":7821:7909   */\n    tag_173:\n        /* \"#utility.yul\":7929:7939   */\n      dup1\n        /* \"#utility.yul\":7925:7927   */\n      0x40\n        /* \"#utility.yul\":7918:7940   */\n      mstore\n        /* \"#utility.yul\":7708:7946   */\n      pop\n        /* \"#utility.yul\":7665:7946   */\n      pop\n      pop\n      jump\t// out\n        /* \"#utility.yul\":7952:8081   */\n    tag_95:\n        /* \"#utility.yul\":7986:7992   */\n      0x00\n        /* \"#utility.yul\":8013:8033   */\n      tag_176\n      tag_67\n      jump\t// in\n    tag_176:\n        /* \"#utility.yul\":8003:8033   */\n      swap1\n      pop\n        /* \"#utility.yul\":8042:8075   */\n      tag_177\n        /* \"#utility.yul\":8070:8074   */\n      dup3\n        /* \"#utility.yul\":8062:8068   */\n      dup3\n        /* \"#utility.yul\":8042:8075   */\n      tag_94\n      jump\t// in\n    tag_177:\n        /* \"#utility.yul\":7952:8081   */\n      swap2\n      swap1\n      pop\n      jump\t// out\n        /* \"#utility.yul\":8087:8398   */\n    tag_96:\n        /* \"#utility.yul\":8164:8168   */\n      0x00\n        /* \"#utility.yul\":8254:8272   */\n      0xffffffffffffffff\n        /* \"#utility.yul\":8246:8252   */\n      dup3\n        /* \"#utility.yul\":8243:8273   */\n      gt\n        /* \"#utility.yul\":8240:8296   */\n      iszero\n      tag_179\n      jumpi\n        /* \"#utility.yul\":8276:8294   */\n      tag_180\n      tag_36\n      jump\t// in\n    tag_180:\n        /* \"#utility.yul\":8240:8296   */\n    tag_179:\n        /* \"#utility.yul\":8326:8330   */\n      0x20\n        /* \"#utility.yul\":8318:8324   */\n      dup3\n        /* \"#utility.yul\":8314:8331   */\n      mul\n        /* \"#utility.yul\":8306:8331   */\n      swap1\n      pop\n        /* \"#utility.yul\":8386:8390   */\n      0x20\n        /* \"#utility.yul\":8380:8384   */\n      dup2\n        /* \"#utility.yul\":8376:8391   */\n      add\n        /* \"#utility.yul\":8368:8391   */\n      swap1\n      pop\n        /* \"#utility.yul\":8087:8398   */\n      swap2\n      swap1\n      pop\n      jump\t// out\n        /* \"#utility.yul\":8404:8521   */\n    tag_97:\n        /* \"#utility.yul\":8513:8514   */\n      0x00\n        /* \"#utility.yul\":8510:8511   */\n      dup1\n        /* \"#utility.yul\":8503:8515   */\n      revert\n        /* \"#utility.yul\":8544:9254   */\n    tag_98:\n        /* \"#utility.yul\":8640:8645   */\n      0x00\n        /* \"#utility.yul\":8665:8746   */\n      tag_183\n        /* \"#utility.yul\":8681:8745   */\n      tag_184\n        /* \"#utility.yul\":8738:8744   */\n      dup5\n        /* \"#utility.yul\":8681:8745   */\n      tag_96\n      jump\t// in\n    tag_184:\n        /* \"#utility.yul\":8665:8746   */\n      tag_95\n      jump\t// in\n    tag_183:\n        /* \"#utility.yul\":8656:8746   */\n      swap1\n      pop\n        /* \"#utility.yul\":8766:8771   */\n      dup1\n        /* \"#utility.yul\":8795:8801   */\n      dup4\n        /* \"#utility.yul\":8788:8793   */\n      dup3\n        /* \"#utility.yul\":8781:8802   */\n      mstore\n        /* \"#utility.yul\":8829:8833   */\n      0x20\n        /* \"#utility.yul\":8822:8827   */\n      dup3\n        /* \"#utility.yul\":8818:8834   */\n      add\n        /* \"#utility.yul\":8811:8834   */\n      swap1\n      pop\n        /* \"#utility.yul\":8882:8886   */\n      0x20\n        /* \"#utility.yul\":8874:8880   */\n      dup5\n        /* \"#utility.yul\":8870:8887   */\n      mul\n        /* \"#utility.yul\":8862:8868   */\n      dup4\n        /* \"#utility.yul\":8858:8888   */\n      add\n        /* \"#utility.yul\":8911:8914   */\n      dup6\n        /* \"#utility.yul\":8903:8909   */\n      dup2\n        /* \"#utility.yul\":8900:8915   */\n      gt\n        /* \"#utility.yul\":8897:9019   */\n      iszero\n      tag_185\n      jumpi\n        /* \"#utility.yul\":8930:9009   */\n      tag_186\n      tag_97\n      jump\t// in\n    tag_186:\n        /* \"#utility.yul\":8897:9019   */\n    tag_185:\n        /* \"#utility.yul\":9045:9051   */\n      dup4\n        /* \"#utility.yul\":9028:9248   */\n    tag_187:\n        /* \"#utility.yul\":9062:9068   */\n      dup2\n        /* \"#utility.yul\":9057:9060   */\n      dup2\n        /* \"#utility.yul\":9054:9069   */\n      lt\n        /* \"#utility.yul\":9028:9248   */\n      iszero\n      tag_189\n      jumpi\n        /* \"#utility.yul\":9137:9140   */\n      dup1\n        /* \"#utility.yul\":9166:9203   */\n      tag_190\n        /* \"#utility.yul\":9199:9202   */\n      dup9\n        /* \"#utility.yul\":9187:9197   */\n      dup3\n        /* \"#utility.yul\":9166:9203   */\n      tag_73\n      jump\t// in\n    tag_190:\n        /* \"#utility.yul\":9161:9164   */\n      dup5\n        /* \"#utility.yul\":9154:9204   */\n      mstore\n        /* \"#utility.yul\":9233:9237   */\n      0x20\n        /* \"#utility.yul\":9228:9231   */\n      dup5\n        /* \"#utility.yul\":9224:9238   */\n      add\n        /* \"#utility.yul\":9217:9238   */\n      swap4\n      pop\n        /* \"#utility.yul\":9104:9248   */\n      pop\n        /* \"#utility.yul\":9088:9092   */\n      0x20\n        /* \"#utility.yul\":9083:9086   */\n      dup2\n        /* \"#utility.yul\":9079:9093   */\n      add\n        /* \"#utility.yul\":9072:9093   */\n      swap1\n      pop\n        /* \"#utility.yul\":9028:9248   */\n      jump(tag_187)\n    tag_189:\n        /* \"#utility.yul\":9032:9053   */\n      pop\n        /* \"#utility.yul\":8646:9254   */\n      pop\n      pop\n        /* \"#utility.yul\":8544:9254   */\n      swap4\n      swap3\n      pop\n      pop\n      pop\n      jump\t// out\n        /* \"#utility.yul\":9277:9647   */\n    tag_99:\n        /* \"#utility.yul\":9348:9353   */\n      0x00\n        /* \"#utility.yul\":9397:9400   */\n      dup3\n        /* \"#utility.yul\":9390:9394   */\n      0x1f\n        /* \"#utility.yul\":9382:9388   */\n      dup4\n        /* \"#utility.yul\":9378:9395   */\n      add\n        /* \"#utility.yul\":9374:9401   */\n      slt\n        /* \"#utility.yul\":9364:9486   */\n      tag_192\n      jumpi\n        /* \"#utility.yul\":9405:9484   */\n      tag_193\n      tag_92\n      jump\t// in\n    tag_193:\n        /* \"#utility.yul\":9364:9486   */\n    tag_192:\n        /* \"#utility.yul\":9522:9528   */\n      dup2\n        /* \"#utility.yul\":9509:9529   */\n      calldataload\n        /* \"#utility.yul\":9547:9641   */\n      tag_194\n        /* \"#utility.yul\":9637:9640   */\n      dup5\n        /* \"#utility.yul\":9629:9635   */\n      dup3\n        /* \"#utility.yul\":9622:9626   */\n      0x20\n        /* \"#utility.yul\":9614:9620   */\n      dup7\n        /* \"#utility.yul\":9610:9627   */\n      add\n        /* \"#utility.yul\":9547:9641   */\n      tag_98\n      jump\t// in\n    tag_194:\n        /* \"#utility.yul\":9538:9641   */\n      swap2\n      pop\n        /* \"#utility.yul\":9354:9647   */\n      pop\n        /* \"#utility.yul\":9277:9647   */\n      swap3\n      swap2\n      pop\n      pop\n      jump\t// out\n        /* \"#utility.yul\":9653:9769   */\n    tag_100:\n        /* \"#utility.yul\":9723:9744   */\n      tag_196\n        /* \"#utility.yul\":9738:9743   */\n      dup2\n        /* \"#utility.yul\":9723:9744   */\n      tag_84\n      jump\t// in\n    tag_196:\n        /* \"#utility.yul\":9716:9721   */\n      dup2\n        /* \"#utility.yul\":9713:9745   */\n      eq\n        /* \"#utility.yul\":9703:9763   */\n      tag_197\n      jumpi\n        /* \"#utility.yul\":9759:9760   */\n      0x00\n        /* \"#utility.yul\":9756:9757   */\n      dup1\n        /* \"#utility.yul\":9749:9761   */\n      revert\n        /* \"#utility.yul\":9703:9763   */\n    tag_197:\n        /* \"#utility.yul\":9653:9769   */\n      pop\n      jump\t// out\n        /* \"#utility.yul\":9775:9908   */\n    tag_101:\n        /* \"#utility.yul\":9818:9823   */\n      0x00\n        /* \"#utility.yul\":9856:9862   */\n      dup2\n        /* \"#utility.yul\":9843:9863   */\n      calldataload\n        /* \"#utility.yul\":9834:9863   */\n      swap1\n      pop\n        /* \"#utility.yul\":9872:9902   */\n      tag_199\n        /* \"#utility.yul\":9896:9901   */\n      dup2\n        /* \"#utility.yul\":9872:9902   */\n      tag_100\n      jump\t// in\n    tag_199:\n        /* \"#utility.yul\":9775:9908   */\n      swap3\n      swap2\n      pop\n      pop\n      jump\t// out\n        /* \"#utility.yul\":9914:10036   */\n    tag_102:\n        /* \"#utility.yul\":9987:10011   */\n      tag_201\n        /* \"#utility.yul\":10005:10010   */\n      dup2\n        /* \"#utility.yul\":9987:10011   */\n      tag_86\n      jump\t// in\n    tag_201:\n        /* \"#utility.yul\":9980:9985   */\n      dup2\n        /* \"#utility.yul\":9977:10012   */\n      eq\n        /* \"#utility.yul\":9967:10030   */\n      tag_202\n      jumpi\n        /* \"#utility.yul\":10026:10027   */\n      0x00\n        /* \"#utility.yul\":10023:10024   */\n      dup1\n        /* \"#utility.yul\":10016:10028   */\n      revert\n        /* \"#utility.yul\":9967:10030   */\n    tag_202:\n        /* \"#utility.yul\":9914:10036   */\n      pop\n      jump\t// out\n        /* \"#utility.yul\":10042:10181   */\n    tag_103:\n        /* \"#utility.yul\":10088:10093   */\n      0x00\n        /* \"#utility.yul\":10126:10132   */\n      dup2\n        /* \"#utility.yul\":10113:10133   */\n      calldataload\n        /* \"#utility.yul\":10104:10133   */\n      swap1\n      pop\n        /* \"#utility.yul\":10142:10175   */\n      tag_204\n        /* \"#utility.yul\":10169:10174   */\n      dup2\n        /* \"#utility.yul\":10142:10175   */\n      tag_102\n      jump\t// in\n    tag_204:\n        /* \"#utility.yul\":10042:10181   */\n      swap3\n      swap2\n      pop\n      pop\n      jump\t// out\n        /* \"#utility.yul\":10187:11804   */\n    tag_14:\n        /* \"#utility.yul\":10347:10353   */\n      0x00\n        /* \"#utility.yul\":10355:10361   */\n      dup1\n        /* \"#utility.yul\":10363:10369   */\n      0x00\n        /* \"#utility.yul\":10371:10377   */\n      dup1\n        /* \"#utility.yul\":10379:10385   */\n      0x00\n        /* \"#utility.yul\":10387:10393   */\n      dup1\n        /* \"#utility.yul\":10395:10401   */\n      0x00\n        /* \"#utility.yul\":10444:10447   */\n      0xe0\n        /* \"#utility.yul\":10432:10441   */\n      dup9\n        /* \"#utility.yul\":10423:10430   */\n      dup11\n        /* \"#utility.yul\":10419:10442   */\n      sub\n        /* \"#utility.yul\":10415:10448   */\n      slt\n        /* \"#utility.yul\":10412:10532   */\n      iszero\n      tag_206\n      jumpi\n        /* \"#utility.yul\":10451:10530   */\n      tag_207\n      tag_68\n      jump\t// in\n    tag_207:\n        /* \"#utility.yul\":10412:10532   */\n    tag_206:\n        /* \"#utility.yul\":10571:10572   */\n      0x00\n        /* \"#utility.yul\":10596:10649   */\n      tag_208\n        /* \"#utility.yul\":10641:10648   */\n      dup11\n        /* \"#utility.yul\":10632:10638   */\n      dup3\n        /* \"#utility.yul\":10621:10630   */\n      dup12\n        /* \"#utility.yul\":10617:10639   */\n      add\n        /* \"#utility.yul\":10596:10649   */\n      tag_73\n      jump\t// in\n    tag_208:\n        /* \"#utility.yul\":10586:10649   */\n      swap8\n      pop\n        /* \"#utility.yul\":10542:10659   */\n      pop\n        /* \"#utility.yul\":10726:10728   */\n      0x20\n        /* \"#utility.yul\":10715:10724   */\n      dup9\n        /* \"#utility.yul\":10711:10729   */\n      add\n        /* \"#utility.yul\":10698:10730   */\n      calldataload\n        /* \"#utility.yul\":10757:10775   */\n      0xffffffffffffffff\n        /* \"#utility.yul\":10749:10755   */\n      dup2\n        /* \"#utility.yul\":10746:10776   */\n      gt\n        /* \"#utility.yul\":10743:10860   */\n      iszero\n      tag_209\n      jumpi\n        /* \"#utility.yul\":10779:10858   */\n      tag_210\n      tag_69\n      jump\t// in\n    tag_210:\n        /* \"#utility.yul\":10743:10860   */\n    tag_209:\n        /* \"#utility.yul\":10884:10962   */\n      tag_211\n        /* \"#utility.yul\":10954:10961   */\n      dup11\n        /* \"#utility.yul\":10945:10951   */\n      dup3\n        /* \"#utility.yul\":10934:10943   */\n      dup12\n        /* \"#utility.yul\":10930:10952   */\n      add\n        /* \"#utility.yul\":10884:10962   */\n      tag_99\n      jump\t// in\n    tag_211:\n        /* \"#utility.yul\":10874:10962   */\n      swap7\n      pop\n        /* \"#utility.yul\":10669:10972   */\n      pop\n        /* \"#utility.yul\":11039:11041   */\n      0x40\n        /* \"#utility.yul\":11028:11037   */\n      dup9\n        /* \"#utility.yul\":11024:11042   */\n      add\n        /* \"#utility.yul\":11011:11043   */\n      calldataload\n        /* \"#utility.yul\":11070:11088   */\n      0xffffffffffffffff\n        /* \"#utility.yul\":11062:11068   */\n      dup2\n        /* \"#utility.yul\":11059:11089   */\n      gt\n        /* \"#utility.yul\":11056:11173   */\n      iszero\n      tag_212\n      jumpi\n        /* \"#utility.yul\":11092:11171   */\n      tag_213\n      tag_69\n      jump\t// in\n    tag_213:\n        /* \"#utility.yul\":11056:11173   */\n    tag_212:\n        /* \"#utility.yul\":11197:11275   */\n      tag_214\n        /* \"#utility.yul\":11267:11274   */\n      dup11\n        /* \"#utility.yul\":11258:11264   */\n      dup3\n        /* \"#utility.yul\":11247:11256   */\n      dup12\n        /* \"#utility.yul\":11243:11265   */\n      add\n        /* \"#utility.yul\":11197:11275   */\n      tag_99\n      jump\t// in\n    tag_214:\n        /* \"#utility.yul\":11187:11275   */\n      swap6\n      pop\n        /* \"#utility.yul\":10982:11285   */\n      pop\n        /* \"#utility.yul\":11324:11326   */\n      0x60\n        /* \"#utility.yul\":11350:11400   */\n      tag_215\n        /* \"#utility.yul\":11392:11399   */\n      dup11\n        /* \"#utility.yul\":11383:11389   */\n      dup3\n        /* \"#utility.yul\":11372:11381   */\n      dup12\n        /* \"#utility.yul\":11368:11390   */\n      add\n        /* \"#utility.yul\":11350:11400   */\n      tag_101\n      jump\t// in\n    tag_215:\n        /* \"#utility.yul\":11340:11400   */\n      swap5\n      pop\n        /* \"#utility.yul\":11295:11410   */\n      pop\n        /* \"#utility.yul\":11449:11452   */\n      0x80\n        /* \"#utility.yul\":11476:11529   */\n      tag_216\n        /* \"#utility.yul\":11521:11528   */\n      dup11\n        /* \"#utility.yul\":11512:11518   */\n      dup3\n        /* \"#utility.yul\":11501:11510   */\n      dup12\n        /* \"#utility.yul\":11497:11519   */\n      add\n        /* \"#utility.yul\":11476:11529   */\n      tag_103\n      jump\t// in\n    tag_216:\n        /* \"#utility.yul\":11466:11529   */\n      swap4\n      pop\n        /* \"#utility.yul\":11420:11539   */\n      pop\n        /* \"#utility.yul\":11578:11581   */\n      0xa0\n        /* \"#utility.yul\":11605:11658   */\n      tag_217\n        /* \"#utility.yul\":11650:11657   */\n      dup11\n        /* \"#utility.yul\":11641:11647   */\n      dup3\n        /* \"#utility.yul\":11630:11639   */\n      dup12\n        /* \"#utility.yul\":11626:11648   */\n      add\n        /* \"#utility.yul\":11605:11658   */\n      tag_103\n      jump\t// in\n    tag_217:\n        /* \"#utility.yul\":11595:11658   */\n      swap3\n      pop\n        /* \"#utility.yul\":11549:11668   */\n      pop\n        /* \"#utility.yul\":11707:11710   */\n      0xc0\n        /* \"#utility.yul\":11734:11787   */\n      tag_218\n        /* \"#utility.yul\":11779:11786   */\n      dup11\n        /* \"#utility.yul\":11770:11776   */\n      dup3\n        /* \"#utility.yul\":11759:11768   */\n      dup12\n        /* \"#utility.yul\":11755:11777   */\n      add\n        /* \"#utility.yul\":11734:11787   */\n      tag_103\n      jump\t// in\n    tag_218:\n        /* \"#utility.yul\":11724:11787   */\n      swap2\n      pop\n        /* \"#utility.yul\":11678:11797   */\n      pop\n        /* \"#utility.yul\":10187:11804   */\n      swap3\n      swap6\n      swap9\n      swap2\n      swap5\n      swap8\n      pop\n      swap3\n      swap6\n      pop\n      jump\t// out\n        /* \"#utility.yul\":11810:11990   */\n    tag_104:\n        /* \"#utility.yul\":11858:11935   */\n      0x4e487b7100000000000000000000000000000000000000000000000000000000\n        /* \"#utility.yul\":11855:11856   */\n      0x00\n        /* \"#utility.yul\":11848:11936   */\n      mstore\n        /* \"#utility.yul\":11955:11959   */\n      0x11\n        /* \"#utility.yul\":11952:11953   */\n      0x04\n        /* \"#utility.yul\":11945:11960   */\n      mstore\n        /* \"#utility.yul\":11979:11983   */\n      0x24\n        /* \"#utility.yul\":11976:11977   */\n      0x00\n        /* \"#utility.yul\":11969:11984   */\n      revert\n        /* \"#utility.yul\":11996:12190   */\n    tag_45:\n        /* \"#utility.yul\":12036:12040   */\n      0x00\n        /* \"#utility.yul\":12056:12076   */\n      tag_221\n        /* \"#utility.yul\":12074:12075   */\n      dup3\n        /* \"#utility.yul\":12056:12076   */\n      tag_86\n      jump\t// in\n    tag_221:\n        /* \"#utility.yul\":12051:12076   */\n      swap2\n      pop\n        /* \"#utility.yul\":12090:12110   */\n      tag_222\n        /* \"#utility.yul\":12108:12109   */\n      dup4\n        /* \"#utility.yul\":12090:12110   */\n      tag_86\n      jump\t// in\n    tag_222:\n        /* \"#utility.yul\":12085:12110   */\n      swap3\n      pop\n        /* \"#utility.yul\":12134:12135   */\n      dup3\n        /* \"#utility.yul\":12131:12132   */\n      dup3\n        /* \"#utility.yul\":12127:12136   */\n      sub\n        /* \"#utility.yul\":12119:12136   */\n      swap1\n      pop\n        /* \"#utility.yul\":12158:12159   */\n      dup2\n        /* \"#utility.yul\":12152:12156   */\n      dup2\n        /* \"#utility.yul\":12149:12160   */\n      gt\n        /* \"#utility.yul\":12146:12183   */\n      iszero\n      tag_223\n      jumpi\n        /* \"#utility.yul\":12163:12181   */\n      tag_224\n      tag_104\n      jump\t// in\n    tag_224:\n        /* \"#utility.yul\":12146:12183   */\n    tag_223:\n        /* \"#utility.yul\":11996:12190   */\n      swap3\n      swap2\n      pop\n      pop\n      jump\t// out\n        /* \"#utility.yul\":12196:12376   */\n    tag_48:\n        /* \"#utility.yul\":12244:12321   */\n      0x4e487b7100000000000000000000000000000000000000000000000000000000\n        /* \"#utility.yul\":12241:12242   */\n      0x00\n        /* \"#utility.yul\":12234:12322   */\n      mstore\n        /* \"#utility.yul\":12341:12345   */\n      0x32\n        /* \"#utility.yul\":12338:12339   */\n      0x04\n        /* \"#utility.yul\":12331:12346   */\n      mstore\n        /* \"#utility.yul\":12365:12369   */\n      0x24\n        /* \"#utility.yul\":12362:12363   */\n      0x00\n        /* \"#utility.yul\":12355:12370   */\n      revert\n        /* \"#utility.yul\":12382:12615   */\n    tag_57:\n        /* \"#utility.yul\":12421:12424   */\n      0x00\n        /* \"#utility.yul\":12444:12468   */\n      tag_227\n        /* \"#utility.yul\":12462:12467   */\n      dup3\n        /* \"#utility.yul\":12444:12468   */\n      tag_86\n      jump\t// in\n    tag_227:\n        /* \"#utility.yul\":12435:12468   */\n      swap2\n      pop\n        /* \"#utility.yul\":12490:12556   */\n      0xffffffffffffffffffffffffffffffffffffffffffffffffffffffffffffffff\n        /* \"#utility.yul\":12483:12488   */\n      dup3\n        /* \"#utility.yul\":12480:12557   */\n      sub\n        /* \"#utility.yul\":12477:12580   */\n      tag_228\n      jumpi\n        /* \"#utility.yul\":12560:12578   */\n      tag_229\n      tag_104\n      jump\t// in\n    tag_229:\n        /* \"#utility.yul\":12477:12580   */\n    tag_228:\n        /* \"#utility.yul\":12607:12608   */\n      0x01\n        /* \"#utility.yul\":12600:12605   */\n      dup3\n        /* \"#utility.yul\":12596:12609   */\n      add\n        /* \"#utility.yul\":12589:12609   */\n      swap1\n      pop\n        /* \"#utility.yul\":12382:12615   */\n      swap2\n      swap1\n      pop\n      jump\t// out\n        /* \"#utility.yul\":12621:12792   */\n    tag_59:\n        /* \"#utility.yul\":12660:12663   */\n      0x00\n        /* \"#utility.yul\":12683:12707   */\n      tag_231\n        /* \"#utility.yul\":12701:12706   */\n      dup3\n        /* \"#utility.yul\":12683:12707   */\n      tag_86\n      jump\t// in\n    tag_231:\n        /* \"#utility.yul\":12674:12707   */\n      swap2\n      pop\n        /* \"#utility.yul\":12729:12733   */\n      0x00\n        /* \"#utility.yul\":12722:12727   */\n      dup3\n        /* \"#utility.yul\":12719:12734   */\n      sub\n        /* \"#utility.yul\":12716:12757   */\n      tag_232\n      jumpi\n        /* \"#utility.yul\":12737:12755   */\n      tag_233\n      tag_104\n      jump\t// in\n    tag_233:\n        /* \"#utility.yul\":12716:12757   */\n    tag_232:\n        /* \"#utility.yul\":12784:12785   */\n      0x01\n        /* \"#utility.yul\":12777:12782   */\n      dup3\n        /* \"#utility.yul\":12773:12786   */\n      sub\n        /* \"#utility.yul\":12766:12786   */\n      swap1\n      pop\n        /* \"#utility.yul\":12621:12792   */\n      swap2\n      swap1\n      pop\n      jump\t// out\n\n    auxdata: 0xa2646970667358221220dad65b25af8d79ce4b21e2d1b42aeef51f28e40d096ea41439e8abf00021276464736f6c63430008160033\n}\n",
				"bytecode": {
					"linkReferences": {},
					"object": "608060405234801561000f575f80fd5b50610e0a8061001d5f395ff3fe608060405234801561000f575f80fd5b506004361061003f575f3560e01c806377795778146100435780637a7e4e5114610073578063eed424201461008f575b5f80fd5b61005d600480360381019061005891906107e4565b6100bf565b60405161006a9190610a40565b60405180910390f35b61008d60048036038101906100889190610c04565b6102a4565b005b6100a960048036038101906100a491906107e4565b6103b5565b6040516100b69190610a40565b60405180910390f35b60605f808373ffffffffffffffffffffffffffffffffffffffff1673ffffffffffffffffffffffffffffffffffffffff1681526020019081526020015f20805480602002602001604051908101604052809291908181526020015f905b82821015610299578382905f5260205f2090600602016040518060c00160405290815f82018054806020026020016040519081016040528092919081815260200182805480156101be57602002820191905f5260205f20905b815f9054906101000a900473ffffffffffffffffffffffffffffffffffffffff1673ffffffffffffffffffffffffffffffffffffffff1681526020019060010190808311610175575b505050505081526020016001820180548060200260200160405190810160405280929190818152602001828054801561024957602002820191905f5260205f20905b815f9054906101000a900473ffffffffffffffffffffffffffffffffffffffff1673ffffffffffffffffffffffffffffffffffffffff1681526020019060010190808311610200575b50505050508152602001600282015f9054906101000a900460ff1615151515815260200160038201548152602001600482015481526020016005820154815250508152602001906001019061011c565b505050509050919050565b5f808873ffffffffffffffffffffffffffffffffffffffff1673ffffffffffffffffffffffffffffffffffffffff1681526020019081526020015f206040518060c00160405280888152602001878152602001861515815260200185815260200184815260200183815250908060018154018082558091505060019003905f5260205f2090600602015f909190919091505f820151815f01908051906020019061034f9291906106a3565b50602082015181600101908051906020019061036c9291906106a3565b506040820151816002015f6101000a81548160ff021916908315150217905550606082015181600301556080820151816004015560a08201518160050155505050505050505050565b60605f600a67ffffffffffffffff8111156103d3576103d2610a74565b5b60405190808252806020026020018201604052801561040c57816020015b6103f961072a565b8152602001906001900390816103f15790505b5090505f80805f8673ffffffffffffffffffffffffffffffffffffffff1673ffffffffffffffffffffffffffffffffffffffff1681526020019081526020015f208054905090505b600a5f808773ffffffffffffffffffffffffffffffffffffffff1673ffffffffffffffffffffffffffffffffffffffff1681526020019081526020015f20805490506104a09190610d06565b811115610698575f808673ffffffffffffffffffffffffffffffffffffffff1673ffffffffffffffffffffffffffffffffffffffff1681526020019081526020015f2081815481106104f5576104f4610d39565b5b905f5260205f2090600602016040518060c00160405290815f820180548060200260200160405190810160405280929190818152602001828054801561058d57602002820191905f5260205f20905b815f9054906101000a900473ffffffffffffffffffffffffffffffffffffffff1673ffffffffffffffffffffffffffffffffffffffff1681526020019060010190808311610544575b505050505081526020016001820180548060200260200160405190810160405280929190818152602001828054801561061857602002820191905f5260205f20905b815f9054906101000a900473ffffffffffffffffffffffffffffffffffffffff1673ffffffffffffffffffffffffffffffffffffffff16815260200190600101908083116105cf575b50505050508152602001600282015f9054906101000a900460ff16151515158152602001600382015481526020016004820154815260200160058201548152505083838151811061066c5761066b610d39565b5b6020026020010181905250818061068290610d66565b925050808061069090610dad565b915050610454565b508192505050919050565b828054828255905f5260205f20908101928215610719579160200282015b82811115610718578251825f6101000a81548173ffffffffffffffffffffffffffffffffffffffff021916908373ffffffffffffffffffffffffffffffffffffffff160217905550916020019190600101906106c1565b5b509050610726919061075e565b5090565b6040518060c0016040528060608152602001606081526020015f151581526020015f81526020015f81526020015f81525090565b5b80821115610775575f815f90555060010161075f565b5090565b5f604051905090565b5f80fd5b5f80fd5b5f73ffffffffffffffffffffffffffffffffffffffff82169050919050565b5f6107b38261078a565b9050919050565b6107c3816107a9565b81146107cd575f80fd5b50565b5f813590506107de816107ba565b92915050565b5f602082840312156107f9576107f8610782565b5b5f610806848285016107d0565b91505092915050565b5f81519050919050565b5f82825260208201905092915050565b5f819050602082019050919050565b5f81519050919050565b5f82825260208201905092915050565b5f819050602082019050919050565b61086a816107a9565b82525050565b5f61087b8383610861565b60208301905092915050565b5f602082019050919050565b5f61089d82610838565b6108a78185610842565b93506108b283610852565b805f5b838110156108e25781516108c98882610870565b97506108d483610887565b9250506001810190506108b5565b5085935050505092915050565b5f8115159050919050565b610903816108ef565b82525050565b5f819050919050565b61091b81610909565b82525050565b5f60c083015f8301518482035f86015261093b8282610893565b915050602083015184820360208601526109558282610893565b915050604083015161096a60408601826108fa565b50606083015161097d6060860182610912565b5060808301516109906080860182610912565b5060a08301516109a360a0860182610912565b508091505092915050565b5f6109b98383610921565b905092915050565b5f602082019050919050565b5f6109d78261080f565b6109e18185610819565b9350836020820285016109f385610829565b805f5b85811015610a2e5784840389528151610a0f85826109ae565b9450610a1a836109c1565b925060208a019950506001810190506109f6565b50829750879550505050505092915050565b5f6020820190508181035f830152610a5881846109cd565b905092915050565b5f80fd5b5f601f19601f8301169050919050565b7f4e487b71000000000000000000000000000000000000000000000000000000005f52604160045260245ffd5b610aaa82610a64565b810181811067ffffffffffffffff82111715610ac957610ac8610a74565b5b80604052505050565b5f610adb610779565b9050610ae78282610aa1565b919050565b5f67ffffffffffffffff821115610b0657610b05610a74565b5b602082029050602081019050919050565b5f80fd5b5f610b2d610b2884610aec565b610ad2565b90508083825260208201905060208402830185811115610b5057610b4f610b17565b5b835b81811015610b795780610b6588826107d0565b845260208401935050602081019050610b52565b5050509392505050565b5f82601f830112610b9757610b96610a60565b5b8135610ba7848260208601610b1b565b91505092915050565b610bb9816108ef565b8114610bc3575f80fd5b50565b5f81359050610bd481610bb0565b92915050565b610be381610909565b8114610bed575f80fd5b50565b5f81359050610bfe81610bda565b92915050565b5f805f805f805f60e0888a031215610c1f57610c1e610782565b5b5f610c2c8a828b016107d0565b975050602088013567ffffffffffffffff811115610c4d57610c4c610786565b5b610c598a828b01610b83565b965050604088013567ffffffffffffffff811115610c7a57610c79610786565b5b610c868a828b01610b83565b9550506060610c978a828b01610bc6565b9450506080610ca88a828b01610bf0565b93505060a0610cb98a828b01610bf0565b92505060c0610cca8a828b01610bf0565b91505092959891949750929550565b7f4e487b71000000000000000000000000000000000000000000000000000000005f52601160045260245ffd5b5f610d1082610909565b9150610d1b83610909565b9250828203905081811115610d3357610d32610cd9565b5b92915050565b7f4e487b71000000000000000000000000000000000000000000000000000000005f52603260045260245ffd5b5f610d7082610909565b91507fffffffffffffffffffffffffffffffffffffffffffffffffffffffffffffffff8203610da257610da1610cd9565b5b600182019050919050565b5f610db782610909565b91505f8203610dc957610dc8610cd9565b5b60018203905091905056fea2646970667358221220dad65b25af8d79ce4b21e2d1b42aeef51f28e40d096ea41439e8abf00021276464736f6c63430008160033",
					"opcodes": "PUSH1 0x80 PUSH1 0x40 MSTORE CALLVALUE DUP1 ISZERO PUSH2 0xF JUMPI PUSH0 DUP1 REVERT JUMPDEST POP PUSH2 0xE0A DUP1 PUSH2 0x1D PUSH0 CODECOPY PUSH0 RETURN INVALID PUSH1 0x80 PUSH1 0x40 MSTORE CALLVALUE DUP1 ISZERO PUSH2 0xF JUMPI PUSH0 DUP1 REVERT JUMPDEST POP PUSH1 0x4 CALLDATASIZE LT PUSH2 0x3F JUMPI PUSH0 CALLDATALOAD PUSH1 0xE0 SHR DUP1 PUSH4 0x77795778 EQ PUSH2 0x43 JUMPI DUP1 PUSH4 0x7A7E4E51 EQ PUSH2 0x73 JUMPI DUP1 PUSH4 0xEED42420 EQ PUSH2 0x8F JUMPI JUMPDEST PUSH0 DUP1 REVERT JUMPDEST PUSH2 0x5D PUSH1 0x4 DUP1 CALLDATASIZE SUB DUP2 ADD SWAP1 PUSH2 0x58 SWAP2 SWAP1 PUSH2 0x7E4 JUMP JUMPDEST PUSH2 0xBF JUMP JUMPDEST PUSH1 0x40 MLOAD PUSH2 0x6A SWAP2 SWAP1 PUSH2 0xA40 JUMP JUMPDEST PUSH1 0x40 MLOAD DUP1 SWAP2 SUB SWAP1 RETURN JUMPDEST PUSH2 0x8D PUSH1 0x4 DUP1 CALLDATASIZE SUB DUP2 ADD SWAP1 PUSH2 0x88 SWAP2 SWAP1 PUSH2 0xC04 JUMP JUMPDEST PUSH2 0x2A4 JUMP JUMPDEST STOP JUMPDEST PUSH2 0xA9 PUSH1 0x4 DUP1 CALLDATASIZE SUB DUP2 ADD SWAP1 PUSH2 0xA4 SWAP2 SWAP1 PUSH2 0x7E4 JUMP JUMPDEST PUSH2 0x3B5 JUMP JUMPDEST PUSH1 0x40 MLOAD PUSH2 0xB6 SWAP2 SWAP1 PUSH2 0xA40 JUMP JUMPDEST PUSH1 0x40 MLOAD DUP1 SWAP2 SUB SWAP1 RETURN JUMPDEST PUSH1 0x60 PUSH0 DUP1 DUP4 PUSH20 0xFFFFFFFFFFFFFFFFFFFFFFFFFFFFFFFFFFFFFFFF AND PUSH20 0xFFFFFFFFFFFFFFFFFFFFFFFFFFFFFFFFFFFFFFFF AND DUP2 MSTORE PUSH1 0x20 ADD SWAP1 DUP2 MSTORE PUSH1 0x20 ADD PUSH0 KECCAK256 DUP1 SLOAD DUP1 PUSH1 0x20 MUL PUSH1 0x20 ADD PUSH1 0x40 MLOAD SWAP1 DUP2 ADD PUSH1 0x40 MSTORE DUP1 SWAP3 SWAP2 SWAP1 DUP2 DUP2 MSTORE PUSH1 0x20 ADD PUSH0 SWAP1 JUMPDEST DUP3 DUP3 LT ISZERO PUSH2 0x299 JUMPI DUP4 DUP3 SWAP1 PUSH0 MSTORE PUSH1 0x20 PUSH0 KECCAK256 SWAP1 PUSH1 0x6 MUL ADD PUSH1 0x40 MLOAD DUP1 PUSH1 0xC0 ADD PUSH1 0x40 MSTORE SWAP1 DUP2 PUSH0 DUP3 ADD DUP1 SLOAD DUP1 PUSH1 0x20 MUL PUSH1 0x20 ADD PUSH1 0x40 MLOAD SWAP1 DUP2 ADD PUSH1 0x40 MSTORE DUP1 SWAP3 SWAP2 SWAP1 DUP2 DUP2 MSTORE PUSH1 0x20 ADD DUP3 DUP1 SLOAD DUP1 ISZERO PUSH2 0x1BE JUMPI PUSH1 0x20 MUL DUP3 ADD SWAP2 SWAP1 PUSH0 MSTORE PUSH1 0x20 PUSH0 KECCAK256 SWAP1 JUMPDEST DUP2 PUSH0 SWAP1 SLOAD SWAP1 PUSH2 0x100 EXP SWAP1 DIV PUSH20 0xFFFFFFFFFFFFFFFFFFFFFFFFFFFFFFFFFFFFFFFF AND PUSH20 0xFFFFFFFFFFFFFFFFFFFFFFFFFFFFFFFFFFFFFFFF AND DUP2 MSTORE PUSH1 0x20 ADD SWAP1 PUSH1 0x1 ADD SWAP1 DUP1 DUP4 GT PUSH2 0x175 JUMPI JUMPDEST POP POP POP POP POP DUP2 MSTORE PUSH1 0x20 ADD PUSH1 0x1 DUP3 ADD DUP1 SLOAD DUP1 PUSH1 0x20 MUL PUSH1 0x20 ADD PUSH1 0x40 MLOAD SWAP1 DUP2 ADD PUSH1 0x40 MSTORE DUP1 SWAP3 SWAP2 SWAP1 DUP2 DUP2 MSTORE PUSH1 0x20 ADD DUP3 DUP1 SLOAD DUP1 ISZERO PUSH2 0x249 JUMPI PUSH1 0x20 MUL DUP3 ADD SWAP2 SWAP1 PUSH0 MSTORE PUSH1 0x20 PUSH0 KECCAK256 SWAP1 JUMPDEST DUP2 PUSH0 SWAP1 SLOAD SWAP1 PUSH2 0x100 EXP SWAP1 DIV PUSH20 0xFFFFFFFFFFFFFFFFFFFFFFFFFFFFFFFFFFFFFFFF AND PUSH20 0xFFFFFFFFFFFFFFFFFFFFFFFFFFFFFFFFFFFFFFFF AND DUP2 MSTORE PUSH1 0x20 ADD SWAP1 PUSH1 0x1 ADD SWAP1 DUP1 DUP4 GT PUSH2 0x200 JUMPI JUMPDEST POP POP POP POP POP DUP2 MSTORE PUSH1 0x20 ADD PUSH1 0x2 DUP3 ADD PUSH0 SWAP1 SLOAD SWAP1 PUSH2 0x100 EXP SWAP1 DIV PUSH1 0xFF AND ISZERO ISZERO ISZERO ISZERO DUP2 MSTORE PUSH1 0x20 ADD PUSH1 0x3 DUP3 ADD SLOAD DUP2 MSTORE PUSH1 0x20 ADD PUSH1 0x4 DUP3 ADD SLOAD DUP2 MSTORE PUSH1 0x20 ADD PUSH1 0x5 DUP3 ADD SLOAD DUP2 MSTORE POP POP DUP2 MSTORE PUSH1 0x20 ADD SWAP1 PUSH1 0x1 ADD SWAP1 PUSH2 0x11C JUMP JUMPDEST POP POP POP POP SWAP1 POP SWAP2 SWAP1 POP JUMP JUMPDEST PUSH0 DUP1 DUP9 PUSH20 0xFFFFFFFFFFFFFFFFFFFFFFFFFFFFFFFFFFFFFFFF AND PUSH20 0xFFFFFFFFFFFFFFFFFFFFFFFFFFFFFFFFFFFFFFFF AND DUP2 MSTORE PUSH1 0x20 ADD SWAP1 DUP2 MSTORE PUSH1 0x20 ADD PUSH0 KECCAK256 PUSH1 0x40 MLOAD DUP1 PUSH1 0xC0 ADD PUSH1 0x40 MSTORE DUP1 DUP9 DUP2 MSTORE PUSH1 0x20 ADD DUP8 DUP2 MSTORE PUSH1 0x20 ADD DUP7 ISZERO ISZERO DUP2 MSTORE PUSH1 0x20 ADD DUP6 DUP2 MSTORE PUSH1 0x20 ADD DUP5 DUP2 MSTORE PUSH1 0x20 ADD DUP4 DUP2 MSTORE POP SWAP1 DUP1 PUSH1 0x1 DUP2 SLOAD ADD DUP1 DUP3 SSTORE DUP1 SWAP2 POP POP PUSH1 0x1 SWAP1 SUB SWAP1 PUSH0 MSTORE PUSH1 0x20 PUSH0 KECCAK256 SWAP1 PUSH1 0x6 MUL ADD PUSH0 SWAP1 SWAP2 SWAP1 SWAP2 SWAP1 SWAP2 POP PUSH0 DUP3 ADD MLOAD DUP2 PUSH0 ADD SWAP1 DUP1 MLOAD SWAP1 PUSH1 0x20 ADD SWAP1 PUSH2 0x34F SWAP3 SWAP2 SWAP1 PUSH2 0x6A3 JUMP JUMPDEST POP PUSH1 0x20 DUP3 ADD MLOAD DUP2 PUSH1 0x1 ADD SWAP1 DUP1 MLOAD SWAP1 PUSH1 0x20 ADD SWAP1 PUSH2 0x36C SWAP3 SWAP2 SWAP1 PUSH2 0x6A3 JUMP JUMPDEST POP PUSH1 0x40 DUP3 ADD MLOAD DUP2 PUSH1 0x2 ADD PUSH0 PUSH2 0x100 EXP DUP2 SLOAD DUP2 PUSH1 0xFF MUL NOT AND SWAP1 DUP4 ISZERO ISZERO MUL OR SWAP1 SSTORE POP PUSH1 0x60 DUP3 ADD MLOAD DUP2 PUSH1 0x3 ADD SSTORE PUSH1 0x80 DUP3 ADD MLOAD DUP2 PUSH1 0x4 ADD SSTORE PUSH1 0xA0 DUP3 ADD MLOAD DUP2 PUSH1 0x5 ADD SSTORE POP POP POP POP POP POP POP POP POP JUMP JUMPDEST PUSH1 0x60 PUSH0 PUSH1 0xA PUSH8 0xFFFFFFFFFFFFFFFF DUP2 GT ISZERO PUSH2 0x3D3 JUMPI PUSH2 0x3D2 PUSH2 0xA74 JUMP JUMPDEST JUMPDEST PUSH1 0x40 MLOAD SWAP1 DUP1 DUP3 MSTORE DUP1 PUSH1 0x20 MUL PUSH1 0x20 ADD DUP3 ADD PUSH1 0x40 MSTORE DUP1 ISZERO PUSH2 0x40C JUMPI DUP2 PUSH1 0x20 ADD JUMPDEST PUSH2 0x3F9 PUSH2 0x72A JUMP JUMPDEST DUP2 MSTORE PUSH1 0x20 ADD SWAP1 PUSH1 0x1 SWAP1 SUB SWAP1 DUP2 PUSH2 0x3F1 JUMPI SWAP1 POP JUMPDEST POP SWAP1 POP PUSH0 DUP1 DUP1 PUSH0 DUP7 PUSH20 0xFFFFFFFFFFFFFFFFFFFFFFFFFFFFFFFFFFFFFFFF AND PUSH20 0xFFFFFFFFFFFFFFFFFFFFFFFFFFFFFFFFFFFFFFFF AND DUP2 MSTORE PUSH1 0x20 ADD SWAP1 DUP2 MSTORE PUSH1 0x20 ADD PUSH0 KECCAK256 DUP1 SLOAD SWAP1 POP SWAP1 POP JUMPDEST PUSH1 0xA PUSH0 DUP1 DUP8 PUSH20 0xFFFFFFFFFFFFFFFFFFFFFFFFFFFFFFFFFFFFFFFF AND PUSH20 0xFFFFFFFFFFFFFFFFFFFFFFFFFFFFFFFFFFFFFFFF AND DUP2 MSTORE PUSH1 0x20 ADD SWAP1 DUP2 MSTORE PUSH1 0x20 ADD PUSH0 KECCAK256 DUP1 SLOAD SWAP1 POP PUSH2 0x4A0 SWAP2 SWAP1 PUSH2 0xD06 JUMP JUMPDEST DUP2 GT ISZERO PUSH2 0x698 JUMPI PUSH0 DUP1 DUP7 PUSH20 0xFFFFFFFFFFFFFFFFFFFFFFFFFFFFFFFFFFFFFFFF AND PUSH20 0xFFFFFFFFFFFFFFFFFFFFFFFFFFFFFFFFFFFFFFFF AND DUP2 MSTORE PUSH1 0x20 ADD SWAP1 DUP2 MSTORE PUSH1 0x20 ADD PUSH0 KECCAK256 DUP2 DUP2 SLOAD DUP2 LT PUSH2 0x4F5 JUMPI PUSH2 0x4F4 PUSH2 0xD39 JUMP JUMPDEST JUMPDEST SWAP1 PUSH0 MSTORE PUSH1 0x20 PUSH0 KECCAK256 SWAP1 PUSH1 0x6 MUL ADD PUSH1 0x40 MLOAD DUP1 PUSH1 0xC0 ADD PUSH1 0x40 MSTORE SWAP1 DUP2 PUSH0 DUP3 ADD DUP1 SLOAD DUP1 PUSH1 0x20 MUL PUSH1 0x20 ADD PUSH1 0x40 MLOAD SWAP1 DUP2 ADD PUSH1 0x40 MSTORE DUP1 SWAP3 SWAP2 SWAP1 DUP2 DUP2 MSTORE PUSH1 0x20 ADD DUP3 DUP1 SLOAD DUP1 ISZERO PUSH2 0x58D JUMPI PUSH1 0x20 MUL DUP3 ADD SWAP2 SWAP1 PUSH0 MSTORE PUSH1 0x20 PUSH0 KECCAK256 SWAP1 JUMPDEST DUP2 PUSH0 SWAP1 SLOAD SWAP1 PUSH2 0x100 EXP SWAP1 DIV PUSH20 0xFFFFFFFFFFFFFFFFFFFFFFFFFFFFFFFFFFFFFFFF AND PUSH20 0xFFFFFFFFFFFFFFFFFFFFFFFFFFFFFFFFFFFFFFFF AND DUP2 MSTORE PUSH1 0x20 ADD SWAP1 PUSH1 0x1 ADD SWAP1 DUP1 DUP4 GT PUSH2 0x544 JUMPI JUMPDEST POP POP POP POP POP DUP2 MSTORE PUSH1 0x20 ADD PUSH1 0x1 DUP3 ADD DUP1 SLOAD DUP1 PUSH1 0x20 MUL PUSH1 0x20 ADD PUSH1 0x40 MLOAD SWAP1 DUP2 ADD PUSH1 0x40 MSTORE DUP1 SWAP3 SWAP2 SWAP1 DUP2 DUP2 MSTORE PUSH1 0x20 ADD DUP3 DUP1 SLOAD DUP1 ISZERO PUSH2 0x618 JUMPI PUSH1 0x20 MUL DUP3 ADD SWAP2 SWAP1 PUSH0 MSTORE PUSH1 0x20 PUSH0 KECCAK256 SWAP1 JUMPDEST DUP2 PUSH0 SWAP1 SLOAD SWAP1 PUSH2 0x100 EXP SWAP1 DIV PUSH20 0xFFFFFFFFFFFFFFFFFFFFFFFFFFFFFFFFFFFFFFFF AND PUSH20 0xFFFFFFFFFFFFFFFFFFFFFFFFFFFFFFFFFFFFFFFF AND DUP2 MSTORE PUSH1 0x20 ADD SWAP1 PUSH1 0x1 ADD SWAP1 DUP1 DUP4 GT PUSH2 0x5CF JUMPI JUMPDEST POP POP POP POP POP DUP2 MSTORE PUSH1 0x20 ADD PUSH1 0x2 DUP3 ADD PUSH0 SWAP1 SLOAD SWAP1 PUSH2 0x100 EXP SWAP1 DIV PUSH1 0xFF AND ISZERO ISZERO ISZERO ISZERO DUP2 MSTORE PUSH1 0x20 ADD PUSH1 0x3 DUP3 ADD SLOAD DUP2 MSTORE PUSH1 0x20 ADD PUSH1 0x4 DUP3 ADD SLOAD DUP2 MSTORE PUSH1 0x20 ADD PUSH1 0x5 DUP3 ADD SLOAD DUP2 MSTORE POP POP DUP4 DUP4 DUP2 MLOAD DUP2 LT PUSH2 0x66C JUMPI PUSH2 0x66B PUSH2 0xD39 JUMP JUMPDEST JUMPDEST PUSH1 0x20 MUL PUSH1 0x20 ADD ADD DUP2 SWAP1 MSTORE POP DUP2 DUP1 PUSH2 0x682 SWAP1 PUSH2 0xD66 JUMP JUMPDEST SWAP3 POP POP DUP1 DUP1 PUSH2 0x690 SWAP1 PUSH2 0xDAD JUMP JUMPDEST SWAP2 POP POP PUSH2 0x454 JUMP JUMPDEST POP DUP2 SWAP3 POP POP POP SWAP2 SWAP1 POP JUMP JUMPDEST DUP3 DUP1 SLOAD DUP3 DUP3 SSTORE SWAP1 PUSH0 MSTORE PUSH1 0x20 PUSH0 KECCAK256 SWAP1 DUP2 ADD SWAP3 DUP3 ISZERO PUSH2 0x719 JUMPI SWAP2 PUSH1 0x20 MUL DUP3 ADD JUMPDEST DUP3 DUP2 GT ISZERO PUSH2 0x718 JUMPI DUP3 MLOAD DUP3 PUSH0 PUSH2 0x100 EXP DUP2 SLOAD DUP2 PUSH20 0xFFFFFFFFFFFFFFFFFFFFFFFFFFFFFFFFFFFFFFFF MUL NOT AND SWAP1 DUP4 PUSH20 0xFFFFFFFFFFFFFFFFFFFFFFFFFFFFFFFFFFFFFFFF AND MUL OR SWAP1 SSTORE POP SWAP2 PUSH1 0x20 ADD SWAP2 SWAP1 PUSH1 0x1 ADD SWAP1 PUSH2 0x6C1 JUMP JUMPDEST JUMPDEST POP SWAP1 POP PUSH2 0x726 SWAP2 SWAP1 PUSH2 0x75E JUMP JUMPDEST POP SWAP1 JUMP JUMPDEST PUSH1 0x40 MLOAD DUP1 PUSH1 0xC0 ADD PUSH1 0x40 MSTORE DUP1 PUSH1 0x60 DUP2 MSTORE PUSH1 0x20 ADD PUSH1 0x60 DUP2 MSTORE PUSH1 0x20 ADD PUSH0 ISZERO ISZERO DUP2 MSTORE PUSH1 0x20 ADD PUSH0 DUP2 MSTORE PUSH1 0x20 ADD PUSH0 DUP2 MSTORE PUSH1 0x20 ADD PUSH0 DUP2 MSTORE POP SWAP1 JUMP JUMPDEST JUMPDEST DUP1 DUP3 GT ISZERO PUSH2 0x775 JUMPI PUSH0 DUP2 PUSH0 SWAP1 SSTORE POP PUSH1 0x1 ADD PUSH2 0x75F JUMP JUMPDEST POP SWAP1 JUMP JUMPDEST PUSH0 PUSH1 0x40 MLOAD SWAP1 POP SWAP1 JUMP JUMPDEST PUSH0 DUP1 REVERT JUMPDEST PUSH0 DUP1 REVERT JUMPDEST PUSH0 PUSH20 0xFFFFFFFFFFFFFFFFFFFFFFFFFFFFFFFFFFFFFFFF DUP3 AND SWAP1 POP SWAP2 SWAP1 POP JUMP JUMPDEST PUSH0 PUSH2 0x7B3 DUP3 PUSH2 0x78A JUMP JUMPDEST SWAP1 POP SWAP2 SWAP1 POP JUMP JUMPDEST PUSH2 0x7C3 DUP2 PUSH2 0x7A9 JUMP JUMPDEST DUP2 EQ PUSH2 0x7CD JUMPI PUSH0 DUP1 REVERT JUMPDEST POP JUMP JUMPDEST PUSH0 DUP2 CALLDATALOAD SWAP1 POP PUSH2 0x7DE DUP2 PUSH2 0x7BA JUMP JUMPDEST SWAP3 SWAP2 POP POP JUMP JUMPDEST PUSH0 PUSH1 0x20 DUP3 DUP5 SUB SLT ISZERO PUSH2 0x7F9 JUMPI PUSH2 0x7F8 PUSH2 0x782 JUMP JUMPDEST JUMPDEST PUSH0 PUSH2 0x806 DUP5 DUP3 DUP6 ADD PUSH2 0x7D0 JUMP JUMPDEST SWAP2 POP POP SWAP3 SWAP2 POP POP JUMP JUMPDEST PUSH0 DUP2 MLOAD SWAP1 POP SWAP2 SWAP1 POP JUMP JUMPDEST PUSH0 DUP3 DUP3 MSTORE PUSH1 0x20 DUP3 ADD SWAP1 POP SWAP3 SWAP2 POP POP JUMP JUMPDEST PUSH0 DUP2 SWAP1 POP PUSH1 0x20 DUP3 ADD SWAP1 POP SWAP2 SWAP1 POP JUMP JUMPDEST PUSH0 DUP2 MLOAD SWAP1 POP SWAP2 SWAP1 POP JUMP JUMPDEST PUSH0 DUP3 DUP3 MSTORE PUSH1 0x20 DUP3 ADD SWAP1 POP SWAP3 SWAP2 POP POP JUMP JUMPDEST PUSH0 DUP2 SWAP1 POP PUSH1 0x20 DUP3 ADD SWAP1 POP SWAP2 SWAP1 POP JUMP JUMPDEST PUSH2 0x86A DUP2 PUSH2 0x7A9 JUMP JUMPDEST DUP3 MSTORE POP POP JUMP JUMPDEST PUSH0 PUSH2 0x87B DUP4 DUP4 PUSH2 0x861 JUMP JUMPDEST PUSH1 0x20 DUP4 ADD SWAP1 POP SWAP3 SWAP2 POP POP JUMP JUMPDEST PUSH0 PUSH1 0x20 DUP3 ADD SWAP1 POP SWAP2 SWAP1 POP JUMP JUMPDEST PUSH0 PUSH2 0x89D DUP3 PUSH2 0x838 JUMP JUMPDEST PUSH2 0x8A7 DUP2 DUP6 PUSH2 0x842 JUMP JUMPDEST SWAP4 POP PUSH2 0x8B2 DUP4 PUSH2 0x852 JUMP JUMPDEST DUP1 PUSH0 JUMPDEST DUP4 DUP2 LT ISZERO PUSH2 0x8E2 JUMPI DUP2 MLOAD PUSH2 0x8C9 DUP9 DUP3 PUSH2 0x870 JUMP JUMPDEST SWAP8 POP PUSH2 0x8D4 DUP4 PUSH2 0x887 JUMP JUMPDEST SWAP3 POP POP PUSH1 0x1 DUP2 ADD SWAP1 POP PUSH2 0x8B5 JUMP JUMPDEST POP DUP6 SWAP4 POP POP POP POP SWAP3 SWAP2 POP POP JUMP JUMPDEST PUSH0 DUP2 ISZERO ISZERO SWAP1 POP SWAP2 SWAP1 POP JUMP JUMPDEST PUSH2 0x903 DUP2 PUSH2 0x8EF JUMP JUMPDEST DUP3 MSTORE POP POP JUMP JUMPDEST PUSH0 DUP2 SWAP1 POP SWAP2 SWAP1 POP JUMP JUMPDEST PUSH2 0x91B DUP2 PUSH2 0x909 JUMP JUMPDEST DUP3 MSTORE POP POP JUMP JUMPDEST PUSH0 PUSH1 0xC0 DUP4 ADD PUSH0 DUP4 ADD MLOAD DUP5 DUP3 SUB PUSH0 DUP7 ADD MSTORE PUSH2 0x93B DUP3 DUP3 PUSH2 0x893 JUMP JUMPDEST SWAP2 POP POP PUSH1 0x20 DUP4 ADD MLOAD DUP5 DUP3 SUB PUSH1 0x20 DUP7 ADD MSTORE PUSH2 0x955 DUP3 DUP3 PUSH2 0x893 JUMP JUMPDEST SWAP2 POP POP PUSH1 0x40 DUP4 ADD MLOAD PUSH2 0x96A PUSH1 0x40 DUP7 ADD DUP3 PUSH2 0x8FA JUMP JUMPDEST POP PUSH1 0x60 DUP4 ADD MLOAD PUSH2 0x97D PUSH1 0x60 DUP7 ADD DUP3 PUSH2 0x912 JUMP JUMPDEST POP PUSH1 0x80 DUP4 ADD MLOAD PUSH2 0x990 PUSH1 0x80 DUP7 ADD DUP3 PUSH2 0x912 JUMP JUMPDEST POP PUSH1 0xA0 DUP4 ADD MLOAD PUSH2 0x9A3 PUSH1 0xA0 DUP7 ADD DUP3 PUSH2 0x912 JUMP JUMPDEST POP DUP1 SWAP2 POP POP SWAP3 SWAP2 POP POP JUMP JUMPDEST PUSH0 PUSH2 0x9B9 DUP4 DUP4 PUSH2 0x921 JUMP JUMPDEST SWAP1 POP SWAP3 SWAP2 POP POP JUMP JUMPDEST PUSH0 PUSH1 0x20 DUP3 ADD SWAP1 POP SWAP2 SWAP1 POP JUMP JUMPDEST PUSH0 PUSH2 0x9D7 DUP3 PUSH2 0x80F JUMP JUMPDEST PUSH2 0x9E1 DUP2 DUP6 PUSH2 0x819 JUMP JUMPDEST SWAP4 POP DUP4 PUSH1 0x20 DUP3 MUL DUP6 ADD PUSH2 0x9F3 DUP6 PUSH2 0x829 JUMP JUMPDEST DUP1 PUSH0 JUMPDEST DUP6 DUP2 LT ISZERO PUSH2 0xA2E JUMPI DUP5 DUP5 SUB DUP10 MSTORE DUP2 MLOAD PUSH2 0xA0F DUP6 DUP3 PUSH2 0x9AE JUMP JUMPDEST SWAP5 POP PUSH2 0xA1A DUP4 PUSH2 0x9C1 JUMP JUMPDEST SWAP3 POP PUSH1 0x20 DUP11 ADD SWAP10 POP POP PUSH1 0x1 DUP2 ADD SWAP1 POP PUSH2 0x9F6 JUMP JUMPDEST POP DUP3 SWAP8 POP DUP8 SWAP6 POP POP POP POP POP POP SWAP3 SWAP2 POP POP JUMP JUMPDEST PUSH0 PUSH1 0x20 DUP3 ADD SWAP1 POP DUP2 DUP2 SUB PUSH0 DUP4 ADD MSTORE PUSH2 0xA58 DUP2 DUP5 PUSH2 0x9CD JUMP JUMPDEST SWAP1 POP SWAP3 SWAP2 POP POP JUMP JUMPDEST PUSH0 DUP1 REVERT JUMPDEST PUSH0 PUSH1 0x1F NOT PUSH1 0x1F DUP4 ADD AND SWAP1 POP SWAP2 SWAP1 POP JUMP JUMPDEST PUSH32 0x4E487B7100000000000000000000000000000000000000000000000000000000 PUSH0 MSTORE PUSH1 0x41 PUSH1 0x4 MSTORE PUSH1 0x24 PUSH0 REVERT JUMPDEST PUSH2 0xAAA DUP3 PUSH2 0xA64 JUMP JUMPDEST DUP2 ADD DUP2 DUP2 LT PUSH8 0xFFFFFFFFFFFFFFFF DUP3 GT OR ISZERO PUSH2 0xAC9 JUMPI PUSH2 0xAC8 PUSH2 0xA74 JUMP JUMPDEST JUMPDEST DUP1 PUSH1 0x40 MSTORE POP POP POP JUMP JUMPDEST PUSH0 PUSH2 0xADB PUSH2 0x779 JUMP JUMPDEST SWAP1 POP PUSH2 0xAE7 DUP3 DUP3 PUSH2 0xAA1 JUMP JUMPDEST SWAP2 SWAP1 POP JUMP JUMPDEST PUSH0 PUSH8 0xFFFFFFFFFFFFFFFF DUP3 GT ISZERO PUSH2 0xB06 JUMPI PUSH2 0xB05 PUSH2 0xA74 JUMP JUMPDEST JUMPDEST PUSH1 0x20 DUP3 MUL SWAP1 POP PUSH1 0x20 DUP2 ADD SWAP1 POP SWAP2 SWAP1 POP JUMP JUMPDEST PUSH0 DUP1 REVERT JUMPDEST PUSH0 PUSH2 0xB2D PUSH2 0xB28 DUP5 PUSH2 0xAEC JUMP JUMPDEST PUSH2 0xAD2 JUMP JUMPDEST SWAP1 POP DUP1 DUP4 DUP3 MSTORE PUSH1 0x20 DUP3 ADD SWAP1 POP PUSH1 0x20 DUP5 MUL DUP4 ADD DUP6 DUP2 GT ISZERO PUSH2 0xB50 JUMPI PUSH2 0xB4F PUSH2 0xB17 JUMP JUMPDEST JUMPDEST DUP4 JUMPDEST DUP2 DUP2 LT ISZERO PUSH2 0xB79 JUMPI DUP1 PUSH2 0xB65 DUP9 DUP3 PUSH2 0x7D0 JUMP JUMPDEST DUP5 MSTORE PUSH1 0x20 DUP5 ADD SWAP4 POP POP PUSH1 0x20 DUP2 ADD SWAP1 POP PUSH2 0xB52 JUMP JUMPDEST POP POP POP SWAP4 SWAP3 POP POP POP JUMP JUMPDEST PUSH0 DUP3 PUSH1 0x1F DUP4 ADD SLT PUSH2 0xB97 JUMPI PUSH2 0xB96 PUSH2 0xA60 JUMP JUMPDEST JUMPDEST DUP2 CALLDATALOAD PUSH2 0xBA7 DUP5 DUP3 PUSH1 0x20 DUP7 ADD PUSH2 0xB1B JUMP JUMPDEST SWAP2 POP POP SWAP3 SWAP2 POP POP JUMP JUMPDEST PUSH2 0xBB9 DUP2 PUSH2 0x8EF JUMP JUMPDEST DUP2 EQ PUSH2 0xBC3 JUMPI PUSH0 DUP1 REVERT JUMPDEST POP JUMP JUMPDEST PUSH0 DUP2 CALLDATALOAD SWAP1 POP PUSH2 0xBD4 DUP2 PUSH2 0xBB0 JUMP JUMPDEST SWAP3 SWAP2 POP POP JUMP JUMPDEST PUSH2 0xBE3 DUP2 PUSH2 0x909 JUMP JUMPDEST DUP2 EQ PUSH2 0xBED JUMPI PUSH0 DUP1 REVERT JUMPDEST POP JUMP JUMPDEST PUSH0 DUP2 CALLDATALOAD SWAP1 POP PUSH2 0xBFE DUP2 PUSH2 0xBDA JUMP JUMPDEST SWAP3 SWAP2 POP POP JUMP JUMPDEST PUSH0 DUP1 PUSH0 DUP1 PUSH0 DUP1 PUSH0 PUSH1 0xE0 DUP9 DUP11 SUB SLT ISZERO PUSH2 0xC1F JUMPI PUSH2 0xC1E PUSH2 0x782 JUMP JUMPDEST JUMPDEST PUSH0 PUSH2 0xC2C DUP11 DUP3 DUP12 ADD PUSH2 0x7D0 JUMP JUMPDEST SWAP8 POP POP PUSH1 0x20 DUP9 ADD CALLDATALOAD PUSH8 0xFFFFFFFFFFFFFFFF DUP2 GT ISZERO PUSH2 0xC4D JUMPI PUSH2 0xC4C PUSH2 0x786 JUMP JUMPDEST JUMPDEST PUSH2 0xC59 DUP11 DUP3 DUP12 ADD PUSH2 0xB83 JUMP JUMPDEST SWAP7 POP POP PUSH1 0x40 DUP9 ADD CALLDATALOAD PUSH8 0xFFFFFFFFFFFFFFFF DUP2 GT ISZERO PUSH2 0xC7A JUMPI PUSH2 0xC79 PUSH2 0x786 JUMP JUMPDEST JUMPDEST PUSH2 0xC86 DUP11 DUP3 DUP12 ADD PUSH2 0xB83 JUMP JUMPDEST SWAP6 POP POP PUSH1 0x60 PUSH2 0xC97 DUP11 DUP3 DUP12 ADD PUSH2 0xBC6 JUMP JUMPDEST SWAP5 POP POP PUSH1 0x80 PUSH2 0xCA8 DUP11 DUP3 DUP12 ADD PUSH2 0xBF0 JUMP JUMPDEST SWAP4 POP POP PUSH1 0xA0 PUSH2 0xCB9 DUP11 DUP3 DUP12 ADD PUSH2 0xBF0 JUMP JUMPDEST SWAP3 POP POP PUSH1 0xC0 PUSH2 0xCCA DUP11 DUP3 DUP12 ADD PUSH2 0xBF0 JUMP JUMPDEST SWAP2 POP POP SWAP3 SWAP6 SWAP9 SWAP2 SWAP5 SWAP8 POP SWAP3 SWAP6 POP JUMP JUMPDEST PUSH32 0x4E487B7100000000000000000000000000000000000000000000000000000000 PUSH0 MSTORE PUSH1 0x11 PUSH1 0x4 MSTORE PUSH1 0x24 PUSH0 REVERT JUMPDEST PUSH0 PUSH2 0xD10 DUP3 PUSH2 0x909 JUMP JUMPDEST SWAP2 POP PUSH2 0xD1B DUP4 PUSH2 0x909 JUMP JUMPDEST SWAP3 POP DUP3 DUP3 SUB SWAP1 POP DUP2 DUP2 GT ISZERO PUSH2 0xD33 JUMPI PUSH2 0xD32 PUSH2 0xCD9 JUMP JUMPDEST JUMPDEST SWAP3 SWAP2 POP POP JUMP JUMPDEST PUSH32 0x4E487B7100000000000000000000000000000000000000000000000000000000 PUSH0 MSTORE PUSH1 0x32 PUSH1 0x4 MSTORE PUSH1 0x24 PUSH0 REVERT JUMPDEST PUSH0 PUSH2 0xD70 DUP3 PUSH2 0x909 JUMP JUMPDEST SWAP2 POP PUSH32 0xFFFFFFFFFFFFFFFFFFFFFFFFFFFFFFFFFFFFFFFFFFFFFFFFFFFFFFFFFFFFFFFF DUP3 SUB PUSH2 0xDA2 JUMPI PUSH2 0xDA1 PUSH2 0xCD9 JUMP JUMPDEST JUMPDEST PUSH1 0x1 DUP3 ADD SWAP1 POP SWAP2 SWAP1 POP JUMP JUMPDEST PUSH0 PUSH2 0xDB7 DUP3 PUSH2 0x909 JUMP JUMPDEST SWAP2 POP PUSH0 DUP3 SUB PUSH2 0xDC9 JUMPI PUSH2 0xDC8 PUSH2 0xCD9 JUMP JUMPDEST JUMPDEST PUSH1 0x1 DUP3 SUB SWAP1 POP SWAP2 SWAP1 POP JUMP INVALID LOG2 PUSH5 0x6970667358 0x22 SLT KECCAK256 0xDA 0xD6 JUMPDEST 0x25 0xAF DUP14 PUSH26 0xCE4B21E2D1B42AEEF51F28E40D096EA41439E8ABF00021276464 PUSH20 0x6F6C634300081600330000000000000000000000 "
				},
				"gasEstimates": {
					"creation": {
						"codeDepositCost": "718800",
						"executionCost": "751",
						"totalCost": "719551"
					},
					"external": {
						"addPartida(address,address[],address[],bool,uint256,uint256,uint256)": "infinite",
						"getLast10Matches(address)": "infinite",
						"getMatches(address)": "infinite"
					}
				},
				"methodIdentifiers": {
					"addPartida(address,address[],address[],bool,uint256,uint256,uint256)": "7a7e4e51",
					"getLast10Matches(address)": "eed42420",
					"getMatches(address)": "77795778"
				}
			},
			"storageLayout": {
				"storage": [
					{
						"astId": 22,
						"contract": "contracts/TankToys/Tank_Partidas.sol:TankToys_Partidas",
						"label": "partidas",
						"offset": 0,
						"slot": "0",
						"type": "t_mapping(t_address,t_array(t_struct(partida)16_storage)dyn_storage)"
					}
				],
				"types": {
					"t_address": {
						"encoding": "inplace",
						"label": "address",
						"numberOfBytes": "20"
					},
					"t_array(t_address)dyn_storage": {
						"base": "t_address",
						"encoding": "dynamic_array",
						"label": "address[]",
						"numberOfBytes": "32"
					},
					"t_array(t_struct(partida)16_storage)dyn_storage": {
						"base": "t_struct(partida)16_storage",
						"encoding": "dynamic_array",
						"label": "struct TankToys_Partidas.partida[]",
						"numberOfBytes": "32"
					},
					"t_bool": {
						"encoding": "inplace",
						"label": "bool",
						"numberOfBytes": "1"
					},
					"t_mapping(t_address,t_array(t_struct(partida)16_storage)dyn_storage)": {
						"encoding": "mapping",
						"key": "t_address",
						"label": "mapping(address => struct TankToys_Partidas.partida[])",
						"numberOfBytes": "32",
						"value": "t_array(t_struct(partida)16_storage)dyn_storage"
					},
					"t_struct(partida)16_storage": {
						"encoding": "inplace",
						"label": "struct TankToys_Partidas.partida",
						"members": [
							{
								"astId": 4,
								"contract": "contracts/TankToys/Tank_Partidas.sol:TankToys_Partidas",
								"label": "players",
								"offset": 0,
								"slot": "0",
								"type": "t_array(t_address)dyn_storage"
							},
							{
								"astId": 7,
								"contract": "contracts/TankToys/Tank_Partidas.sol:TankToys_Partidas",
								"label": "winners",
								"offset": 0,
								"slot": "1",
								"type": "t_array(t_address)dyn_storage"
							},
							{
								"astId": 9,
								"contract": "contracts/TankToys/Tank_Partidas.sol:TankToys_Partidas",
								"label": "win",
								"offset": 0,
								"slot": "2",
								"type": "t_bool"
							},
							{
								"astId": 11,
								"contract": "contracts/TankToys/Tank_Partidas.sol:TankToys_Partidas",
								"label": "kills",
								"offset": 0,
								"slot": "3",
								"type": "t_uint256"
							},
							{
								"astId": 13,
								"contract": "contracts/TankToys/Tank_Partidas.sol:TankToys_Partidas",
								"label": "deaths",
								"offset": 0,
								"slot": "4",
								"type": "t_uint256"
							},
							{
								"astId": 15,
								"contract": "contracts/TankToys/Tank_Partidas.sol:TankToys_Partidas",
								"label": "assist",
								"offset": 0,
								"slot": "5",
								"type": "t_uint256"
							}
						],
						"numberOfBytes": "192"
					},
					"t_uint256": {
						"encoding": "inplace",
						"label": "uint256",
						"numberOfBytes": "32"
					}
				}
			},
			"userdoc": {
				"kind": "user",
				"methods": {},
				"version": 1
			}
		}
	}
}