{
	"TankToys/TKC_ERC20_flattened.sol": {
		"TankCoin": {
			"abi": [
				{
					"inputs": [],
					"stateMutability": "nonpayable",
					"type": "constructor"
				},
				{
					"inputs": [
						{
							"internalType": "address",
							"name": "spender",
							"type": "address"
						},
						{
							"internalType": "uint256",
							"name": "allowance",
							"type": "uint256"
						},
						{
							"internalType": "uint256",
							"name": "needed",
							"type": "uint256"
						}
					],
					"name": "ERC20InsufficientAllowance",
					"type": "error"
				},
				{
					"inputs": [
						{
							"internalType": "address",
							"name": "sender",
							"type": "address"
						},
						{
							"internalType": "uint256",
							"name": "balance",
							"type": "uint256"
						},
						{
							"internalType": "uint256",
							"name": "needed",
							"type": "uint256"
						}
					],
					"name": "ERC20InsufficientBalance",
					"type": "error"
				},
				{
					"inputs": [
						{
							"internalType": "address",
							"name": "approver",
							"type": "address"
						}
					],
					"name": "ERC20InvalidApprover",
					"type": "error"
				},
				{
					"inputs": [
						{
							"internalType": "address",
							"name": "receiver",
							"type": "address"
						}
					],
					"name": "ERC20InvalidReceiver",
					"type": "error"
				},
				{
					"inputs": [
						{
							"internalType": "address",
							"name": "sender",
							"type": "address"
						}
					],
					"name": "ERC20InvalidSender",
					"type": "error"
				},
				{
					"inputs": [
						{
							"internalType": "address",
							"name": "spender",
							"type": "address"
						}
					],
					"name": "ERC20InvalidSpender",
					"type": "error"
				},
				{
					"anonymous": false,
					"inputs": [
						{
							"indexed": true,
							"internalType": "address",
							"name": "owner",
							"type": "address"
						},
						{
							"indexed": true,
							"internalType": "address",
							"name": "spender",
							"type": "address"
						},
						{
							"indexed": false,
							"internalType": "uint256",
							"name": "value",
							"type": "uint256"
						}
					],
					"name": "Approval",
					"type": "event"
				},
				{
					"anonymous": false,
					"inputs": [
						{
							"indexed": true,
							"internalType": "address",
							"name": "from",
							"type": "address"
						},
						{
							"indexed": true,
							"internalType": "address",
							"name": "to",
							"type": "address"
						},
						{
							"indexed": false,
							"internalType": "uint256",
							"name": "value",
							"type": "uint256"
						}
					],
					"name": "Transfer",
					"type": "event"
				},
				{
					"inputs": [
						{
							"internalType": "address",
							"name": "owner",
							"type": "address"
						},
						{
							"internalType": "address",
							"name": "spender",
							"type": "address"
						}
					],
					"name": "allowance",
					"outputs": [
						{
							"internalType": "uint256",
							"name": "",
							"type": "uint256"
						}
					],
					"stateMutability": "view",
					"type": "function"
				},
				{
					"inputs": [
						{
							"internalType": "address",
							"name": "spender",
							"type": "address"
						},
						{
							"internalType": "uint256",
							"name": "value",
							"type": "uint256"
						}
					],
					"name": "approve",
					"outputs": [
						{
							"internalType": "bool",
							"name": "",
							"type": "bool"
						}
					],
					"stateMutability": "nonpayable",
					"type": "function"
				},
				{
					"inputs": [
						{
							"internalType": "address",
							"name": "propietario",
							"type": "address"
						},
						{
							"internalType": "address",
							"name": "spender",
							"type": "address"
						},
						{
							"internalType": "uint256",
							"name": "value",
							"type": "uint256"
						}
					],
					"name": "aprobar",
					"outputs": [],
					"stateMutability": "nonpayable",
					"type": "function"
				},
				{
					"inputs": [
						{
							"internalType": "address",
							"name": "account",
							"type": "address"
						}
					],
					"name": "balanceOf",
					"outputs": [
						{
							"internalType": "uint256",
							"name": "",
							"type": "uint256"
						}
					],
					"stateMutability": "view",
					"type": "function"
				},
				{
					"inputs": [],
					"name": "decimals",
					"outputs": [
						{
							"internalType": "uint8",
							"name": "",
							"type": "uint8"
						}
					],
					"stateMutability": "view",
					"type": "function"
				},
				{
					"inputs": [
						{
							"internalType": "address",
							"name": "to",
							"type": "address"
						},
						{
							"internalType": "uint256",
							"name": "amount",
							"type": "uint256"
						}
					],
					"name": "mint",
					"outputs": [],
					"stateMutability": "nonpayable",
					"type": "function"
				},
				{
					"inputs": [],
					"name": "name",
					"outputs": [
						{
							"internalType": "string",
							"name": "",
							"type": "string"
						}
					],
					"stateMutability": "view",
					"type": "function"
				},
				{
					"inputs": [],
					"name": "symbol",
					"outputs": [
						{
							"internalType": "string",
							"name": "",
							"type": "string"
						}
					],
					"stateMutability": "view",
					"type": "function"
				},
				{
					"inputs": [],
					"name": "totalSupply",
					"outputs": [
						{
							"internalType": "uint256",
							"name": "",
							"type": "uint256"
						}
					],
					"stateMutability": "view",
					"type": "function"
				},
				{
					"inputs": [
						{
							"internalType": "address",
							"name": "to",
							"type": "address"
						},
						{
							"internalType": "uint256",
							"name": "value",
							"type": "uint256"
						}
					],
					"name": "transfer",
					"outputs": [
						{
							"internalType": "bool",
							"name": "",
							"type": "bool"
						}
					],
					"stateMutability": "nonpayable",
					"type": "function"
				},
				{
					"inputs": [
						{
							"internalType": "address",
							"name": "from",
							"type": "address"
						},
						{
							"internalType": "address",
							"name": "to",
							"type": "address"
						},
						{
							"internalType": "uint256",
							"name": "value",
							"type": "uint256"
						}
					],
					"name": "transferFrom",
					"outputs": [
						{
							"internalType": "bool",
							"name": "",
							"type": "bool"
						}
					],
					"stateMutability": "nonpayable",
					"type": "function"
				}
			],
			"devdoc": {
				"errors": {
					"ERC20InsufficientAllowance(address,uint256,uint256)": [
						{
							"details": "Indicates a failure with the `spender`’s `allowance`. Used in transfers.",
							"params": {
								"allowance": "Amount of tokens a `spender` is allowed to operate with.",
								"needed": "Minimum amount required to perform a transfer.",
								"spender": "Address that may be allowed to operate on tokens without being their owner."
							}
						}
					],
					"ERC20InsufficientBalance(address,uint256,uint256)": [
						{
							"details": "Indicates an error related to the current `balance` of a `sender`. Used in transfers.",
							"params": {
								"balance": "Current balance for the interacting account.",
								"needed": "Minimum amount required to perform a transfer.",
								"sender": "Address whose tokens are being transferred."
							}
						}
					],
					"ERC20InvalidApprover(address)": [
						{
							"details": "Indicates a failure with the `approver` of a token to be approved. Used in approvals.",
							"params": {
								"approver": "Address initiating an approval operation."
							}
						}
					],
					"ERC20InvalidReceiver(address)": [
						{
							"details": "Indicates a failure with the token `receiver`. Used in transfers.",
							"params": {
								"receiver": "Address to which tokens are being transferred."
							}
						}
					],
					"ERC20InvalidSender(address)": [
						{
							"details": "Indicates a failure with the token `sender`. Used in transfers.",
							"params": {
								"sender": "Address whose tokens are being transferred."
							}
						}
					],
					"ERC20InvalidSpender(address)": [
						{
							"details": "Indicates a failure with the `spender` to be approved. Used in approvals.",
							"params": {
								"spender": "Address that may be allowed to operate on tokens without being their owner."
							}
						}
					]
				},
				"events": {
					"Approval(address,address,uint256)": {
						"details": "Emitted when the allowance of a `spender` for an `owner` is set by a call to {approve}. `value` is the new allowance."
					},
					"Transfer(address,address,uint256)": {
						"details": "Emitted when `value` tokens are moved from one account (`from`) to another (`to`). Note that `value` may be zero."
					}
				},
				"kind": "dev",
				"methods": {
					"allowance(address,address)": {
						"details": "See {IERC20-allowance}."
					},
					"approve(address,uint256)": {
						"details": "See {IERC20-approve}. NOTE: If `value` is the maximum `uint256`, the allowance is not updated on `transferFrom`. This is semantically equivalent to an infinite approval. Requirements: - `spender` cannot be the zero address."
					},
					"balanceOf(address)": {
						"details": "See {IERC20-balanceOf}."
					},
					"decimals()": {
						"details": "Returns the number of decimals used to get its user representation. For example, if `decimals` equals `2`, a balance of `505` tokens should be displayed to a user as `5.05` (`505 / 10 ** 2`). Tokens usually opt for a value of 18, imitating the relationship between Ether and Wei. This is the default value returned by this function, unless it's overridden. NOTE: This information is only used for _display_ purposes: it in no way affects any of the arithmetic of the contract, including {IERC20-balanceOf} and {IERC20-transfer}."
					},
					"name()": {
						"details": "Returns the name of the token."
					},
					"symbol()": {
						"details": "Returns the symbol of the token, usually a shorter version of the name."
					},
					"totalSupply()": {
						"details": "See {IERC20-totalSupply}."
					},
					"transfer(address,uint256)": {
						"details": "See {IERC20-transfer}. Requirements: - `to` cannot be the zero address. - the caller must have a balance of at least `value`."
					},
					"transferFrom(address,address,uint256)": {
						"details": "See {IERC20-transferFrom}. Emits an {Approval} event indicating the updated allowance. This is not required by the EIP. See the note at the beginning of {ERC20}. NOTE: Does not update the allowance if the current allowance is the maximum `uint256`. Requirements: - `from` and `to` cannot be the zero address. - `from` must have a balance of at least `value`. - the caller must have allowance for ``from``'s tokens of at least `value`."
					}
				},
				"version": 1
			},
			"evm": {
				"assembly": "    /* \"TankToys/TKC_ERC20_flattened.sol\":79440:79812  contract TankCoin is ERC20 {... */\n  mstore(0x40, 0x80)\n    /* \"TankToys/TKC_ERC20_flattened.sol\":79473:79585  constructor()... */\n  callvalue\n  dup1\n  iszero\n  tag_1\n  jumpi\n  0x00\n  dup1\n  revert\ntag_1:\n  pop\n    /* \"TankToys/TKC_ERC20_flattened.sol\":67570:67683  constructor(string memory name_, string memory symbol_) {... */\n  mload(0x40)\n  dup1\n  0x40\n  add\n  0x40\n  mstore\n  dup1\n  0x08\n  dup2\n  mstore\n  0x20\n  add\n  0x54616e6b436f696e000000000000000000000000000000000000000000000000\n  dup2\n  mstore\n  pop\n  mload(0x40)\n  dup1\n  0x40\n  add\n  0x40\n  mstore\n  dup1\n  0x03\n  dup2\n  mstore\n  0x20\n  add\n  0x544b430000000000000000000000000000000000000000000000000000000000\n  dup2\n  mstore\n  pop\n    /* \"TankToys/TKC_ERC20_flattened.sol\":67644:67649  name_ */\n  dup2\n    /* \"TankToys/TKC_ERC20_flattened.sol\":67636:67641  _name */\n  0x03\n    /* \"TankToys/TKC_ERC20_flattened.sol\":67636:67649  _name = name_ */\n  swap1\n  dup2\n  tag_5\n  swap2\n  swap1\n  tag_6\n  jump\t// in\ntag_5:\n  pop\n    /* \"TankToys/TKC_ERC20_flattened.sol\":67669:67676  symbol_ */\n  dup1\n    /* \"TankToys/TKC_ERC20_flattened.sol\":67659:67666  _symbol */\n  0x04\n    /* \"TankToys/TKC_ERC20_flattened.sol\":67659:67676  _symbol = symbol_ */\n  swap1\n  dup2\n  tag_7\n  swap2\n  swap1\n  tag_6\n  jump\t// in\ntag_7:\n  pop\n    /* \"TankToys/TKC_ERC20_flattened.sol\":67570:67683  constructor(string memory name_, string memory symbol_) {... */\n  pop\n  pop\n    /* \"TankToys/TKC_ERC20_flattened.sol\":79535:79578  _mint(msg.sender, 10000 * 10 ** decimals()) */\n  tag_9\n    /* \"TankToys/TKC_ERC20_flattened.sol\":79541:79551  msg.sender */\n  caller\n    /* \"TankToys/TKC_ERC20_flattened.sol\":79567:79577  decimals() */\n  tag_10\n    /* \"TankToys/TKC_ERC20_flattened.sol\":79567:79575  decimals */\n  shl(0x20, tag_11)\n    /* \"TankToys/TKC_ERC20_flattened.sol\":79567:79577  decimals() */\n  0x20\n  shr\n  jump\t// in\ntag_10:\n    /* \"TankToys/TKC_ERC20_flattened.sol\":79561:79563  10 */\n  0x0a\n    /* \"TankToys/TKC_ERC20_flattened.sol\":79561:79577  10 ** decimals() */\n  tag_12\n  swap2\n  swap1\n  tag_13\n  jump\t// in\ntag_12:\n    /* \"TankToys/TKC_ERC20_flattened.sol\":79553:79558  10000 */\n  0x2710\n    /* \"TankToys/TKC_ERC20_flattened.sol\":79553:79577  10000 * 10 ** decimals() */\n  tag_14\n  swap2\n  swap1\n  tag_15\n  jump\t// in\ntag_14:\n    /* \"TankToys/TKC_ERC20_flattened.sol\":79535:79540  _mint */\n  shl(0x20, tag_16)\n    /* \"TankToys/TKC_ERC20_flattened.sol\":79535:79578  _mint(msg.sender, 10000 * 10 ** decimals()) */\n  0x20\n  shr\n  jump\t// in\ntag_9:\n    /* \"TankToys/TKC_ERC20_flattened.sol\":79440:79812  contract TankCoin is ERC20 {... */\n  jump(tag_17)\n    /* \"TankToys/TKC_ERC20_flattened.sol\":68676:68758  function decimals() public view virtual returns (uint8) {... */\ntag_11:\n    /* \"TankToys/TKC_ERC20_flattened.sol\":68725:68730  uint8 */\n  0x00\n    /* \"TankToys/TKC_ERC20_flattened.sol\":68749:68751  18 */\n  0x12\n    /* \"TankToys/TKC_ERC20_flattened.sol\":68742:68751  return 18 */\n  swap1\n  pop\n    /* \"TankToys/TKC_ERC20_flattened.sol\":68676:68758  function decimals() public view virtual returns (uint8) {... */\n  swap1\n  jump\t// out\n    /* \"TankToys/TKC_ERC20_flattened.sol\":73395:73603  function _mint(address account, uint256 value) internal {... */\ntag_16:\n    /* \"TankToys/TKC_ERC20_flattened.sol\":73484:73485  0 */\n  0x00\n    /* \"TankToys/TKC_ERC20_flattened.sol\":73465:73486  account == address(0) */\n  0xffffffffffffffffffffffffffffffffffffffff\n  and\n    /* \"TankToys/TKC_ERC20_flattened.sol\":73465:73472  account */\n  dup3\n    /* \"TankToys/TKC_ERC20_flattened.sol\":73465:73486  account == address(0) */\n  0xffffffffffffffffffffffffffffffffffffffff\n  and\n  sub\n    /* \"TankToys/TKC_ERC20_flattened.sol\":73461:73552  if (account == address(0)) {... */\n  tag_20\n  jumpi\n    /* \"TankToys/TKC_ERC20_flattened.sol\":73538:73539  0 */\n  0x00\n    /* \"TankToys/TKC_ERC20_flattened.sol\":73509:73541  ERC20InvalidReceiver(address(0)) */\n  mload(0x40)\n  0xec442f0500000000000000000000000000000000000000000000000000000000\n  dup2\n  mstore\n  0x04\n  add\n  tag_21\n  swap2\n  swap1\n  tag_22\n  jump\t// in\ntag_21:\n  mload(0x40)\n  dup1\n  swap2\n  sub\n  swap1\n  revert\n    /* \"TankToys/TKC_ERC20_flattened.sol\":73461:73552  if (account == address(0)) {... */\ntag_20:\n    /* \"TankToys/TKC_ERC20_flattened.sol\":73561:73596  _update(address(0), account, value) */\n  tag_23\n    /* \"TankToys/TKC_ERC20_flattened.sol\":73577:73578  0 */\n  0x00\n    /* \"TankToys/TKC_ERC20_flattened.sol\":73581:73588  account */\n  dup4\n    /* \"TankToys/TKC_ERC20_flattened.sol\":73590:73595  value */\n  dup4\n    /* \"TankToys/TKC_ERC20_flattened.sol\":73561:73568  _update */\n  shl(0x20, tag_24)\n    /* \"TankToys/TKC_ERC20_flattened.sol\":73561:73596  _update(address(0), account, value) */\n  0x20\n  shr\n  jump\t// in\ntag_23:\n    /* \"TankToys/TKC_ERC20_flattened.sol\":73395:73603  function _mint(address account, uint256 value) internal {... */\n  pop\n  pop\n  jump\t// out\n    /* \"TankToys/TKC_ERC20_flattened.sol\":71945:73052  function _update(address from, address to, uint256 value) internal virtual {... */\ntag_24:\n    /* \"TankToys/TKC_ERC20_flattened.sol\":72050:72051  0 */\n  0x00\n    /* \"TankToys/TKC_ERC20_flattened.sol\":72034:72052  from == address(0) */\n  0xffffffffffffffffffffffffffffffffffffffff\n  and\n    /* \"TankToys/TKC_ERC20_flattened.sol\":72034:72038  from */\n  dup4\n    /* \"TankToys/TKC_ERC20_flattened.sol\":72034:72052  from == address(0) */\n  0xffffffffffffffffffffffffffffffffffffffff\n  and\n  sub\n    /* \"TankToys/TKC_ERC20_flattened.sol\":72030:72570  if (from == address(0)) {... */\n  tag_26\n  jumpi\n    /* \"TankToys/TKC_ERC20_flattened.sol\":72186:72191  value */\n  dup1\n    /* \"TankToys/TKC_ERC20_flattened.sol\":72170:72182  _totalSupply */\n  0x02\n  0x00\n    /* \"TankToys/TKC_ERC20_flattened.sol\":72170:72191  _totalSupply += value */\n  dup3\n  dup3\n  sload\n  tag_27\n  swap2\n  swap1\n  tag_28\n  jump\t// in\ntag_27:\n  swap3\n  pop\n  pop\n  dup2\n  swap1\n  sstore\n  pop\n    /* \"TankToys/TKC_ERC20_flattened.sol\":72030:72570  if (from == address(0)) {... */\n  jump(tag_29)\ntag_26:\n    /* \"TankToys/TKC_ERC20_flattened.sol\":72222:72241  uint256 fromBalance */\n  0x00\n    /* \"TankToys/TKC_ERC20_flattened.sol\":72244:72253  _balances */\n  dup1\n    /* \"TankToys/TKC_ERC20_flattened.sol\":72244:72259  _balances[from] */\n  0x00\n    /* \"TankToys/TKC_ERC20_flattened.sol\":72254:72258  from */\n  dup6\n    /* \"TankToys/TKC_ERC20_flattened.sol\":72244:72259  _balances[from] */\n  0xffffffffffffffffffffffffffffffffffffffff\n  and\n  0xffffffffffffffffffffffffffffffffffffffff\n  and\n  dup2\n  mstore\n  0x20\n  add\n  swap1\n  dup2\n  mstore\n  0x20\n  add\n  0x00\n  keccak256\n  sload\n    /* \"TankToys/TKC_ERC20_flattened.sol\":72222:72259  uint256 fromBalance = _balances[from] */\n  swap1\n  pop\n    /* \"TankToys/TKC_ERC20_flattened.sol\":72291:72296  value */\n  dup2\n    /* \"TankToys/TKC_ERC20_flattened.sol\":72277:72288  fromBalance */\n  dup2\n    /* \"TankToys/TKC_ERC20_flattened.sol\":72277:72296  fromBalance < value */\n  lt\n    /* \"TankToys/TKC_ERC20_flattened.sol\":72273:72388  if (fromBalance < value) {... */\n  iszero\n  tag_30\n  jumpi\n    /* \"TankToys/TKC_ERC20_flattened.sol\":72348:72352  from */\n  dup4\n    /* \"TankToys/TKC_ERC20_flattened.sol\":72354:72365  fromBalance */\n  dup2\n    /* \"TankToys/TKC_ERC20_flattened.sol\":72367:72372  value */\n  dup4\n    /* \"TankToys/TKC_ERC20_flattened.sol\":72323:72373  ERC20InsufficientBalance(from, fromBalance, value) */\n  mload(0x40)\n  0xe450d38c00000000000000000000000000000000000000000000000000000000\n  dup2\n  mstore\n  0x04\n  add\n  tag_31\n  swap4\n  swap3\n  swap2\n  swap1\n  tag_32\n  jump\t// in\ntag_31:\n  mload(0x40)\n  dup1\n  swap2\n  sub\n  swap1\n  revert\n    /* \"TankToys/TKC_ERC20_flattened.sol\":72273:72388  if (fromBalance < value) {... */\ntag_30:\n    /* \"TankToys/TKC_ERC20_flattened.sol\":72540:72545  value */\n  dup2\n    /* \"TankToys/TKC_ERC20_flattened.sol\":72526:72537  fromBalance */\n  dup2\n    /* \"TankToys/TKC_ERC20_flattened.sol\":72526:72545  fromBalance - value */\n  sub\n    /* \"TankToys/TKC_ERC20_flattened.sol\":72508:72517  _balances */\n  0x00\n    /* \"TankToys/TKC_ERC20_flattened.sol\":72508:72523  _balances[from] */\n  dup1\n    /* \"TankToys/TKC_ERC20_flattened.sol\":72518:72522  from */\n  dup7\n    /* \"TankToys/TKC_ERC20_flattened.sol\":72508:72523  _balances[from] */\n  0xffffffffffffffffffffffffffffffffffffffff\n  and\n  0xffffffffffffffffffffffffffffffffffffffff\n  and\n  dup2\n  mstore\n  0x20\n  add\n  swap1\n  dup2\n  mstore\n  0x20\n  add\n  0x00\n  keccak256\n    /* \"TankToys/TKC_ERC20_flattened.sol\":72508:72545  _balances[from] = fromBalance - value */\n  dup2\n  swap1\n  sstore\n  pop\n    /* \"TankToys/TKC_ERC20_flattened.sol\":72208:72570  {... */\n  pop\n    /* \"TankToys/TKC_ERC20_flattened.sol\":72030:72570  if (from == address(0)) {... */\ntag_29:\n    /* \"TankToys/TKC_ERC20_flattened.sol\":72598:72599  0 */\n  0x00\n    /* \"TankToys/TKC_ERC20_flattened.sol\":72584:72600  to == address(0) */\n  0xffffffffffffffffffffffffffffffffffffffff\n  and\n    /* \"TankToys/TKC_ERC20_flattened.sol\":72584:72586  to */\n  dup3\n    /* \"TankToys/TKC_ERC20_flattened.sol\":72584:72600  to == address(0) */\n  0xffffffffffffffffffffffffffffffffffffffff\n  and\n  sub\n    /* \"TankToys/TKC_ERC20_flattened.sol\":72580:73005  if (to == address(0)) {... */\n  tag_33\n  jumpi\n    /* \"TankToys/TKC_ERC20_flattened.sol\":72763:72768  value */\n  dup1\n    /* \"TankToys/TKC_ERC20_flattened.sol\":72747:72759  _totalSupply */\n  0x02\n  0x00\n    /* \"TankToys/TKC_ERC20_flattened.sol\":72747:72768  _totalSupply -= value */\n  dup3\n  dup3\n  sload\n  sub\n  swap3\n  pop\n  pop\n  dup2\n  swap1\n  sstore\n  pop\n    /* \"TankToys/TKC_ERC20_flattened.sol\":72580:73005  if (to == address(0)) {... */\n  jump(tag_34)\ntag_33:\n    /* \"TankToys/TKC_ERC20_flattened.sol\":72975:72980  value */\n  dup1\n    /* \"TankToys/TKC_ERC20_flattened.sol\":72958:72967  _balances */\n  0x00\n    /* \"TankToys/TKC_ERC20_flattened.sol\":72958:72971  _balances[to] */\n  dup1\n    /* \"TankToys/TKC_ERC20_flattened.sol\":72968:72970  to */\n  dup5\n    /* \"TankToys/TKC_ERC20_flattened.sol\":72958:72971  _balances[to] */\n  0xffffffffffffffffffffffffffffffffffffffff\n  and\n  0xffffffffffffffffffffffffffffffffffffffff\n  and\n  dup2\n  mstore\n  0x20\n  add\n  swap1\n  dup2\n  mstore\n  0x20\n  add\n  0x00\n  keccak256\n  0x00\n    /* \"TankToys/TKC_ERC20_flattened.sol\":72958:72980  _balances[to] += value */\n  dup3\n  dup3\n  sload\n  add\n  swap3\n  pop\n  pop\n  dup2\n  swap1\n  sstore\n  pop\n    /* \"TankToys/TKC_ERC20_flattened.sol\":72580:73005  if (to == address(0)) {... */\ntag_34:\n    /* \"TankToys/TKC_ERC20_flattened.sol\":73035:73037  to */\n  dup2\n    /* \"TankToys/TKC_ERC20_flattened.sol\":73020:73045  Transfer(from, to, value) */\n  0xffffffffffffffffffffffffffffffffffffffff\n  and\n    /* \"TankToys/TKC_ERC20_flattened.sol\":73029:73033  from */\n  dup4\n    /* \"TankToys/TKC_ERC20_flattened.sol\":73020:73045  Transfer(from, to, value) */\n  0xffffffffffffffffffffffffffffffffffffffff\n  and\n  0xddf252ad1be2c89b69c2b068fc378daa952ba7f163c4a11628f55a4df523b3ef\n    /* \"TankToys/TKC_ERC20_flattened.sol\":73039:73044  value */\n  dup4\n    /* \"TankToys/TKC_ERC20_flattened.sol\":73020:73045  Transfer(from, to, value) */\n  mload(0x40)\n  tag_35\n  swap2\n  swap1\n  tag_36\n  jump\t// in\ntag_35:\n  mload(0x40)\n  dup1\n  swap2\n  sub\n  swap1\n  log3\n    /* \"TankToys/TKC_ERC20_flattened.sol\":71945:73052  function _update(address from, address to, uint256 value) internal virtual {... */\n  pop\n  pop\n  pop\n  jump\t// out\n    /* \"#utility.yul\":7:106   */\ntag_37:\n    /* \"#utility.yul\":59:65   */\n  0x00\n    /* \"#utility.yul\":93:98   */\n  dup2\n    /* \"#utility.yul\":87:99   */\n  mload\n    /* \"#utility.yul\":77:99   */\n  swap1\n  pop\n    /* \"#utility.yul\":7:106   */\n  swap2\n  swap1\n  pop\n  jump\t// out\n    /* \"#utility.yul\":112:292   */\ntag_38:\n    /* \"#utility.yul\":160:237   */\n  0x4e487b7100000000000000000000000000000000000000000000000000000000\n    /* \"#utility.yul\":157:158   */\n  0x00\n    /* \"#utility.yul\":150:238   */\n  mstore\n    /* \"#utility.yul\":257:261   */\n  0x41\n    /* \"#utility.yul\":254:255   */\n  0x04\n    /* \"#utility.yul\":247:262   */\n  mstore\n    /* \"#utility.yul\":281:285   */\n  0x24\n    /* \"#utility.yul\":278:279   */\n  0x00\n    /* \"#utility.yul\":271:286   */\n  revert\n    /* \"#utility.yul\":298:478   */\ntag_39:\n    /* \"#utility.yul\":346:423   */\n  0x4e487b7100000000000000000000000000000000000000000000000000000000\n    /* \"#utility.yul\":343:344   */\n  0x00\n    /* \"#utility.yul\":336:424   */\n  mstore\n    /* \"#utility.yul\":443:447   */\n  0x22\n    /* \"#utility.yul\":440:441   */\n  0x04\n    /* \"#utility.yul\":433:448   */\n  mstore\n    /* \"#utility.yul\":467:471   */\n  0x24\n    /* \"#utility.yul\":464:465   */\n  0x00\n    /* \"#utility.yul\":457:472   */\n  revert\n    /* \"#utility.yul\":484:804   */\ntag_40:\n    /* \"#utility.yul\":528:534   */\n  0x00\n    /* \"#utility.yul\":565:566   */\n  0x02\n    /* \"#utility.yul\":559:563   */\n  dup3\n    /* \"#utility.yul\":555:567   */\n  div\n    /* \"#utility.yul\":545:567   */\n  swap1\n  pop\n    /* \"#utility.yul\":612:613   */\n  0x01\n    /* \"#utility.yul\":606:610   */\n  dup3\n    /* \"#utility.yul\":602:614   */\n  and\n    /* \"#utility.yul\":633:651   */\n  dup1\n    /* \"#utility.yul\":623:704   */\n  tag_71\n  jumpi\n    /* \"#utility.yul\":689:693   */\n  0x7f\n    /* \"#utility.yul\":681:687   */\n  dup3\n    /* \"#utility.yul\":677:694   */\n  and\n    /* \"#utility.yul\":667:694   */\n  swap2\n  pop\n    /* \"#utility.yul\":623:704   */\ntag_71:\n    /* \"#utility.yul\":751:753   */\n  0x20\n    /* \"#utility.yul\":743:749   */\n  dup3\n    /* \"#utility.yul\":740:754   */\n  lt\n    /* \"#utility.yul\":720:738   */\n  dup2\n    /* \"#utility.yul\":717:755   */\n  sub\n    /* \"#utility.yul\":714:798   */\n  tag_72\n  jumpi\n    /* \"#utility.yul\":770:788   */\n  tag_73\n  tag_39\n  jump\t// in\ntag_73:\n    /* \"#utility.yul\":714:798   */\ntag_72:\n    /* \"#utility.yul\":535:804   */\n  pop\n    /* \"#utility.yul\":484:804   */\n  swap2\n  swap1\n  pop\n  jump\t// out\n    /* \"#utility.yul\":810:951   */\ntag_41:\n    /* \"#utility.yul\":859:863   */\n  0x00\n    /* \"#utility.yul\":882:885   */\n  dup2\n    /* \"#utility.yul\":874:885   */\n  swap1\n  pop\n    /* \"#utility.yul\":905:908   */\n  dup2\n    /* \"#utility.yul\":902:903   */\n  0x00\n    /* \"#utility.yul\":895:909   */\n  mstore\n    /* \"#utility.yul\":939:943   */\n  0x20\n    /* \"#utility.yul\":936:937   */\n  0x00\n    /* \"#utility.yul\":926:944   */\n  keccak256\n    /* \"#utility.yul\":918:944   */\n  swap1\n  pop\n    /* \"#utility.yul\":810:951   */\n  swap2\n  swap1\n  pop\n  jump\t// out\n    /* \"#utility.yul\":957:1050   */\ntag_42:\n    /* \"#utility.yul\":994:1000   */\n  0x00\n    /* \"#utility.yul\":1041:1043   */\n  0x20\n    /* \"#utility.yul\":1036:1038   */\n  0x1f\n    /* \"#utility.yul\":1029:1034   */\n  dup4\n    /* \"#utility.yul\":1025:1039   */\n  add\n    /* \"#utility.yul\":1021:1044   */\n  div\n    /* \"#utility.yul\":1011:1044   */\n  swap1\n  pop\n    /* \"#utility.yul\":957:1050   */\n  swap2\n  swap1\n  pop\n  jump\t// out\n    /* \"#utility.yul\":1056:1163   */\ntag_43:\n    /* \"#utility.yul\":1100:1108   */\n  0x00\n    /* \"#utility.yul\":1150:1155   */\n  dup3\n    /* \"#utility.yul\":1144:1148   */\n  dup3\n    /* \"#utility.yul\":1140:1156   */\n  shl\n    /* \"#utility.yul\":1119:1156   */\n  swap1\n  pop\n    /* \"#utility.yul\":1056:1163   */\n  swap3\n  swap2\n  pop\n  pop\n  jump\t// out\n    /* \"#utility.yul\":1169:1562   */\ntag_44:\n    /* \"#utility.yul\":1238:1244   */\n  0x00\n    /* \"#utility.yul\":1288:1289   */\n  0x08\n    /* \"#utility.yul\":1276:1286   */\n  dup4\n    /* \"#utility.yul\":1272:1290   */\n  mul\n    /* \"#utility.yul\":1311:1408   */\n  tag_78\n    /* \"#utility.yul\":1341:1407   */\n  0xffffffffffffffffffffffffffffffffffffffffffffffffffffffffffffffff\n    /* \"#utility.yul\":1330:1339   */\n  dup3\n    /* \"#utility.yul\":1311:1408   */\n  tag_43\n  jump\t// in\ntag_78:\n    /* \"#utility.yul\":1429:1468   */\n  tag_79\n    /* \"#utility.yul\":1459:1467   */\n  dup7\n    /* \"#utility.yul\":1448:1457   */\n  dup4\n    /* \"#utility.yul\":1429:1468   */\n  tag_43\n  jump\t// in\ntag_79:\n    /* \"#utility.yul\":1417:1468   */\n  swap6\n  pop\n    /* \"#utility.yul\":1501:1505   */\n  dup1\n    /* \"#utility.yul\":1497:1506   */\n  not\n    /* \"#utility.yul\":1490:1495   */\n  dup5\n    /* \"#utility.yul\":1486:1507   */\n  and\n    /* \"#utility.yul\":1477:1507   */\n  swap4\n  pop\n    /* \"#utility.yul\":1550:1554   */\n  dup1\n    /* \"#utility.yul\":1540:1548   */\n  dup7\n    /* \"#utility.yul\":1536:1555   */\n  and\n    /* \"#utility.yul\":1529:1534   */\n  dup5\n    /* \"#utility.yul\":1526:1556   */\n  or\n    /* \"#utility.yul\":1516:1556   */\n  swap3\n  pop\n    /* \"#utility.yul\":1245:1562   */\n  pop\n  pop\n    /* \"#utility.yul\":1169:1562   */\n  swap4\n  swap3\n  pop\n  pop\n  pop\n  jump\t// out\n    /* \"#utility.yul\":1568:1645   */\ntag_45:\n    /* \"#utility.yul\":1605:1612   */\n  0x00\n    /* \"#utility.yul\":1634:1639   */\n  dup2\n    /* \"#utility.yul\":1623:1639   */\n  swap1\n  pop\n    /* \"#utility.yul\":1568:1645   */\n  swap2\n  swap1\n  pop\n  jump\t// out\n    /* \"#utility.yul\":1651:1711   */\ntag_46:\n    /* \"#utility.yul\":1679:1682   */\n  0x00\n    /* \"#utility.yul\":1700:1705   */\n  dup2\n    /* \"#utility.yul\":1693:1705   */\n  swap1\n  pop\n    /* \"#utility.yul\":1651:1711   */\n  swap2\n  swap1\n  pop\n  jump\t// out\n    /* \"#utility.yul\":1717:1859   */\ntag_47:\n    /* \"#utility.yul\":1767:1776   */\n  0x00\n    /* \"#utility.yul\":1800:1853   */\n  tag_83\n    /* \"#utility.yul\":1818:1852   */\n  tag_84\n    /* \"#utility.yul\":1827:1851   */\n  tag_85\n    /* \"#utility.yul\":1845:1850   */\n  dup5\n    /* \"#utility.yul\":1827:1851   */\n  tag_45\n  jump\t// in\ntag_85:\n    /* \"#utility.yul\":1818:1852   */\n  tag_46\n  jump\t// in\ntag_84:\n    /* \"#utility.yul\":1800:1853   */\n  tag_45\n  jump\t// in\ntag_83:\n    /* \"#utility.yul\":1787:1853   */\n  swap1\n  pop\n    /* \"#utility.yul\":1717:1859   */\n  swap2\n  swap1\n  pop\n  jump\t// out\n    /* \"#utility.yul\":1865:1940   */\ntag_48:\n    /* \"#utility.yul\":1908:1911   */\n  0x00\n    /* \"#utility.yul\":1929:1934   */\n  dup2\n    /* \"#utility.yul\":1922:1934   */\n  swap1\n  pop\n    /* \"#utility.yul\":1865:1940   */\n  swap2\n  swap1\n  pop\n  jump\t// out\n    /* \"#utility.yul\":1946:2215   */\ntag_49:\n    /* \"#utility.yul\":2056:2095   */\n  tag_88\n    /* \"#utility.yul\":2087:2094   */\n  dup4\n    /* \"#utility.yul\":2056:2095   */\n  tag_47\n  jump\t// in\ntag_88:\n    /* \"#utility.yul\":2117:2208   */\n  tag_89\n    /* \"#utility.yul\":2166:2207   */\n  tag_90\n    /* \"#utility.yul\":2190:2206   */\n  dup3\n    /* \"#utility.yul\":2166:2207   */\n  tag_48\n  jump\t// in\ntag_90:\n    /* \"#utility.yul\":2158:2164   */\n  dup5\n    /* \"#utility.yul\":2151:2155   */\n  dup5\n    /* \"#utility.yul\":2145:2156   */\n  sload\n    /* \"#utility.yul\":2117:2208   */\n  tag_44\n  jump\t// in\ntag_89:\n    /* \"#utility.yul\":2111:2115   */\n  dup3\n    /* \"#utility.yul\":2104:2209   */\n  sstore\n    /* \"#utility.yul\":2022:2215   */\n  pop\n    /* \"#utility.yul\":1946:2215   */\n  pop\n  pop\n  pop\n  jump\t// out\n    /* \"#utility.yul\":2221:2294   */\ntag_50:\n    /* \"#utility.yul\":2266:2269   */\n  0x00\n    /* \"#utility.yul\":2221:2294   */\n  swap1\n  jump\t// out\n    /* \"#utility.yul\":2300:2489   */\ntag_51:\n    /* \"#utility.yul\":2377:2409   */\n  tag_93\n  tag_50\n  jump\t// in\ntag_93:\n    /* \"#utility.yul\":2418:2483   */\n  tag_94\n    /* \"#utility.yul\":2476:2482   */\n  dup2\n    /* \"#utility.yul\":2468:2474   */\n  dup5\n    /* \"#utility.yul\":2462:2466   */\n  dup5\n    /* \"#utility.yul\":2418:2483   */\n  tag_49\n  jump\t// in\ntag_94:\n    /* \"#utility.yul\":2353:2489   */\n  pop\n    /* \"#utility.yul\":2300:2489   */\n  pop\n  pop\n  jump\t// out\n    /* \"#utility.yul\":2495:2681   */\ntag_52:\n    /* \"#utility.yul\":2555:2675   */\ntag_96:\n    /* \"#utility.yul\":2572:2575   */\n  dup2\n    /* \"#utility.yul\":2565:2570   */\n  dup2\n    /* \"#utility.yul\":2562:2576   */\n  lt\n    /* \"#utility.yul\":2555:2675   */\n  iszero\n  tag_98\n  jumpi\n    /* \"#utility.yul\":2626:2665   */\n  tag_99\n    /* \"#utility.yul\":2663:2664   */\n  0x00\n    /* \"#utility.yul\":2656:2661   */\n  dup3\n    /* \"#utility.yul\":2626:2665   */\n  tag_51\n  jump\t// in\ntag_99:\n    /* \"#utility.yul\":2599:2600   */\n  0x01\n    /* \"#utility.yul\":2592:2597   */\n  dup2\n    /* \"#utility.yul\":2588:2601   */\n  add\n    /* \"#utility.yul\":2579:2601   */\n  swap1\n  pop\n    /* \"#utility.yul\":2555:2675   */\n  jump(tag_96)\ntag_98:\n    /* \"#utility.yul\":2495:2681   */\n  pop\n  pop\n  jump\t// out\n    /* \"#utility.yul\":2687:3230   */\ntag_53:\n    /* \"#utility.yul\":2788:2790   */\n  0x1f\n    /* \"#utility.yul\":2783:2786   */\n  dup3\n    /* \"#utility.yul\":2780:2791   */\n  gt\n    /* \"#utility.yul\":2777:3223   */\n  iszero\n  tag_101\n  jumpi\n    /* \"#utility.yul\":2822:2860   */\n  tag_102\n    /* \"#utility.yul\":2854:2859   */\n  dup2\n    /* \"#utility.yul\":2822:2860   */\n  tag_41\n  jump\t// in\ntag_102:\n    /* \"#utility.yul\":2906:2935   */\n  tag_103\n    /* \"#utility.yul\":2924:2934   */\n  dup5\n    /* \"#utility.yul\":2906:2935   */\n  tag_42\n  jump\t// in\ntag_103:\n    /* \"#utility.yul\":2896:2904   */\n  dup2\n    /* \"#utility.yul\":2892:2936   */\n  add\n    /* \"#utility.yul\":3089:3091   */\n  0x20\n    /* \"#utility.yul\":3077:3087   */\n  dup6\n    /* \"#utility.yul\":3074:3092   */\n  lt\n    /* \"#utility.yul\":3071:3120   */\n  iszero\n  tag_104\n  jumpi\n    /* \"#utility.yul\":3110:3118   */\n  dup2\n    /* \"#utility.yul\":3095:3118   */\n  swap1\n  pop\n    /* \"#utility.yul\":3071:3120   */\ntag_104:\n    /* \"#utility.yul\":3133:3213   */\n  tag_105\n    /* \"#utility.yul\":3189:3211   */\n  tag_106\n    /* \"#utility.yul\":3207:3210   */\n  dup6\n    /* \"#utility.yul\":3189:3211   */\n  tag_42\n  jump\t// in\ntag_106:\n    /* \"#utility.yul\":3179:3187   */\n  dup4\n    /* \"#utility.yul\":3175:3212   */\n  add\n    /* \"#utility.yul\":3162:3173   */\n  dup3\n    /* \"#utility.yul\":3133:3213   */\n  tag_52\n  jump\t// in\ntag_105:\n    /* \"#utility.yul\":2792:3223   */\n  pop\n  pop\n    /* \"#utility.yul\":2777:3223   */\ntag_101:\n    /* \"#utility.yul\":2687:3230   */\n  pop\n  pop\n  pop\n  jump\t// out\n    /* \"#utility.yul\":3236:3353   */\ntag_54:\n    /* \"#utility.yul\":3290:3298   */\n  0x00\n    /* \"#utility.yul\":3340:3345   */\n  dup3\n    /* \"#utility.yul\":3334:3338   */\n  dup3\n    /* \"#utility.yul\":3330:3346   */\n  shr\n    /* \"#utility.yul\":3309:3346   */\n  swap1\n  pop\n    /* \"#utility.yul\":3236:3353   */\n  swap3\n  swap2\n  pop\n  pop\n  jump\t// out\n    /* \"#utility.yul\":3359:3528   */\ntag_55:\n    /* \"#utility.yul\":3403:3409   */\n  0x00\n    /* \"#utility.yul\":3436:3487   */\n  tag_109\n    /* \"#utility.yul\":3484:3485   */\n  0x00\n    /* \"#utility.yul\":3480:3486   */\n  not\n    /* \"#utility.yul\":3472:3477   */\n  dup5\n    /* \"#utility.yul\":3469:3470   */\n  0x08\n    /* \"#utility.yul\":3465:3478   */\n  mul\n    /* \"#utility.yul\":3436:3487   */\n  tag_54\n  jump\t// in\ntag_109:\n    /* \"#utility.yul\":3432:3488   */\n  not\n    /* \"#utility.yul\":3517:3521   */\n  dup1\n    /* \"#utility.yul\":3511:3515   */\n  dup4\n    /* \"#utility.yul\":3507:3522   */\n  and\n    /* \"#utility.yul\":3497:3522   */\n  swap2\n  pop\n    /* \"#utility.yul\":3410:3528   */\n  pop\n    /* \"#utility.yul\":3359:3528   */\n  swap3\n  swap2\n  pop\n  pop\n  jump\t// out\n    /* \"#utility.yul\":3533:3828   */\ntag_56:\n    /* \"#utility.yul\":3609:3613   */\n  0x00\n    /* \"#utility.yul\":3755:3784   */\n  tag_111\n    /* \"#utility.yul\":3780:3783   */\n  dup4\n    /* \"#utility.yul\":3774:3778   */\n  dup4\n    /* \"#utility.yul\":3755:3784   */\n  tag_55\n  jump\t// in\ntag_111:\n    /* \"#utility.yul\":3747:3784   */\n  swap2\n  pop\n    /* \"#utility.yul\":3817:3820   */\n  dup3\n    /* \"#utility.yul\":3814:3815   */\n  0x02\n    /* \"#utility.yul\":3810:3821   */\n  mul\n    /* \"#utility.yul\":3804:3808   */\n  dup3\n    /* \"#utility.yul\":3801:3822   */\n  or\n    /* \"#utility.yul\":3793:3822   */\n  swap1\n  pop\n    /* \"#utility.yul\":3533:3828   */\n  swap3\n  swap2\n  pop\n  pop\n  jump\t// out\n    /* \"#utility.yul\":3833:5228   */\ntag_6:\n    /* \"#utility.yul\":3950:3987   */\n  tag_113\n    /* \"#utility.yul\":3983:3986   */\n  dup3\n    /* \"#utility.yul\":3950:3987   */\n  tag_37\n  jump\t// in\ntag_113:\n    /* \"#utility.yul\":4052:4070   */\n  0xffffffffffffffff\n    /* \"#utility.yul\":4044:4050   */\n  dup2\n    /* \"#utility.yul\":4041:4071   */\n  gt\n    /* \"#utility.yul\":4038:4094   */\n  iszero\n  tag_114\n  jumpi\n    /* \"#utility.yul\":4074:4092   */\n  tag_115\n  tag_38\n  jump\t// in\ntag_115:\n    /* \"#utility.yul\":4038:4094   */\ntag_114:\n    /* \"#utility.yul\":4118:4156   */\n  tag_116\n    /* \"#utility.yul\":4150:4154   */\n  dup3\n    /* \"#utility.yul\":4144:4155   */\n  sload\n    /* \"#utility.yul\":4118:4156   */\n  tag_40\n  jump\t// in\ntag_116:\n    /* \"#utility.yul\":4203:4270   */\n  tag_117\n    /* \"#utility.yul\":4263:4269   */\n  dup3\n    /* \"#utility.yul\":4255:4261   */\n  dup3\n    /* \"#utility.yul\":4249:4253   */\n  dup6\n    /* \"#utility.yul\":4203:4270   */\n  tag_53\n  jump\t// in\ntag_117:\n    /* \"#utility.yul\":4297:4298   */\n  0x00\n    /* \"#utility.yul\":4321:4325   */\n  0x20\n    /* \"#utility.yul\":4308:4325   */\n  swap1\n  pop\n    /* \"#utility.yul\":4353:4355   */\n  0x1f\n    /* \"#utility.yul\":4345:4351   */\n  dup4\n    /* \"#utility.yul\":4342:4356   */\n  gt\n    /* \"#utility.yul\":4370:4371   */\n  0x01\n    /* \"#utility.yul\":4365:4983   */\n  dup2\n  eq\n  tag_119\n  jumpi\n    /* \"#utility.yul\":5027:5028   */\n  0x00\n    /* \"#utility.yul\":5044:5050   */\n  dup5\n    /* \"#utility.yul\":5041:5118   */\n  iszero\n  tag_120\n  jumpi\n    /* \"#utility.yul\":5093:5102   */\n  dup3\n    /* \"#utility.yul\":5088:5091   */\n  dup8\n    /* \"#utility.yul\":5084:5103   */\n  add\n    /* \"#utility.yul\":5078:5104   */\n  mload\n    /* \"#utility.yul\":5069:5104   */\n  swap1\n  pop\n    /* \"#utility.yul\":5041:5118   */\ntag_120:\n    /* \"#utility.yul\":5144:5211   */\n  tag_121\n    /* \"#utility.yul\":5204:5210   */\n  dup6\n    /* \"#utility.yul\":5197:5202   */\n  dup3\n    /* \"#utility.yul\":5144:5211   */\n  tag_56\n  jump\t// in\ntag_121:\n    /* \"#utility.yul\":5138:5142   */\n  dup7\n    /* \"#utility.yul\":5131:5212   */\n  sstore\n    /* \"#utility.yul\":5000:5222   */\n  pop\n    /* \"#utility.yul\":4335:5222   */\n  jump(tag_118)\n    /* \"#utility.yul\":4365:4983   */\ntag_119:\n    /* \"#utility.yul\":4417:4421   */\n  0x1f\n    /* \"#utility.yul\":4413:4422   */\n  not\n    /* \"#utility.yul\":4405:4411   */\n  dup5\n    /* \"#utility.yul\":4401:4423   */\n  and\n    /* \"#utility.yul\":4451:4488   */\n  tag_122\n    /* \"#utility.yul\":4483:4487   */\n  dup7\n    /* \"#utility.yul\":4451:4488   */\n  tag_41\n  jump\t// in\ntag_122:\n    /* \"#utility.yul\":4510:4511   */\n  0x00\n    /* \"#utility.yul\":4524:4732   */\ntag_123:\n    /* \"#utility.yul\":4538:4545   */\n  dup3\n    /* \"#utility.yul\":4535:4536   */\n  dup2\n    /* \"#utility.yul\":4532:4546   */\n  lt\n    /* \"#utility.yul\":4524:4732   */\n  iszero\n  tag_125\n  jumpi\n    /* \"#utility.yul\":4617:4626   */\n  dup5\n    /* \"#utility.yul\":4612:4615   */\n  dup10\n    /* \"#utility.yul\":4608:4627   */\n  add\n    /* \"#utility.yul\":4602:4628   */\n  mload\n    /* \"#utility.yul\":4594:4600   */\n  dup3\n    /* \"#utility.yul\":4587:4629   */\n  sstore\n    /* \"#utility.yul\":4668:4669   */\n  0x01\n    /* \"#utility.yul\":4660:4666   */\n  dup3\n    /* \"#utility.yul\":4656:4670   */\n  add\n    /* \"#utility.yul\":4646:4670   */\n  swap2\n  pop\n    /* \"#utility.yul\":4715:4717   */\n  0x20\n    /* \"#utility.yul\":4704:4713   */\n  dup6\n    /* \"#utility.yul\":4700:4718   */\n  add\n    /* \"#utility.yul\":4687:4718   */\n  swap5\n  pop\n    /* \"#utility.yul\":4561:4565   */\n  0x20\n    /* \"#utility.yul\":4558:4559   */\n  dup2\n    /* \"#utility.yul\":4554:4566   */\n  add\n    /* \"#utility.yul\":4549:4566   */\n  swap1\n  pop\n    /* \"#utility.yul\":4524:4732   */\n  jump(tag_123)\ntag_125:\n    /* \"#utility.yul\":4760:4766   */\n  dup7\n    /* \"#utility.yul\":4751:4758   */\n  dup4\n    /* \"#utility.yul\":4748:4767   */\n  lt\n    /* \"#utility.yul\":4745:4924   */\n  iszero\n  tag_126\n  jumpi\n    /* \"#utility.yul\":4818:4827   */\n  dup5\n    /* \"#utility.yul\":4813:4816   */\n  dup10\n    /* \"#utility.yul\":4809:4828   */\n  add\n    /* \"#utility.yul\":4803:4829   */\n  mload\n    /* \"#utility.yul\":4861:4909   */\n  tag_127\n    /* \"#utility.yul\":4903:4907   */\n  0x1f\n    /* \"#utility.yul\":4895:4901   */\n  dup10\n    /* \"#utility.yul\":4891:4908   */\n  and\n    /* \"#utility.yul\":4880:4889   */\n  dup3\n    /* \"#utility.yul\":4861:4909   */\n  tag_55\n  jump\t// in\ntag_127:\n    /* \"#utility.yul\":4853:4859   */\n  dup4\n    /* \"#utility.yul\":4846:4910   */\n  sstore\n    /* \"#utility.yul\":4768:4924   */\n  pop\n    /* \"#utility.yul\":4745:4924   */\ntag_126:\n    /* \"#utility.yul\":4970:4971   */\n  0x01\n    /* \"#utility.yul\":4966:4967   */\n  0x02\n    /* \"#utility.yul\":4958:4964   */\n  dup9\n    /* \"#utility.yul\":4954:4968   */\n  mul\n    /* \"#utility.yul\":4950:4972   */\n  add\n    /* \"#utility.yul\":4944:4948   */\n  dup9\n    /* \"#utility.yul\":4937:4973   */\n  sstore\n    /* \"#utility.yul\":4372:4983   */\n  pop\n  pop\n  pop\n    /* \"#utility.yul\":4335:5222   */\ntag_118:\n  pop\n    /* \"#utility.yul\":3925:5228   */\n  pop\n  pop\n  pop\n    /* \"#utility.yul\":3833:5228   */\n  pop\n  pop\n  jump\t// out\n    /* \"#utility.yul\":5234:5414   */\ntag_57:\n    /* \"#utility.yul\":5282:5359   */\n  0x4e487b7100000000000000000000000000000000000000000000000000000000\n    /* \"#utility.yul\":5279:5280   */\n  0x00\n    /* \"#utility.yul\":5272:5360   */\n  mstore\n    /* \"#utility.yul\":5379:5383   */\n  0x11\n    /* \"#utility.yul\":5376:5377   */\n  0x04\n    /* \"#utility.yul\":5369:5384   */\n  mstore\n    /* \"#utility.yul\":5403:5407   */\n  0x24\n    /* \"#utility.yul\":5400:5401   */\n  0x00\n    /* \"#utility.yul\":5393:5408   */\n  revert\n    /* \"#utility.yul\":5420:5522   */\ntag_58:\n    /* \"#utility.yul\":5462:5470   */\n  0x00\n    /* \"#utility.yul\":5509:5514   */\n  dup2\n    /* \"#utility.yul\":5506:5507   */\n  0x01\n    /* \"#utility.yul\":5502:5515   */\n  shr\n    /* \"#utility.yul\":5481:5515   */\n  swap1\n  pop\n    /* \"#utility.yul\":5420:5522   */\n  swap2\n  swap1\n  pop\n  jump\t// out\n    /* \"#utility.yul\":5528:6376   */\ntag_59:\n    /* \"#utility.yul\":5589:5594   */\n  0x00\n    /* \"#utility.yul\":5596:5600   */\n  dup1\n    /* \"#utility.yul\":5620:5626   */\n  dup3\n    /* \"#utility.yul\":5611:5626   */\n  swap2\n  pop\n    /* \"#utility.yul\":5644:5649   */\n  dup4\n    /* \"#utility.yul\":5635:5649   */\n  swap1\n  pop\n    /* \"#utility.yul\":5658:6370   */\ntag_131:\n    /* \"#utility.yul\":5679:5680   */\n  0x01\n    /* \"#utility.yul\":5669:5677   */\n  dup6\n    /* \"#utility.yul\":5666:5681   */\n  gt\n    /* \"#utility.yul\":5658:6370   */\n  iszero\n  tag_133\n  jumpi\n    /* \"#utility.yul\":5774:5778   */\n  dup1\n    /* \"#utility.yul\":5769:5772   */\n  dup7\n    /* \"#utility.yul\":5765:5779   */\n  div\n    /* \"#utility.yul\":5759:5763   */\n  dup2\n    /* \"#utility.yul\":5756:5780   */\n  gt\n    /* \"#utility.yul\":5753:5803   */\n  iszero\n  tag_134\n  jumpi\n    /* \"#utility.yul\":5783:5801   */\n  tag_135\n  tag_57\n  jump\t// in\ntag_135:\n    /* \"#utility.yul\":5753:5803   */\ntag_134:\n    /* \"#utility.yul\":5833:5834   */\n  0x01\n    /* \"#utility.yul\":5823:5831   */\n  dup6\n    /* \"#utility.yul\":5819:5835   */\n  and\n    /* \"#utility.yul\":5816:6267   */\n  iszero\n  tag_136\n  jumpi\n    /* \"#utility.yul\":6248:6252   */\n  dup1\n    /* \"#utility.yul\":6241:6246   */\n  dup3\n    /* \"#utility.yul\":6237:6253   */\n  mul\n    /* \"#utility.yul\":6228:6253   */\n  swap2\n  pop\n    /* \"#utility.yul\":5816:6267   */\ntag_136:\n    /* \"#utility.yul\":6298:6302   */\n  dup1\n    /* \"#utility.yul\":6292:6296   */\n  dup2\n    /* \"#utility.yul\":6288:6303   */\n  mul\n    /* \"#utility.yul\":6280:6303   */\n  swap1\n  pop\n    /* \"#utility.yul\":6328:6360   */\n  tag_137\n    /* \"#utility.yul\":6351:6359   */\n  dup6\n    /* \"#utility.yul\":6328:6360   */\n  tag_58\n  jump\t// in\ntag_137:\n    /* \"#utility.yul\":6316:6360   */\n  swap5\n  pop\n    /* \"#utility.yul\":5658:6370   */\n  jump(tag_131)\ntag_133:\n    /* \"#utility.yul\":5528:6376   */\n  swap5\n  pop\n  swap5\n  swap3\n  pop\n  pop\n  pop\n  jump\t// out\n    /* \"#utility.yul\":6382:7455   */\ntag_60:\n    /* \"#utility.yul\":6436:6441   */\n  0x00\n    /* \"#utility.yul\":6627:6635   */\n  dup3\n    /* \"#utility.yul\":6617:6657   */\n  tag_139\n  jumpi\n    /* \"#utility.yul\":6648:6649   */\n  0x01\n    /* \"#utility.yul\":6639:6649   */\n  swap1\n  pop\n    /* \"#utility.yul\":6650:6655   */\n  jump(tag_138)\n    /* \"#utility.yul\":6617:6657   */\ntag_139:\n    /* \"#utility.yul\":6676:6680   */\n  dup2\n    /* \"#utility.yul\":6666:6702   */\n  tag_140\n  jumpi\n    /* \"#utility.yul\":6693:6694   */\n  0x00\n    /* \"#utility.yul\":6684:6694   */\n  swap1\n  pop\n    /* \"#utility.yul\":6695:6700   */\n  jump(tag_138)\n    /* \"#utility.yul\":6666:6702   */\ntag_140:\n    /* \"#utility.yul\":6762:6766   */\n  dup2\n    /* \"#utility.yul\":6810:6811   */\n  0x01\n    /* \"#utility.yul\":6805:6832   */\n  dup2\n  eq\n  tag_142\n  jumpi\n    /* \"#utility.yul\":6846:6847   */\n  0x02\n    /* \"#utility.yul\":6841:7032   */\n  dup2\n  eq\n  tag_143\n  jumpi\n    /* \"#utility.yul\":6755:7032   */\n  jump(tag_141)\n    /* \"#utility.yul\":6805:6832   */\ntag_142:\n    /* \"#utility.yul\":6823:6824   */\n  0x01\n    /* \"#utility.yul\":6814:6824   */\n  swap2\n  pop\n    /* \"#utility.yul\":6825:6830   */\n  pop\n  jump(tag_138)\n    /* \"#utility.yul\":6841:7032   */\ntag_143:\n    /* \"#utility.yul\":6886:6889   */\n  0xff\n    /* \"#utility.yul\":6876:6884   */\n  dup5\n    /* \"#utility.yul\":6873:6890   */\n  gt\n    /* \"#utility.yul\":6870:6913   */\n  iszero\n  tag_144\n  jumpi\n    /* \"#utility.yul\":6893:6911   */\n  tag_145\n  tag_57\n  jump\t// in\ntag_145:\n    /* \"#utility.yul\":6870:6913   */\ntag_144:\n    /* \"#utility.yul\":6942:6950   */\n  dup4\n    /* \"#utility.yul\":6939:6940   */\n  0x02\n    /* \"#utility.yul\":6935:6951   */\n  exp\n    /* \"#utility.yul\":6926:6951   */\n  swap2\n  pop\n    /* \"#utility.yul\":6977:6980   */\n  dup5\n    /* \"#utility.yul\":6970:6975   */\n  dup3\n    /* \"#utility.yul\":6967:6981   */\n  gt\n    /* \"#utility.yul\":6964:7004   */\n  iszero\n  tag_146\n  jumpi\n    /* \"#utility.yul\":6984:7002   */\n  tag_147\n  tag_57\n  jump\t// in\ntag_147:\n    /* \"#utility.yul\":6964:7004   */\ntag_146:\n    /* \"#utility.yul\":7017:7022   */\n  pop\n  jump(tag_138)\n    /* \"#utility.yul\":6755:7032   */\ntag_141:\n  pop\n    /* \"#utility.yul\":7141:7143   */\n  0x20\n    /* \"#utility.yul\":7131:7139   */\n  dup4\n    /* \"#utility.yul\":7128:7144   */\n  lt\n    /* \"#utility.yul\":7122:7125   */\n  0x0133\n    /* \"#utility.yul\":7116:7120   */\n  dup4\n    /* \"#utility.yul\":7113:7126   */\n  lt\n    /* \"#utility.yul\":7109:7145   */\n  and\n    /* \"#utility.yul\":7091:7093   */\n  0x4e\n    /* \"#utility.yul\":7081:7089   */\n  dup5\n    /* \"#utility.yul\":7078:7094   */\n  lt\n    /* \"#utility.yul\":7073:7075   */\n  0x0b\n    /* \"#utility.yul\":7067:7071   */\n  dup5\n    /* \"#utility.yul\":7064:7076   */\n  lt\n    /* \"#utility.yul\":7060:7095   */\n  and\n    /* \"#utility.yul\":7044:7155   */\n  or\n    /* \"#utility.yul\":7041:7287   */\n  iszero\n  tag_148\n  jumpi\n    /* \"#utility.yul\":7197:7205   */\n  dup3\n    /* \"#utility.yul\":7191:7195   */\n  dup3\n    /* \"#utility.yul\":7187:7206   */\n  exp\n    /* \"#utility.yul\":7178:7206   */\n  swap1\n  pop\n    /* \"#utility.yul\":7232:7235   */\n  dup4\n    /* \"#utility.yul\":7225:7230   */\n  dup2\n    /* \"#utility.yul\":7222:7236   */\n  gt\n    /* \"#utility.yul\":7219:7259   */\n  iszero\n  tag_149\n  jumpi\n    /* \"#utility.yul\":7239:7257   */\n  tag_150\n  tag_57\n  jump\t// in\ntag_150:\n    /* \"#utility.yul\":7219:7259   */\ntag_149:\n    /* \"#utility.yul\":7272:7277   */\n  jump(tag_138)\n    /* \"#utility.yul\":7041:7287   */\ntag_148:\n    /* \"#utility.yul\":7312:7354   */\n  tag_151\n    /* \"#utility.yul\":7350:7353   */\n  dup5\n    /* \"#utility.yul\":7340:7348   */\n  dup5\n    /* \"#utility.yul\":7334:7338   */\n  dup5\n    /* \"#utility.yul\":7331:7332   */\n  0x01\n    /* \"#utility.yul\":7312:7354   */\n  tag_59\n  jump\t// in\ntag_151:\n    /* \"#utility.yul\":7297:7354   */\n  swap3\n  pop\n  swap1\n  pop\n    /* \"#utility.yul\":7386:7390   */\n  dup2\n    /* \"#utility.yul\":7381:7384   */\n  dup5\n    /* \"#utility.yul\":7377:7391   */\n  div\n    /* \"#utility.yul\":7370:7375   */\n  dup2\n    /* \"#utility.yul\":7367:7392   */\n  gt\n    /* \"#utility.yul\":7364:7415   */\n  iszero\n  tag_152\n  jumpi\n    /* \"#utility.yul\":7395:7413   */\n  tag_153\n  tag_57\n  jump\t// in\ntag_153:\n    /* \"#utility.yul\":7364:7415   */\ntag_152:\n    /* \"#utility.yul\":7444:7448   */\n  dup2\n    /* \"#utility.yul\":7437:7442   */\n  dup2\n    /* \"#utility.yul\":7433:7449   */\n  mul\n    /* \"#utility.yul\":7424:7449   */\n  swap1\n  pop\n    /* \"#utility.yul\":6382:7455   */\ntag_138:\n  swap4\n  swap3\n  pop\n  pop\n  pop\n  jump\t// out\n    /* \"#utility.yul\":7461:7547   */\ntag_61:\n    /* \"#utility.yul\":7496:7503   */\n  0x00\n    /* \"#utility.yul\":7536:7540   */\n  0xff\n    /* \"#utility.yul\":7529:7534   */\n  dup3\n    /* \"#utility.yul\":7525:7541   */\n  and\n    /* \"#utility.yul\":7514:7541   */\n  swap1\n  pop\n    /* \"#utility.yul\":7461:7547   */\n  swap2\n  swap1\n  pop\n  jump\t// out\n    /* \"#utility.yul\":7553:7834   */\ntag_13:\n    /* \"#utility.yul\":7611:7616   */\n  0x00\n    /* \"#utility.yul\":7635:7658   */\n  tag_156\n    /* \"#utility.yul\":7653:7657   */\n  dup3\n    /* \"#utility.yul\":7635:7658   */\n  tag_45\n  jump\t// in\ntag_156:\n    /* \"#utility.yul\":7627:7658   */\n  swap2\n  pop\n    /* \"#utility.yul\":7679:7704   */\n  tag_157\n    /* \"#utility.yul\":7695:7703   */\n  dup4\n    /* \"#utility.yul\":7679:7704   */\n  tag_61\n  jump\t// in\ntag_157:\n    /* \"#utility.yul\":7667:7704   */\n  swap3\n  pop\n    /* \"#utility.yul\":7723:7827   */\n  tag_158\n    /* \"#utility.yul\":7760:7826   */\n  0xffffffffffffffffffffffffffffffffffffffffffffffffffffffffffffffff\n    /* \"#utility.yul\":7750:7758   */\n  dup5\n    /* \"#utility.yul\":7744:7748   */\n  dup5\n    /* \"#utility.yul\":7723:7827   */\n  tag_60\n  jump\t// in\ntag_158:\n    /* \"#utility.yul\":7714:7827   */\n  swap1\n  pop\n    /* \"#utility.yul\":7553:7834   */\n  swap3\n  swap2\n  pop\n  pop\n  jump\t// out\n    /* \"#utility.yul\":7840:8250   */\ntag_15:\n    /* \"#utility.yul\":7880:7887   */\n  0x00\n    /* \"#utility.yul\":7903:7923   */\n  tag_160\n    /* \"#utility.yul\":7921:7922   */\n  dup3\n    /* \"#utility.yul\":7903:7923   */\n  tag_45\n  jump\t// in\ntag_160:\n    /* \"#utility.yul\":7898:7923   */\n  swap2\n  pop\n    /* \"#utility.yul\":7937:7957   */\n  tag_161\n    /* \"#utility.yul\":7955:7956   */\n  dup4\n    /* \"#utility.yul\":7937:7957   */\n  tag_45\n  jump\t// in\ntag_161:\n    /* \"#utility.yul\":7932:7957   */\n  swap3\n  pop\n    /* \"#utility.yul\":7992:7993   */\n  dup3\n    /* \"#utility.yul\":7989:7990   */\n  dup3\n    /* \"#utility.yul\":7985:7994   */\n  mul\n    /* \"#utility.yul\":8014:8044   */\n  tag_162\n    /* \"#utility.yul\":8032:8043   */\n  dup2\n    /* \"#utility.yul\":8014:8044   */\n  tag_45\n  jump\t// in\ntag_162:\n    /* \"#utility.yul\":8003:8044   */\n  swap2\n  pop\n    /* \"#utility.yul\":8193:8194   */\n  dup3\n    /* \"#utility.yul\":8184:8191   */\n  dup3\n    /* \"#utility.yul\":8180:8195   */\n  div\n    /* \"#utility.yul\":8177:8178   */\n  dup5\n    /* \"#utility.yul\":8174:8196   */\n  eq\n    /* \"#utility.yul\":8154:8155   */\n  dup4\n    /* \"#utility.yul\":8147:8156   */\n  iszero\n    /* \"#utility.yul\":8127:8210   */\n  or\n    /* \"#utility.yul\":8104:8243   */\n  tag_163\n  jumpi\n    /* \"#utility.yul\":8223:8241   */\n  tag_164\n  tag_57\n  jump\t// in\ntag_164:\n    /* \"#utility.yul\":8104:8243   */\ntag_163:\n    /* \"#utility.yul\":7888:8250   */\n  pop\n    /* \"#utility.yul\":7840:8250   */\n  swap3\n  swap2\n  pop\n  pop\n  jump\t// out\n    /* \"#utility.yul\":8256:8382   */\ntag_62:\n    /* \"#utility.yul\":8293:8300   */\n  0x00\n    /* \"#utility.yul\":8333:8375   */\n  0xffffffffffffffffffffffffffffffffffffffff\n    /* \"#utility.yul\":8326:8331   */\n  dup3\n    /* \"#utility.yul\":8322:8376   */\n  and\n    /* \"#utility.yul\":8311:8376   */\n  swap1\n  pop\n    /* \"#utility.yul\":8256:8382   */\n  swap2\n  swap1\n  pop\n  jump\t// out\n    /* \"#utility.yul\":8388:8484   */\ntag_63:\n    /* \"#utility.yul\":8425:8432   */\n  0x00\n    /* \"#utility.yul\":8454:8478   */\n  tag_167\n    /* \"#utility.yul\":8472:8477   */\n  dup3\n    /* \"#utility.yul\":8454:8478   */\n  tag_62\n  jump\t// in\ntag_167:\n    /* \"#utility.yul\":8443:8478   */\n  swap1\n  pop\n    /* \"#utility.yul\":8388:8484   */\n  swap2\n  swap1\n  pop\n  jump\t// out\n    /* \"#utility.yul\":8490:8608   */\ntag_64:\n    /* \"#utility.yul\":8577:8601   */\n  tag_169\n    /* \"#utility.yul\":8595:8600   */\n  dup2\n    /* \"#utility.yul\":8577:8601   */\n  tag_63\n  jump\t// in\ntag_169:\n    /* \"#utility.yul\":8572:8575   */\n  dup3\n    /* \"#utility.yul\":8565:8602   */\n  mstore\n    /* \"#utility.yul\":8490:8608   */\n  pop\n  pop\n  jump\t// out\n    /* \"#utility.yul\":8614:8836   */\ntag_22:\n    /* \"#utility.yul\":8707:8711   */\n  0x00\n    /* \"#utility.yul\":8745:8747   */\n  0x20\n    /* \"#utility.yul\":8734:8743   */\n  dup3\n    /* \"#utility.yul\":8730:8748   */\n  add\n    /* \"#utility.yul\":8722:8748   */\n  swap1\n  pop\n    /* \"#utility.yul\":8758:8829   */\n  tag_171\n    /* \"#utility.yul\":8826:8827   */\n  0x00\n    /* \"#utility.yul\":8815:8824   */\n  dup4\n    /* \"#utility.yul\":8811:8828   */\n  add\n    /* \"#utility.yul\":8802:8808   */\n  dup5\n    /* \"#utility.yul\":8758:8829   */\n  tag_64\n  jump\t// in\ntag_171:\n    /* \"#utility.yul\":8614:8836   */\n  swap3\n  swap2\n  pop\n  pop\n  jump\t// out\n    /* \"#utility.yul\":8842:9033   */\ntag_28:\n    /* \"#utility.yul\":8882:8885   */\n  0x00\n    /* \"#utility.yul\":8901:8921   */\n  tag_173\n    /* \"#utility.yul\":8919:8920   */\n  dup3\n    /* \"#utility.yul\":8901:8921   */\n  tag_45\n  jump\t// in\ntag_173:\n    /* \"#utility.yul\":8896:8921   */\n  swap2\n  pop\n    /* \"#utility.yul\":8935:8955   */\n  tag_174\n    /* \"#utility.yul\":8953:8954   */\n  dup4\n    /* \"#utility.yul\":8935:8955   */\n  tag_45\n  jump\t// in\ntag_174:\n    /* \"#utility.yul\":8930:8955   */\n  swap3\n  pop\n    /* \"#utility.yul\":8978:8979   */\n  dup3\n    /* \"#utility.yul\":8975:8976   */\n  dup3\n    /* \"#utility.yul\":8971:8980   */\n  add\n    /* \"#utility.yul\":8964:8980   */\n  swap1\n  pop\n    /* \"#utility.yul\":8999:9002   */\n  dup1\n    /* \"#utility.yul\":8996:8997   */\n  dup3\n    /* \"#utility.yul\":8993:9003   */\n  gt\n    /* \"#utility.yul\":8990:9026   */\n  iszero\n  tag_175\n  jumpi\n    /* \"#utility.yul\":9006:9024   */\n  tag_176\n  tag_57\n  jump\t// in\ntag_176:\n    /* \"#utility.yul\":8990:9026   */\ntag_175:\n    /* \"#utility.yul\":8842:9033   */\n  swap3\n  swap2\n  pop\n  pop\n  jump\t// out\n    /* \"#utility.yul\":9039:9157   */\ntag_65:\n    /* \"#utility.yul\":9126:9150   */\n  tag_178\n    /* \"#utility.yul\":9144:9149   */\n  dup2\n    /* \"#utility.yul\":9126:9150   */\n  tag_45\n  jump\t// in\ntag_178:\n    /* \"#utility.yul\":9121:9124   */\n  dup3\n    /* \"#utility.yul\":9114:9151   */\n  mstore\n    /* \"#utility.yul\":9039:9157   */\n  pop\n  pop\n  jump\t// out\n    /* \"#utility.yul\":9163:9605   */\ntag_32:\n    /* \"#utility.yul\":9312:9316   */\n  0x00\n    /* \"#utility.yul\":9350:9352   */\n  0x60\n    /* \"#utility.yul\":9339:9348   */\n  dup3\n    /* \"#utility.yul\":9335:9353   */\n  add\n    /* \"#utility.yul\":9327:9353   */\n  swap1\n  pop\n    /* \"#utility.yul\":9363:9434   */\n  tag_180\n    /* \"#utility.yul\":9431:9432   */\n  0x00\n    /* \"#utility.yul\":9420:9429   */\n  dup4\n    /* \"#utility.yul\":9416:9433   */\n  add\n    /* \"#utility.yul\":9407:9413   */\n  dup7\n    /* \"#utility.yul\":9363:9434   */\n  tag_64\n  jump\t// in\ntag_180:\n    /* \"#utility.yul\":9444:9516   */\n  tag_181\n    /* \"#utility.yul\":9512:9514   */\n  0x20\n    /* \"#utility.yul\":9501:9510   */\n  dup4\n    /* \"#utility.yul\":9497:9515   */\n  add\n    /* \"#utility.yul\":9488:9494   */\n  dup6\n    /* \"#utility.yul\":9444:9516   */\n  tag_65\n  jump\t// in\ntag_181:\n    /* \"#utility.yul\":9526:9598   */\n  tag_182\n    /* \"#utility.yul\":9594:9596   */\n  0x40\n    /* \"#utility.yul\":9583:9592   */\n  dup4\n    /* \"#utility.yul\":9579:9597   */\n  add\n    /* \"#utility.yul\":9570:9576   */\n  dup5\n    /* \"#utility.yul\":9526:9598   */\n  tag_65\n  jump\t// in\ntag_182:\n    /* \"#utility.yul\":9163:9605   */\n  swap5\n  swap4\n  pop\n  pop\n  pop\n  pop\n  jump\t// out\n    /* \"#utility.yul\":9611:9833   */\ntag_36:\n    /* \"#utility.yul\":9704:9708   */\n  0x00\n    /* \"#utility.yul\":9742:9744   */\n  0x20\n    /* \"#utility.yul\":9731:9740   */\n  dup3\n    /* \"#utility.yul\":9727:9745   */\n  add\n    /* \"#utility.yul\":9719:9745   */\n  swap1\n  pop\n    /* \"#utility.yul\":9755:9826   */\n  tag_184\n    /* \"#utility.yul\":9823:9824   */\n  0x00\n    /* \"#utility.yul\":9812:9821   */\n  dup4\n    /* \"#utility.yul\":9808:9825   */\n  add\n    /* \"#utility.yul\":9799:9805   */\n  dup5\n    /* \"#utility.yul\":9755:9826   */\n  tag_65\n  jump\t// in\ntag_184:\n    /* \"#utility.yul\":9611:9833   */\n  swap3\n  swap2\n  pop\n  pop\n  jump\t// out\n    /* \"TankToys/TKC_ERC20_flattened.sol\":79440:79812  contract TankCoin is ERC20 {... */\ntag_17:\n  dataSize(sub_0)\n  dup1\n  dataOffset(sub_0)\n  0x00\n  codecopy\n  0x00\n  return\nstop\n\nsub_0: assembly {\n        /* \"TankToys/TKC_ERC20_flattened.sol\":79440:79812  contract TankCoin is ERC20 {... */\n      mstore(0x40, 0x80)\n      callvalue\n      dup1\n      iszero\n      tag_1\n      jumpi\n      0x00\n      dup1\n      revert\n    tag_1:\n      pop\n      jumpi(tag_2, lt(calldatasize, 0x04))\n      shr(0xe0, calldataload(0x00))\n      dup1\n      0x40c10f19\n      gt\n      tag_14\n      jumpi\n      dup1\n      0x40c10f19\n      eq\n      tag_8\n      jumpi\n      dup1\n      0x70a08231\n      eq\n      tag_9\n      jumpi\n      dup1\n      0x95d89b41\n      eq\n      tag_10\n      jumpi\n      dup1\n      0xa9059cbb\n      eq\n      tag_11\n      jumpi\n      dup1\n      0xdd62ed3e\n      eq\n      tag_12\n      jumpi\n      dup1\n      0xf584e397\n      eq\n      tag_13\n      jumpi\n      jump(tag_2)\n    tag_14:\n      dup1\n      0x06fdde03\n      eq\n      tag_3\n      jumpi\n      dup1\n      0x095ea7b3\n      eq\n      tag_4\n      jumpi\n      dup1\n      0x18160ddd\n      eq\n      tag_5\n      jumpi\n      dup1\n      0x23b872dd\n      eq\n      tag_6\n      jumpi\n      dup1\n      0x313ce567\n      eq\n      tag_7\n      jumpi\n    tag_2:\n      0x00\n      dup1\n      revert\n        /* \"TankToys/TKC_ERC20_flattened.sol\":67748:67837  function name() public view virtual returns (string memory) {... */\n    tag_3:\n      tag_15\n      tag_16\n      jump\t// in\n    tag_15:\n      mload(0x40)\n      tag_17\n      swap2\n      swap1\n      tag_18\n      jump\t// in\n    tag_17:\n      mload(0x40)\n      dup1\n      swap2\n      sub\n      swap1\n      return\n        /* \"TankToys/TKC_ERC20_flattened.sol\":69967:70153  function approve(address spender, uint256 value) public virtual returns (bool) {... */\n    tag_4:\n      tag_19\n      0x04\n      dup1\n      calldatasize\n      sub\n      dup2\n      add\n      swap1\n      tag_20\n      swap2\n      swap1\n      tag_21\n      jump\t// in\n    tag_20:\n      tag_22\n      jump\t// in\n    tag_19:\n      mload(0x40)\n      tag_23\n      swap2\n      swap1\n      tag_24\n      jump\t// in\n    tag_23:\n      mload(0x40)\n      dup1\n      swap2\n      sub\n      swap1\n      return\n        /* \"TankToys/TKC_ERC20_flattened.sol\":68818:68915  function totalSupply() public view virtual returns (uint256) {... */\n    tag_5:\n      tag_25\n      tag_26\n      jump\t// in\n    tag_25:\n      mload(0x40)\n      tag_27\n      swap2\n      swap1\n      tag_28\n      jump\t// in\n    tag_27:\n      mload(0x40)\n      dup1\n      swap2\n      sub\n      swap1\n      return\n        /* \"TankToys/TKC_ERC20_flattened.sol\":70713:70957  function transferFrom(address from, address to, uint256 value) public virtual returns (bool) {... */\n    tag_6:\n      tag_29\n      0x04\n      dup1\n      calldatasize\n      sub\n      dup2\n      add\n      swap1\n      tag_30\n      swap2\n      swap1\n      tag_31\n      jump\t// in\n    tag_30:\n      tag_32\n      jump\t// in\n    tag_29:\n      mload(0x40)\n      tag_33\n      swap2\n      swap1\n      tag_24\n      jump\t// in\n    tag_33:\n      mload(0x40)\n      dup1\n      swap2\n      sub\n      swap1\n      return\n        /* \"TankToys/TKC_ERC20_flattened.sol\":68676:68758  function decimals() public view virtual returns (uint8) {... */\n    tag_7:\n      tag_34\n      tag_35\n      jump\t// in\n    tag_34:\n      mload(0x40)\n      tag_36\n      swap2\n      swap1\n      tag_37\n      jump\t// in\n    tag_36:\n      mload(0x40)\n      dup1\n      swap2\n      sub\n      swap1\n      return\n        /* \"TankToys/TKC_ERC20_flattened.sol\":79591:79675  function mint(address to, uint256 amount) public  {... */\n    tag_8:\n      tag_38\n      0x04\n      dup1\n      calldatasize\n      sub\n      dup2\n      add\n      swap1\n      tag_39\n      swap2\n      swap1\n      tag_21\n      jump\t// in\n    tag_39:\n      tag_40\n      jump\t// in\n    tag_38:\n      stop\n        /* \"TankToys/TKC_ERC20_flattened.sol\":68973:69089  function balanceOf(address account) public view virtual returns (uint256) {... */\n    tag_9:\n      tag_41\n      0x04\n      dup1\n      calldatasize\n      sub\n      dup2\n      add\n      swap1\n      tag_42\n      swap2\n      swap1\n      tag_43\n      jump\t// in\n    tag_42:\n      tag_44\n      jump\t// in\n    tag_41:\n      mload(0x40)\n      tag_45\n      swap2\n      swap1\n      tag_28\n      jump\t// in\n    tag_45:\n      mload(0x40)\n      dup1\n      swap2\n      sub\n      swap1\n      return\n        /* \"TankToys/TKC_ERC20_flattened.sol\":67950:68043  function symbol() public view virtual returns (string memory) {... */\n    tag_10:\n      tag_46\n      tag_47\n      jump\t// in\n    tag_46:\n      mload(0x40)\n      tag_48\n      swap2\n      swap1\n      tag_18\n      jump\t// in\n    tag_48:\n      mload(0x40)\n      dup1\n      swap2\n      sub\n      swap1\n      return\n        /* \"TankToys/TKC_ERC20_flattened.sol\":69284:69462  function transfer(address to, uint256 value) public virtual returns (bool) {... */\n    tag_11:\n      tag_49\n      0x04\n      dup1\n      calldatasize\n      sub\n      dup2\n      add\n      swap1\n      tag_50\n      swap2\n      swap1\n      tag_21\n      jump\t// in\n    tag_50:\n      tag_51\n      jump\t// in\n    tag_49:\n      mload(0x40)\n      tag_52\n      swap2\n      swap1\n      tag_24\n      jump\t// in\n    tag_52:\n      mload(0x40)\n      dup1\n      swap2\n      sub\n      swap1\n      return\n        /* \"TankToys/TKC_ERC20_flattened.sol\":69520:69660  function allowance(address owner, address spender) public view virtual returns (uint256) {... */\n    tag_12:\n      tag_53\n      0x04\n      dup1\n      calldatasize\n      sub\n      dup2\n      add\n      swap1\n      tag_54\n      swap2\n      swap1\n      tag_55\n      jump\t// in\n    tag_54:\n      tag_56\n      jump\t// in\n    tag_53:\n      mload(0x40)\n      tag_57\n      swap2\n      swap1\n      tag_28\n      jump\t// in\n    tag_57:\n      mload(0x40)\n      dup1\n      swap2\n      sub\n      swap1\n      return\n        /* \"TankToys/TKC_ERC20_flattened.sol\":79681:79810  function aprobar(address propietario, address spender, uint value) public  {... */\n    tag_13:\n      tag_58\n      0x04\n      dup1\n      calldatasize\n      sub\n      dup2\n      add\n      swap1\n      tag_59\n      swap2\n      swap1\n      tag_31\n      jump\t// in\n    tag_59:\n      tag_60\n      jump\t// in\n    tag_58:\n      stop\n        /* \"TankToys/TKC_ERC20_flattened.sol\":67748:67837  function name() public view virtual returns (string memory) {... */\n    tag_16:\n        /* \"TankToys/TKC_ERC20_flattened.sol\":67793:67806  string memory */\n      0x60\n        /* \"TankToys/TKC_ERC20_flattened.sol\":67825:67830  _name */\n      0x03\n        /* \"TankToys/TKC_ERC20_flattened.sol\":67818:67830  return _name */\n      dup1\n      sload\n      tag_62\n      swap1\n      tag_63\n      jump\t// in\n    tag_62:\n      dup1\n      0x1f\n      add\n      0x20\n      dup1\n      swap2\n      div\n      mul\n      0x20\n      add\n      mload(0x40)\n      swap1\n      dup2\n      add\n      0x40\n      mstore\n      dup1\n      swap3\n      swap2\n      swap1\n      dup2\n      dup2\n      mstore\n      0x20\n      add\n      dup3\n      dup1\n      sload\n      tag_64\n      swap1\n      tag_63\n      jump\t// in\n    tag_64:\n      dup1\n      iszero\n      tag_65\n      jumpi\n      dup1\n      0x1f\n      lt\n      tag_66\n      jumpi\n      0x0100\n      dup1\n      dup4\n      sload\n      div\n      mul\n      dup4\n      mstore\n      swap2\n      0x20\n      add\n      swap2\n      jump(tag_65)\n    tag_66:\n      dup3\n      add\n      swap2\n      swap1\n      0x00\n      mstore\n      keccak256(0x00, 0x20)\n      swap1\n    tag_67:\n      dup2\n      sload\n      dup2\n      mstore\n      swap1\n      0x01\n      add\n      swap1\n      0x20\n      add\n      dup1\n      dup4\n      gt\n      tag_67\n      jumpi\n      dup3\n      swap1\n      sub\n      0x1f\n      and\n      dup3\n      add\n      swap2\n    tag_65:\n      pop\n      pop\n      pop\n      pop\n      pop\n      swap1\n      pop\n        /* \"TankToys/TKC_ERC20_flattened.sol\":67748:67837  function name() public view virtual returns (string memory) {... */\n      swap1\n      jump\t// out\n        /* \"TankToys/TKC_ERC20_flattened.sol\":69967:70153  function approve(address spender, uint256 value) public virtual returns (bool) {... */\n    tag_22:\n        /* \"TankToys/TKC_ERC20_flattened.sol\":70040:70044  bool */\n      0x00\n        /* \"TankToys/TKC_ERC20_flattened.sol\":70056:70069  address owner */\n      dup1\n        /* \"TankToys/TKC_ERC20_flattened.sol\":70072:70084  _msgSender() */\n      tag_69\n        /* \"TankToys/TKC_ERC20_flattened.sol\":70072:70082  _msgSender */\n      tag_70\n        /* \"TankToys/TKC_ERC20_flattened.sol\":70072:70084  _msgSender() */\n      jump\t// in\n    tag_69:\n        /* \"TankToys/TKC_ERC20_flattened.sol\":70056:70084  address owner = _msgSender() */\n      swap1\n      pop\n        /* \"TankToys/TKC_ERC20_flattened.sol\":70094:70125  _approve(owner, spender, value) */\n      tag_71\n        /* \"TankToys/TKC_ERC20_flattened.sol\":70103:70108  owner */\n      dup2\n        /* \"TankToys/TKC_ERC20_flattened.sol\":70110:70117  spender */\n      dup6\n        /* \"TankToys/TKC_ERC20_flattened.sol\":70119:70124  value */\n      dup6\n        /* \"TankToys/TKC_ERC20_flattened.sol\":70094:70102  _approve */\n      tag_72\n        /* \"TankToys/TKC_ERC20_flattened.sol\":70094:70125  _approve(owner, spender, value) */\n      jump\t// in\n    tag_71:\n        /* \"TankToys/TKC_ERC20_flattened.sol\":70142:70146  true */\n      0x01\n        /* \"TankToys/TKC_ERC20_flattened.sol\":70135:70146  return true */\n      swap2\n      pop\n      pop\n        /* \"TankToys/TKC_ERC20_flattened.sol\":69967:70153  function approve(address spender, uint256 value) public virtual returns (bool) {... */\n      swap3\n      swap2\n      pop\n      pop\n      jump\t// out\n        /* \"TankToys/TKC_ERC20_flattened.sol\":68818:68915  function totalSupply() public view virtual returns (uint256) {... */\n    tag_26:\n        /* \"TankToys/TKC_ERC20_flattened.sol\":68870:68877  uint256 */\n      0x00\n        /* \"TankToys/TKC_ERC20_flattened.sol\":68896:68908  _totalSupply */\n      sload(0x02)\n        /* \"TankToys/TKC_ERC20_flattened.sol\":68889:68908  return _totalSupply */\n      swap1\n      pop\n        /* \"TankToys/TKC_ERC20_flattened.sol\":68818:68915  function totalSupply() public view virtual returns (uint256) {... */\n      swap1\n      jump\t// out\n        /* \"TankToys/TKC_ERC20_flattened.sol\":70713:70957  function transferFrom(address from, address to, uint256 value) public virtual returns (bool) {... */\n    tag_32:\n        /* \"TankToys/TKC_ERC20_flattened.sol\":70800:70804  bool */\n      0x00\n        /* \"TankToys/TKC_ERC20_flattened.sol\":70816:70831  address spender */\n      dup1\n        /* \"TankToys/TKC_ERC20_flattened.sol\":70834:70846  _msgSender() */\n      tag_75\n        /* \"TankToys/TKC_ERC20_flattened.sol\":70834:70844  _msgSender */\n      tag_70\n        /* \"TankToys/TKC_ERC20_flattened.sol\":70834:70846  _msgSender() */\n      jump\t// in\n    tag_75:\n        /* \"TankToys/TKC_ERC20_flattened.sol\":70816:70846  address spender = _msgSender() */\n      swap1\n      pop\n        /* \"TankToys/TKC_ERC20_flattened.sol\":70856:70893  _spendAllowance(from, spender, value) */\n      tag_76\n        /* \"TankToys/TKC_ERC20_flattened.sol\":70872:70876  from */\n      dup6\n        /* \"TankToys/TKC_ERC20_flattened.sol\":70878:70885  spender */\n      dup3\n        /* \"TankToys/TKC_ERC20_flattened.sol\":70887:70892  value */\n      dup6\n        /* \"TankToys/TKC_ERC20_flattened.sol\":70856:70871  _spendAllowance */\n      tag_77\n        /* \"TankToys/TKC_ERC20_flattened.sol\":70856:70893  _spendAllowance(from, spender, value) */\n      jump\t// in\n    tag_76:\n        /* \"TankToys/TKC_ERC20_flattened.sol\":70903:70929  _transfer(from, to, value) */\n      tag_78\n        /* \"TankToys/TKC_ERC20_flattened.sol\":70913:70917  from */\n      dup6\n        /* \"TankToys/TKC_ERC20_flattened.sol\":70919:70921  to */\n      dup6\n        /* \"TankToys/TKC_ERC20_flattened.sol\":70923:70928  value */\n      dup6\n        /* \"TankToys/TKC_ERC20_flattened.sol\":70903:70912  _transfer */\n      tag_79\n        /* \"TankToys/TKC_ERC20_flattened.sol\":70903:70929  _transfer(from, to, value) */\n      jump\t// in\n    tag_78:\n        /* \"TankToys/TKC_ERC20_flattened.sol\":70946:70950  true */\n      0x01\n        /* \"TankToys/TKC_ERC20_flattened.sol\":70939:70950  return true */\n      swap2\n      pop\n      pop\n        /* \"TankToys/TKC_ERC20_flattened.sol\":70713:70957  function transferFrom(address from, address to, uint256 value) public virtual returns (bool) {... */\n      swap4\n      swap3\n      pop\n      pop\n      pop\n      jump\t// out\n        /* \"TankToys/TKC_ERC20_flattened.sol\":68676:68758  function decimals() public view virtual returns (uint8) {... */\n    tag_35:\n        /* \"TankToys/TKC_ERC20_flattened.sol\":68725:68730  uint8 */\n      0x00\n        /* \"TankToys/TKC_ERC20_flattened.sol\":68749:68751  18 */\n      0x12\n        /* \"TankToys/TKC_ERC20_flattened.sol\":68742:68751  return 18 */\n      swap1\n      pop\n        /* \"TankToys/TKC_ERC20_flattened.sol\":68676:68758  function decimals() public view virtual returns (uint8) {... */\n      swap1\n      jump\t// out\n        /* \"TankToys/TKC_ERC20_flattened.sol\":79591:79675  function mint(address to, uint256 amount) public  {... */\n    tag_40:\n        /* \"TankToys/TKC_ERC20_flattened.sol\":79651:79668  _mint(to, amount) */\n      tag_82\n        /* \"TankToys/TKC_ERC20_flattened.sol\":79657:79659  to */\n      dup3\n        /* \"TankToys/TKC_ERC20_flattened.sol\":79661:79667  amount */\n      dup3\n        /* \"TankToys/TKC_ERC20_flattened.sol\":79651:79656  _mint */\n      tag_83\n        /* \"TankToys/TKC_ERC20_flattened.sol\":79651:79668  _mint(to, amount) */\n      jump\t// in\n    tag_82:\n        /* \"TankToys/TKC_ERC20_flattened.sol\":79591:79675  function mint(address to, uint256 amount) public  {... */\n      pop\n      pop\n      jump\t// out\n        /* \"TankToys/TKC_ERC20_flattened.sol\":68973:69089  function balanceOf(address account) public view virtual returns (uint256) {... */\n    tag_44:\n        /* \"TankToys/TKC_ERC20_flattened.sol\":69038:69045  uint256 */\n      0x00\n        /* \"TankToys/TKC_ERC20_flattened.sol\":69064:69073  _balances */\n      dup1\n        /* \"TankToys/TKC_ERC20_flattened.sol\":69064:69082  _balances[account] */\n      0x00\n        /* \"TankToys/TKC_ERC20_flattened.sol\":69074:69081  account */\n      dup4\n        /* \"TankToys/TKC_ERC20_flattened.sol\":69064:69082  _balances[account] */\n      0xffffffffffffffffffffffffffffffffffffffff\n      and\n      0xffffffffffffffffffffffffffffffffffffffff\n      and\n      dup2\n      mstore\n      0x20\n      add\n      swap1\n      dup2\n      mstore\n      0x20\n      add\n      0x00\n      keccak256\n      sload\n        /* \"TankToys/TKC_ERC20_flattened.sol\":69057:69082  return _balances[account] */\n      swap1\n      pop\n        /* \"TankToys/TKC_ERC20_flattened.sol\":68973:69089  function balanceOf(address account) public view virtual returns (uint256) {... */\n      swap2\n      swap1\n      pop\n      jump\t// out\n        /* \"TankToys/TKC_ERC20_flattened.sol\":67950:68043  function symbol() public view virtual returns (string memory) {... */\n    tag_47:\n        /* \"TankToys/TKC_ERC20_flattened.sol\":67997:68010  string memory */\n      0x60\n        /* \"TankToys/TKC_ERC20_flattened.sol\":68029:68036  _symbol */\n      0x04\n        /* \"TankToys/TKC_ERC20_flattened.sol\":68022:68036  return _symbol */\n      dup1\n      sload\n      tag_86\n      swap1\n      tag_63\n      jump\t// in\n    tag_86:\n      dup1\n      0x1f\n      add\n      0x20\n      dup1\n      swap2\n      div\n      mul\n      0x20\n      add\n      mload(0x40)\n      swap1\n      dup2\n      add\n      0x40\n      mstore\n      dup1\n      swap3\n      swap2\n      swap1\n      dup2\n      dup2\n      mstore\n      0x20\n      add\n      dup3\n      dup1\n      sload\n      tag_87\n      swap1\n      tag_63\n      jump\t// in\n    tag_87:\n      dup1\n      iszero\n      tag_88\n      jumpi\n      dup1\n      0x1f\n      lt\n      tag_89\n      jumpi\n      0x0100\n      dup1\n      dup4\n      sload\n      div\n      mul\n      dup4\n      mstore\n      swap2\n      0x20\n      add\n      swap2\n      jump(tag_88)\n    tag_89:\n      dup3\n      add\n      swap2\n      swap1\n      0x00\n      mstore\n      keccak256(0x00, 0x20)\n      swap1\n    tag_90:\n      dup2\n      sload\n      dup2\n      mstore\n      swap1\n      0x01\n      add\n      swap1\n      0x20\n      add\n      dup1\n      dup4\n      gt\n      tag_90\n      jumpi\n      dup3\n      swap1\n      sub\n      0x1f\n      and\n      dup3\n      add\n      swap2\n    tag_88:\n      pop\n      pop\n      pop\n      pop\n      pop\n      swap1\n      pop\n        /* \"TankToys/TKC_ERC20_flattened.sol\":67950:68043  function symbol() public view virtual returns (string memory) {... */\n      swap1\n      jump\t// out\n        /* \"TankToys/TKC_ERC20_flattened.sol\":69284:69462  function transfer(address to, uint256 value) public virtual returns (bool) {... */\n    tag_51:\n        /* \"TankToys/TKC_ERC20_flattened.sol\":69353:69357  bool */\n      0x00\n        /* \"TankToys/TKC_ERC20_flattened.sol\":69369:69382  address owner */\n      dup1\n        /* \"TankToys/TKC_ERC20_flattened.sol\":69385:69397  _msgSender() */\n      tag_92\n        /* \"TankToys/TKC_ERC20_flattened.sol\":69385:69395  _msgSender */\n      tag_70\n        /* \"TankToys/TKC_ERC20_flattened.sol\":69385:69397  _msgSender() */\n      jump\t// in\n    tag_92:\n        /* \"TankToys/TKC_ERC20_flattened.sol\":69369:69397  address owner = _msgSender() */\n      swap1\n      pop\n        /* \"TankToys/TKC_ERC20_flattened.sol\":69407:69434  _transfer(owner, to, value) */\n      tag_93\n        /* \"TankToys/TKC_ERC20_flattened.sol\":69417:69422  owner */\n      dup2\n        /* \"TankToys/TKC_ERC20_flattened.sol\":69424:69426  to */\n      dup6\n        /* \"TankToys/TKC_ERC20_flattened.sol\":69428:69433  value */\n      dup6\n        /* \"TankToys/TKC_ERC20_flattened.sol\":69407:69416  _transfer */\n      tag_79\n        /* \"TankToys/TKC_ERC20_flattened.sol\":69407:69434  _transfer(owner, to, value) */\n      jump\t// in\n    tag_93:\n        /* \"TankToys/TKC_ERC20_flattened.sol\":69451:69455  true */\n      0x01\n        /* \"TankToys/TKC_ERC20_flattened.sol\":69444:69455  return true */\n      swap2\n      pop\n      pop\n        /* \"TankToys/TKC_ERC20_flattened.sol\":69284:69462  function transfer(address to, uint256 value) public virtual returns (bool) {... */\n      swap3\n      swap2\n      pop\n      pop\n      jump\t// out\n        /* \"TankToys/TKC_ERC20_flattened.sol\":69520:69660  function allowance(address owner, address spender) public view virtual returns (uint256) {... */\n    tag_56:\n        /* \"TankToys/TKC_ERC20_flattened.sol\":69600:69607  uint256 */\n      0x00\n        /* \"TankToys/TKC_ERC20_flattened.sol\":69626:69637  _allowances */\n      0x01\n        /* \"TankToys/TKC_ERC20_flattened.sol\":69626:69644  _allowances[owner] */\n      0x00\n        /* \"TankToys/TKC_ERC20_flattened.sol\":69638:69643  owner */\n      dup5\n        /* \"TankToys/TKC_ERC20_flattened.sol\":69626:69644  _allowances[owner] */\n      0xffffffffffffffffffffffffffffffffffffffff\n      and\n      0xffffffffffffffffffffffffffffffffffffffff\n      and\n      dup2\n      mstore\n      0x20\n      add\n      swap1\n      dup2\n      mstore\n      0x20\n      add\n      0x00\n      keccak256\n        /* \"TankToys/TKC_ERC20_flattened.sol\":69626:69653  _allowances[owner][spender] */\n      0x00\n        /* \"TankToys/TKC_ERC20_flattened.sol\":69645:69652  spender */\n      dup4\n        /* \"TankToys/TKC_ERC20_flattened.sol\":69626:69653  _allowances[owner][spender] */\n      0xffffffffffffffffffffffffffffffffffffffff\n      and\n      0xffffffffffffffffffffffffffffffffffffffff\n      and\n      dup2\n      mstore\n      0x20\n      add\n      swap1\n      dup2\n      mstore\n      0x20\n      add\n      0x00\n      keccak256\n      sload\n        /* \"TankToys/TKC_ERC20_flattened.sol\":69619:69653  return _allowances[owner][spender] */\n      swap1\n      pop\n        /* \"TankToys/TKC_ERC20_flattened.sol\":69520:69660  function allowance(address owner, address spender) public view virtual returns (uint256) {... */\n      swap3\n      swap2\n      pop\n      pop\n      jump\t// out\n        /* \"TankToys/TKC_ERC20_flattened.sol\":79681:79810  function aprobar(address propietario, address spender, uint value) public  {... */\n    tag_60:\n        /* \"TankToys/TKC_ERC20_flattened.sol\":79766:79803  _approve(propietario, spender, value) */\n      tag_96\n        /* \"TankToys/TKC_ERC20_flattened.sol\":79775:79786  propietario */\n      dup4\n        /* \"TankToys/TKC_ERC20_flattened.sol\":79788:79795  spender */\n      dup4\n        /* \"TankToys/TKC_ERC20_flattened.sol\":79797:79802  value */\n      dup4\n        /* \"TankToys/TKC_ERC20_flattened.sol\":79766:79774  _approve */\n      tag_72\n        /* \"TankToys/TKC_ERC20_flattened.sol\":79766:79803  _approve(propietario, spender, value) */\n      jump\t// in\n    tag_96:\n        /* \"TankToys/TKC_ERC20_flattened.sol\":79681:79810  function aprobar(address propietario, address spender, uint value) public  {... */\n      pop\n      pop\n      pop\n      jump\t// out\n        /* \"TankToys/TKC_ERC20_flattened.sol\":59081:59177  function _msgSender() internal view virtual returns (address) {... */\n    tag_70:\n        /* \"TankToys/TKC_ERC20_flattened.sol\":59134:59141  address */\n      0x00\n        /* \"TankToys/TKC_ERC20_flattened.sol\":59160:59170  msg.sender */\n      caller\n        /* \"TankToys/TKC_ERC20_flattened.sol\":59153:59170  return msg.sender */\n      swap1\n      pop\n        /* \"TankToys/TKC_ERC20_flattened.sol\":59081:59177  function _msgSender() internal view virtual returns (address) {... */\n      swap1\n      jump\t// out\n        /* \"TankToys/TKC_ERC20_flattened.sol\":74663:74791  function _approve(address owner, address spender, uint256 value) internal {... */\n    tag_72:\n        /* \"TankToys/TKC_ERC20_flattened.sol\":74747:74784  _approve(owner, spender, value, true) */\n      tag_99\n        /* \"TankToys/TKC_ERC20_flattened.sol\":74756:74761  owner */\n      dup4\n        /* \"TankToys/TKC_ERC20_flattened.sol\":74763:74770  spender */\n      dup4\n        /* \"TankToys/TKC_ERC20_flattened.sol\":74772:74777  value */\n      dup4\n        /* \"TankToys/TKC_ERC20_flattened.sol\":74779:74783  true */\n      0x01\n        /* \"TankToys/TKC_ERC20_flattened.sol\":74747:74755  _approve */\n      tag_100\n        /* \"TankToys/TKC_ERC20_flattened.sol\":74747:74784  _approve(owner, spender, value, true) */\n      jump\t// in\n    tag_99:\n        /* \"TankToys/TKC_ERC20_flattened.sol\":74663:74791  function _approve(address owner, address spender, uint256 value) internal {... */\n      pop\n      pop\n      pop\n      jump\t// out\n        /* \"TankToys/TKC_ERC20_flattened.sol\":76337:76814  function _spendAllowance(address owner, address spender, uint256 value) internal virtual {... */\n    tag_77:\n        /* \"TankToys/TKC_ERC20_flattened.sol\":76436:76460  uint256 currentAllowance */\n      0x00\n        /* \"TankToys/TKC_ERC20_flattened.sol\":76463:76488  allowance(owner, spender) */\n      tag_102\n        /* \"TankToys/TKC_ERC20_flattened.sol\":76473:76478  owner */\n      dup5\n        /* \"TankToys/TKC_ERC20_flattened.sol\":76480:76487  spender */\n      dup5\n        /* \"TankToys/TKC_ERC20_flattened.sol\":76463:76472  allowance */\n      tag_56\n        /* \"TankToys/TKC_ERC20_flattened.sol\":76463:76488  allowance(owner, spender) */\n      jump\t// in\n    tag_102:\n        /* \"TankToys/TKC_ERC20_flattened.sol\":76436:76488  uint256 currentAllowance = allowance(owner, spender) */\n      swap1\n      pop\n        /* \"TankToys/TKC_ERC20_flattened.sol\":76522:76539  type(uint256).max */\n      0xffffffffffffffffffffffffffffffffffffffffffffffffffffffffffffffff\n        /* \"TankToys/TKC_ERC20_flattened.sol\":76502:76518  currentAllowance */\n      dup2\n        /* \"TankToys/TKC_ERC20_flattened.sol\":76502:76539  currentAllowance != type(uint256).max */\n      eq\n        /* \"TankToys/TKC_ERC20_flattened.sol\":76498:76808  if (currentAllowance != type(uint256).max) {... */\n      tag_103\n      jumpi\n        /* \"TankToys/TKC_ERC20_flattened.sol\":76578:76583  value */\n      dup2\n        /* \"TankToys/TKC_ERC20_flattened.sol\":76559:76575  currentAllowance */\n      dup2\n        /* \"TankToys/TKC_ERC20_flattened.sol\":76559:76583  currentAllowance < value */\n      lt\n        /* \"TankToys/TKC_ERC20_flattened.sol\":76555:76685  if (currentAllowance < value) {... */\n      iszero\n      tag_104\n      jumpi\n        /* \"TankToys/TKC_ERC20_flattened.sol\":76637:76644  spender */\n      dup3\n        /* \"TankToys/TKC_ERC20_flattened.sol\":76646:76662  currentAllowance */\n      dup2\n        /* \"TankToys/TKC_ERC20_flattened.sol\":76664:76669  value */\n      dup4\n        /* \"TankToys/TKC_ERC20_flattened.sol\":76610:76670  ERC20InsufficientAllowance(spender, currentAllowance, value) */\n      mload(0x40)\n      0xfb8f41b200000000000000000000000000000000000000000000000000000000\n      dup2\n      mstore\n      0x04\n      add\n      tag_105\n      swap4\n      swap3\n      swap2\n      swap1\n      tag_106\n      jump\t// in\n    tag_105:\n      mload(0x40)\n      dup1\n      swap2\n      sub\n      swap1\n      revert\n        /* \"TankToys/TKC_ERC20_flattened.sol\":76555:76685  if (currentAllowance < value) {... */\n    tag_104:\n        /* \"TankToys/TKC_ERC20_flattened.sol\":76726:76783  _approve(owner, spender, currentAllowance - value, false) */\n      tag_107\n        /* \"TankToys/TKC_ERC20_flattened.sol\":76735:76740  owner */\n      dup5\n        /* \"TankToys/TKC_ERC20_flattened.sol\":76742:76749  spender */\n      dup5\n        /* \"TankToys/TKC_ERC20_flattened.sol\":76770:76775  value */\n      dup5\n        /* \"TankToys/TKC_ERC20_flattened.sol\":76751:76767  currentAllowance */\n      dup5\n        /* \"TankToys/TKC_ERC20_flattened.sol\":76751:76775  currentAllowance - value */\n      sub\n        /* \"TankToys/TKC_ERC20_flattened.sol\":76777:76782  false */\n      0x00\n        /* \"TankToys/TKC_ERC20_flattened.sol\":76726:76734  _approve */\n      tag_100\n        /* \"TankToys/TKC_ERC20_flattened.sol\":76726:76783  _approve(owner, spender, currentAllowance - value, false) */\n      jump\t// in\n    tag_107:\n        /* \"TankToys/TKC_ERC20_flattened.sol\":76498:76808  if (currentAllowance != type(uint256).max) {... */\n    tag_103:\n        /* \"TankToys/TKC_ERC20_flattened.sol\":76426:76814  {... */\n      pop\n        /* \"TankToys/TKC_ERC20_flattened.sol\":76337:76814  function _spendAllowance(address owner, address spender, uint256 value) internal virtual {... */\n      pop\n      pop\n      pop\n      jump\t// out\n        /* \"TankToys/TKC_ERC20_flattened.sol\":71330:71630  function _transfer(address from, address to, uint256 value) internal {... */\n    tag_79:\n        /* \"TankToys/TKC_ERC20_flattened.sol\":71429:71430  0 */\n      0x00\n        /* \"TankToys/TKC_ERC20_flattened.sol\":71413:71431  from == address(0) */\n      0xffffffffffffffffffffffffffffffffffffffff\n      and\n        /* \"TankToys/TKC_ERC20_flattened.sol\":71413:71417  from */\n      dup4\n        /* \"TankToys/TKC_ERC20_flattened.sol\":71413:71431  from == address(0) */\n      0xffffffffffffffffffffffffffffffffffffffff\n      and\n      sub\n        /* \"TankToys/TKC_ERC20_flattened.sol\":71409:71495  if (from == address(0)) {... */\n      tag_109\n      jumpi\n        /* \"TankToys/TKC_ERC20_flattened.sol\":71481:71482  0 */\n      0x00\n        /* \"TankToys/TKC_ERC20_flattened.sol\":71454:71484  ERC20InvalidSender(address(0)) */\n      mload(0x40)\n      0x96c6fd1e00000000000000000000000000000000000000000000000000000000\n      dup2\n      mstore\n      0x04\n      add\n      tag_110\n      swap2\n      swap1\n      tag_111\n      jump\t// in\n    tag_110:\n      mload(0x40)\n      dup1\n      swap2\n      sub\n      swap1\n      revert\n        /* \"TankToys/TKC_ERC20_flattened.sol\":71409:71495  if (from == address(0)) {... */\n    tag_109:\n        /* \"TankToys/TKC_ERC20_flattened.sol\":71522:71523  0 */\n      0x00\n        /* \"TankToys/TKC_ERC20_flattened.sol\":71508:71524  to == address(0) */\n      0xffffffffffffffffffffffffffffffffffffffff\n      and\n        /* \"TankToys/TKC_ERC20_flattened.sol\":71508:71510  to */\n      dup3\n        /* \"TankToys/TKC_ERC20_flattened.sol\":71508:71524  to == address(0) */\n      0xffffffffffffffffffffffffffffffffffffffff\n      and\n      sub\n        /* \"TankToys/TKC_ERC20_flattened.sol\":71504:71590  if (to == address(0)) {... */\n      tag_112\n      jumpi\n        /* \"TankToys/TKC_ERC20_flattened.sol\":71576:71577  0 */\n      0x00\n        /* \"TankToys/TKC_ERC20_flattened.sol\":71547:71579  ERC20InvalidReceiver(address(0)) */\n      mload(0x40)\n      0xec442f0500000000000000000000000000000000000000000000000000000000\n      dup2\n      mstore\n      0x04\n      add\n      tag_113\n      swap2\n      swap1\n      tag_111\n      jump\t// in\n    tag_113:\n      mload(0x40)\n      dup1\n      swap2\n      sub\n      swap1\n      revert\n        /* \"TankToys/TKC_ERC20_flattened.sol\":71504:71590  if (to == address(0)) {... */\n    tag_112:\n        /* \"TankToys/TKC_ERC20_flattened.sol\":71599:71623  _update(from, to, value) */\n      tag_114\n        /* \"TankToys/TKC_ERC20_flattened.sol\":71607:71611  from */\n      dup4\n        /* \"TankToys/TKC_ERC20_flattened.sol\":71613:71615  to */\n      dup4\n        /* \"TankToys/TKC_ERC20_flattened.sol\":71617:71622  value */\n      dup4\n        /* \"TankToys/TKC_ERC20_flattened.sol\":71599:71606  _update */\n      tag_115\n        /* \"TankToys/TKC_ERC20_flattened.sol\":71599:71623  _update(from, to, value) */\n      jump\t// in\n    tag_114:\n        /* \"TankToys/TKC_ERC20_flattened.sol\":71330:71630  function _transfer(address from, address to, uint256 value) internal {... */\n      pop\n      pop\n      pop\n      jump\t// out\n        /* \"TankToys/TKC_ERC20_flattened.sol\":73395:73603  function _mint(address account, uint256 value) internal {... */\n    tag_83:\n        /* \"TankToys/TKC_ERC20_flattened.sol\":73484:73485  0 */\n      0x00\n        /* \"TankToys/TKC_ERC20_flattened.sol\":73465:73486  account == address(0) */\n      0xffffffffffffffffffffffffffffffffffffffff\n      and\n        /* \"TankToys/TKC_ERC20_flattened.sol\":73465:73472  account */\n      dup3\n        /* \"TankToys/TKC_ERC20_flattened.sol\":73465:73486  account == address(0) */\n      0xffffffffffffffffffffffffffffffffffffffff\n      and\n      sub\n        /* \"TankToys/TKC_ERC20_flattened.sol\":73461:73552  if (account == address(0)) {... */\n      tag_117\n      jumpi\n        /* \"TankToys/TKC_ERC20_flattened.sol\":73538:73539  0 */\n      0x00\n        /* \"TankToys/TKC_ERC20_flattened.sol\":73509:73541  ERC20InvalidReceiver(address(0)) */\n      mload(0x40)\n      0xec442f0500000000000000000000000000000000000000000000000000000000\n      dup2\n      mstore\n      0x04\n      add\n      tag_118\n      swap2\n      swap1\n      tag_111\n      jump\t// in\n    tag_118:\n      mload(0x40)\n      dup1\n      swap2\n      sub\n      swap1\n      revert\n        /* \"TankToys/TKC_ERC20_flattened.sol\":73461:73552  if (account == address(0)) {... */\n    tag_117:\n        /* \"TankToys/TKC_ERC20_flattened.sol\":73561:73596  _update(address(0), account, value) */\n      tag_119\n        /* \"TankToys/TKC_ERC20_flattened.sol\":73577:73578  0 */\n      0x00\n        /* \"TankToys/TKC_ERC20_flattened.sol\":73581:73588  account */\n      dup4\n        /* \"TankToys/TKC_ERC20_flattened.sol\":73590:73595  value */\n      dup4\n        /* \"TankToys/TKC_ERC20_flattened.sol\":73561:73568  _update */\n      tag_115\n        /* \"TankToys/TKC_ERC20_flattened.sol\":73561:73596  _update(address(0), account, value) */\n      jump\t// in\n    tag_119:\n        /* \"TankToys/TKC_ERC20_flattened.sol\":73395:73603  function _mint(address account, uint256 value) internal {... */\n      pop\n      pop\n      jump\t// out\n        /* \"TankToys/TKC_ERC20_flattened.sol\":75623:76055  function _approve(address owner, address spender, uint256 value, bool emitEvent) internal virtual {... */\n    tag_100:\n        /* \"TankToys/TKC_ERC20_flattened.sol\":75752:75753  0 */\n      0x00\n        /* \"TankToys/TKC_ERC20_flattened.sol\":75735:75754  owner == address(0) */\n      0xffffffffffffffffffffffffffffffffffffffff\n      and\n        /* \"TankToys/TKC_ERC20_flattened.sol\":75735:75740  owner */\n      dup5\n        /* \"TankToys/TKC_ERC20_flattened.sol\":75735:75754  owner == address(0) */\n      0xffffffffffffffffffffffffffffffffffffffff\n      and\n      sub\n        /* \"TankToys/TKC_ERC20_flattened.sol\":75731:75820  if (owner == address(0)) {... */\n      tag_121\n      jumpi\n        /* \"TankToys/TKC_ERC20_flattened.sol\":75806:75807  0 */\n      0x00\n        /* \"TankToys/TKC_ERC20_flattened.sol\":75777:75809  ERC20InvalidApprover(address(0)) */\n      mload(0x40)\n      0xe602df0500000000000000000000000000000000000000000000000000000000\n      dup2\n      mstore\n      0x04\n      add\n      tag_122\n      swap2\n      swap1\n      tag_111\n      jump\t// in\n    tag_122:\n      mload(0x40)\n      dup1\n      swap2\n      sub\n      swap1\n      revert\n        /* \"TankToys/TKC_ERC20_flattened.sol\":75731:75820  if (owner == address(0)) {... */\n    tag_121:\n        /* \"TankToys/TKC_ERC20_flattened.sol\":75852:75853  0 */\n      0x00\n        /* \"TankToys/TKC_ERC20_flattened.sol\":75833:75854  spender == address(0) */\n      0xffffffffffffffffffffffffffffffffffffffff\n      and\n        /* \"TankToys/TKC_ERC20_flattened.sol\":75833:75840  spender */\n      dup4\n        /* \"TankToys/TKC_ERC20_flattened.sol\":75833:75854  spender == address(0) */\n      0xffffffffffffffffffffffffffffffffffffffff\n      and\n      sub\n        /* \"TankToys/TKC_ERC20_flattened.sol\":75829:75919  if (spender == address(0)) {... */\n      tag_123\n      jumpi\n        /* \"TankToys/TKC_ERC20_flattened.sol\":75905:75906  0 */\n      0x00\n        /* \"TankToys/TKC_ERC20_flattened.sol\":75877:75908  ERC20InvalidSpender(address(0)) */\n      mload(0x40)\n      0x94280d6200000000000000000000000000000000000000000000000000000000\n      dup2\n      mstore\n      0x04\n      add\n      tag_124\n      swap2\n      swap1\n      tag_111\n      jump\t// in\n    tag_124:\n      mload(0x40)\n      dup1\n      swap2\n      sub\n      swap1\n      revert\n        /* \"TankToys/TKC_ERC20_flattened.sol\":75829:75919  if (spender == address(0)) {... */\n    tag_123:\n        /* \"TankToys/TKC_ERC20_flattened.sol\":75958:75963  value */\n      dup2\n        /* \"TankToys/TKC_ERC20_flattened.sol\":75928:75939  _allowances */\n      0x01\n        /* \"TankToys/TKC_ERC20_flattened.sol\":75928:75946  _allowances[owner] */\n      0x00\n        /* \"TankToys/TKC_ERC20_flattened.sol\":75940:75945  owner */\n      dup7\n        /* \"TankToys/TKC_ERC20_flattened.sol\":75928:75946  _allowances[owner] */\n      0xffffffffffffffffffffffffffffffffffffffff\n      and\n      0xffffffffffffffffffffffffffffffffffffffff\n      and\n      dup2\n      mstore\n      0x20\n      add\n      swap1\n      dup2\n      mstore\n      0x20\n      add\n      0x00\n      keccak256\n        /* \"TankToys/TKC_ERC20_flattened.sol\":75928:75955  _allowances[owner][spender] */\n      0x00\n        /* \"TankToys/TKC_ERC20_flattened.sol\":75947:75954  spender */\n      dup6\n        /* \"TankToys/TKC_ERC20_flattened.sol\":75928:75955  _allowances[owner][spender] */\n      0xffffffffffffffffffffffffffffffffffffffff\n      and\n      0xffffffffffffffffffffffffffffffffffffffff\n      and\n      dup2\n      mstore\n      0x20\n      add\n      swap1\n      dup2\n      mstore\n      0x20\n      add\n      0x00\n      keccak256\n        /* \"TankToys/TKC_ERC20_flattened.sol\":75928:75963  _allowances[owner][spender] = value */\n      dup2\n      swap1\n      sstore\n      pop\n        /* \"TankToys/TKC_ERC20_flattened.sol\":75977:75986  emitEvent */\n      dup1\n        /* \"TankToys/TKC_ERC20_flattened.sol\":75973:76049  if (emitEvent) {... */\n      iszero\n      tag_125\n      jumpi\n        /* \"TankToys/TKC_ERC20_flattened.sol\":76023:76030  spender */\n      dup3\n        /* \"TankToys/TKC_ERC20_flattened.sol\":76007:76038  Approval(owner, spender, value) */\n      0xffffffffffffffffffffffffffffffffffffffff\n      and\n        /* \"TankToys/TKC_ERC20_flattened.sol\":76016:76021  owner */\n      dup5\n        /* \"TankToys/TKC_ERC20_flattened.sol\":76007:76038  Approval(owner, spender, value) */\n      0xffffffffffffffffffffffffffffffffffffffff\n      and\n      0x8c5be1e5ebec7d5bd14f71427d1e84f3dd0314c0f7b2291e5b200ac8c7c3b925\n        /* \"TankToys/TKC_ERC20_flattened.sol\":76032:76037  value */\n      dup5\n        /* \"TankToys/TKC_ERC20_flattened.sol\":76007:76038  Approval(owner, spender, value) */\n      mload(0x40)\n      tag_126\n      swap2\n      swap1\n      tag_28\n      jump\t// in\n    tag_126:\n      mload(0x40)\n      dup1\n      swap2\n      sub\n      swap1\n      log3\n        /* \"TankToys/TKC_ERC20_flattened.sol\":75973:76049  if (emitEvent) {... */\n    tag_125:\n        /* \"TankToys/TKC_ERC20_flattened.sol\":75623:76055  function _approve(address owner, address spender, uint256 value, bool emitEvent) internal virtual {... */\n      pop\n      pop\n      pop\n      pop\n      jump\t// out\n        /* \"TankToys/TKC_ERC20_flattened.sol\":71945:73052  function _update(address from, address to, uint256 value) internal virtual {... */\n    tag_115:\n        /* \"TankToys/TKC_ERC20_flattened.sol\":72050:72051  0 */\n      0x00\n        /* \"TankToys/TKC_ERC20_flattened.sol\":72034:72052  from == address(0) */\n      0xffffffffffffffffffffffffffffffffffffffff\n      and\n        /* \"TankToys/TKC_ERC20_flattened.sol\":72034:72038  from */\n      dup4\n        /* \"TankToys/TKC_ERC20_flattened.sol\":72034:72052  from == address(0) */\n      0xffffffffffffffffffffffffffffffffffffffff\n      and\n      sub\n        /* \"TankToys/TKC_ERC20_flattened.sol\":72030:72570  if (from == address(0)) {... */\n      tag_128\n      jumpi\n        /* \"TankToys/TKC_ERC20_flattened.sol\":72186:72191  value */\n      dup1\n        /* \"TankToys/TKC_ERC20_flattened.sol\":72170:72182  _totalSupply */\n      0x02\n      0x00\n        /* \"TankToys/TKC_ERC20_flattened.sol\":72170:72191  _totalSupply += value */\n      dup3\n      dup3\n      sload\n      tag_129\n      swap2\n      swap1\n      tag_130\n      jump\t// in\n    tag_129:\n      swap3\n      pop\n      pop\n      dup2\n      swap1\n      sstore\n      pop\n        /* \"TankToys/TKC_ERC20_flattened.sol\":72030:72570  if (from == address(0)) {... */\n      jump(tag_131)\n    tag_128:\n        /* \"TankToys/TKC_ERC20_flattened.sol\":72222:72241  uint256 fromBalance */\n      0x00\n        /* \"TankToys/TKC_ERC20_flattened.sol\":72244:72253  _balances */\n      dup1\n        /* \"TankToys/TKC_ERC20_flattened.sol\":72244:72259  _balances[from] */\n      0x00\n        /* \"TankToys/TKC_ERC20_flattened.sol\":72254:72258  from */\n      dup6\n        /* \"TankToys/TKC_ERC20_flattened.sol\":72244:72259  _balances[from] */\n      0xffffffffffffffffffffffffffffffffffffffff\n      and\n      0xffffffffffffffffffffffffffffffffffffffff\n      and\n      dup2\n      mstore\n      0x20\n      add\n      swap1\n      dup2\n      mstore\n      0x20\n      add\n      0x00\n      keccak256\n      sload\n        /* \"TankToys/TKC_ERC20_flattened.sol\":72222:72259  uint256 fromBalance = _balances[from] */\n      swap1\n      pop\n        /* \"TankToys/TKC_ERC20_flattened.sol\":72291:72296  value */\n      dup2\n        /* \"TankToys/TKC_ERC20_flattened.sol\":72277:72288  fromBalance */\n      dup2\n        /* \"TankToys/TKC_ERC20_flattened.sol\":72277:72296  fromBalance < value */\n      lt\n        /* \"TankToys/TKC_ERC20_flattened.sol\":72273:72388  if (fromBalance < value) {... */\n      iszero\n      tag_132\n      jumpi\n        /* \"TankToys/TKC_ERC20_flattened.sol\":72348:72352  from */\n      dup4\n        /* \"TankToys/TKC_ERC20_flattened.sol\":72354:72365  fromBalance */\n      dup2\n        /* \"TankToys/TKC_ERC20_flattened.sol\":72367:72372  value */\n      dup4\n        /* \"TankToys/TKC_ERC20_flattened.sol\":72323:72373  ERC20InsufficientBalance(from, fromBalance, value) */\n      mload(0x40)\n      0xe450d38c00000000000000000000000000000000000000000000000000000000\n      dup2\n      mstore\n      0x04\n      add\n      tag_133\n      swap4\n      swap3\n      swap2\n      swap1\n      tag_106\n      jump\t// in\n    tag_133:\n      mload(0x40)\n      dup1\n      swap2\n      sub\n      swap1\n      revert\n        /* \"TankToys/TKC_ERC20_flattened.sol\":72273:72388  if (fromBalance < value) {... */\n    tag_132:\n        /* \"TankToys/TKC_ERC20_flattened.sol\":72540:72545  value */\n      dup2\n        /* \"TankToys/TKC_ERC20_flattened.sol\":72526:72537  fromBalance */\n      dup2\n        /* \"TankToys/TKC_ERC20_flattened.sol\":72526:72545  fromBalance - value */\n      sub\n        /* \"TankToys/TKC_ERC20_flattened.sol\":72508:72517  _balances */\n      0x00\n        /* \"TankToys/TKC_ERC20_flattened.sol\":72508:72523  _balances[from] */\n      dup1\n        /* \"TankToys/TKC_ERC20_flattened.sol\":72518:72522  from */\n      dup7\n        /* \"TankToys/TKC_ERC20_flattened.sol\":72508:72523  _balances[from] */\n      0xffffffffffffffffffffffffffffffffffffffff\n      and\n      0xffffffffffffffffffffffffffffffffffffffff\n      and\n      dup2\n      mstore\n      0x20\n      add\n      swap1\n      dup2\n      mstore\n      0x20\n      add\n      0x00\n      keccak256\n        /* \"TankToys/TKC_ERC20_flattened.sol\":72508:72545  _balances[from] = fromBalance - value */\n      dup2\n      swap1\n      sstore\n      pop\n        /* \"TankToys/TKC_ERC20_flattened.sol\":72208:72570  {... */\n      pop\n        /* \"TankToys/TKC_ERC20_flattened.sol\":72030:72570  if (from == address(0)) {... */\n    tag_131:\n        /* \"TankToys/TKC_ERC20_flattened.sol\":72598:72599  0 */\n      0x00\n        /* \"TankToys/TKC_ERC20_flattened.sol\":72584:72600  to == address(0) */\n      0xffffffffffffffffffffffffffffffffffffffff\n      and\n        /* \"TankToys/TKC_ERC20_flattened.sol\":72584:72586  to */\n      dup3\n        /* \"TankToys/TKC_ERC20_flattened.sol\":72584:72600  to == address(0) */\n      0xffffffffffffffffffffffffffffffffffffffff\n      and\n      sub\n        /* \"TankToys/TKC_ERC20_flattened.sol\":72580:73005  if (to == address(0)) {... */\n      tag_134\n      jumpi\n        /* \"TankToys/TKC_ERC20_flattened.sol\":72763:72768  value */\n      dup1\n        /* \"TankToys/TKC_ERC20_flattened.sol\":72747:72759  _totalSupply */\n      0x02\n      0x00\n        /* \"TankToys/TKC_ERC20_flattened.sol\":72747:72768  _totalSupply -= value */\n      dup3\n      dup3\n      sload\n      sub\n      swap3\n      pop\n      pop\n      dup2\n      swap1\n      sstore\n      pop\n        /* \"TankToys/TKC_ERC20_flattened.sol\":72580:73005  if (to == address(0)) {... */\n      jump(tag_135)\n    tag_134:\n        /* \"TankToys/TKC_ERC20_flattened.sol\":72975:72980  value */\n      dup1\n        /* \"TankToys/TKC_ERC20_flattened.sol\":72958:72967  _balances */\n      0x00\n        /* \"TankToys/TKC_ERC20_flattened.sol\":72958:72971  _balances[to] */\n      dup1\n        /* \"TankToys/TKC_ERC20_flattened.sol\":72968:72970  to */\n      dup5\n        /* \"TankToys/TKC_ERC20_flattened.sol\":72958:72971  _balances[to] */\n      0xffffffffffffffffffffffffffffffffffffffff\n      and\n      0xffffffffffffffffffffffffffffffffffffffff\n      and\n      dup2\n      mstore\n      0x20\n      add\n      swap1\n      dup2\n      mstore\n      0x20\n      add\n      0x00\n      keccak256\n      0x00\n        /* \"TankToys/TKC_ERC20_flattened.sol\":72958:72980  _balances[to] += value */\n      dup3\n      dup3\n      sload\n      add\n      swap3\n      pop\n      pop\n      dup2\n      swap1\n      sstore\n      pop\n        /* \"TankToys/TKC_ERC20_flattened.sol\":72580:73005  if (to == address(0)) {... */\n    tag_135:\n        /* \"TankToys/TKC_ERC20_flattened.sol\":73035:73037  to */\n      dup2\n        /* \"TankToys/TKC_ERC20_flattened.sol\":73020:73045  Transfer(from, to, value) */\n      0xffffffffffffffffffffffffffffffffffffffff\n      and\n        /* \"TankToys/TKC_ERC20_flattened.sol\":73029:73033  from */\n      dup4\n        /* \"TankToys/TKC_ERC20_flattened.sol\":73020:73045  Transfer(from, to, value) */\n      0xffffffffffffffffffffffffffffffffffffffff\n      and\n      0xddf252ad1be2c89b69c2b068fc378daa952ba7f163c4a11628f55a4df523b3ef\n        /* \"TankToys/TKC_ERC20_flattened.sol\":73039:73044  value */\n      dup4\n        /* \"TankToys/TKC_ERC20_flattened.sol\":73020:73045  Transfer(from, to, value) */\n      mload(0x40)\n      tag_136\n      swap2\n      swap1\n      tag_28\n      jump\t// in\n    tag_136:\n      mload(0x40)\n      dup1\n      swap2\n      sub\n      swap1\n      log3\n        /* \"TankToys/TKC_ERC20_flattened.sol\":71945:73052  function _update(address from, address to, uint256 value) internal virtual {... */\n      pop\n      pop\n      pop\n      jump\t// out\n        /* \"#utility.yul\":7:106   */\n    tag_137:\n        /* \"#utility.yul\":59:65   */\n      0x00\n        /* \"#utility.yul\":93:98   */\n      dup2\n        /* \"#utility.yul\":87:99   */\n      mload\n        /* \"#utility.yul\":77:99   */\n      swap1\n      pop\n        /* \"#utility.yul\":7:106   */\n      swap2\n      swap1\n      pop\n      jump\t// out\n        /* \"#utility.yul\":112:281   */\n    tag_138:\n        /* \"#utility.yul\":196:207   */\n      0x00\n        /* \"#utility.yul\":230:236   */\n      dup3\n        /* \"#utility.yul\":225:228   */\n      dup3\n        /* \"#utility.yul\":218:237   */\n      mstore\n        /* \"#utility.yul\":270:274   */\n      0x20\n        /* \"#utility.yul\":265:268   */\n      dup3\n        /* \"#utility.yul\":261:275   */\n      add\n        /* \"#utility.yul\":246:275   */\n      swap1\n      pop\n        /* \"#utility.yul\":112:281   */\n      swap3\n      swap2\n      pop\n      pop\n      jump\t// out\n        /* \"#utility.yul\":287:533   */\n    tag_139:\n        /* \"#utility.yul\":368:369   */\n      0x00\n        /* \"#utility.yul\":378:491   */\n    tag_164:\n        /* \"#utility.yul\":392:398   */\n      dup4\n        /* \"#utility.yul\":389:390   */\n      dup2\n        /* \"#utility.yul\":386:399   */\n      lt\n        /* \"#utility.yul\":378:491   */\n      iszero\n      tag_166\n      jumpi\n        /* \"#utility.yul\":477:478   */\n      dup1\n        /* \"#utility.yul\":472:475   */\n      dup3\n        /* \"#utility.yul\":468:479   */\n      add\n        /* \"#utility.yul\":462:480   */\n      mload\n        /* \"#utility.yul\":458:459   */\n      dup2\n        /* \"#utility.yul\":453:456   */\n      dup5\n        /* \"#utility.yul\":449:460   */\n      add\n        /* \"#utility.yul\":442:481   */\n      mstore\n        /* \"#utility.yul\":414:416   */\n      0x20\n        /* \"#utility.yul\":411:412   */\n      dup2\n        /* \"#utility.yul\":407:417   */\n      add\n        /* \"#utility.yul\":402:417   */\n      swap1\n      pop\n        /* \"#utility.yul\":378:491   */\n      jump(tag_164)\n    tag_166:\n        /* \"#utility.yul\":525:526   */\n      0x00\n        /* \"#utility.yul\":516:522   */\n      dup5\n        /* \"#utility.yul\":511:514   */\n      dup5\n        /* \"#utility.yul\":507:523   */\n      add\n        /* \"#utility.yul\":500:527   */\n      mstore\n        /* \"#utility.yul\":349:533   */\n      pop\n        /* \"#utility.yul\":287:533   */\n      pop\n      pop\n      pop\n      jump\t// out\n        /* \"#utility.yul\":539:641   */\n    tag_140:\n        /* \"#utility.yul\":580:586   */\n      0x00\n        /* \"#utility.yul\":631:633   */\n      0x1f\n        /* \"#utility.yul\":627:634   */\n      not\n        /* \"#utility.yul\":622:624   */\n      0x1f\n        /* \"#utility.yul\":615:620   */\n      dup4\n        /* \"#utility.yul\":611:625   */\n      add\n        /* \"#utility.yul\":607:635   */\n      and\n        /* \"#utility.yul\":597:635   */\n      swap1\n      pop\n        /* \"#utility.yul\":539:641   */\n      swap2\n      swap1\n      pop\n      jump\t// out\n        /* \"#utility.yul\":647:1024   */\n    tag_141:\n        /* \"#utility.yul\":735:738   */\n      0x00\n        /* \"#utility.yul\":763:802   */\n      tag_169\n        /* \"#utility.yul\":796:801   */\n      dup3\n        /* \"#utility.yul\":763:802   */\n      tag_137\n      jump\t// in\n    tag_169:\n        /* \"#utility.yul\":818:889   */\n      tag_170\n        /* \"#utility.yul\":882:888   */\n      dup2\n        /* \"#utility.yul\":877:880   */\n      dup6\n        /* \"#utility.yul\":818:889   */\n      tag_138\n      jump\t// in\n    tag_170:\n        /* \"#utility.yul\":811:889   */\n      swap4\n      pop\n        /* \"#utility.yul\":898:963   */\n      tag_171\n        /* \"#utility.yul\":956:962   */\n      dup2\n        /* \"#utility.yul\":951:954   */\n      dup6\n        /* \"#utility.yul\":944:948   */\n      0x20\n        /* \"#utility.yul\":937:942   */\n      dup7\n        /* \"#utility.yul\":933:949   */\n      add\n        /* \"#utility.yul\":898:963   */\n      tag_139\n      jump\t// in\n    tag_171:\n        /* \"#utility.yul\":988:1017   */\n      tag_172\n        /* \"#utility.yul\":1010:1016   */\n      dup2\n        /* \"#utility.yul\":988:1017   */\n      tag_140\n      jump\t// in\n    tag_172:\n        /* \"#utility.yul\":983:986   */\n      dup5\n        /* \"#utility.yul\":979:1018   */\n      add\n        /* \"#utility.yul\":972:1018   */\n      swap2\n      pop\n        /* \"#utility.yul\":739:1024   */\n      pop\n        /* \"#utility.yul\":647:1024   */\n      swap3\n      swap2\n      pop\n      pop\n      jump\t// out\n        /* \"#utility.yul\":1030:1343   */\n    tag_18:\n        /* \"#utility.yul\":1143:1147   */\n      0x00\n        /* \"#utility.yul\":1181:1183   */\n      0x20\n        /* \"#utility.yul\":1170:1179   */\n      dup3\n        /* \"#utility.yul\":1166:1184   */\n      add\n        /* \"#utility.yul\":1158:1184   */\n      swap1\n      pop\n        /* \"#utility.yul\":1230:1239   */\n      dup2\n        /* \"#utility.yul\":1224:1228   */\n      dup2\n        /* \"#utility.yul\":1220:1240   */\n      sub\n        /* \"#utility.yul\":1216:1217   */\n      0x00\n        /* \"#utility.yul\":1205:1214   */\n      dup4\n        /* \"#utility.yul\":1201:1218   */\n      add\n        /* \"#utility.yul\":1194:1241   */\n      mstore\n        /* \"#utility.yul\":1258:1336   */\n      tag_174\n        /* \"#utility.yul\":1331:1335   */\n      dup2\n        /* \"#utility.yul\":1322:1328   */\n      dup5\n        /* \"#utility.yul\":1258:1336   */\n      tag_141\n      jump\t// in\n    tag_174:\n        /* \"#utility.yul\":1250:1336   */\n      swap1\n      pop\n        /* \"#utility.yul\":1030:1343   */\n      swap3\n      swap2\n      pop\n      pop\n      jump\t// out\n        /* \"#utility.yul\":1430:1547   */\n    tag_143:\n        /* \"#utility.yul\":1539:1540   */\n      0x00\n        /* \"#utility.yul\":1536:1537   */\n      dup1\n        /* \"#utility.yul\":1529:1541   */\n      revert\n        /* \"#utility.yul\":1676:1802   */\n    tag_145:\n        /* \"#utility.yul\":1713:1720   */\n      0x00\n        /* \"#utility.yul\":1753:1795   */\n      0xffffffffffffffffffffffffffffffffffffffff\n        /* \"#utility.yul\":1746:1751   */\n      dup3\n        /* \"#utility.yul\":1742:1796   */\n      and\n        /* \"#utility.yul\":1731:1796   */\n      swap1\n      pop\n        /* \"#utility.yul\":1676:1802   */\n      swap2\n      swap1\n      pop\n      jump\t// out\n        /* \"#utility.yul\":1808:1904   */\n    tag_146:\n        /* \"#utility.yul\":1845:1852   */\n      0x00\n        /* \"#utility.yul\":1874:1898   */\n      tag_180\n        /* \"#utility.yul\":1892:1897   */\n      dup3\n        /* \"#utility.yul\":1874:1898   */\n      tag_145\n      jump\t// in\n    tag_180:\n        /* \"#utility.yul\":1863:1898   */\n      swap1\n      pop\n        /* \"#utility.yul\":1808:1904   */\n      swap2\n      swap1\n      pop\n      jump\t// out\n        /* \"#utility.yul\":1910:2032   */\n    tag_147:\n        /* \"#utility.yul\":1983:2007   */\n      tag_182\n        /* \"#utility.yul\":2001:2006   */\n      dup2\n        /* \"#utility.yul\":1983:2007   */\n      tag_146\n      jump\t// in\n    tag_182:\n        /* \"#utility.yul\":1976:1981   */\n      dup2\n        /* \"#utility.yul\":1973:2008   */\n      eq\n        /* \"#utility.yul\":1963:2026   */\n      tag_183\n      jumpi\n        /* \"#utility.yul\":2022:2023   */\n      0x00\n        /* \"#utility.yul\":2019:2020   */\n      dup1\n        /* \"#utility.yul\":2012:2024   */\n      revert\n        /* \"#utility.yul\":1963:2026   */\n    tag_183:\n        /* \"#utility.yul\":1910:2032   */\n      pop\n      jump\t// out\n        /* \"#utility.yul\":2038:2177   */\n    tag_148:\n        /* \"#utility.yul\":2084:2089   */\n      0x00\n        /* \"#utility.yul\":2122:2128   */\n      dup2\n        /* \"#utility.yul\":2109:2129   */\n      calldataload\n        /* \"#utility.yul\":2100:2129   */\n      swap1\n      pop\n        /* \"#utility.yul\":2138:2171   */\n      tag_185\n        /* \"#utility.yul\":2165:2170   */\n      dup2\n        /* \"#utility.yul\":2138:2171   */\n      tag_147\n      jump\t// in\n    tag_185:\n        /* \"#utility.yul\":2038:2177   */\n      swap3\n      swap2\n      pop\n      pop\n      jump\t// out\n        /* \"#utility.yul\":2183:2260   */\n    tag_149:\n        /* \"#utility.yul\":2220:2227   */\n      0x00\n        /* \"#utility.yul\":2249:2254   */\n      dup2\n        /* \"#utility.yul\":2238:2254   */\n      swap1\n      pop\n        /* \"#utility.yul\":2183:2260   */\n      swap2\n      swap1\n      pop\n      jump\t// out\n        /* \"#utility.yul\":2266:2388   */\n    tag_150:\n        /* \"#utility.yul\":2339:2363   */\n      tag_188\n        /* \"#utility.yul\":2357:2362   */\n      dup2\n        /* \"#utility.yul\":2339:2363   */\n      tag_149\n      jump\t// in\n    tag_188:\n        /* \"#utility.yul\":2332:2337   */\n      dup2\n        /* \"#utility.yul\":2329:2364   */\n      eq\n        /* \"#utility.yul\":2319:2382   */\n      tag_189\n      jumpi\n        /* \"#utility.yul\":2378:2379   */\n      0x00\n        /* \"#utility.yul\":2375:2376   */\n      dup1\n        /* \"#utility.yul\":2368:2380   */\n      revert\n        /* \"#utility.yul\":2319:2382   */\n    tag_189:\n        /* \"#utility.yul\":2266:2388   */\n      pop\n      jump\t// out\n        /* \"#utility.yul\":2394:2533   */\n    tag_151:\n        /* \"#utility.yul\":2440:2445   */\n      0x00\n        /* \"#utility.yul\":2478:2484   */\n      dup2\n        /* \"#utility.yul\":2465:2485   */\n      calldataload\n        /* \"#utility.yul\":2456:2485   */\n      swap1\n      pop\n        /* \"#utility.yul\":2494:2527   */\n      tag_191\n        /* \"#utility.yul\":2521:2526   */\n      dup2\n        /* \"#utility.yul\":2494:2527   */\n      tag_150\n      jump\t// in\n    tag_191:\n        /* \"#utility.yul\":2394:2533   */\n      swap3\n      swap2\n      pop\n      pop\n      jump\t// out\n        /* \"#utility.yul\":2539:3013   */\n    tag_21:\n        /* \"#utility.yul\":2607:2613   */\n      0x00\n        /* \"#utility.yul\":2615:2621   */\n      dup1\n        /* \"#utility.yul\":2664:2666   */\n      0x40\n        /* \"#utility.yul\":2652:2661   */\n      dup4\n        /* \"#utility.yul\":2643:2650   */\n      dup6\n        /* \"#utility.yul\":2639:2662   */\n      sub\n        /* \"#utility.yul\":2635:2667   */\n      slt\n        /* \"#utility.yul\":2632:2751   */\n      iszero\n      tag_193\n      jumpi\n        /* \"#utility.yul\":2670:2749   */\n      tag_194\n      tag_143\n      jump\t// in\n    tag_194:\n        /* \"#utility.yul\":2632:2751   */\n    tag_193:\n        /* \"#utility.yul\":2790:2791   */\n      0x00\n        /* \"#utility.yul\":2815:2868   */\n      tag_195\n        /* \"#utility.yul\":2860:2867   */\n      dup6\n        /* \"#utility.yul\":2851:2857   */\n      dup3\n        /* \"#utility.yul\":2840:2849   */\n      dup7\n        /* \"#utility.yul\":2836:2858   */\n      add\n        /* \"#utility.yul\":2815:2868   */\n      tag_148\n      jump\t// in\n    tag_195:\n        /* \"#utility.yul\":2805:2868   */\n      swap3\n      pop\n        /* \"#utility.yul\":2761:2878   */\n      pop\n        /* \"#utility.yul\":2917:2919   */\n      0x20\n        /* \"#utility.yul\":2943:2996   */\n      tag_196\n        /* \"#utility.yul\":2988:2995   */\n      dup6\n        /* \"#utility.yul\":2979:2985   */\n      dup3\n        /* \"#utility.yul\":2968:2977   */\n      dup7\n        /* \"#utility.yul\":2964:2986   */\n      add\n        /* \"#utility.yul\":2943:2996   */\n      tag_151\n      jump\t// in\n    tag_196:\n        /* \"#utility.yul\":2933:2996   */\n      swap2\n      pop\n        /* \"#utility.yul\":2888:3006   */\n      pop\n        /* \"#utility.yul\":2539:3013   */\n      swap3\n      pop\n      swap3\n      swap1\n      pop\n      jump\t// out\n        /* \"#utility.yul\":3019:3109   */\n    tag_152:\n        /* \"#utility.yul\":3053:3060   */\n      0x00\n        /* \"#utility.yul\":3096:3101   */\n      dup2\n        /* \"#utility.yul\":3089:3102   */\n      iszero\n        /* \"#utility.yul\":3082:3103   */\n      iszero\n        /* \"#utility.yul\":3071:3103   */\n      swap1\n      pop\n        /* \"#utility.yul\":3019:3109   */\n      swap2\n      swap1\n      pop\n      jump\t// out\n        /* \"#utility.yul\":3115:3224   */\n    tag_153:\n        /* \"#utility.yul\":3196:3217   */\n      tag_199\n        /* \"#utility.yul\":3211:3216   */\n      dup2\n        /* \"#utility.yul\":3196:3217   */\n      tag_152\n      jump\t// in\n    tag_199:\n        /* \"#utility.yul\":3191:3194   */\n      dup3\n        /* \"#utility.yul\":3184:3218   */\n      mstore\n        /* \"#utility.yul\":3115:3224   */\n      pop\n      pop\n      jump\t// out\n        /* \"#utility.yul\":3230:3440   */\n    tag_24:\n        /* \"#utility.yul\":3317:3321   */\n      0x00\n        /* \"#utility.yul\":3355:3357   */\n      0x20\n        /* \"#utility.yul\":3344:3353   */\n      dup3\n        /* \"#utility.yul\":3340:3358   */\n      add\n        /* \"#utility.yul\":3332:3358   */\n      swap1\n      pop\n        /* \"#utility.yul\":3368:3433   */\n      tag_201\n        /* \"#utility.yul\":3430:3431   */\n      0x00\n        /* \"#utility.yul\":3419:3428   */\n      dup4\n        /* \"#utility.yul\":3415:3432   */\n      add\n        /* \"#utility.yul\":3406:3412   */\n      dup5\n        /* \"#utility.yul\":3368:3433   */\n      tag_153\n      jump\t// in\n    tag_201:\n        /* \"#utility.yul\":3230:3440   */\n      swap3\n      swap2\n      pop\n      pop\n      jump\t// out\n        /* \"#utility.yul\":3446:3564   */\n    tag_154:\n        /* \"#utility.yul\":3533:3557   */\n      tag_203\n        /* \"#utility.yul\":3551:3556   */\n      dup2\n        /* \"#utility.yul\":3533:3557   */\n      tag_149\n      jump\t// in\n    tag_203:\n        /* \"#utility.yul\":3528:3531   */\n      dup3\n        /* \"#utility.yul\":3521:3558   */\n      mstore\n        /* \"#utility.yul\":3446:3564   */\n      pop\n      pop\n      jump\t// out\n        /* \"#utility.yul\":3570:3792   */\n    tag_28:\n        /* \"#utility.yul\":3663:3667   */\n      0x00\n        /* \"#utility.yul\":3701:3703   */\n      0x20\n        /* \"#utility.yul\":3690:3699   */\n      dup3\n        /* \"#utility.yul\":3686:3704   */\n      add\n        /* \"#utility.yul\":3678:3704   */\n      swap1\n      pop\n        /* \"#utility.yul\":3714:3785   */\n      tag_205\n        /* \"#utility.yul\":3782:3783   */\n      0x00\n        /* \"#utility.yul\":3771:3780   */\n      dup4\n        /* \"#utility.yul\":3767:3784   */\n      add\n        /* \"#utility.yul\":3758:3764   */\n      dup5\n        /* \"#utility.yul\":3714:3785   */\n      tag_154\n      jump\t// in\n    tag_205:\n        /* \"#utility.yul\":3570:3792   */\n      swap3\n      swap2\n      pop\n      pop\n      jump\t// out\n        /* \"#utility.yul\":3798:4417   */\n    tag_31:\n        /* \"#utility.yul\":3875:3881   */\n      0x00\n        /* \"#utility.yul\":3883:3889   */\n      dup1\n        /* \"#utility.yul\":3891:3897   */\n      0x00\n        /* \"#utility.yul\":3940:3942   */\n      0x60\n        /* \"#utility.yul\":3928:3937   */\n      dup5\n        /* \"#utility.yul\":3919:3926   */\n      dup7\n        /* \"#utility.yul\":3915:3938   */\n      sub\n        /* \"#utility.yul\":3911:3943   */\n      slt\n        /* \"#utility.yul\":3908:4027   */\n      iszero\n      tag_207\n      jumpi\n        /* \"#utility.yul\":3946:4025   */\n      tag_208\n      tag_143\n      jump\t// in\n    tag_208:\n        /* \"#utility.yul\":3908:4027   */\n    tag_207:\n        /* \"#utility.yul\":4066:4067   */\n      0x00\n        /* \"#utility.yul\":4091:4144   */\n      tag_209\n        /* \"#utility.yul\":4136:4143   */\n      dup7\n        /* \"#utility.yul\":4127:4133   */\n      dup3\n        /* \"#utility.yul\":4116:4125   */\n      dup8\n        /* \"#utility.yul\":4112:4134   */\n      add\n        /* \"#utility.yul\":4091:4144   */\n      tag_148\n      jump\t// in\n    tag_209:\n        /* \"#utility.yul\":4081:4144   */\n      swap4\n      pop\n        /* \"#utility.yul\":4037:4154   */\n      pop\n        /* \"#utility.yul\":4193:4195   */\n      0x20\n        /* \"#utility.yul\":4219:4272   */\n      tag_210\n        /* \"#utility.yul\":4264:4271   */\n      dup7\n        /* \"#utility.yul\":4255:4261   */\n      dup3\n        /* \"#utility.yul\":4244:4253   */\n      dup8\n        /* \"#utility.yul\":4240:4262   */\n      add\n        /* \"#utility.yul\":4219:4272   */\n      tag_148\n      jump\t// in\n    tag_210:\n        /* \"#utility.yul\":4209:4272   */\n      swap3\n      pop\n        /* \"#utility.yul\":4164:4282   */\n      pop\n        /* \"#utility.yul\":4321:4323   */\n      0x40\n        /* \"#utility.yul\":4347:4400   */\n      tag_211\n        /* \"#utility.yul\":4392:4399   */\n      dup7\n        /* \"#utility.yul\":4383:4389   */\n      dup3\n        /* \"#utility.yul\":4372:4381   */\n      dup8\n        /* \"#utility.yul\":4368:4390   */\n      add\n        /* \"#utility.yul\":4347:4400   */\n      tag_151\n      jump\t// in\n    tag_211:\n        /* \"#utility.yul\":4337:4400   */\n      swap2\n      pop\n        /* \"#utility.yul\":4292:4410   */\n      pop\n        /* \"#utility.yul\":3798:4417   */\n      swap3\n      pop\n      swap3\n      pop\n      swap3\n      jump\t// out\n        /* \"#utility.yul\":4423:4509   */\n    tag_155:\n        /* \"#utility.yul\":4458:4465   */\n      0x00\n        /* \"#utility.yul\":4498:4502   */\n      0xff\n        /* \"#utility.yul\":4491:4496   */\n      dup3\n        /* \"#utility.yul\":4487:4503   */\n      and\n        /* \"#utility.yul\":4476:4503   */\n      swap1\n      pop\n        /* \"#utility.yul\":4423:4509   */\n      swap2\n      swap1\n      pop\n      jump\t// out\n        /* \"#utility.yul\":4515:4627   */\n    tag_156:\n        /* \"#utility.yul\":4598:4620   */\n      tag_214\n        /* \"#utility.yul\":4614:4619   */\n      dup2\n        /* \"#utility.yul\":4598:4620   */\n      tag_155\n      jump\t// in\n    tag_214:\n        /* \"#utility.yul\":4593:4596   */\n      dup3\n        /* \"#utility.yul\":4586:4621   */\n      mstore\n        /* \"#utility.yul\":4515:4627   */\n      pop\n      pop\n      jump\t// out\n        /* \"#utility.yul\":4633:4847   */\n    tag_37:\n        /* \"#utility.yul\":4722:4726   */\n      0x00\n        /* \"#utility.yul\":4760:4762   */\n      0x20\n        /* \"#utility.yul\":4749:4758   */\n      dup3\n        /* \"#utility.yul\":4745:4763   */\n      add\n        /* \"#utility.yul\":4737:4763   */\n      swap1\n      pop\n        /* \"#utility.yul\":4773:4840   */\n      tag_216\n        /* \"#utility.yul\":4837:4838   */\n      0x00\n        /* \"#utility.yul\":4826:4835   */\n      dup4\n        /* \"#utility.yul\":4822:4839   */\n      add\n        /* \"#utility.yul\":4813:4819   */\n      dup5\n        /* \"#utility.yul\":4773:4840   */\n      tag_156\n      jump\t// in\n    tag_216:\n        /* \"#utility.yul\":4633:4847   */\n      swap3\n      swap2\n      pop\n      pop\n      jump\t// out\n        /* \"#utility.yul\":4853:5182   */\n    tag_43:\n        /* \"#utility.yul\":4912:4918   */\n      0x00\n        /* \"#utility.yul\":4961:4963   */\n      0x20\n        /* \"#utility.yul\":4949:4958   */\n      dup3\n        /* \"#utility.yul\":4940:4947   */\n      dup5\n        /* \"#utility.yul\":4936:4959   */\n      sub\n        /* \"#utility.yul\":4932:4964   */\n      slt\n        /* \"#utility.yul\":4929:5048   */\n      iszero\n      tag_218\n      jumpi\n        /* \"#utility.yul\":4967:5046   */\n      tag_219\n      tag_143\n      jump\t// in\n    tag_219:\n        /* \"#utility.yul\":4929:5048   */\n    tag_218:\n        /* \"#utility.yul\":5087:5088   */\n      0x00\n        /* \"#utility.yul\":5112:5165   */\n      tag_220\n        /* \"#utility.yul\":5157:5164   */\n      dup5\n        /* \"#utility.yul\":5148:5154   */\n      dup3\n        /* \"#utility.yul\":5137:5146   */\n      dup6\n        /* \"#utility.yul\":5133:5155   */\n      add\n        /* \"#utility.yul\":5112:5165   */\n      tag_148\n      jump\t// in\n    tag_220:\n        /* \"#utility.yul\":5102:5165   */\n      swap2\n      pop\n        /* \"#utility.yul\":5058:5175   */\n      pop\n        /* \"#utility.yul\":4853:5182   */\n      swap3\n      swap2\n      pop\n      pop\n      jump\t// out\n        /* \"#utility.yul\":5188:5662   */\n    tag_55:\n        /* \"#utility.yul\":5256:5262   */\n      0x00\n        /* \"#utility.yul\":5264:5270   */\n      dup1\n        /* \"#utility.yul\":5313:5315   */\n      0x40\n        /* \"#utility.yul\":5301:5310   */\n      dup4\n        /* \"#utility.yul\":5292:5299   */\n      dup6\n        /* \"#utility.yul\":5288:5311   */\n      sub\n        /* \"#utility.yul\":5284:5316   */\n      slt\n        /* \"#utility.yul\":5281:5400   */\n      iszero\n      tag_222\n      jumpi\n        /* \"#utility.yul\":5319:5398   */\n      tag_223\n      tag_143\n      jump\t// in\n    tag_223:\n        /* \"#utility.yul\":5281:5400   */\n    tag_222:\n        /* \"#utility.yul\":5439:5440   */\n      0x00\n        /* \"#utility.yul\":5464:5517   */\n      tag_224\n        /* \"#utility.yul\":5509:5516   */\n      dup6\n        /* \"#utility.yul\":5500:5506   */\n      dup3\n        /* \"#utility.yul\":5489:5498   */\n      dup7\n        /* \"#utility.yul\":5485:5507   */\n      add\n        /* \"#utility.yul\":5464:5517   */\n      tag_148\n      jump\t// in\n    tag_224:\n        /* \"#utility.yul\":5454:5517   */\n      swap3\n      pop\n        /* \"#utility.yul\":5410:5527   */\n      pop\n        /* \"#utility.yul\":5566:5568   */\n      0x20\n        /* \"#utility.yul\":5592:5645   */\n      tag_225\n        /* \"#utility.yul\":5637:5644   */\n      dup6\n        /* \"#utility.yul\":5628:5634   */\n      dup3\n        /* \"#utility.yul\":5617:5626   */\n      dup7\n        /* \"#utility.yul\":5613:5635   */\n      add\n        /* \"#utility.yul\":5592:5645   */\n      tag_148\n      jump\t// in\n    tag_225:\n        /* \"#utility.yul\":5582:5645   */\n      swap2\n      pop\n        /* \"#utility.yul\":5537:5655   */\n      pop\n        /* \"#utility.yul\":5188:5662   */\n      swap3\n      pop\n      swap3\n      swap1\n      pop\n      jump\t// out\n        /* \"#utility.yul\":5668:5848   */\n    tag_157:\n        /* \"#utility.yul\":5716:5793   */\n      0x4e487b7100000000000000000000000000000000000000000000000000000000\n        /* \"#utility.yul\":5713:5714   */\n      0x00\n        /* \"#utility.yul\":5706:5794   */\n      mstore\n        /* \"#utility.yul\":5813:5817   */\n      0x22\n        /* \"#utility.yul\":5810:5811   */\n      0x04\n        /* \"#utility.yul\":5803:5818   */\n      mstore\n        /* \"#utility.yul\":5837:5841   */\n      0x24\n        /* \"#utility.yul\":5834:5835   */\n      0x00\n        /* \"#utility.yul\":5827:5842   */\n      revert\n        /* \"#utility.yul\":5854:6174   */\n    tag_63:\n        /* \"#utility.yul\":5898:5904   */\n      0x00\n        /* \"#utility.yul\":5935:5936   */\n      0x02\n        /* \"#utility.yul\":5929:5933   */\n      dup3\n        /* \"#utility.yul\":5925:5937   */\n      div\n        /* \"#utility.yul\":5915:5937   */\n      swap1\n      pop\n        /* \"#utility.yul\":5982:5983   */\n      0x01\n        /* \"#utility.yul\":5976:5980   */\n      dup3\n        /* \"#utility.yul\":5972:5984   */\n      and\n        /* \"#utility.yul\":6003:6021   */\n      dup1\n        /* \"#utility.yul\":5993:6074   */\n      tag_228\n      jumpi\n        /* \"#utility.yul\":6059:6063   */\n      0x7f\n        /* \"#utility.yul\":6051:6057   */\n      dup3\n        /* \"#utility.yul\":6047:6064   */\n      and\n        /* \"#utility.yul\":6037:6064   */\n      swap2\n      pop\n        /* \"#utility.yul\":5993:6074   */\n    tag_228:\n        /* \"#utility.yul\":6121:6123   */\n      0x20\n        /* \"#utility.yul\":6113:6119   */\n      dup3\n        /* \"#utility.yul\":6110:6124   */\n      lt\n        /* \"#utility.yul\":6090:6108   */\n      dup2\n        /* \"#utility.yul\":6087:6125   */\n      sub\n        /* \"#utility.yul\":6084:6168   */\n      tag_229\n      jumpi\n        /* \"#utility.yul\":6140:6158   */\n      tag_230\n      tag_157\n      jump\t// in\n    tag_230:\n        /* \"#utility.yul\":6084:6168   */\n    tag_229:\n        /* \"#utility.yul\":5905:6174   */\n      pop\n        /* \"#utility.yul\":5854:6174   */\n      swap2\n      swap1\n      pop\n      jump\t// out\n        /* \"#utility.yul\":6180:6298   */\n    tag_158:\n        /* \"#utility.yul\":6267:6291   */\n      tag_232\n        /* \"#utility.yul\":6285:6290   */\n      dup2\n        /* \"#utility.yul\":6267:6291   */\n      tag_146\n      jump\t// in\n    tag_232:\n        /* \"#utility.yul\":6262:6265   */\n      dup3\n        /* \"#utility.yul\":6255:6292   */\n      mstore\n        /* \"#utility.yul\":6180:6298   */\n      pop\n      pop\n      jump\t// out\n        /* \"#utility.yul\":6304:6746   */\n    tag_106:\n        /* \"#utility.yul\":6453:6457   */\n      0x00\n        /* \"#utility.yul\":6491:6493   */\n      0x60\n        /* \"#utility.yul\":6480:6489   */\n      dup3\n        /* \"#utility.yul\":6476:6494   */\n      add\n        /* \"#utility.yul\":6468:6494   */\n      swap1\n      pop\n        /* \"#utility.yul\":6504:6575   */\n      tag_234\n        /* \"#utility.yul\":6572:6573   */\n      0x00\n        /* \"#utility.yul\":6561:6570   */\n      dup4\n        /* \"#utility.yul\":6557:6574   */\n      add\n        /* \"#utility.yul\":6548:6554   */\n      dup7\n        /* \"#utility.yul\":6504:6575   */\n      tag_158\n      jump\t// in\n    tag_234:\n        /* \"#utility.yul\":6585:6657   */\n      tag_235\n        /* \"#utility.yul\":6653:6655   */\n      0x20\n        /* \"#utility.yul\":6642:6651   */\n      dup4\n        /* \"#utility.yul\":6638:6656   */\n      add\n        /* \"#utility.yul\":6629:6635   */\n      dup6\n        /* \"#utility.yul\":6585:6657   */\n      tag_154\n      jump\t// in\n    tag_235:\n        /* \"#utility.yul\":6667:6739   */\n      tag_236\n        /* \"#utility.yul\":6735:6737   */\n      0x40\n        /* \"#utility.yul\":6724:6733   */\n      dup4\n        /* \"#utility.yul\":6720:6738   */\n      add\n        /* \"#utility.yul\":6711:6717   */\n      dup5\n        /* \"#utility.yul\":6667:6739   */\n      tag_154\n      jump\t// in\n    tag_236:\n        /* \"#utility.yul\":6304:6746   */\n      swap5\n      swap4\n      pop\n      pop\n      pop\n      pop\n      jump\t// out\n        /* \"#utility.yul\":6752:6974   */\n    tag_111:\n        /* \"#utility.yul\":6845:6849   */\n      0x00\n        /* \"#utility.yul\":6883:6885   */\n      0x20\n        /* \"#utility.yul\":6872:6881   */\n      dup3\n        /* \"#utility.yul\":6868:6886   */\n      add\n        /* \"#utility.yul\":6860:6886   */\n      swap1\n      pop\n        /* \"#utility.yul\":6896:6967   */\n      tag_238\n        /* \"#utility.yul\":6964:6965   */\n      0x00\n        /* \"#utility.yul\":6953:6962   */\n      dup4\n        /* \"#utility.yul\":6949:6966   */\n      add\n        /* \"#utility.yul\":6940:6946   */\n      dup5\n        /* \"#utility.yul\":6896:6967   */\n      tag_158\n      jump\t// in\n    tag_238:\n        /* \"#utility.yul\":6752:6974   */\n      swap3\n      swap2\n      pop\n      pop\n      jump\t// out\n        /* \"#utility.yul\":6980:7160   */\n    tag_159:\n        /* \"#utility.yul\":7028:7105   */\n      0x4e487b7100000000000000000000000000000000000000000000000000000000\n        /* \"#utility.yul\":7025:7026   */\n      0x00\n        /* \"#utility.yul\":7018:7106   */\n      mstore\n        /* \"#utility.yul\":7125:7129   */\n      0x11\n        /* \"#utility.yul\":7122:7123   */\n      0x04\n        /* \"#utility.yul\":7115:7130   */\n      mstore\n        /* \"#utility.yul\":7149:7153   */\n      0x24\n        /* \"#utility.yul\":7146:7147   */\n      0x00\n        /* \"#utility.yul\":7139:7154   */\n      revert\n        /* \"#utility.yul\":7166:7357   */\n    tag_130:\n        /* \"#utility.yul\":7206:7209   */\n      0x00\n        /* \"#utility.yul\":7225:7245   */\n      tag_241\n        /* \"#utility.yul\":7243:7244   */\n      dup3\n        /* \"#utility.yul\":7225:7245   */\n      tag_149\n      jump\t// in\n    tag_241:\n        /* \"#utility.yul\":7220:7245   */\n      swap2\n      pop\n        /* \"#utility.yul\":7259:7279   */\n      tag_242\n        /* \"#utility.yul\":7277:7278   */\n      dup4\n        /* \"#utility.yul\":7259:7279   */\n      tag_149\n      jump\t// in\n    tag_242:\n        /* \"#utility.yul\":7254:7279   */\n      swap3\n      pop\n        /* \"#utility.yul\":7302:7303   */\n      dup3\n        /* \"#utility.yul\":7299:7300   */\n      dup3\n        /* \"#utility.yul\":7295:7304   */\n      add\n        /* \"#utility.yul\":7288:7304   */\n      swap1\n      pop\n        /* \"#utility.yul\":7323:7326   */\n      dup1\n        /* \"#utility.yul\":7320:7321   */\n      dup3\n        /* \"#utility.yul\":7317:7327   */\n      gt\n        /* \"#utility.yul\":7314:7350   */\n      iszero\n      tag_243\n      jumpi\n        /* \"#utility.yul\":7330:7348   */\n      tag_244\n      tag_159\n      jump\t// in\n    tag_244:\n        /* \"#utility.yul\":7314:7350   */\n    tag_243:\n        /* \"#utility.yul\":7166:7357   */\n      swap3\n      swap2\n      pop\n      pop\n      jump\t// out\n\n    auxdata: 0xa2646970667358221220f440e2127cc9be5ebdae2034333432b6736bc7090e1d9c13a1177c7f9e85e44d64736f6c63430008160033\n}\n",
				"bytecode": {
					"linkReferences": {},
					"object": "608060405234801562000010575f80fd5b506040518060400160405280600881526020017f54616e6b436f696e0000000000000000000000000000000000000000000000008152506040518060400160405280600381526020017f544b43000000000000000000000000000000000000000000000000000000000081525081600390816200008e919062000601565b508060049081620000a0919062000601565b505050620000e133620000b8620000e760201b60201c565b600a620000c691906200086e565b612710620000d59190620008be565b620000ef60201b60201c565b62000a07565b5f6012905090565b5f73ffffffffffffffffffffffffffffffffffffffff168273ffffffffffffffffffffffffffffffffffffffff160362000162575f6040517fec442f050000000000000000000000000000000000000000000000000000000081526004016200015991906200094b565b60405180910390fd5b620001755f83836200017960201b60201c565b5050565b5f73ffffffffffffffffffffffffffffffffffffffff168373ffffffffffffffffffffffffffffffffffffffff1603620001cd578060025f828254620001c0919062000966565b925050819055506200029e565b5f805f8573ffffffffffffffffffffffffffffffffffffffff1673ffffffffffffffffffffffffffffffffffffffff1681526020019081526020015f205490508181101562000259578381836040517fe450d38c0000000000000000000000000000000000000000000000000000000081526004016200025093929190620009b1565b60405180910390fd5b8181035f808673ffffffffffffffffffffffffffffffffffffffff1673ffffffffffffffffffffffffffffffffffffffff1681526020019081526020015f2081905550505b5f73ffffffffffffffffffffffffffffffffffffffff168273ffffffffffffffffffffffffffffffffffffffff1603620002e7578060025f828254039250508190555062000331565b805f808473ffffffffffffffffffffffffffffffffffffffff1673ffffffffffffffffffffffffffffffffffffffff1681526020019081526020015f205f82825401925050819055505b8173ffffffffffffffffffffffffffffffffffffffff168373ffffffffffffffffffffffffffffffffffffffff167fddf252ad1be2c89b69c2b068fc378daa952ba7f163c4a11628f55a4df523b3ef83604051620003909190620009ec565b60405180910390a3505050565b5f81519050919050565b7f4e487b71000000000000000000000000000000000000000000000000000000005f52604160045260245ffd5b7f4e487b71000000000000000000000000000000000000000000000000000000005f52602260045260245ffd5b5f60028204905060018216806200041957607f821691505b6020821081036200042f576200042e620003d4565b5b50919050565b5f819050815f5260205f209050919050565b5f6020601f8301049050919050565b5f82821b905092915050565b5f60088302620004937fffffffffffffffffffffffffffffffffffffffffffffffffffffffffffffffff8262000456565b6200049f868362000456565b95508019841693508086168417925050509392505050565b5f819050919050565b5f819050919050565b5f620004e9620004e3620004dd84620004b7565b620004c0565b620004b7565b9050919050565b5f819050919050565b6200050483620004c9565b6200051c6200051382620004f0565b84845462000462565b825550505050565b5f90565b6200053262000524565b6200053f818484620004f9565b505050565b5b8181101562000566576200055a5f8262000528565b60018101905062000545565b5050565b601f821115620005b5576200057f8162000435565b6200058a8462000447565b810160208510156200059a578190505b620005b2620005a98562000447565b83018262000544565b50505b505050565b5f82821c905092915050565b5f620005d75f1984600802620005ba565b1980831691505092915050565b5f620005f18383620005c6565b9150826002028217905092915050565b6200060c826200039d565b67ffffffffffffffff811115620006285762000627620003a7565b5b62000634825462000401565b620006418282856200056a565b5f60209050601f83116001811462000677575f841562000662578287015190505b6200066e8582620005e4565b865550620006dd565b601f198416620006878662000435565b5f5b82811015620006b05784890151825560018201915060208501945060208101905062000689565b86831015620006d05784890151620006cc601f891682620005c6565b8355505b6001600288020188555050505b505050505050565b7f4e487b71000000000000000000000000000000000000000000000000000000005f52601160045260245ffd5b5f8160011c9050919050565b5f808291508390505b60018511156200076f57808604811115620007475762000746620006e5565b5b6001851615620007575780820291505b8081029050620007678562000712565b945062000727565b94509492505050565b5f826200078957600190506200085b565b8162000798575f90506200085b565b8160018114620007b15760028114620007bc57620007f2565b60019150506200085b565b60ff841115620007d157620007d0620006e5565b5b8360020a915084821115620007eb57620007ea620006e5565b5b506200085b565b5060208310610133831016604e8410600b84101617156200082c5782820a905083811115620008265762000825620006e5565b5b6200085b565b6200083b84848460016200071e565b92509050818404811115620008555762000854620006e5565b5b81810290505b9392505050565b5f60ff82169050919050565b5f6200087a82620004b7565b9150620008878362000862565b9250620008b67fffffffffffffffffffffffffffffffffffffffffffffffffffffffffffffffff848462000778565b905092915050565b5f620008ca82620004b7565b9150620008d783620004b7565b9250828202620008e781620004b7565b91508282048414831517620009015762000900620006e5565b5b5092915050565b5f73ffffffffffffffffffffffffffffffffffffffff82169050919050565b5f620009338262000908565b9050919050565b620009458162000927565b82525050565b5f602082019050620009605f8301846200093a565b92915050565b5f6200097282620004b7565b91506200097f83620004b7565b92508282019050808211156200099a5762000999620006e5565b5b92915050565b620009ab81620004b7565b82525050565b5f606082019050620009c65f8301866200093a565b620009d56020830185620009a0565b620009e46040830184620009a0565b949350505050565b5f60208201905062000a015f830184620009a0565b92915050565b610ee68062000a155f395ff3fe608060405234801561000f575f80fd5b50600436106100a7575f3560e01c806340c10f191161006f57806340c10f191461016557806370a082311461018157806395d89b41146101b1578063a9059cbb146101cf578063dd62ed3e146101ff578063f584e3971461022f576100a7565b806306fdde03146100ab578063095ea7b3146100c957806318160ddd146100f957806323b872dd14610117578063313ce56714610147575b5f80fd5b6100b361024b565b6040516100c09190610b5f565b60405180910390f35b6100e360048036038101906100de9190610c10565b6102db565b6040516100f09190610c68565b60405180910390f35b6101016102fd565b60405161010e9190610c90565b60405180910390f35b610131600480360381019061012c9190610ca9565b610306565b60405161013e9190610c68565b60405180910390f35b61014f610334565b60405161015c9190610d14565b60405180910390f35b61017f600480360381019061017a9190610c10565b61033c565b005b61019b60048036038101906101969190610d2d565b61034a565b6040516101a89190610c90565b60405180910390f35b6101b961038f565b6040516101c69190610b5f565b60405180910390f35b6101e960048036038101906101e49190610c10565b61041f565b6040516101f69190610c68565b60405180910390f35b61021960048036038101906102149190610d58565b610441565b6040516102269190610c90565b60405180910390f35b61024960048036038101906102449190610ca9565b6104c3565b005b60606003805461025a90610dc3565b80601f016020809104026020016040519081016040528092919081815260200182805461028690610dc3565b80156102d15780601f106102a8576101008083540402835291602001916102d1565b820191905f5260205f20905b8154815290600101906020018083116102b457829003601f168201915b5050505050905090565b5f806102e56104d3565b90506102f28185856104da565b600191505092915050565b5f600254905090565b5f806103106104d3565b905061031d8582856104ec565b61032885858561057e565b60019150509392505050565b5f6012905090565b610346828261066e565b5050565b5f805f8373ffffffffffffffffffffffffffffffffffffffff1673ffffffffffffffffffffffffffffffffffffffff1681526020019081526020015f20549050919050565b60606004805461039e90610dc3565b80601f01602080910402602001604051908101604052809291908181526020018280546103ca90610dc3565b80156104155780601f106103ec57610100808354040283529160200191610415565b820191905f5260205f20905b8154815290600101906020018083116103f857829003601f168201915b5050505050905090565b5f806104296104d3565b905061043681858561057e565b600191505092915050565b5f60015f8473ffffffffffffffffffffffffffffffffffffffff1673ffffffffffffffffffffffffffffffffffffffff1681526020019081526020015f205f8373ffffffffffffffffffffffffffffffffffffffff1673ffffffffffffffffffffffffffffffffffffffff1681526020019081526020015f2054905092915050565b6104ce8383836104da565b505050565b5f33905090565b6104e783838360016106ed565b505050565b5f6104f78484610441565b90507fffffffffffffffffffffffffffffffffffffffffffffffffffffffffffffffff81146105785781811015610569578281836040517ffb8f41b200000000000000000000000000000000000000000000000000000000815260040161056093929190610e02565b60405180910390fd5b61057784848484035f6106ed565b5b50505050565b5f73ffffffffffffffffffffffffffffffffffffffff168373ffffffffffffffffffffffffffffffffffffffff16036105ee575f6040517f96c6fd1e0000000000000000000000000000000000000000000000000000000081526004016105e59190610e37565b60405180910390fd5b5f73ffffffffffffffffffffffffffffffffffffffff168273ffffffffffffffffffffffffffffffffffffffff160361065e575f6040517fec442f050000000000000000000000000000000000000000000000000000000081526004016106559190610e37565b60405180910390fd5b6106698383836108bc565b505050565b5f73ffffffffffffffffffffffffffffffffffffffff168273ffffffffffffffffffffffffffffffffffffffff16036106de575f6040517fec442f050000000000000000000000000000000000000000000000000000000081526004016106d59190610e37565b60405180910390fd5b6106e95f83836108bc565b5050565b5f73ffffffffffffffffffffffffffffffffffffffff168473ffffffffffffffffffffffffffffffffffffffff160361075d575f6040517fe602df050000000000000000000000000000000000000000000000000000000081526004016107549190610e37565b60405180910390fd5b5f73ffffffffffffffffffffffffffffffffffffffff168373ffffffffffffffffffffffffffffffffffffffff16036107cd575f6040517f94280d620000000000000000000000000000000000000000000000000000000081526004016107c49190610e37565b60405180910390fd5b8160015f8673ffffffffffffffffffffffffffffffffffffffff1673ffffffffffffffffffffffffffffffffffffffff1681526020019081526020015f205f8573ffffffffffffffffffffffffffffffffffffffff1673ffffffffffffffffffffffffffffffffffffffff1681526020019081526020015f208190555080156108b6578273ffffffffffffffffffffffffffffffffffffffff168473ffffffffffffffffffffffffffffffffffffffff167f8c5be1e5ebec7d5bd14f71427d1e84f3dd0314c0f7b2291e5b200ac8c7c3b925846040516108ad9190610c90565b60405180910390a35b50505050565b5f73ffffffffffffffffffffffffffffffffffffffff168373ffffffffffffffffffffffffffffffffffffffff160361090c578060025f8282546109009190610e7d565b925050819055506109da565b5f805f8573ffffffffffffffffffffffffffffffffffffffff1673ffffffffffffffffffffffffffffffffffffffff1681526020019081526020015f2054905081811015610995578381836040517fe450d38c00000000000000000000000000000000000000000000000000000000815260040161098c93929190610e02565b60405180910390fd5b8181035f808673ffffffffffffffffffffffffffffffffffffffff1673ffffffffffffffffffffffffffffffffffffffff1681526020019081526020015f2081905550505b5f73ffffffffffffffffffffffffffffffffffffffff168273ffffffffffffffffffffffffffffffffffffffff1603610a21578060025f8282540392505081905550610a6b565b805f808473ffffffffffffffffffffffffffffffffffffffff1673ffffffffffffffffffffffffffffffffffffffff1681526020019081526020015f205f82825401925050819055505b8173ffffffffffffffffffffffffffffffffffffffff168373ffffffffffffffffffffffffffffffffffffffff167fddf252ad1be2c89b69c2b068fc378daa952ba7f163c4a11628f55a4df523b3ef83604051610ac89190610c90565b60405180910390a3505050565b5f81519050919050565b5f82825260208201905092915050565b5f5b83811015610b0c578082015181840152602081019050610af1565b5f8484015250505050565b5f601f19601f8301169050919050565b5f610b3182610ad5565b610b3b8185610adf565b9350610b4b818560208601610aef565b610b5481610b17565b840191505092915050565b5f6020820190508181035f830152610b778184610b27565b905092915050565b5f80fd5b5f73ffffffffffffffffffffffffffffffffffffffff82169050919050565b5f610bac82610b83565b9050919050565b610bbc81610ba2565b8114610bc6575f80fd5b50565b5f81359050610bd781610bb3565b92915050565b5f819050919050565b610bef81610bdd565b8114610bf9575f80fd5b50565b5f81359050610c0a81610be6565b92915050565b5f8060408385031215610c2657610c25610b7f565b5b5f610c3385828601610bc9565b9250506020610c4485828601610bfc565b9150509250929050565b5f8115159050919050565b610c6281610c4e565b82525050565b5f602082019050610c7b5f830184610c59565b92915050565b610c8a81610bdd565b82525050565b5f602082019050610ca35f830184610c81565b92915050565b5f805f60608486031215610cc057610cbf610b7f565b5b5f610ccd86828701610bc9565b9350506020610cde86828701610bc9565b9250506040610cef86828701610bfc565b9150509250925092565b5f60ff82169050919050565b610d0e81610cf9565b82525050565b5f602082019050610d275f830184610d05565b92915050565b5f60208284031215610d4257610d41610b7f565b5b5f610d4f84828501610bc9565b91505092915050565b5f8060408385031215610d6e57610d6d610b7f565b5b5f610d7b85828601610bc9565b9250506020610d8c85828601610bc9565b9150509250929050565b7f4e487b71000000000000000000000000000000000000000000000000000000005f52602260045260245ffd5b5f6002820490506001821680610dda57607f821691505b602082108103610ded57610dec610d96565b5b50919050565b610dfc81610ba2565b82525050565b5f606082019050610e155f830186610df3565b610e226020830185610c81565b610e2f6040830184610c81565b949350505050565b5f602082019050610e4a5f830184610df3565b92915050565b7f4e487b71000000000000000000000000000000000000000000000000000000005f52601160045260245ffd5b5f610e8782610bdd565b9150610e9283610bdd565b9250828201905080821115610eaa57610ea9610e50565b5b9291505056fea2646970667358221220f440e2127cc9be5ebdae2034333432b6736bc7090e1d9c13a1177c7f9e85e44d64736f6c63430008160033",
					"opcodes": "PUSH1 0x80 PUSH1 0x40 MSTORE CALLVALUE DUP1 ISZERO PUSH3 0x10 JUMPI PUSH0 DUP1 REVERT JUMPDEST POP PUSH1 0x40 MLOAD DUP1 PUSH1 0x40 ADD PUSH1 0x40 MSTORE DUP1 PUSH1 0x8 DUP2 MSTORE PUSH1 0x20 ADD PUSH32 0x54616E6B436F696E000000000000000000000000000000000000000000000000 DUP2 MSTORE POP PUSH1 0x40 MLOAD DUP1 PUSH1 0x40 ADD PUSH1 0x40 MSTORE DUP1 PUSH1 0x3 DUP2 MSTORE PUSH1 0x20 ADD PUSH32 0x544B430000000000000000000000000000000000000000000000000000000000 DUP2 MSTORE POP DUP2 PUSH1 0x3 SWAP1 DUP2 PUSH3 0x8E SWAP2 SWAP1 PUSH3 0x601 JUMP JUMPDEST POP DUP1 PUSH1 0x4 SWAP1 DUP2 PUSH3 0xA0 SWAP2 SWAP1 PUSH3 0x601 JUMP JUMPDEST POP POP POP PUSH3 0xE1 CALLER PUSH3 0xB8 PUSH3 0xE7 PUSH1 0x20 SHL PUSH1 0x20 SHR JUMP JUMPDEST PUSH1 0xA PUSH3 0xC6 SWAP2 SWAP1 PUSH3 0x86E JUMP JUMPDEST PUSH2 0x2710 PUSH3 0xD5 SWAP2 SWAP1 PUSH3 0x8BE JUMP JUMPDEST PUSH3 0xEF PUSH1 0x20 SHL PUSH1 0x20 SHR JUMP JUMPDEST PUSH3 0xA07 JUMP JUMPDEST PUSH0 PUSH1 0x12 SWAP1 POP SWAP1 JUMP JUMPDEST PUSH0 PUSH20 0xFFFFFFFFFFFFFFFFFFFFFFFFFFFFFFFFFFFFFFFF AND DUP3 PUSH20 0xFFFFFFFFFFFFFFFFFFFFFFFFFFFFFFFFFFFFFFFF AND SUB PUSH3 0x162 JUMPI PUSH0 PUSH1 0x40 MLOAD PUSH32 0xEC442F0500000000000000000000000000000000000000000000000000000000 DUP2 MSTORE PUSH1 0x4 ADD PUSH3 0x159 SWAP2 SWAP1 PUSH3 0x94B JUMP JUMPDEST PUSH1 0x40 MLOAD DUP1 SWAP2 SUB SWAP1 REVERT JUMPDEST PUSH3 0x175 PUSH0 DUP4 DUP4 PUSH3 0x179 PUSH1 0x20 SHL PUSH1 0x20 SHR JUMP JUMPDEST POP POP JUMP JUMPDEST PUSH0 PUSH20 0xFFFFFFFFFFFFFFFFFFFFFFFFFFFFFFFFFFFFFFFF AND DUP4 PUSH20 0xFFFFFFFFFFFFFFFFFFFFFFFFFFFFFFFFFFFFFFFF AND SUB PUSH3 0x1CD JUMPI DUP1 PUSH1 0x2 PUSH0 DUP3 DUP3 SLOAD PUSH3 0x1C0 SWAP2 SWAP1 PUSH3 0x966 JUMP JUMPDEST SWAP3 POP POP DUP2 SWAP1 SSTORE POP PUSH3 0x29E JUMP JUMPDEST PUSH0 DUP1 PUSH0 DUP6 PUSH20 0xFFFFFFFFFFFFFFFFFFFFFFFFFFFFFFFFFFFFFFFF AND PUSH20 0xFFFFFFFFFFFFFFFFFFFFFFFFFFFFFFFFFFFFFFFF AND DUP2 MSTORE PUSH1 0x20 ADD SWAP1 DUP2 MSTORE PUSH1 0x20 ADD PUSH0 KECCAK256 SLOAD SWAP1 POP DUP2 DUP2 LT ISZERO PUSH3 0x259 JUMPI DUP4 DUP2 DUP4 PUSH1 0x40 MLOAD PUSH32 0xE450D38C00000000000000000000000000000000000000000000000000000000 DUP2 MSTORE PUSH1 0x4 ADD PUSH3 0x250 SWAP4 SWAP3 SWAP2 SWAP1 PUSH3 0x9B1 JUMP JUMPDEST PUSH1 0x40 MLOAD DUP1 SWAP2 SUB SWAP1 REVERT JUMPDEST DUP2 DUP2 SUB PUSH0 DUP1 DUP7 PUSH20 0xFFFFFFFFFFFFFFFFFFFFFFFFFFFFFFFFFFFFFFFF AND PUSH20 0xFFFFFFFFFFFFFFFFFFFFFFFFFFFFFFFFFFFFFFFF AND DUP2 MSTORE PUSH1 0x20 ADD SWAP1 DUP2 MSTORE PUSH1 0x20 ADD PUSH0 KECCAK256 DUP2 SWAP1 SSTORE POP POP JUMPDEST PUSH0 PUSH20 0xFFFFFFFFFFFFFFFFFFFFFFFFFFFFFFFFFFFFFFFF AND DUP3 PUSH20 0xFFFFFFFFFFFFFFFFFFFFFFFFFFFFFFFFFFFFFFFF AND SUB PUSH3 0x2E7 JUMPI DUP1 PUSH1 0x2 PUSH0 DUP3 DUP3 SLOAD SUB SWAP3 POP POP DUP2 SWAP1 SSTORE POP PUSH3 0x331 JUMP JUMPDEST DUP1 PUSH0 DUP1 DUP5 PUSH20 0xFFFFFFFFFFFFFFFFFFFFFFFFFFFFFFFFFFFFFFFF AND PUSH20 0xFFFFFFFFFFFFFFFFFFFFFFFFFFFFFFFFFFFFFFFF AND DUP2 MSTORE PUSH1 0x20 ADD SWAP1 DUP2 MSTORE PUSH1 0x20 ADD PUSH0 KECCAK256 PUSH0 DUP3 DUP3 SLOAD ADD SWAP3 POP POP DUP2 SWAP1 SSTORE POP JUMPDEST DUP2 PUSH20 0xFFFFFFFFFFFFFFFFFFFFFFFFFFFFFFFFFFFFFFFF AND DUP4 PUSH20 0xFFFFFFFFFFFFFFFFFFFFFFFFFFFFFFFFFFFFFFFF AND PUSH32 0xDDF252AD1BE2C89B69C2B068FC378DAA952BA7F163C4A11628F55A4DF523B3EF DUP4 PUSH1 0x40 MLOAD PUSH3 0x390 SWAP2 SWAP1 PUSH3 0x9EC JUMP JUMPDEST PUSH1 0x40 MLOAD DUP1 SWAP2 SUB SWAP1 LOG3 POP POP POP JUMP JUMPDEST PUSH0 DUP2 MLOAD SWAP1 POP SWAP2 SWAP1 POP JUMP JUMPDEST PUSH32 0x4E487B7100000000000000000000000000000000000000000000000000000000 PUSH0 MSTORE PUSH1 0x41 PUSH1 0x4 MSTORE PUSH1 0x24 PUSH0 REVERT JUMPDEST PUSH32 0x4E487B7100000000000000000000000000000000000000000000000000000000 PUSH0 MSTORE PUSH1 0x22 PUSH1 0x4 MSTORE PUSH1 0x24 PUSH0 REVERT JUMPDEST PUSH0 PUSH1 0x2 DUP3 DIV SWAP1 POP PUSH1 0x1 DUP3 AND DUP1 PUSH3 0x419 JUMPI PUSH1 0x7F DUP3 AND SWAP2 POP JUMPDEST PUSH1 0x20 DUP3 LT DUP2 SUB PUSH3 0x42F JUMPI PUSH3 0x42E PUSH3 0x3D4 JUMP JUMPDEST JUMPDEST POP SWAP2 SWAP1 POP JUMP JUMPDEST PUSH0 DUP2 SWAP1 POP DUP2 PUSH0 MSTORE PUSH1 0x20 PUSH0 KECCAK256 SWAP1 POP SWAP2 SWAP1 POP JUMP JUMPDEST PUSH0 PUSH1 0x20 PUSH1 0x1F DUP4 ADD DIV SWAP1 POP SWAP2 SWAP1 POP JUMP JUMPDEST PUSH0 DUP3 DUP3 SHL SWAP1 POP SWAP3 SWAP2 POP POP JUMP JUMPDEST PUSH0 PUSH1 0x8 DUP4 MUL PUSH3 0x493 PUSH32 0xFFFFFFFFFFFFFFFFFFFFFFFFFFFFFFFFFFFFFFFFFFFFFFFFFFFFFFFFFFFFFFFF DUP3 PUSH3 0x456 JUMP JUMPDEST PUSH3 0x49F DUP7 DUP4 PUSH3 0x456 JUMP JUMPDEST SWAP6 POP DUP1 NOT DUP5 AND SWAP4 POP DUP1 DUP7 AND DUP5 OR SWAP3 POP POP POP SWAP4 SWAP3 POP POP POP JUMP JUMPDEST PUSH0 DUP2 SWAP1 POP SWAP2 SWAP1 POP JUMP JUMPDEST PUSH0 DUP2 SWAP1 POP SWAP2 SWAP1 POP JUMP JUMPDEST PUSH0 PUSH3 0x4E9 PUSH3 0x4E3 PUSH3 0x4DD DUP5 PUSH3 0x4B7 JUMP JUMPDEST PUSH3 0x4C0 JUMP JUMPDEST PUSH3 0x4B7 JUMP JUMPDEST SWAP1 POP SWAP2 SWAP1 POP JUMP JUMPDEST PUSH0 DUP2 SWAP1 POP SWAP2 SWAP1 POP JUMP JUMPDEST PUSH3 0x504 DUP4 PUSH3 0x4C9 JUMP JUMPDEST PUSH3 0x51C PUSH3 0x513 DUP3 PUSH3 0x4F0 JUMP JUMPDEST DUP5 DUP5 SLOAD PUSH3 0x462 JUMP JUMPDEST DUP3 SSTORE POP POP POP POP JUMP JUMPDEST PUSH0 SWAP1 JUMP JUMPDEST PUSH3 0x532 PUSH3 0x524 JUMP JUMPDEST PUSH3 0x53F DUP2 DUP5 DUP5 PUSH3 0x4F9 JUMP JUMPDEST POP POP POP JUMP JUMPDEST JUMPDEST DUP2 DUP2 LT ISZERO PUSH3 0x566 JUMPI PUSH3 0x55A PUSH0 DUP3 PUSH3 0x528 JUMP JUMPDEST PUSH1 0x1 DUP2 ADD SWAP1 POP PUSH3 0x545 JUMP JUMPDEST POP POP JUMP JUMPDEST PUSH1 0x1F DUP3 GT ISZERO PUSH3 0x5B5 JUMPI PUSH3 0x57F DUP2 PUSH3 0x435 JUMP JUMPDEST PUSH3 0x58A DUP5 PUSH3 0x447 JUMP JUMPDEST DUP2 ADD PUSH1 0x20 DUP6 LT ISZERO PUSH3 0x59A JUMPI DUP2 SWAP1 POP JUMPDEST PUSH3 0x5B2 PUSH3 0x5A9 DUP6 PUSH3 0x447 JUMP JUMPDEST DUP4 ADD DUP3 PUSH3 0x544 JUMP JUMPDEST POP POP JUMPDEST POP POP POP JUMP JUMPDEST PUSH0 DUP3 DUP3 SHR SWAP1 POP SWAP3 SWAP2 POP POP JUMP JUMPDEST PUSH0 PUSH3 0x5D7 PUSH0 NOT DUP5 PUSH1 0x8 MUL PUSH3 0x5BA JUMP JUMPDEST NOT DUP1 DUP4 AND SWAP2 POP POP SWAP3 SWAP2 POP POP JUMP JUMPDEST PUSH0 PUSH3 0x5F1 DUP4 DUP4 PUSH3 0x5C6 JUMP JUMPDEST SWAP2 POP DUP3 PUSH1 0x2 MUL DUP3 OR SWAP1 POP SWAP3 SWAP2 POP POP JUMP JUMPDEST PUSH3 0x60C DUP3 PUSH3 0x39D JUMP JUMPDEST PUSH8 0xFFFFFFFFFFFFFFFF DUP2 GT ISZERO PUSH3 0x628 JUMPI PUSH3 0x627 PUSH3 0x3A7 JUMP JUMPDEST JUMPDEST PUSH3 0x634 DUP3 SLOAD PUSH3 0x401 JUMP JUMPDEST PUSH3 0x641 DUP3 DUP3 DUP6 PUSH3 0x56A JUMP JUMPDEST PUSH0 PUSH1 0x20 SWAP1 POP PUSH1 0x1F DUP4 GT PUSH1 0x1 DUP2 EQ PUSH3 0x677 JUMPI PUSH0 DUP5 ISZERO PUSH3 0x662 JUMPI DUP3 DUP8 ADD MLOAD SWAP1 POP JUMPDEST PUSH3 0x66E DUP6 DUP3 PUSH3 0x5E4 JUMP JUMPDEST DUP7 SSTORE POP PUSH3 0x6DD JUMP JUMPDEST PUSH1 0x1F NOT DUP5 AND PUSH3 0x687 DUP7 PUSH3 0x435 JUMP JUMPDEST PUSH0 JUMPDEST DUP3 DUP2 LT ISZERO PUSH3 0x6B0 JUMPI DUP5 DUP10 ADD MLOAD DUP3 SSTORE PUSH1 0x1 DUP3 ADD SWAP2 POP PUSH1 0x20 DUP6 ADD SWAP5 POP PUSH1 0x20 DUP2 ADD SWAP1 POP PUSH3 0x689 JUMP JUMPDEST DUP7 DUP4 LT ISZERO PUSH3 0x6D0 JUMPI DUP5 DUP10 ADD MLOAD PUSH3 0x6CC PUSH1 0x1F DUP10 AND DUP3 PUSH3 0x5C6 JUMP JUMPDEST DUP4 SSTORE POP JUMPDEST PUSH1 0x1 PUSH1 0x2 DUP9 MUL ADD DUP9 SSTORE POP POP POP JUMPDEST POP POP POP POP POP POP JUMP JUMPDEST PUSH32 0x4E487B7100000000000000000000000000000000000000000000000000000000 PUSH0 MSTORE PUSH1 0x11 PUSH1 0x4 MSTORE PUSH1 0x24 PUSH0 REVERT JUMPDEST PUSH0 DUP2 PUSH1 0x1 SHR SWAP1 POP SWAP2 SWAP1 POP JUMP JUMPDEST PUSH0 DUP1 DUP3 SWAP2 POP DUP4 SWAP1 POP JUMPDEST PUSH1 0x1 DUP6 GT ISZERO PUSH3 0x76F JUMPI DUP1 DUP7 DIV DUP2 GT ISZERO PUSH3 0x747 JUMPI PUSH3 0x746 PUSH3 0x6E5 JUMP JUMPDEST JUMPDEST PUSH1 0x1 DUP6 AND ISZERO PUSH3 0x757 JUMPI DUP1 DUP3 MUL SWAP2 POP JUMPDEST DUP1 DUP2 MUL SWAP1 POP PUSH3 0x767 DUP6 PUSH3 0x712 JUMP JUMPDEST SWAP5 POP PUSH3 0x727 JUMP JUMPDEST SWAP5 POP SWAP5 SWAP3 POP POP POP JUMP JUMPDEST PUSH0 DUP3 PUSH3 0x789 JUMPI PUSH1 0x1 SWAP1 POP PUSH3 0x85B JUMP JUMPDEST DUP2 PUSH3 0x798 JUMPI PUSH0 SWAP1 POP PUSH3 0x85B JUMP JUMPDEST DUP2 PUSH1 0x1 DUP2 EQ PUSH3 0x7B1 JUMPI PUSH1 0x2 DUP2 EQ PUSH3 0x7BC JUMPI PUSH3 0x7F2 JUMP JUMPDEST PUSH1 0x1 SWAP2 POP POP PUSH3 0x85B JUMP JUMPDEST PUSH1 0xFF DUP5 GT ISZERO PUSH3 0x7D1 JUMPI PUSH3 0x7D0 PUSH3 0x6E5 JUMP JUMPDEST JUMPDEST DUP4 PUSH1 0x2 EXP SWAP2 POP DUP5 DUP3 GT ISZERO PUSH3 0x7EB JUMPI PUSH3 0x7EA PUSH3 0x6E5 JUMP JUMPDEST JUMPDEST POP PUSH3 0x85B JUMP JUMPDEST POP PUSH1 0x20 DUP4 LT PUSH2 0x133 DUP4 LT AND PUSH1 0x4E DUP5 LT PUSH1 0xB DUP5 LT AND OR ISZERO PUSH3 0x82C JUMPI DUP3 DUP3 EXP SWAP1 POP DUP4 DUP2 GT ISZERO PUSH3 0x826 JUMPI PUSH3 0x825 PUSH3 0x6E5 JUMP JUMPDEST JUMPDEST PUSH3 0x85B JUMP JUMPDEST PUSH3 0x83B DUP5 DUP5 DUP5 PUSH1 0x1 PUSH3 0x71E JUMP JUMPDEST SWAP3 POP SWAP1 POP DUP2 DUP5 DIV DUP2 GT ISZERO PUSH3 0x855 JUMPI PUSH3 0x854 PUSH3 0x6E5 JUMP JUMPDEST JUMPDEST DUP2 DUP2 MUL SWAP1 POP JUMPDEST SWAP4 SWAP3 POP POP POP JUMP JUMPDEST PUSH0 PUSH1 0xFF DUP3 AND SWAP1 POP SWAP2 SWAP1 POP JUMP JUMPDEST PUSH0 PUSH3 0x87A DUP3 PUSH3 0x4B7 JUMP JUMPDEST SWAP2 POP PUSH3 0x887 DUP4 PUSH3 0x862 JUMP JUMPDEST SWAP3 POP PUSH3 0x8B6 PUSH32 0xFFFFFFFFFFFFFFFFFFFFFFFFFFFFFFFFFFFFFFFFFFFFFFFFFFFFFFFFFFFFFFFF DUP5 DUP5 PUSH3 0x778 JUMP JUMPDEST SWAP1 POP SWAP3 SWAP2 POP POP JUMP JUMPDEST PUSH0 PUSH3 0x8CA DUP3 PUSH3 0x4B7 JUMP JUMPDEST SWAP2 POP PUSH3 0x8D7 DUP4 PUSH3 0x4B7 JUMP JUMPDEST SWAP3 POP DUP3 DUP3 MUL PUSH3 0x8E7 DUP2 PUSH3 0x4B7 JUMP JUMPDEST SWAP2 POP DUP3 DUP3 DIV DUP5 EQ DUP4 ISZERO OR PUSH3 0x901 JUMPI PUSH3 0x900 PUSH3 0x6E5 JUMP JUMPDEST JUMPDEST POP SWAP3 SWAP2 POP POP JUMP JUMPDEST PUSH0 PUSH20 0xFFFFFFFFFFFFFFFFFFFFFFFFFFFFFFFFFFFFFFFF DUP3 AND SWAP1 POP SWAP2 SWAP1 POP JUMP JUMPDEST PUSH0 PUSH3 0x933 DUP3 PUSH3 0x908 JUMP JUMPDEST SWAP1 POP SWAP2 SWAP1 POP JUMP JUMPDEST PUSH3 0x945 DUP2 PUSH3 0x927 JUMP JUMPDEST DUP3 MSTORE POP POP JUMP JUMPDEST PUSH0 PUSH1 0x20 DUP3 ADD SWAP1 POP PUSH3 0x960 PUSH0 DUP4 ADD DUP5 PUSH3 0x93A JUMP JUMPDEST SWAP3 SWAP2 POP POP JUMP JUMPDEST PUSH0 PUSH3 0x972 DUP3 PUSH3 0x4B7 JUMP JUMPDEST SWAP2 POP PUSH3 0x97F DUP4 PUSH3 0x4B7 JUMP JUMPDEST SWAP3 POP DUP3 DUP3 ADD SWAP1 POP DUP1 DUP3 GT ISZERO PUSH3 0x99A JUMPI PUSH3 0x999 PUSH3 0x6E5 JUMP JUMPDEST JUMPDEST SWAP3 SWAP2 POP POP JUMP JUMPDEST PUSH3 0x9AB DUP2 PUSH3 0x4B7 JUMP JUMPDEST DUP3 MSTORE POP POP JUMP JUMPDEST PUSH0 PUSH1 0x60 DUP3 ADD SWAP1 POP PUSH3 0x9C6 PUSH0 DUP4 ADD DUP7 PUSH3 0x93A JUMP JUMPDEST PUSH3 0x9D5 PUSH1 0x20 DUP4 ADD DUP6 PUSH3 0x9A0 JUMP JUMPDEST PUSH3 0x9E4 PUSH1 0x40 DUP4 ADD DUP5 PUSH3 0x9A0 JUMP JUMPDEST SWAP5 SWAP4 POP POP POP POP JUMP JUMPDEST PUSH0 PUSH1 0x20 DUP3 ADD SWAP1 POP PUSH3 0xA01 PUSH0 DUP4 ADD DUP5 PUSH3 0x9A0 JUMP JUMPDEST SWAP3 SWAP2 POP POP JUMP JUMPDEST PUSH2 0xEE6 DUP1 PUSH3 0xA15 PUSH0 CODECOPY PUSH0 RETURN INVALID PUSH1 0x80 PUSH1 0x40 MSTORE CALLVALUE DUP1 ISZERO PUSH2 0xF JUMPI PUSH0 DUP1 REVERT JUMPDEST POP PUSH1 0x4 CALLDATASIZE LT PUSH2 0xA7 JUMPI PUSH0 CALLDATALOAD PUSH1 0xE0 SHR DUP1 PUSH4 0x40C10F19 GT PUSH2 0x6F JUMPI DUP1 PUSH4 0x40C10F19 EQ PUSH2 0x165 JUMPI DUP1 PUSH4 0x70A08231 EQ PUSH2 0x181 JUMPI DUP1 PUSH4 0x95D89B41 EQ PUSH2 0x1B1 JUMPI DUP1 PUSH4 0xA9059CBB EQ PUSH2 0x1CF JUMPI DUP1 PUSH4 0xDD62ED3E EQ PUSH2 0x1FF JUMPI DUP1 PUSH4 0xF584E397 EQ PUSH2 0x22F JUMPI PUSH2 0xA7 JUMP JUMPDEST DUP1 PUSH4 0x6FDDE03 EQ PUSH2 0xAB JUMPI DUP1 PUSH4 0x95EA7B3 EQ PUSH2 0xC9 JUMPI DUP1 PUSH4 0x18160DDD EQ PUSH2 0xF9 JUMPI DUP1 PUSH4 0x23B872DD EQ PUSH2 0x117 JUMPI DUP1 PUSH4 0x313CE567 EQ PUSH2 0x147 JUMPI JUMPDEST PUSH0 DUP1 REVERT JUMPDEST PUSH2 0xB3 PUSH2 0x24B JUMP JUMPDEST PUSH1 0x40 MLOAD PUSH2 0xC0 SWAP2 SWAP1 PUSH2 0xB5F JUMP JUMPDEST PUSH1 0x40 MLOAD DUP1 SWAP2 SUB SWAP1 RETURN JUMPDEST PUSH2 0xE3 PUSH1 0x4 DUP1 CALLDATASIZE SUB DUP2 ADD SWAP1 PUSH2 0xDE SWAP2 SWAP1 PUSH2 0xC10 JUMP JUMPDEST PUSH2 0x2DB JUMP JUMPDEST PUSH1 0x40 MLOAD PUSH2 0xF0 SWAP2 SWAP1 PUSH2 0xC68 JUMP JUMPDEST PUSH1 0x40 MLOAD DUP1 SWAP2 SUB SWAP1 RETURN JUMPDEST PUSH2 0x101 PUSH2 0x2FD JUMP JUMPDEST PUSH1 0x40 MLOAD PUSH2 0x10E SWAP2 SWAP1 PUSH2 0xC90 JUMP JUMPDEST PUSH1 0x40 MLOAD DUP1 SWAP2 SUB SWAP1 RETURN JUMPDEST PUSH2 0x131 PUSH1 0x4 DUP1 CALLDATASIZE SUB DUP2 ADD SWAP1 PUSH2 0x12C SWAP2 SWAP1 PUSH2 0xCA9 JUMP JUMPDEST PUSH2 0x306 JUMP JUMPDEST PUSH1 0x40 MLOAD PUSH2 0x13E SWAP2 SWAP1 PUSH2 0xC68 JUMP JUMPDEST PUSH1 0x40 MLOAD DUP1 SWAP2 SUB SWAP1 RETURN JUMPDEST PUSH2 0x14F PUSH2 0x334 JUMP JUMPDEST PUSH1 0x40 MLOAD PUSH2 0x15C SWAP2 SWAP1 PUSH2 0xD14 JUMP JUMPDEST PUSH1 0x40 MLOAD DUP1 SWAP2 SUB SWAP1 RETURN JUMPDEST PUSH2 0x17F PUSH1 0x4 DUP1 CALLDATASIZE SUB DUP2 ADD SWAP1 PUSH2 0x17A SWAP2 SWAP1 PUSH2 0xC10 JUMP JUMPDEST PUSH2 0x33C JUMP JUMPDEST STOP JUMPDEST PUSH2 0x19B PUSH1 0x4 DUP1 CALLDATASIZE SUB DUP2 ADD SWAP1 PUSH2 0x196 SWAP2 SWAP1 PUSH2 0xD2D JUMP JUMPDEST PUSH2 0x34A JUMP JUMPDEST PUSH1 0x40 MLOAD PUSH2 0x1A8 SWAP2 SWAP1 PUSH2 0xC90 JUMP JUMPDEST PUSH1 0x40 MLOAD DUP1 SWAP2 SUB SWAP1 RETURN JUMPDEST PUSH2 0x1B9 PUSH2 0x38F JUMP JUMPDEST PUSH1 0x40 MLOAD PUSH2 0x1C6 SWAP2 SWAP1 PUSH2 0xB5F JUMP JUMPDEST PUSH1 0x40 MLOAD DUP1 SWAP2 SUB SWAP1 RETURN JUMPDEST PUSH2 0x1E9 PUSH1 0x4 DUP1 CALLDATASIZE SUB DUP2 ADD SWAP1 PUSH2 0x1E4 SWAP2 SWAP1 PUSH2 0xC10 JUMP JUMPDEST PUSH2 0x41F JUMP JUMPDEST PUSH1 0x40 MLOAD PUSH2 0x1F6 SWAP2 SWAP1 PUSH2 0xC68 JUMP JUMPDEST PUSH1 0x40 MLOAD DUP1 SWAP2 SUB SWAP1 RETURN JUMPDEST PUSH2 0x219 PUSH1 0x4 DUP1 CALLDATASIZE SUB DUP2 ADD SWAP1 PUSH2 0x214 SWAP2 SWAP1 PUSH2 0xD58 JUMP JUMPDEST PUSH2 0x441 JUMP JUMPDEST PUSH1 0x40 MLOAD PUSH2 0x226 SWAP2 SWAP1 PUSH2 0xC90 JUMP JUMPDEST PUSH1 0x40 MLOAD DUP1 SWAP2 SUB SWAP1 RETURN JUMPDEST PUSH2 0x249 PUSH1 0x4 DUP1 CALLDATASIZE SUB DUP2 ADD SWAP1 PUSH2 0x244 SWAP2 SWAP1 PUSH2 0xCA9 JUMP JUMPDEST PUSH2 0x4C3 JUMP JUMPDEST STOP JUMPDEST PUSH1 0x60 PUSH1 0x3 DUP1 SLOAD PUSH2 0x25A SWAP1 PUSH2 0xDC3 JUMP JUMPDEST DUP1 PUSH1 0x1F ADD PUSH1 0x20 DUP1 SWAP2 DIV MUL PUSH1 0x20 ADD PUSH1 0x40 MLOAD SWAP1 DUP2 ADD PUSH1 0x40 MSTORE DUP1 SWAP3 SWAP2 SWAP1 DUP2 DUP2 MSTORE PUSH1 0x20 ADD DUP3 DUP1 SLOAD PUSH2 0x286 SWAP1 PUSH2 0xDC3 JUMP JUMPDEST DUP1 ISZERO PUSH2 0x2D1 JUMPI DUP1 PUSH1 0x1F LT PUSH2 0x2A8 JUMPI PUSH2 0x100 DUP1 DUP4 SLOAD DIV MUL DUP4 MSTORE SWAP2 PUSH1 0x20 ADD SWAP2 PUSH2 0x2D1 JUMP JUMPDEST DUP3 ADD SWAP2 SWAP1 PUSH0 MSTORE PUSH1 0x20 PUSH0 KECCAK256 SWAP1 JUMPDEST DUP2 SLOAD DUP2 MSTORE SWAP1 PUSH1 0x1 ADD SWAP1 PUSH1 0x20 ADD DUP1 DUP4 GT PUSH2 0x2B4 JUMPI DUP3 SWAP1 SUB PUSH1 0x1F AND DUP3 ADD SWAP2 JUMPDEST POP POP POP POP POP SWAP1 POP SWAP1 JUMP JUMPDEST PUSH0 DUP1 PUSH2 0x2E5 PUSH2 0x4D3 JUMP JUMPDEST SWAP1 POP PUSH2 0x2F2 DUP2 DUP6 DUP6 PUSH2 0x4DA JUMP JUMPDEST PUSH1 0x1 SWAP2 POP POP SWAP3 SWAP2 POP POP JUMP JUMPDEST PUSH0 PUSH1 0x2 SLOAD SWAP1 POP SWAP1 JUMP JUMPDEST PUSH0 DUP1 PUSH2 0x310 PUSH2 0x4D3 JUMP JUMPDEST SWAP1 POP PUSH2 0x31D DUP6 DUP3 DUP6 PUSH2 0x4EC JUMP JUMPDEST PUSH2 0x328 DUP6 DUP6 DUP6 PUSH2 0x57E JUMP JUMPDEST PUSH1 0x1 SWAP2 POP POP SWAP4 SWAP3 POP POP POP JUMP JUMPDEST PUSH0 PUSH1 0x12 SWAP1 POP SWAP1 JUMP JUMPDEST PUSH2 0x346 DUP3 DUP3 PUSH2 0x66E JUMP JUMPDEST POP POP JUMP JUMPDEST PUSH0 DUP1 PUSH0 DUP4 PUSH20 0xFFFFFFFFFFFFFFFFFFFFFFFFFFFFFFFFFFFFFFFF AND PUSH20 0xFFFFFFFFFFFFFFFFFFFFFFFFFFFFFFFFFFFFFFFF AND DUP2 MSTORE PUSH1 0x20 ADD SWAP1 DUP2 MSTORE PUSH1 0x20 ADD PUSH0 KECCAK256 SLOAD SWAP1 POP SWAP2 SWAP1 POP JUMP JUMPDEST PUSH1 0x60 PUSH1 0x4 DUP1 SLOAD PUSH2 0x39E SWAP1 PUSH2 0xDC3 JUMP JUMPDEST DUP1 PUSH1 0x1F ADD PUSH1 0x20 DUP1 SWAP2 DIV MUL PUSH1 0x20 ADD PUSH1 0x40 MLOAD SWAP1 DUP2 ADD PUSH1 0x40 MSTORE DUP1 SWAP3 SWAP2 SWAP1 DUP2 DUP2 MSTORE PUSH1 0x20 ADD DUP3 DUP1 SLOAD PUSH2 0x3CA SWAP1 PUSH2 0xDC3 JUMP JUMPDEST DUP1 ISZERO PUSH2 0x415 JUMPI DUP1 PUSH1 0x1F LT PUSH2 0x3EC JUMPI PUSH2 0x100 DUP1 DUP4 SLOAD DIV MUL DUP4 MSTORE SWAP2 PUSH1 0x20 ADD SWAP2 PUSH2 0x415 JUMP JUMPDEST DUP3 ADD SWAP2 SWAP1 PUSH0 MSTORE PUSH1 0x20 PUSH0 KECCAK256 SWAP1 JUMPDEST DUP2 SLOAD DUP2 MSTORE SWAP1 PUSH1 0x1 ADD SWAP1 PUSH1 0x20 ADD DUP1 DUP4 GT PUSH2 0x3F8 JUMPI DUP3 SWAP1 SUB PUSH1 0x1F AND DUP3 ADD SWAP2 JUMPDEST POP POP POP POP POP SWAP1 POP SWAP1 JUMP JUMPDEST PUSH0 DUP1 PUSH2 0x429 PUSH2 0x4D3 JUMP JUMPDEST SWAP1 POP PUSH2 0x436 DUP2 DUP6 DUP6 PUSH2 0x57E JUMP JUMPDEST PUSH1 0x1 SWAP2 POP POP SWAP3 SWAP2 POP POP JUMP JUMPDEST PUSH0 PUSH1 0x1 PUSH0 DUP5 PUSH20 0xFFFFFFFFFFFFFFFFFFFFFFFFFFFFFFFFFFFFFFFF AND PUSH20 0xFFFFFFFFFFFFFFFFFFFFFFFFFFFFFFFFFFFFFFFF AND DUP2 MSTORE PUSH1 0x20 ADD SWAP1 DUP2 MSTORE PUSH1 0x20 ADD PUSH0 KECCAK256 PUSH0 DUP4 PUSH20 0xFFFFFFFFFFFFFFFFFFFFFFFFFFFFFFFFFFFFFFFF AND PUSH20 0xFFFFFFFFFFFFFFFFFFFFFFFFFFFFFFFFFFFFFFFF AND DUP2 MSTORE PUSH1 0x20 ADD SWAP1 DUP2 MSTORE PUSH1 0x20 ADD PUSH0 KECCAK256 SLOAD SWAP1 POP SWAP3 SWAP2 POP POP JUMP JUMPDEST PUSH2 0x4CE DUP4 DUP4 DUP4 PUSH2 0x4DA JUMP JUMPDEST POP POP POP JUMP JUMPDEST PUSH0 CALLER SWAP1 POP SWAP1 JUMP JUMPDEST PUSH2 0x4E7 DUP4 DUP4 DUP4 PUSH1 0x1 PUSH2 0x6ED JUMP JUMPDEST POP POP POP JUMP JUMPDEST PUSH0 PUSH2 0x4F7 DUP5 DUP5 PUSH2 0x441 JUMP JUMPDEST SWAP1 POP PUSH32 0xFFFFFFFFFFFFFFFFFFFFFFFFFFFFFFFFFFFFFFFFFFFFFFFFFFFFFFFFFFFFFFFF DUP2 EQ PUSH2 0x578 JUMPI DUP2 DUP2 LT ISZERO PUSH2 0x569 JUMPI DUP3 DUP2 DUP4 PUSH1 0x40 MLOAD PUSH32 0xFB8F41B200000000000000000000000000000000000000000000000000000000 DUP2 MSTORE PUSH1 0x4 ADD PUSH2 0x560 SWAP4 SWAP3 SWAP2 SWAP1 PUSH2 0xE02 JUMP JUMPDEST PUSH1 0x40 MLOAD DUP1 SWAP2 SUB SWAP1 REVERT JUMPDEST PUSH2 0x577 DUP5 DUP5 DUP5 DUP5 SUB PUSH0 PUSH2 0x6ED JUMP JUMPDEST JUMPDEST POP POP POP POP JUMP JUMPDEST PUSH0 PUSH20 0xFFFFFFFFFFFFFFFFFFFFFFFFFFFFFFFFFFFFFFFF AND DUP4 PUSH20 0xFFFFFFFFFFFFFFFFFFFFFFFFFFFFFFFFFFFFFFFF AND SUB PUSH2 0x5EE JUMPI PUSH0 PUSH1 0x40 MLOAD PUSH32 0x96C6FD1E00000000000000000000000000000000000000000000000000000000 DUP2 MSTORE PUSH1 0x4 ADD PUSH2 0x5E5 SWAP2 SWAP1 PUSH2 0xE37 JUMP JUMPDEST PUSH1 0x40 MLOAD DUP1 SWAP2 SUB SWAP1 REVERT JUMPDEST PUSH0 PUSH20 0xFFFFFFFFFFFFFFFFFFFFFFFFFFFFFFFFFFFFFFFF AND DUP3 PUSH20 0xFFFFFFFFFFFFFFFFFFFFFFFFFFFFFFFFFFFFFFFF AND SUB PUSH2 0x65E JUMPI PUSH0 PUSH1 0x40 MLOAD PUSH32 0xEC442F0500000000000000000000000000000000000000000000000000000000 DUP2 MSTORE PUSH1 0x4 ADD PUSH2 0x655 SWAP2 SWAP1 PUSH2 0xE37 JUMP JUMPDEST PUSH1 0x40 MLOAD DUP1 SWAP2 SUB SWAP1 REVERT JUMPDEST PUSH2 0x669 DUP4 DUP4 DUP4 PUSH2 0x8BC JUMP JUMPDEST POP POP POP JUMP JUMPDEST PUSH0 PUSH20 0xFFFFFFFFFFFFFFFFFFFFFFFFFFFFFFFFFFFFFFFF AND DUP3 PUSH20 0xFFFFFFFFFFFFFFFFFFFFFFFFFFFFFFFFFFFFFFFF AND SUB PUSH2 0x6DE JUMPI PUSH0 PUSH1 0x40 MLOAD PUSH32 0xEC442F0500000000000000000000000000000000000000000000000000000000 DUP2 MSTORE PUSH1 0x4 ADD PUSH2 0x6D5 SWAP2 SWAP1 PUSH2 0xE37 JUMP JUMPDEST PUSH1 0x40 MLOAD DUP1 SWAP2 SUB SWAP1 REVERT JUMPDEST PUSH2 0x6E9 PUSH0 DUP4 DUP4 PUSH2 0x8BC JUMP JUMPDEST POP POP JUMP JUMPDEST PUSH0 PUSH20 0xFFFFFFFFFFFFFFFFFFFFFFFFFFFFFFFFFFFFFFFF AND DUP5 PUSH20 0xFFFFFFFFFFFFFFFFFFFFFFFFFFFFFFFFFFFFFFFF AND SUB PUSH2 0x75D JUMPI PUSH0 PUSH1 0x40 MLOAD PUSH32 0xE602DF0500000000000000000000000000000000000000000000000000000000 DUP2 MSTORE PUSH1 0x4 ADD PUSH2 0x754 SWAP2 SWAP1 PUSH2 0xE37 JUMP JUMPDEST PUSH1 0x40 MLOAD DUP1 SWAP2 SUB SWAP1 REVERT JUMPDEST PUSH0 PUSH20 0xFFFFFFFFFFFFFFFFFFFFFFFFFFFFFFFFFFFFFFFF AND DUP4 PUSH20 0xFFFFFFFFFFFFFFFFFFFFFFFFFFFFFFFFFFFFFFFF AND SUB PUSH2 0x7CD JUMPI PUSH0 PUSH1 0x40 MLOAD PUSH32 0x94280D6200000000000000000000000000000000000000000000000000000000 DUP2 MSTORE PUSH1 0x4 ADD PUSH2 0x7C4 SWAP2 SWAP1 PUSH2 0xE37 JUMP JUMPDEST PUSH1 0x40 MLOAD DUP1 SWAP2 SUB SWAP1 REVERT JUMPDEST DUP2 PUSH1 0x1 PUSH0 DUP7 PUSH20 0xFFFFFFFFFFFFFFFFFFFFFFFFFFFFFFFFFFFFFFFF AND PUSH20 0xFFFFFFFFFFFFFFFFFFFFFFFFFFFFFFFFFFFFFFFF AND DUP2 MSTORE PUSH1 0x20 ADD SWAP1 DUP2 MSTORE PUSH1 0x20 ADD PUSH0 KECCAK256 PUSH0 DUP6 PUSH20 0xFFFFFFFFFFFFFFFFFFFFFFFFFFFFFFFFFFFFFFFF AND PUSH20 0xFFFFFFFFFFFFFFFFFFFFFFFFFFFFFFFFFFFFFFFF AND DUP2 MSTORE PUSH1 0x20 ADD SWAP1 DUP2 MSTORE PUSH1 0x20 ADD PUSH0 KECCAK256 DUP2 SWAP1 SSTORE POP DUP1 ISZERO PUSH2 0x8B6 JUMPI DUP3 PUSH20 0xFFFFFFFFFFFFFFFFFFFFFFFFFFFFFFFFFFFFFFFF AND DUP5 PUSH20 0xFFFFFFFFFFFFFFFFFFFFFFFFFFFFFFFFFFFFFFFF AND PUSH32 0x8C5BE1E5EBEC7D5BD14F71427D1E84F3DD0314C0F7B2291E5B200AC8C7C3B925 DUP5 PUSH1 0x40 MLOAD PUSH2 0x8AD SWAP2 SWAP1 PUSH2 0xC90 JUMP JUMPDEST PUSH1 0x40 MLOAD DUP1 SWAP2 SUB SWAP1 LOG3 JUMPDEST POP POP POP POP JUMP JUMPDEST PUSH0 PUSH20 0xFFFFFFFFFFFFFFFFFFFFFFFFFFFFFFFFFFFFFFFF AND DUP4 PUSH20 0xFFFFFFFFFFFFFFFFFFFFFFFFFFFFFFFFFFFFFFFF AND SUB PUSH2 0x90C JUMPI DUP1 PUSH1 0x2 PUSH0 DUP3 DUP3 SLOAD PUSH2 0x900 SWAP2 SWAP1 PUSH2 0xE7D JUMP JUMPDEST SWAP3 POP POP DUP2 SWAP1 SSTORE POP PUSH2 0x9DA JUMP JUMPDEST PUSH0 DUP1 PUSH0 DUP6 PUSH20 0xFFFFFFFFFFFFFFFFFFFFFFFFFFFFFFFFFFFFFFFF AND PUSH20 0xFFFFFFFFFFFFFFFFFFFFFFFFFFFFFFFFFFFFFFFF AND DUP2 MSTORE PUSH1 0x20 ADD SWAP1 DUP2 MSTORE PUSH1 0x20 ADD PUSH0 KECCAK256 SLOAD SWAP1 POP DUP2 DUP2 LT ISZERO PUSH2 0x995 JUMPI DUP4 DUP2 DUP4 PUSH1 0x40 MLOAD PUSH32 0xE450D38C00000000000000000000000000000000000000000000000000000000 DUP2 MSTORE PUSH1 0x4 ADD PUSH2 0x98C SWAP4 SWAP3 SWAP2 SWAP1 PUSH2 0xE02 JUMP JUMPDEST PUSH1 0x40 MLOAD DUP1 SWAP2 SUB SWAP1 REVERT JUMPDEST DUP2 DUP2 SUB PUSH0 DUP1 DUP7 PUSH20 0xFFFFFFFFFFFFFFFFFFFFFFFFFFFFFFFFFFFFFFFF AND PUSH20 0xFFFFFFFFFFFFFFFFFFFFFFFFFFFFFFFFFFFFFFFF AND DUP2 MSTORE PUSH1 0x20 ADD SWAP1 DUP2 MSTORE PUSH1 0x20 ADD PUSH0 KECCAK256 DUP2 SWAP1 SSTORE POP POP JUMPDEST PUSH0 PUSH20 0xFFFFFFFFFFFFFFFFFFFFFFFFFFFFFFFFFFFFFFFF AND DUP3 PUSH20 0xFFFFFFFFFFFFFFFFFFFFFFFFFFFFFFFFFFFFFFFF AND SUB PUSH2 0xA21 JUMPI DUP1 PUSH1 0x2 PUSH0 DUP3 DUP3 SLOAD SUB SWAP3 POP POP DUP2 SWAP1 SSTORE POP PUSH2 0xA6B JUMP JUMPDEST DUP1 PUSH0 DUP1 DUP5 PUSH20 0xFFFFFFFFFFFFFFFFFFFFFFFFFFFFFFFFFFFFFFFF AND PUSH20 0xFFFFFFFFFFFFFFFFFFFFFFFFFFFFFFFFFFFFFFFF AND DUP2 MSTORE PUSH1 0x20 ADD SWAP1 DUP2 MSTORE PUSH1 0x20 ADD PUSH0 KECCAK256 PUSH0 DUP3 DUP3 SLOAD ADD SWAP3 POP POP DUP2 SWAP1 SSTORE POP JUMPDEST DUP2 PUSH20 0xFFFFFFFFFFFFFFFFFFFFFFFFFFFFFFFFFFFFFFFF AND DUP4 PUSH20 0xFFFFFFFFFFFFFFFFFFFFFFFFFFFFFFFFFFFFFFFF AND PUSH32 0xDDF252AD1BE2C89B69C2B068FC378DAA952BA7F163C4A11628F55A4DF523B3EF DUP4 PUSH1 0x40 MLOAD PUSH2 0xAC8 SWAP2 SWAP1 PUSH2 0xC90 JUMP JUMPDEST PUSH1 0x40 MLOAD DUP1 SWAP2 SUB SWAP1 LOG3 POP POP POP JUMP JUMPDEST PUSH0 DUP2 MLOAD SWAP1 POP SWAP2 SWAP1 POP JUMP JUMPDEST PUSH0 DUP3 DUP3 MSTORE PUSH1 0x20 DUP3 ADD SWAP1 POP SWAP3 SWAP2 POP POP JUMP JUMPDEST PUSH0 JUMPDEST DUP4 DUP2 LT ISZERO PUSH2 0xB0C JUMPI DUP1 DUP3 ADD MLOAD DUP2 DUP5 ADD MSTORE PUSH1 0x20 DUP2 ADD SWAP1 POP PUSH2 0xAF1 JUMP JUMPDEST PUSH0 DUP5 DUP5 ADD MSTORE POP POP POP POP JUMP JUMPDEST PUSH0 PUSH1 0x1F NOT PUSH1 0x1F DUP4 ADD AND SWAP1 POP SWAP2 SWAP1 POP JUMP JUMPDEST PUSH0 PUSH2 0xB31 DUP3 PUSH2 0xAD5 JUMP JUMPDEST PUSH2 0xB3B DUP2 DUP6 PUSH2 0xADF JUMP JUMPDEST SWAP4 POP PUSH2 0xB4B DUP2 DUP6 PUSH1 0x20 DUP7 ADD PUSH2 0xAEF JUMP JUMPDEST PUSH2 0xB54 DUP2 PUSH2 0xB17 JUMP JUMPDEST DUP5 ADD SWAP2 POP POP SWAP3 SWAP2 POP POP JUMP JUMPDEST PUSH0 PUSH1 0x20 DUP3 ADD SWAP1 POP DUP2 DUP2 SUB PUSH0 DUP4 ADD MSTORE PUSH2 0xB77 DUP2 DUP5 PUSH2 0xB27 JUMP JUMPDEST SWAP1 POP SWAP3 SWAP2 POP POP JUMP JUMPDEST PUSH0 DUP1 REVERT JUMPDEST PUSH0 PUSH20 0xFFFFFFFFFFFFFFFFFFFFFFFFFFFFFFFFFFFFFFFF DUP3 AND SWAP1 POP SWAP2 SWAP1 POP JUMP JUMPDEST PUSH0 PUSH2 0xBAC DUP3 PUSH2 0xB83 JUMP JUMPDEST SWAP1 POP SWAP2 SWAP1 POP JUMP JUMPDEST PUSH2 0xBBC DUP2 PUSH2 0xBA2 JUMP JUMPDEST DUP2 EQ PUSH2 0xBC6 JUMPI PUSH0 DUP1 REVERT JUMPDEST POP JUMP JUMPDEST PUSH0 DUP2 CALLDATALOAD SWAP1 POP PUSH2 0xBD7 DUP2 PUSH2 0xBB3 JUMP JUMPDEST SWAP3 SWAP2 POP POP JUMP JUMPDEST PUSH0 DUP2 SWAP1 POP SWAP2 SWAP1 POP JUMP JUMPDEST PUSH2 0xBEF DUP2 PUSH2 0xBDD JUMP JUMPDEST DUP2 EQ PUSH2 0xBF9 JUMPI PUSH0 DUP1 REVERT JUMPDEST POP JUMP JUMPDEST PUSH0 DUP2 CALLDATALOAD SWAP1 POP PUSH2 0xC0A DUP2 PUSH2 0xBE6 JUMP JUMPDEST SWAP3 SWAP2 POP POP JUMP JUMPDEST PUSH0 DUP1 PUSH1 0x40 DUP4 DUP6 SUB SLT ISZERO PUSH2 0xC26 JUMPI PUSH2 0xC25 PUSH2 0xB7F JUMP JUMPDEST JUMPDEST PUSH0 PUSH2 0xC33 DUP6 DUP3 DUP7 ADD PUSH2 0xBC9 JUMP JUMPDEST SWAP3 POP POP PUSH1 0x20 PUSH2 0xC44 DUP6 DUP3 DUP7 ADD PUSH2 0xBFC JUMP JUMPDEST SWAP2 POP POP SWAP3 POP SWAP3 SWAP1 POP JUMP JUMPDEST PUSH0 DUP2 ISZERO ISZERO SWAP1 POP SWAP2 SWAP1 POP JUMP JUMPDEST PUSH2 0xC62 DUP2 PUSH2 0xC4E JUMP JUMPDEST DUP3 MSTORE POP POP JUMP JUMPDEST PUSH0 PUSH1 0x20 DUP3 ADD SWAP1 POP PUSH2 0xC7B PUSH0 DUP4 ADD DUP5 PUSH2 0xC59 JUMP JUMPDEST SWAP3 SWAP2 POP POP JUMP JUMPDEST PUSH2 0xC8A DUP2 PUSH2 0xBDD JUMP JUMPDEST DUP3 MSTORE POP POP JUMP JUMPDEST PUSH0 PUSH1 0x20 DUP3 ADD SWAP1 POP PUSH2 0xCA3 PUSH0 DUP4 ADD DUP5 PUSH2 0xC81 JUMP JUMPDEST SWAP3 SWAP2 POP POP JUMP JUMPDEST PUSH0 DUP1 PUSH0 PUSH1 0x60 DUP5 DUP7 SUB SLT ISZERO PUSH2 0xCC0 JUMPI PUSH2 0xCBF PUSH2 0xB7F JUMP JUMPDEST JUMPDEST PUSH0 PUSH2 0xCCD DUP7 DUP3 DUP8 ADD PUSH2 0xBC9 JUMP JUMPDEST SWAP4 POP POP PUSH1 0x20 PUSH2 0xCDE DUP7 DUP3 DUP8 ADD PUSH2 0xBC9 JUMP JUMPDEST SWAP3 POP POP PUSH1 0x40 PUSH2 0xCEF DUP7 DUP3 DUP8 ADD PUSH2 0xBFC JUMP JUMPDEST SWAP2 POP POP SWAP3 POP SWAP3 POP SWAP3 JUMP JUMPDEST PUSH0 PUSH1 0xFF DUP3 AND SWAP1 POP SWAP2 SWAP1 POP JUMP JUMPDEST PUSH2 0xD0E DUP2 PUSH2 0xCF9 JUMP JUMPDEST DUP3 MSTORE POP POP JUMP JUMPDEST PUSH0 PUSH1 0x20 DUP3 ADD SWAP1 POP PUSH2 0xD27 PUSH0 DUP4 ADD DUP5 PUSH2 0xD05 JUMP JUMPDEST SWAP3 SWAP2 POP POP JUMP JUMPDEST PUSH0 PUSH1 0x20 DUP3 DUP5 SUB SLT ISZERO PUSH2 0xD42 JUMPI PUSH2 0xD41 PUSH2 0xB7F JUMP JUMPDEST JUMPDEST PUSH0 PUSH2 0xD4F DUP5 DUP3 DUP6 ADD PUSH2 0xBC9 JUMP JUMPDEST SWAP2 POP POP SWAP3 SWAP2 POP POP JUMP JUMPDEST PUSH0 DUP1 PUSH1 0x40 DUP4 DUP6 SUB SLT ISZERO PUSH2 0xD6E JUMPI PUSH2 0xD6D PUSH2 0xB7F JUMP JUMPDEST JUMPDEST PUSH0 PUSH2 0xD7B DUP6 DUP3 DUP7 ADD PUSH2 0xBC9 JUMP JUMPDEST SWAP3 POP POP PUSH1 0x20 PUSH2 0xD8C DUP6 DUP3 DUP7 ADD PUSH2 0xBC9 JUMP JUMPDEST SWAP2 POP POP SWAP3 POP SWAP3 SWAP1 POP JUMP JUMPDEST PUSH32 0x4E487B7100000000000000000000000000000000000000000000000000000000 PUSH0 MSTORE PUSH1 0x22 PUSH1 0x4 MSTORE PUSH1 0x24 PUSH0 REVERT JUMPDEST PUSH0 PUSH1 0x2 DUP3 DIV SWAP1 POP PUSH1 0x1 DUP3 AND DUP1 PUSH2 0xDDA JUMPI PUSH1 0x7F DUP3 AND SWAP2 POP JUMPDEST PUSH1 0x20 DUP3 LT DUP2 SUB PUSH2 0xDED JUMPI PUSH2 0xDEC PUSH2 0xD96 JUMP JUMPDEST JUMPDEST POP SWAP2 SWAP1 POP JUMP JUMPDEST PUSH2 0xDFC DUP2 PUSH2 0xBA2 JUMP JUMPDEST DUP3 MSTORE POP POP JUMP JUMPDEST PUSH0 PUSH1 0x60 DUP3 ADD SWAP1 POP PUSH2 0xE15 PUSH0 DUP4 ADD DUP7 PUSH2 0xDF3 JUMP JUMPDEST PUSH2 0xE22 PUSH1 0x20 DUP4 ADD DUP6 PUSH2 0xC81 JUMP JUMPDEST PUSH2 0xE2F PUSH1 0x40 DUP4 ADD DUP5 PUSH2 0xC81 JUMP JUMPDEST SWAP5 SWAP4 POP POP POP POP JUMP JUMPDEST PUSH0 PUSH1 0x20 DUP3 ADD SWAP1 POP PUSH2 0xE4A PUSH0 DUP4 ADD DUP5 PUSH2 0xDF3 JUMP JUMPDEST SWAP3 SWAP2 POP POP JUMP JUMPDEST PUSH32 0x4E487B7100000000000000000000000000000000000000000000000000000000 PUSH0 MSTORE PUSH1 0x11 PUSH1 0x4 MSTORE PUSH1 0x24 PUSH0 REVERT JUMPDEST PUSH0 PUSH2 0xE87 DUP3 PUSH2 0xBDD JUMP JUMPDEST SWAP2 POP PUSH2 0xE92 DUP4 PUSH2 0xBDD JUMP JUMPDEST SWAP3 POP DUP3 DUP3 ADD SWAP1 POP DUP1 DUP3 GT ISZERO PUSH2 0xEAA JUMPI PUSH2 0xEA9 PUSH2 0xE50 JUMP JUMPDEST JUMPDEST SWAP3 SWAP2 POP POP JUMP INVALID LOG2 PUSH5 0x6970667358 0x22 SLT KECCAK256 DELEGATECALL BLOCKHASH 0xE2 SLT PUSH29 0xC9BE5EBDAE2034333432B6736BC7090E1D9C13A1177C7F9E85E44D6473 PUSH16 0x6C634300081600330000000000000000 "
				},
				"gasEstimates": {
					"creation": {
						"codeDepositCost": "762800",
						"executionCost": "infinite",
						"totalCost": "infinite"
					},
					"external": {
						"allowance(address,address)": "infinite",
						"approve(address,uint256)": "infinite",
						"aprobar(address,address,uint256)": "infinite",
						"balanceOf(address)": "2851",
						"decimals()": "427",
						"mint(address,uint256)": "infinite",
						"name()": "infinite",
						"symbol()": "infinite",
						"totalSupply()": "2477",
						"transfer(address,uint256)": "infinite",
						"transferFrom(address,address,uint256)": "infinite"
					}
				},
				"methodIdentifiers": {
					"allowance(address,address)": "dd62ed3e",
					"approve(address,uint256)": "095ea7b3",
					"aprobar(address,address,uint256)": "f584e397",
					"balanceOf(address)": "70a08231",
					"decimals()": "313ce567",
					"mint(address,uint256)": "40c10f19",
					"name()": "06fdde03",
					"symbol()": "95d89b41",
					"totalSupply()": "18160ddd",
					"transfer(address,uint256)": "a9059cbb",
					"transferFrom(address,address,uint256)": "23b872dd"
				}
			},
			"storageLayout": {
				"storage": [
					{
						"astId": 2909,
						"contract": "TankToys/TKC_ERC20_flattened.sol:TankCoin",
						"label": "_balances",
						"offset": 0,
						"slot": "0",
						"type": "t_mapping(t_address,t_uint256)"
					},
					{
						"astId": 2915,
						"contract": "TankToys/TKC_ERC20_flattened.sol:TankCoin",
						"label": "_allowances",
						"offset": 0,
						"slot": "1",
						"type": "t_mapping(t_address,t_mapping(t_address,t_uint256))"
					},
					{
						"astId": 2917,
						"contract": "TankToys/TKC_ERC20_flattened.sol:TankCoin",
						"label": "_totalSupply",
						"offset": 0,
						"slot": "2",
						"type": "t_uint256"
					},
					{
						"astId": 2919,
						"contract": "TankToys/TKC_ERC20_flattened.sol:TankCoin",
						"label": "_name",
						"offset": 0,
						"slot": "3",
						"type": "t_string_storage"
					},
					{
						"astId": 2921,
						"contract": "TankToys/TKC_ERC20_flattened.sol:TankCoin",
						"label": "_symbol",
						"offset": 0,
						"slot": "4",
						"type": "t_string_storage"
					}
				],
				"types": {
					"t_address": {
						"encoding": "inplace",
						"label": "address",
						"numberOfBytes": "20"
					},
					"t_mapping(t_address,t_mapping(t_address,t_uint256))": {
						"encoding": "mapping",
						"key": "t_address",
						"label": "mapping(address => mapping(address => uint256))",
						"numberOfBytes": "32",
						"value": "t_mapping(t_address,t_uint256)"
					},
					"t_mapping(t_address,t_uint256)": {
						"encoding": "mapping",
						"key": "t_address",
						"label": "mapping(address => uint256)",
						"numberOfBytes": "32",
						"value": "t_uint256"
					},
					"t_string_storage": {
						"encoding": "bytes",
						"label": "string",
						"numberOfBytes": "32"
					},
					"t_uint256": {
						"encoding": "inplace",
						"label": "uint256",
						"numberOfBytes": "32"
					}
				}
			},
			"userdoc": {
				"kind": "user",
				"methods": {},
				"version": 1
			}
		}
	}
}