{
	"data": {
		"bytecode": {
			"linkReferences": {},
			"object": "608060405234801562000010575f80fd5b506040516200102f3803806200102f833981810160405281019062000036919062000238565b600233908060018154018082558091505060019003905f5260205f20015f9091909190916101000a81548173ffffffffffffffffffffffffffffffffffffffff021916908373ffffffffffffffffffffffffffffffffffffffff160217905550600273c07921125b826d28453c6d4512bb7e41e0326aa2908060018154018082558091505060019003905f5260205f20015f9091909190916101000a81548173ffffffffffffffffffffffffffffffffffffffff021916908373ffffffffffffffffffffffffffffffffffffffff1602179055508060035f6101000a81548173ffffffffffffffffffffffffffffffffffffffff021916908373ffffffffffffffffffffffffffffffffffffffff1602179055508160045f6101000a81548173ffffffffffffffffffffffffffffffffffffffff021916908373ffffffffffffffffffffffffffffffffffffffff1602179055508260055f6101000a81548173ffffffffffffffffffffffffffffffffffffffff021916908373ffffffffffffffffffffffffffffffffffffffff16021790555050505062000291565b5f80fd5b5f73ffffffffffffffffffffffffffffffffffffffff82169050919050565b5f6200020282620001d7565b9050919050565b6200021481620001f6565b81146200021f575f80fd5b50565b5f81519050620002328162000209565b92915050565b5f805f60608486031215620002525762000251620001d3565b5b5f620002618682870162000222565b9350506020620002748682870162000222565b9250506040620002878682870162000222565b9150509250925092565b610d90806200029f5f395ff3fe608060405234801561000f575f80fd5b5060043610610034575f3560e01c80635378188d146100385780639be1a4a514610054575b5f80fd5b610052600480360381019061004d9190610689565b610070565b005b61006e6004803603810190610069919061084c565b610338565b005b5f805b60028054905081108015610085575081155b15610110573373ffffffffffffffffffffffffffffffffffffffff16600282815481106100b5576100b4610935565b5b905f5260205f20015f9054906101000a900473ffffffffffffffffffffffffffffffffffffffff1673ffffffffffffffffffffffffffffffffffffffff16036100fd57600191505b80806101089061098f565b915050610073565b5080610151576040517f08c379a000000000000000000000000000000000000000000000000000000000815260040161014890610a30565b60405180910390fd5b5f8211610193576040517f08c379a000000000000000000000000000000000000000000000000000000000815260040161018a90610a98565b60405180910390fd5b60035f9054906101000a900473ffffffffffffffffffffffffffffffffffffffff1673ffffffffffffffffffffffffffffffffffffffff1663f584e39760025f815481106101e4576101e3610935565b5b905f5260205f20015f9054906101000a900473ffffffffffffffffffffffffffffffffffffffff1685856040518463ffffffff1660e01b815260040161022c93929190610ad4565b5f604051808303815f87803b158015610243575f80fd5b505af1158015610255573d5f803e3d5ffd5b5050505060035f9054906101000a900473ffffffffffffffffffffffffffffffffffffffff1673ffffffffffffffffffffffffffffffffffffffff166323b872dd8460025f815481106102ab576102aa610935565b5b905f5260205f20015f9054906101000a900473ffffffffffffffffffffffffffffffffffffffff16856040518463ffffffff1660e01b81526004016102f293929190610ad4565b6020604051808303815f875af115801561030e573d5f803e3d5ffd5b505050506040513d601f19601f820116820180604052508101906103329190610b1d565b50505050565b5f805b6002805490508110801561034d575081155b156103d8573373ffffffffffffffffffffffffffffffffffffffff166002828154811061037d5761037c610935565b5b905f5260205f20015f9054906101000a900473ffffffffffffffffffffffffffffffffffffffff1673ffffffffffffffffffffffffffffffffffffffff16036103c557600191505b80806103d09061098f565b91505061033b565b5080610419576040517f08c379a000000000000000000000000000000000000000000000000000000000815260040161041090610a30565b60405180910390fd5b3073ffffffffffffffffffffffffffffffffffffffff16635378188d898b6040518363ffffffff1660e01b8152600401610454929190610b48565b5f604051808303815f87803b15801561046b575f80fd5b505af115801561047d573d5f803e3d5ffd5b5050505060045f9054906101000a900473ffffffffffffffffffffffffffffffffffffffff1673ffffffffffffffffffffffffffffffffffffffff1663e5522963898989898989896040518863ffffffff1660e01b81526004016104e79796959493929190610c35565b5f604051808303815f87803b1580156104fe575f80fd5b505af1158015610510573d5f803e3d5ffd5b5050505060055f9054906101000a900473ffffffffffffffffffffffffffffffffffffffff1673ffffffffffffffffffffffffffffffffffffffff16637a7e4e51898989898989896040518863ffffffff1660e01b815260040161057a9796959493929190610c35565b5f604051808303815f87803b158015610591575f80fd5b505af11580156105a3573d5f803e3d5ffd5b505050507f450dc79dd9fe978d39deee558630a036ad9c2851fa7d981ec1917a1796197710888a6040516105d8929190610d20565b60405180910390a1505050505050505050565b5f604051905090565b5f80fd5b5f80fd5b5f73ffffffffffffffffffffffffffffffffffffffff82169050919050565b5f610625826105fc565b9050919050565b6106358161061b565b811461063f575f80fd5b50565b5f813590506106508161062c565b92915050565b5f819050919050565b61066881610656565b8114610672575f80fd5b50565b5f813590506106838161065f565b92915050565b5f806040838503121561069f5761069e6105f4565b5b5f6106ac85828601610642565b92505060206106bd85828601610675565b9150509250929050565b5f80fd5b5f601f19601f8301169050919050565b7f4e487b71000000000000000000000000000000000000000000000000000000005f52604160045260245ffd5b610711826106cb565b810181811067ffffffffffffffff821117156107305761072f6106db565b5b80604052505050565b5f6107426105eb565b905061074e8282610708565b919050565b5f67ffffffffffffffff82111561076d5761076c6106db565b5b602082029050602081019050919050565b5f80fd5b5f61079461078f84610753565b610739565b905080838252602082019050602084028301858111156107b7576107b661077e565b5b835b818110156107e057806107cc8882610642565b8452602084019350506020810190506107b9565b5050509392505050565b5f82601f8301126107fe576107fd6106c7565b5b813561080e848260208601610782565b91505092915050565b5f8115159050919050565b61082b81610817565b8114610835575f80fd5b50565b5f8135905061084681610822565b92915050565b5f805f805f805f80610100898b031215610869576108686105f4565b5b5f6108768b828c01610675565b98505060206108878b828c01610642565b975050604089013567ffffffffffffffff8111156108a8576108a76105f8565b5b6108b48b828c016107ea565b965050606089013567ffffffffffffffff8111156108d5576108d46105f8565b5b6108e18b828c016107ea565b95505060806108f28b828c01610838565b94505060a06109038b828c01610675565b93505060c06109148b828c01610675565b92505060e06109258b828c01610675565b9150509295985092959890939650565b7f4e487b71000000000000000000000000000000000000000000000000000000005f52603260045260245ffd5b7f4e487b71000000000000000000000000000000000000000000000000000000005f52601160045260245ffd5b5f61099982610656565b91507fffffffffffffffffffffffffffffffffffffffffffffffffffffffffffffffff82036109cb576109ca610962565b5b600182019050919050565b5f82825260208201905092915050565b7f536f727279207374616666206f6e6c79000000000000000000000000000000005f82015250565b5f610a1a6010836109d6565b9150610a25826109e6565b602082019050919050565b5f6020820190508181035f830152610a4781610a0e565b9050919050565b7f4e6f206861732070616761646f206e61646100000000000000000000000000005f82015250565b5f610a826012836109d6565b9150610a8d82610a4e565b602082019050919050565b5f6020820190508181035f830152610aaf81610a76565b9050919050565b610abf8161061b565b82525050565b610ace81610656565b82525050565b5f606082019050610ae75f830186610ab6565b610af46020830185610ab6565b610b016040830184610ac5565b949350505050565b5f81519050610b1781610822565b92915050565b5f60208284031215610b3257610b316105f4565b5b5f610b3f84828501610b09565b91505092915050565b5f604082019050610b5b5f830185610ab6565b610b686020830184610ac5565b9392505050565b5f81519050919050565b5f82825260208201905092915050565b5f819050602082019050919050565b610ba18161061b565b82525050565b5f610bb28383610b98565b60208301905092915050565b5f602082019050919050565b5f610bd482610b6f565b610bde8185610b79565b9350610be983610b89565b805f5b83811015610c19578151610c008882610ba7565b9750610c0b83610bbe565b925050600181019050610bec565b5085935050505092915050565b610c2f81610817565b82525050565b5f60e082019050610c485f83018a610ab6565b8181036020830152610c5a8189610bca565b90508181036040830152610c6e8188610bca565b9050610c7d6060830187610c26565b610c8a6080830186610ac5565b610c9760a0830185610ac5565b610ca460c0830184610ac5565b98975050505050505050565b7f5265636f6d70656e736173206465206c612070617274696461207472616e73665f8201527f6572696461000000000000000000000000000000000000000000000000000000602082015250565b5f610d0a6025836109d6565b9150610d1582610cb0565b604082019050919050565b5f606082019050610d335f830185610ab6565b610d406020830184610ac5565b8181036040830152610d5181610cfe565b9050939250505056fea2646970667358221220fdd886b9a9cd9690c42b8d29e39f8b4e698b6beb0a72c54b8bb39e72fdeafce064736f6c63430008160033",
			"opcodes": "PUSH1 0x80 PUSH1 0x40 MSTORE CALLVALUE DUP1 ISZERO PUSH3 0x10 JUMPI PUSH0 DUP1 REVERT JUMPDEST POP PUSH1 0x40 MLOAD PUSH3 0x102F CODESIZE SUB DUP1 PUSH3 0x102F DUP4 CODECOPY DUP2 DUP2 ADD PUSH1 0x40 MSTORE DUP2 ADD SWAP1 PUSH3 0x36 SWAP2 SWAP1 PUSH3 0x238 JUMP JUMPDEST PUSH1 0x2 CALLER SWAP1 DUP1 PUSH1 0x1 DUP2 SLOAD ADD DUP1 DUP3 SSTORE DUP1 SWAP2 POP POP PUSH1 0x1 SWAP1 SUB SWAP1 PUSH0 MSTORE PUSH1 0x20 PUSH0 KECCAK256 ADD PUSH0 SWAP1 SWAP2 SWAP1 SWAP2 SWAP1 SWAP2 PUSH2 0x100 EXP DUP2 SLOAD DUP2 PUSH20 0xFFFFFFFFFFFFFFFFFFFFFFFFFFFFFFFFFFFFFFFF MUL NOT AND SWAP1 DUP4 PUSH20 0xFFFFFFFFFFFFFFFFFFFFFFFFFFFFFFFFFFFFFFFF AND MUL OR SWAP1 SSTORE POP PUSH1 0x2 PUSH20 0xC07921125B826D28453C6D4512BB7E41E0326AA2 SWAP1 DUP1 PUSH1 0x1 DUP2 SLOAD ADD DUP1 DUP3 SSTORE DUP1 SWAP2 POP POP PUSH1 0x1 SWAP1 SUB SWAP1 PUSH0 MSTORE PUSH1 0x20 PUSH0 KECCAK256 ADD PUSH0 SWAP1 SWAP2 SWAP1 SWAP2 SWAP1 SWAP2 PUSH2 0x100 EXP DUP2 SLOAD DUP2 PUSH20 0xFFFFFFFFFFFFFFFFFFFFFFFFFFFFFFFFFFFFFFFF MUL NOT AND SWAP1 DUP4 PUSH20 0xFFFFFFFFFFFFFFFFFFFFFFFFFFFFFFFFFFFFFFFF AND MUL OR SWAP1 SSTORE POP DUP1 PUSH1 0x3 PUSH0 PUSH2 0x100 EXP DUP2 SLOAD DUP2 PUSH20 0xFFFFFFFFFFFFFFFFFFFFFFFFFFFFFFFFFFFFFFFF MUL NOT AND SWAP1 DUP4 PUSH20 0xFFFFFFFFFFFFFFFFFFFFFFFFFFFFFFFFFFFFFFFF AND MUL OR SWAP1 SSTORE POP DUP2 PUSH1 0x4 PUSH0 PUSH2 0x100 EXP DUP2 SLOAD DUP2 PUSH20 0xFFFFFFFFFFFFFFFFFFFFFFFFFFFFFFFFFFFFFFFF MUL NOT AND SWAP1 DUP4 PUSH20 0xFFFFFFFFFFFFFFFFFFFFFFFFFFFFFFFFFFFFFFFF AND MUL OR SWAP1 SSTORE POP DUP3 PUSH1 0x5 PUSH0 PUSH2 0x100 EXP DUP2 SLOAD DUP2 PUSH20 0xFFFFFFFFFFFFFFFFFFFFFFFFFFFFFFFFFFFFFFFF MUL NOT AND SWAP1 DUP4 PUSH20 0xFFFFFFFFFFFFFFFFFFFFFFFFFFFFFFFFFFFFFFFF AND MUL OR SWAP1 SSTORE POP POP POP POP PUSH3 0x291 JUMP JUMPDEST PUSH0 DUP1 REVERT JUMPDEST PUSH0 PUSH20 0xFFFFFFFFFFFFFFFFFFFFFFFFFFFFFFFFFFFFFFFF DUP3 AND SWAP1 POP SWAP2 SWAP1 POP JUMP JUMPDEST PUSH0 PUSH3 0x202 DUP3 PUSH3 0x1D7 JUMP JUMPDEST SWAP1 POP SWAP2 SWAP1 POP JUMP JUMPDEST PUSH3 0x214 DUP2 PUSH3 0x1F6 JUMP JUMPDEST DUP2 EQ PUSH3 0x21F JUMPI PUSH0 DUP1 REVERT JUMPDEST POP JUMP JUMPDEST PUSH0 DUP2 MLOAD SWAP1 POP PUSH3 0x232 DUP2 PUSH3 0x209 JUMP JUMPDEST SWAP3 SWAP2 POP POP JUMP JUMPDEST PUSH0 DUP1 PUSH0 PUSH1 0x60 DUP5 DUP7 SUB SLT ISZERO PUSH3 0x252 JUMPI PUSH3 0x251 PUSH3 0x1D3 JUMP JUMPDEST JUMPDEST PUSH0 PUSH3 0x261 DUP7 DUP3 DUP8 ADD PUSH3 0x222 JUMP JUMPDEST SWAP4 POP POP PUSH1 0x20 PUSH3 0x274 DUP7 DUP3 DUP8 ADD PUSH3 0x222 JUMP JUMPDEST SWAP3 POP POP PUSH1 0x40 PUSH3 0x287 DUP7 DUP3 DUP8 ADD PUSH3 0x222 JUMP JUMPDEST SWAP2 POP POP SWAP3 POP SWAP3 POP SWAP3 JUMP JUMPDEST PUSH2 0xD90 DUP1 PUSH3 0x29F PUSH0 CODECOPY PUSH0 RETURN INVALID PUSH1 0x80 PUSH1 0x40 MSTORE CALLVALUE DUP1 ISZERO PUSH2 0xF JUMPI PUSH0 DUP1 REVERT JUMPDEST POP PUSH1 0x4 CALLDATASIZE LT PUSH2 0x34 JUMPI PUSH0 CALLDATALOAD PUSH1 0xE0 SHR DUP1 PUSH4 0x5378188D EQ PUSH2 0x38 JUMPI DUP1 PUSH4 0x9BE1A4A5 EQ PUSH2 0x54 JUMPI JUMPDEST PUSH0 DUP1 REVERT JUMPDEST PUSH2 0x52 PUSH1 0x4 DUP1 CALLDATASIZE SUB DUP2 ADD SWAP1 PUSH2 0x4D SWAP2 SWAP1 PUSH2 0x689 JUMP JUMPDEST PUSH2 0x70 JUMP JUMPDEST STOP JUMPDEST PUSH2 0x6E PUSH1 0x4 DUP1 CALLDATASIZE SUB DUP2 ADD SWAP1 PUSH2 0x69 SWAP2 SWAP1 PUSH2 0x84C JUMP JUMPDEST PUSH2 0x338 JUMP JUMPDEST STOP JUMPDEST PUSH0 DUP1 JUMPDEST PUSH1 0x2 DUP1 SLOAD SWAP1 POP DUP2 LT DUP1 ISZERO PUSH2 0x85 JUMPI POP DUP2 ISZERO JUMPDEST ISZERO PUSH2 0x110 JUMPI CALLER PUSH20 0xFFFFFFFFFFFFFFFFFFFFFFFFFFFFFFFFFFFFFFFF AND PUSH1 0x2 DUP3 DUP2 SLOAD DUP2 LT PUSH2 0xB5 JUMPI PUSH2 0xB4 PUSH2 0x935 JUMP JUMPDEST JUMPDEST SWAP1 PUSH0 MSTORE PUSH1 0x20 PUSH0 KECCAK256 ADD PUSH0 SWAP1 SLOAD SWAP1 PUSH2 0x100 EXP SWAP1 DIV PUSH20 0xFFFFFFFFFFFFFFFFFFFFFFFFFFFFFFFFFFFFFFFF AND PUSH20 0xFFFFFFFFFFFFFFFFFFFFFFFFFFFFFFFFFFFFFFFF AND SUB PUSH2 0xFD JUMPI PUSH1 0x1 SWAP2 POP JUMPDEST DUP1 DUP1 PUSH2 0x108 SWAP1 PUSH2 0x98F JUMP JUMPDEST SWAP2 POP POP PUSH2 0x73 JUMP JUMPDEST POP DUP1 PUSH2 0x151 JUMPI PUSH1 0x40 MLOAD PUSH32 0x8C379A000000000000000000000000000000000000000000000000000000000 DUP2 MSTORE PUSH1 0x4 ADD PUSH2 0x148 SWAP1 PUSH2 0xA30 JUMP JUMPDEST PUSH1 0x40 MLOAD DUP1 SWAP2 SUB SWAP1 REVERT JUMPDEST PUSH0 DUP3 GT PUSH2 0x193 JUMPI PUSH1 0x40 MLOAD PUSH32 0x8C379A000000000000000000000000000000000000000000000000000000000 DUP2 MSTORE PUSH1 0x4 ADD PUSH2 0x18A SWAP1 PUSH2 0xA98 JUMP JUMPDEST PUSH1 0x40 MLOAD DUP1 SWAP2 SUB SWAP1 REVERT JUMPDEST PUSH1 0x3 PUSH0 SWAP1 SLOAD SWAP1 PUSH2 0x100 EXP SWAP1 DIV PUSH20 0xFFFFFFFFFFFFFFFFFFFFFFFFFFFFFFFFFFFFFFFF AND PUSH20 0xFFFFFFFFFFFFFFFFFFFFFFFFFFFFFFFFFFFFFFFF AND PUSH4 0xF584E397 PUSH1 0x2 PUSH0 DUP2 SLOAD DUP2 LT PUSH2 0x1E4 JUMPI PUSH2 0x1E3 PUSH2 0x935 JUMP JUMPDEST JUMPDEST SWAP1 PUSH0 MSTORE PUSH1 0x20 PUSH0 KECCAK256 ADD PUSH0 SWAP1 SLOAD SWAP1 PUSH2 0x100 EXP SWAP1 DIV PUSH20 0xFFFFFFFFFFFFFFFFFFFFFFFFFFFFFFFFFFFFFFFF AND DUP6 DUP6 PUSH1 0x40 MLOAD DUP5 PUSH4 0xFFFFFFFF AND PUSH1 0xE0 SHL DUP2 MSTORE PUSH1 0x4 ADD PUSH2 0x22C SWAP4 SWAP3 SWAP2 SWAP1 PUSH2 0xAD4 JUMP JUMPDEST PUSH0 PUSH1 0x40 MLOAD DUP1 DUP4 SUB DUP2 PUSH0 DUP8 DUP1 EXTCODESIZE ISZERO DUP1 ISZERO PUSH2 0x243 JUMPI PUSH0 DUP1 REVERT JUMPDEST POP GAS CALL ISZERO DUP1 ISZERO PUSH2 0x255 JUMPI RETURNDATASIZE PUSH0 DUP1 RETURNDATACOPY RETURNDATASIZE PUSH0 REVERT JUMPDEST POP POP POP POP PUSH1 0x3 PUSH0 SWAP1 SLOAD SWAP1 PUSH2 0x100 EXP SWAP1 DIV PUSH20 0xFFFFFFFFFFFFFFFFFFFFFFFFFFFFFFFFFFFFFFFF AND PUSH20 0xFFFFFFFFFFFFFFFFFFFFFFFFFFFFFFFFFFFFFFFF AND PUSH4 0x23B872DD DUP5 PUSH1 0x2 PUSH0 DUP2 SLOAD DUP2 LT PUSH2 0x2AB JUMPI PUSH2 0x2AA PUSH2 0x935 JUMP JUMPDEST JUMPDEST SWAP1 PUSH0 MSTORE PUSH1 0x20 PUSH0 KECCAK256 ADD PUSH0 SWAP1 SLOAD SWAP1 PUSH2 0x100 EXP SWAP1 DIV PUSH20 0xFFFFFFFFFFFFFFFFFFFFFFFFFFFFFFFFFFFFFFFF AND DUP6 PUSH1 0x40 MLOAD DUP5 PUSH4 0xFFFFFFFF AND PUSH1 0xE0 SHL DUP2 MSTORE PUSH1 0x4 ADD PUSH2 0x2F2 SWAP4 SWAP3 SWAP2 SWAP1 PUSH2 0xAD4 JUMP JUMPDEST PUSH1 0x20 PUSH1 0x40 MLOAD DUP1 DUP4 SUB DUP2 PUSH0 DUP8 GAS CALL ISZERO DUP1 ISZERO PUSH2 0x30E JUMPI RETURNDATASIZE PUSH0 DUP1 RETURNDATACOPY RETURNDATASIZE PUSH0 REVERT JUMPDEST POP POP POP POP PUSH1 0x40 MLOAD RETURNDATASIZE PUSH1 0x1F NOT PUSH1 0x1F DUP3 ADD AND DUP3 ADD DUP1 PUSH1 0x40 MSTORE POP DUP2 ADD SWAP1 PUSH2 0x332 SWAP2 SWAP1 PUSH2 0xB1D JUMP JUMPDEST POP POP POP POP JUMP JUMPDEST PUSH0 DUP1 JUMPDEST PUSH1 0x2 DUP1 SLOAD SWAP1 POP DUP2 LT DUP1 ISZERO PUSH2 0x34D JUMPI POP DUP2 ISZERO JUMPDEST ISZERO PUSH2 0x3D8 JUMPI CALLER PUSH20 0xFFFFFFFFFFFFFFFFFFFFFFFFFFFFFFFFFFFFFFFF AND PUSH1 0x2 DUP3 DUP2 SLOAD DUP2 LT PUSH2 0x37D JUMPI PUSH2 0x37C PUSH2 0x935 JUMP JUMPDEST JUMPDEST SWAP1 PUSH0 MSTORE PUSH1 0x20 PUSH0 KECCAK256 ADD PUSH0 SWAP1 SLOAD SWAP1 PUSH2 0x100 EXP SWAP1 DIV PUSH20 0xFFFFFFFFFFFFFFFFFFFFFFFFFFFFFFFFFFFFFFFF AND PUSH20 0xFFFFFFFFFFFFFFFFFFFFFFFFFFFFFFFFFFFFFFFF AND SUB PUSH2 0x3C5 JUMPI PUSH1 0x1 SWAP2 POP JUMPDEST DUP1 DUP1 PUSH2 0x3D0 SWAP1 PUSH2 0x98F JUMP JUMPDEST SWAP2 POP POP PUSH2 0x33B JUMP JUMPDEST POP DUP1 PUSH2 0x419 JUMPI PUSH1 0x40 MLOAD PUSH32 0x8C379A000000000000000000000000000000000000000000000000000000000 DUP2 MSTORE PUSH1 0x4 ADD PUSH2 0x410 SWAP1 PUSH2 0xA30 JUMP JUMPDEST PUSH1 0x40 MLOAD DUP1 SWAP2 SUB SWAP1 REVERT JUMPDEST ADDRESS PUSH20 0xFFFFFFFFFFFFFFFFFFFFFFFFFFFFFFFFFFFFFFFF AND PUSH4 0x5378188D DUP10 DUP12 PUSH1 0x40 MLOAD DUP4 PUSH4 0xFFFFFFFF AND PUSH1 0xE0 SHL DUP2 MSTORE PUSH1 0x4 ADD PUSH2 0x454 SWAP3 SWAP2 SWAP1 PUSH2 0xB48 JUMP JUMPDEST PUSH0 PUSH1 0x40 MLOAD DUP1 DUP4 SUB DUP2 PUSH0 DUP8 DUP1 EXTCODESIZE ISZERO DUP1 ISZERO PUSH2 0x46B JUMPI PUSH0 DUP1 REVERT JUMPDEST POP GAS CALL ISZERO DUP1 ISZERO PUSH2 0x47D JUMPI RETURNDATASIZE PUSH0 DUP1 RETURNDATACOPY RETURNDATASIZE PUSH0 REVERT JUMPDEST POP POP POP POP PUSH1 0x4 PUSH0 SWAP1 SLOAD SWAP1 PUSH2 0x100 EXP SWAP1 DIV PUSH20 0xFFFFFFFFFFFFFFFFFFFFFFFFFFFFFFFFFFFFFFFF AND PUSH20 0xFFFFFFFFFFFFFFFFFFFFFFFFFFFFFFFFFFFFFFFF AND PUSH4 0xE5522963 DUP10 DUP10 DUP10 DUP10 DUP10 DUP10 DUP10 PUSH1 0x40 MLOAD DUP9 PUSH4 0xFFFFFFFF AND PUSH1 0xE0 SHL DUP2 MSTORE PUSH1 0x4 ADD PUSH2 0x4E7 SWAP8 SWAP7 SWAP6 SWAP5 SWAP4 SWAP3 SWAP2 SWAP1 PUSH2 0xC35 JUMP JUMPDEST PUSH0 PUSH1 0x40 MLOAD DUP1 DUP4 SUB DUP2 PUSH0 DUP8 DUP1 EXTCODESIZE ISZERO DUP1 ISZERO PUSH2 0x4FE JUMPI PUSH0 DUP1 REVERT JUMPDEST POP GAS CALL ISZERO DUP1 ISZERO PUSH2 0x510 JUMPI RETURNDATASIZE PUSH0 DUP1 RETURNDATACOPY RETURNDATASIZE PUSH0 REVERT JUMPDEST POP POP POP POP PUSH1 0x5 PUSH0 SWAP1 SLOAD SWAP1 PUSH2 0x100 EXP SWAP1 DIV PUSH20 0xFFFFFFFFFFFFFFFFFFFFFFFFFFFFFFFFFFFFFFFF AND PUSH20 0xFFFFFFFFFFFFFFFFFFFFFFFFFFFFFFFFFFFFFFFF AND PUSH4 0x7A7E4E51 DUP10 DUP10 DUP10 DUP10 DUP10 DUP10 DUP10 PUSH1 0x40 MLOAD DUP9 PUSH4 0xFFFFFFFF AND PUSH1 0xE0 SHL DUP2 MSTORE PUSH1 0x4 ADD PUSH2 0x57A SWAP8 SWAP7 SWAP6 SWAP5 SWAP4 SWAP3 SWAP2 SWAP1 PUSH2 0xC35 JUMP JUMPDEST PUSH0 PUSH1 0x40 MLOAD DUP1 DUP4 SUB DUP2 PUSH0 DUP8 DUP1 EXTCODESIZE ISZERO DUP1 ISZERO PUSH2 0x591 JUMPI PUSH0 DUP1 REVERT JUMPDEST POP GAS CALL ISZERO DUP1 ISZERO PUSH2 0x5A3 JUMPI RETURNDATASIZE PUSH0 DUP1 RETURNDATACOPY RETURNDATASIZE PUSH0 REVERT JUMPDEST POP POP POP POP PUSH32 0x450DC79DD9FE978D39DEEE558630A036AD9C2851FA7D981EC1917A1796197710 DUP9 DUP11 PUSH1 0x40 MLOAD PUSH2 0x5D8 SWAP3 SWAP2 SWAP1 PUSH2 0xD20 JUMP JUMPDEST PUSH1 0x40 MLOAD DUP1 SWAP2 SUB SWAP1 LOG1 POP POP POP POP POP POP POP POP POP JUMP JUMPDEST PUSH0 PUSH1 0x40 MLOAD SWAP1 POP SWAP1 JUMP JUMPDEST PUSH0 DUP1 REVERT JUMPDEST PUSH0 DUP1 REVERT JUMPDEST PUSH0 PUSH20 0xFFFFFFFFFFFFFFFFFFFFFFFFFFFFFFFFFFFFFFFF DUP3 AND SWAP1 POP SWAP2 SWAP1 POP JUMP JUMPDEST PUSH0 PUSH2 0x625 DUP3 PUSH2 0x5FC JUMP JUMPDEST SWAP1 POP SWAP2 SWAP1 POP JUMP JUMPDEST PUSH2 0x635 DUP2 PUSH2 0x61B JUMP JUMPDEST DUP2 EQ PUSH2 0x63F JUMPI PUSH0 DUP1 REVERT JUMPDEST POP JUMP JUMPDEST PUSH0 DUP2 CALLDATALOAD SWAP1 POP PUSH2 0x650 DUP2 PUSH2 0x62C JUMP JUMPDEST SWAP3 SWAP2 POP POP JUMP JUMPDEST PUSH0 DUP2 SWAP1 POP SWAP2 SWAP1 POP JUMP JUMPDEST PUSH2 0x668 DUP2 PUSH2 0x656 JUMP JUMPDEST DUP2 EQ PUSH2 0x672 JUMPI PUSH0 DUP1 REVERT JUMPDEST POP JUMP JUMPDEST PUSH0 DUP2 CALLDATALOAD SWAP1 POP PUSH2 0x683 DUP2 PUSH2 0x65F JUMP JUMPDEST SWAP3 SWAP2 POP POP JUMP JUMPDEST PUSH0 DUP1 PUSH1 0x40 DUP4 DUP6 SUB SLT ISZERO PUSH2 0x69F JUMPI PUSH2 0x69E PUSH2 0x5F4 JUMP JUMPDEST JUMPDEST PUSH0 PUSH2 0x6AC DUP6 DUP3 DUP7 ADD PUSH2 0x642 JUMP JUMPDEST SWAP3 POP POP PUSH1 0x20 PUSH2 0x6BD DUP6 DUP3 DUP7 ADD PUSH2 0x675 JUMP JUMPDEST SWAP2 POP POP SWAP3 POP SWAP3 SWAP1 POP JUMP JUMPDEST PUSH0 DUP1 REVERT JUMPDEST PUSH0 PUSH1 0x1F NOT PUSH1 0x1F DUP4 ADD AND SWAP1 POP SWAP2 SWAP1 POP JUMP JUMPDEST PUSH32 0x4E487B7100000000000000000000000000000000000000000000000000000000 PUSH0 MSTORE PUSH1 0x41 PUSH1 0x4 MSTORE PUSH1 0x24 PUSH0 REVERT JUMPDEST PUSH2 0x711 DUP3 PUSH2 0x6CB JUMP JUMPDEST DUP2 ADD DUP2 DUP2 LT PUSH8 0xFFFFFFFFFFFFFFFF DUP3 GT OR ISZERO PUSH2 0x730 JUMPI PUSH2 0x72F PUSH2 0x6DB JUMP JUMPDEST JUMPDEST DUP1 PUSH1 0x40 MSTORE POP POP POP JUMP JUMPDEST PUSH0 PUSH2 0x742 PUSH2 0x5EB JUMP JUMPDEST SWAP1 POP PUSH2 0x74E DUP3 DUP3 PUSH2 0x708 JUMP JUMPDEST SWAP2 SWAP1 POP JUMP JUMPDEST PUSH0 PUSH8 0xFFFFFFFFFFFFFFFF DUP3 GT ISZERO PUSH2 0x76D JUMPI PUSH2 0x76C PUSH2 0x6DB JUMP JUMPDEST JUMPDEST PUSH1 0x20 DUP3 MUL SWAP1 POP PUSH1 0x20 DUP2 ADD SWAP1 POP SWAP2 SWAP1 POP JUMP JUMPDEST PUSH0 DUP1 REVERT JUMPDEST PUSH0 PUSH2 0x794 PUSH2 0x78F DUP5 PUSH2 0x753 JUMP JUMPDEST PUSH2 0x739 JUMP JUMPDEST SWAP1 POP DUP1 DUP4 DUP3 MSTORE PUSH1 0x20 DUP3 ADD SWAP1 POP PUSH1 0x20 DUP5 MUL DUP4 ADD DUP6 DUP2 GT ISZERO PUSH2 0x7B7 JUMPI PUSH2 0x7B6 PUSH2 0x77E JUMP JUMPDEST JUMPDEST DUP4 JUMPDEST DUP2 DUP2 LT ISZERO PUSH2 0x7E0 JUMPI DUP1 PUSH2 0x7CC DUP9 DUP3 PUSH2 0x642 JUMP JUMPDEST DUP5 MSTORE PUSH1 0x20 DUP5 ADD SWAP4 POP POP PUSH1 0x20 DUP2 ADD SWAP1 POP PUSH2 0x7B9 JUMP JUMPDEST POP POP POP SWAP4 SWAP3 POP POP POP JUMP JUMPDEST PUSH0 DUP3 PUSH1 0x1F DUP4 ADD SLT PUSH2 0x7FE JUMPI PUSH2 0x7FD PUSH2 0x6C7 JUMP JUMPDEST JUMPDEST DUP2 CALLDATALOAD PUSH2 0x80E DUP5 DUP3 PUSH1 0x20 DUP7 ADD PUSH2 0x782 JUMP JUMPDEST SWAP2 POP POP SWAP3 SWAP2 POP POP JUMP JUMPDEST PUSH0 DUP2 ISZERO ISZERO SWAP1 POP SWAP2 SWAP1 POP JUMP JUMPDEST PUSH2 0x82B DUP2 PUSH2 0x817 JUMP JUMPDEST DUP2 EQ PUSH2 0x835 JUMPI PUSH0 DUP1 REVERT JUMPDEST POP JUMP JUMPDEST PUSH0 DUP2 CALLDATALOAD SWAP1 POP PUSH2 0x846 DUP2 PUSH2 0x822 JUMP JUMPDEST SWAP3 SWAP2 POP POP JUMP JUMPDEST PUSH0 DUP1 PUSH0 DUP1 PUSH0 DUP1 PUSH0 DUP1 PUSH2 0x100 DUP10 DUP12 SUB SLT ISZERO PUSH2 0x869 JUMPI PUSH2 0x868 PUSH2 0x5F4 JUMP JUMPDEST JUMPDEST PUSH0 PUSH2 0x876 DUP12 DUP3 DUP13 ADD PUSH2 0x675 JUMP JUMPDEST SWAP9 POP POP PUSH1 0x20 PUSH2 0x887 DUP12 DUP3 DUP13 ADD PUSH2 0x642 JUMP JUMPDEST SWAP8 POP POP PUSH1 0x40 DUP10 ADD CALLDATALOAD PUSH8 0xFFFFFFFFFFFFFFFF DUP2 GT ISZERO PUSH2 0x8A8 JUMPI PUSH2 0x8A7 PUSH2 0x5F8 JUMP JUMPDEST JUMPDEST PUSH2 0x8B4 DUP12 DUP3 DUP13 ADD PUSH2 0x7EA JUMP JUMPDEST SWAP7 POP POP PUSH1 0x60 DUP10 ADD CALLDATALOAD PUSH8 0xFFFFFFFFFFFFFFFF DUP2 GT ISZERO PUSH2 0x8D5 JUMPI PUSH2 0x8D4 PUSH2 0x5F8 JUMP JUMPDEST JUMPDEST PUSH2 0x8E1 DUP12 DUP3 DUP13 ADD PUSH2 0x7EA JUMP JUMPDEST SWAP6 POP POP PUSH1 0x80 PUSH2 0x8F2 DUP12 DUP3 DUP13 ADD PUSH2 0x838 JUMP JUMPDEST SWAP5 POP POP PUSH1 0xA0 PUSH2 0x903 DUP12 DUP3 DUP13 ADD PUSH2 0x675 JUMP JUMPDEST SWAP4 POP POP PUSH1 0xC0 PUSH2 0x914 DUP12 DUP3 DUP13 ADD PUSH2 0x675 JUMP JUMPDEST SWAP3 POP POP PUSH1 0xE0 PUSH2 0x925 DUP12 DUP3 DUP13 ADD PUSH2 0x675 JUMP JUMPDEST SWAP2 POP POP SWAP3 SWAP6 SWAP9 POP SWAP3 SWAP6 SWAP9 SWAP1 SWAP4 SWAP7 POP JUMP JUMPDEST PUSH32 0x4E487B7100000000000000000000000000000000000000000000000000000000 PUSH0 MSTORE PUSH1 0x32 PUSH1 0x4 MSTORE PUSH1 0x24 PUSH0 REVERT JUMPDEST PUSH32 0x4E487B7100000000000000000000000000000000000000000000000000000000 PUSH0 MSTORE PUSH1 0x11 PUSH1 0x4 MSTORE PUSH1 0x24 PUSH0 REVERT JUMPDEST PUSH0 PUSH2 0x999 DUP3 PUSH2 0x656 JUMP JUMPDEST SWAP2 POP PUSH32 0xFFFFFFFFFFFFFFFFFFFFFFFFFFFFFFFFFFFFFFFFFFFFFFFFFFFFFFFFFFFFFFFF DUP3 SUB PUSH2 0x9CB JUMPI PUSH2 0x9CA PUSH2 0x962 JUMP JUMPDEST JUMPDEST PUSH1 0x1 DUP3 ADD SWAP1 POP SWAP2 SWAP1 POP JUMP JUMPDEST PUSH0 DUP3 DUP3 MSTORE PUSH1 0x20 DUP3 ADD SWAP1 POP SWAP3 SWAP2 POP POP JUMP JUMPDEST PUSH32 0x536F727279207374616666206F6E6C7900000000000000000000000000000000 PUSH0 DUP3 ADD MSTORE POP JUMP JUMPDEST PUSH0 PUSH2 0xA1A PUSH1 0x10 DUP4 PUSH2 0x9D6 JUMP JUMPDEST SWAP2 POP PUSH2 0xA25 DUP3 PUSH2 0x9E6 JUMP JUMPDEST PUSH1 0x20 DUP3 ADD SWAP1 POP SWAP2 SWAP1 POP JUMP JUMPDEST PUSH0 PUSH1 0x20 DUP3 ADD SWAP1 POP DUP2 DUP2 SUB PUSH0 DUP4 ADD MSTORE PUSH2 0xA47 DUP2 PUSH2 0xA0E JUMP JUMPDEST SWAP1 POP SWAP2 SWAP1 POP JUMP JUMPDEST PUSH32 0x4E6F206861732070616761646F206E6164610000000000000000000000000000 PUSH0 DUP3 ADD MSTORE POP JUMP JUMPDEST PUSH0 PUSH2 0xA82 PUSH1 0x12 DUP4 PUSH2 0x9D6 JUMP JUMPDEST SWAP2 POP PUSH2 0xA8D DUP3 PUSH2 0xA4E JUMP JUMPDEST PUSH1 0x20 DUP3 ADD SWAP1 POP SWAP2 SWAP1 POP JUMP JUMPDEST PUSH0 PUSH1 0x20 DUP3 ADD SWAP1 POP DUP2 DUP2 SUB PUSH0 DUP4 ADD MSTORE PUSH2 0xAAF DUP2 PUSH2 0xA76 JUMP JUMPDEST SWAP1 POP SWAP2 SWAP1 POP JUMP JUMPDEST PUSH2 0xABF DUP2 PUSH2 0x61B JUMP JUMPDEST DUP3 MSTORE POP POP JUMP JUMPDEST PUSH2 0xACE DUP2 PUSH2 0x656 JUMP JUMPDEST DUP3 MSTORE POP POP JUMP JUMPDEST PUSH0 PUSH1 0x60 DUP3 ADD SWAP1 POP PUSH2 0xAE7 PUSH0 DUP4 ADD DUP7 PUSH2 0xAB6 JUMP JUMPDEST PUSH2 0xAF4 PUSH1 0x20 DUP4 ADD DUP6 PUSH2 0xAB6 JUMP JUMPDEST PUSH2 0xB01 PUSH1 0x40 DUP4 ADD DUP5 PUSH2 0xAC5 JUMP JUMPDEST SWAP5 SWAP4 POP POP POP POP JUMP JUMPDEST PUSH0 DUP2 MLOAD SWAP1 POP PUSH2 0xB17 DUP2 PUSH2 0x822 JUMP JUMPDEST SWAP3 SWAP2 POP POP JUMP JUMPDEST PUSH0 PUSH1 0x20 DUP3 DUP5 SUB SLT ISZERO PUSH2 0xB32 JUMPI PUSH2 0xB31 PUSH2 0x5F4 JUMP JUMPDEST JUMPDEST PUSH0 PUSH2 0xB3F DUP5 DUP3 DUP6 ADD PUSH2 0xB09 JUMP JUMPDEST SWAP2 POP POP SWAP3 SWAP2 POP POP JUMP JUMPDEST PUSH0 PUSH1 0x40 DUP3 ADD SWAP1 POP PUSH2 0xB5B PUSH0 DUP4 ADD DUP6 PUSH2 0xAB6 JUMP JUMPDEST PUSH2 0xB68 PUSH1 0x20 DUP4 ADD DUP5 PUSH2 0xAC5 JUMP JUMPDEST SWAP4 SWAP3 POP POP POP JUMP JUMPDEST PUSH0 DUP2 MLOAD SWAP1 POP SWAP2 SWAP1 POP JUMP JUMPDEST PUSH0 DUP3 DUP3 MSTORE PUSH1 0x20 DUP3 ADD SWAP1 POP SWAP3 SWAP2 POP POP JUMP JUMPDEST PUSH0 DUP2 SWAP1 POP PUSH1 0x20 DUP3 ADD SWAP1 POP SWAP2 SWAP1 POP JUMP JUMPDEST PUSH2 0xBA1 DUP2 PUSH2 0x61B JUMP JUMPDEST DUP3 MSTORE POP POP JUMP JUMPDEST PUSH0 PUSH2 0xBB2 DUP4 DUP4 PUSH2 0xB98 JUMP JUMPDEST PUSH1 0x20 DUP4 ADD SWAP1 POP SWAP3 SWAP2 POP POP JUMP JUMPDEST PUSH0 PUSH1 0x20 DUP3 ADD SWAP1 POP SWAP2 SWAP1 POP JUMP JUMPDEST PUSH0 PUSH2 0xBD4 DUP3 PUSH2 0xB6F JUMP JUMPDEST PUSH2 0xBDE DUP2 DUP6 PUSH2 0xB79 JUMP JUMPDEST SWAP4 POP PUSH2 0xBE9 DUP4 PUSH2 0xB89 JUMP JUMPDEST DUP1 PUSH0 JUMPDEST DUP4 DUP2 LT ISZERO PUSH2 0xC19 JUMPI DUP2 MLOAD PUSH2 0xC00 DUP9 DUP3 PUSH2 0xBA7 JUMP JUMPDEST SWAP8 POP PUSH2 0xC0B DUP4 PUSH2 0xBBE JUMP JUMPDEST SWAP3 POP POP PUSH1 0x1 DUP2 ADD SWAP1 POP PUSH2 0xBEC JUMP JUMPDEST POP DUP6 SWAP4 POP POP POP POP SWAP3 SWAP2 POP POP JUMP JUMPDEST PUSH2 0xC2F DUP2 PUSH2 0x817 JUMP JUMPDEST DUP3 MSTORE POP POP JUMP JUMPDEST PUSH0 PUSH1 0xE0 DUP3 ADD SWAP1 POP PUSH2 0xC48 PUSH0 DUP4 ADD DUP11 PUSH2 0xAB6 JUMP JUMPDEST DUP2 DUP2 SUB PUSH1 0x20 DUP4 ADD MSTORE PUSH2 0xC5A DUP2 DUP10 PUSH2 0xBCA JUMP JUMPDEST SWAP1 POP DUP2 DUP2 SUB PUSH1 0x40 DUP4 ADD MSTORE PUSH2 0xC6E DUP2 DUP9 PUSH2 0xBCA JUMP JUMPDEST SWAP1 POP PUSH2 0xC7D PUSH1 0x60 DUP4 ADD DUP8 PUSH2 0xC26 JUMP JUMPDEST PUSH2 0xC8A PUSH1 0x80 DUP4 ADD DUP7 PUSH2 0xAC5 JUMP JUMPDEST PUSH2 0xC97 PUSH1 0xA0 DUP4 ADD DUP6 PUSH2 0xAC5 JUMP JUMPDEST PUSH2 0xCA4 PUSH1 0xC0 DUP4 ADD DUP5 PUSH2 0xAC5 JUMP JUMPDEST SWAP9 SWAP8 POP POP POP POP POP POP POP POP JUMP JUMPDEST PUSH32 0x5265636F6D70656E736173206465206C612070617274696461207472616E7366 PUSH0 DUP3 ADD MSTORE PUSH32 0x6572696461000000000000000000000000000000000000000000000000000000 PUSH1 0x20 DUP3 ADD MSTORE POP JUMP JUMPDEST PUSH0 PUSH2 0xD0A PUSH1 0x25 DUP4 PUSH2 0x9D6 JUMP JUMPDEST SWAP2 POP PUSH2 0xD15 DUP3 PUSH2 0xCB0 JUMP JUMPDEST PUSH1 0x40 DUP3 ADD SWAP1 POP SWAP2 SWAP1 POP JUMP JUMPDEST PUSH0 PUSH1 0x60 DUP3 ADD SWAP1 POP PUSH2 0xD33 PUSH0 DUP4 ADD DUP6 PUSH2 0xAB6 JUMP JUMPDEST PUSH2 0xD40 PUSH1 0x20 DUP4 ADD DUP5 PUSH2 0xAC5 JUMP JUMPDEST DUP2 DUP2 SUB PUSH1 0x40 DUP4 ADD MSTORE PUSH2 0xD51 DUP2 PUSH2 0xCFE JUMP JUMPDEST SWAP1 POP SWAP4 SWAP3 POP POP POP JUMP INVALID LOG2 PUSH5 0x6970667358 0x22 SLT KECCAK256 REVERT 0xD8 DUP7 0xB9 0xA9 0xCD SWAP7 SWAP1 0xC4 0x2B DUP14 0x29 0xE3 SWAP16 DUP12 0x4E PUSH10 0x8B6BEB0A72C54B8BB39E PUSH19 0xFDEAFCE064736F6C6343000816003300000000 "
		},
		"gasEstimates": {
			"creation": {
				"codeDepositCost": "694400",
				"executionCost": "infinite",
				"totalCost": "infinite"
			},
			"external": {
				"afterMatchRewards(uint256,address,address[],address[],bool,uint256,uint256,uint256)": "infinite",
				"paySomething(address,uint256)": "infinite"
			}
		},
		"methodIdentifiers": {
			"afterMatchRewards(uint256,address,address[],address[],bool,uint256,uint256,uint256)": "9be1a4a5",
			"paySomething(address,uint256)": "5378188d"
		}
	},
	"abi": [
		{
			"inputs": [
				{
					"internalType": "address",
					"name": "_partidas",
					"type": "address"
				},
				{
					"internalType": "address",
					"name": "_usuarios",
					"type": "address"
				},
				{
					"internalType": "address",
					"name": "_tkc",
					"type": "address"
				}
			],
			"stateMutability": "nonpayable",
			"type": "constructor"
		},
		{
			"anonymous": false,
			"inputs": [
				{
					"indexed": false,
					"internalType": "address",
					"name": "player",
					"type": "address"
				},
				{
					"indexed": false,
					"internalType": "uint256",
					"name": "nCoins",
					"type": "uint256"
				},
				{
					"indexed": false,
					"internalType": "string",
					"name": "message",
					"type": "string"
				}
			],
			"name": "rewardsClaimed",
			"type": "event"
		},
		{
			"inputs": [
				{
					"internalType": "uint256",
					"name": "nCoins",
					"type": "uint256"
				},
				{
					"internalType": "address",
					"name": "direction",
					"type": "address"
				},
				{
					"internalType": "address[]",
					"name": "players",
					"type": "address[]"
				},
				{
					"internalType": "address[]",
					"name": "winners",
					"type": "address[]"
				},
				{
					"internalType": "bool",
					"name": "win",
					"type": "bool"
				},
				{
					"internalType": "uint256",
					"name": "kills",
					"type": "uint256"
				},
				{
					"internalType": "uint256",
					"name": "deaths",
					"type": "uint256"
				},
				{
					"internalType": "uint256",
					"name": "assist",
					"type": "uint256"
				}
			],
			"name": "afterMatchRewards",
			"outputs": [],
			"stateMutability": "nonpayable",
			"type": "function"
		},
		{
			"inputs": [
				{
					"internalType": "address",
					"name": "player",
					"type": "address"
				},
				{
					"internalType": "uint256",
					"name": "nCoins",
					"type": "uint256"
				}
			],
			"name": "paySomething",
			"outputs": [],
			"stateMutability": "nonpayable",
			"type": "function"
		}
	]
}